:020000040800F2
:10000000446B012015A50008315D00082D5D000836
:10001000295D0008255D0008215D00080000000042
:100020000000000000000000000000001D5D00084E
:10003000195D000800000000155D0008495B00081C
:10004000316C0008316C0008316C0008316C00081C
:10005000316C0008316C0008316C0008D95C000874
:10006000316C0008316C0008316C0008B1B4000834
:10007000316C0008316C0008316C0008316C0008EC
:10008000316C0008316C0008316C0008316C0008DC
:10009000316C0008316C0008316C0008316C0008CC
:1000A000316C0008316C0008316C0008316C0008BC
:1000B0008D5C0008316C0008316C0008316C000860
:1000C000316C0008316C0008316C0008316C00089C
:1000D000316C0008316C0008316C0008316C00088C
:1000E000316C0008316C0008316C0008316C00087C
:1000F000316C0008316C0008316C000809B500084B
:10010000316C0008316C0008316C00084D5C00084F
:10011000316C0008316C0008316C0008316C00084B
:10012000316C0008316C0008316C0008316C00083B
:10013000316C0008316C0008316C0008316C00082B
:10014000316C0008316C0008316C0008A5B400085F
:10015000316C0008316C0008316C0008316C00080B
:10016000316C0008316C0008316C0008316C0008FB
:10017000316C0008316C0008316C0008316C0008EB
:10018000316C0008316C00082DE980480020A5B0D2
:1001900006F076FA012006F073FAD84C022006F039
:1001A0006FFA032006F06CFA236BD54843F0010385
:1001B000236324AB626C0193019D42F480420123CE
:1001C000626445F8403D0195019900258DF8545031
:1001D0008DF8575006F0F4F9CA4ACB4B1268A3FBCE
:1001E00002825209013AB2F1807F80F00185C74B4B
:1001F000C7495A60F020072281F823009D601A60E9
:10020000626BC44B42F0400262631A6842F004021F
:100210001A605968BF4AC907FBD59068BE4EDFF81F
:1002200054A3DFF85493BD4CDFEDBD8ADFEDBD9ADA
:100230009FEDBD9A0DF068FBBC49BD4ABD4BC6F8A9
:1002400040A043F2C82EC1F800E0BB491160002570
:1002500000274FF07E58B94A1A60B1EE008A4FF07D
:10026000804B06F13800C6F82C80C6F8308086F83E
:10027000347086F8357086F8367086F8377086EDFB
:100280000E8AC6F83CB0B56505F0DEFF06F16400E5
:1002900086ED198AC6F868B0C6F86CA0C6F8845016
:1002A00005F0D2FF06F1900086ED248AC6F894B0DE
:1002B000C6F898A0C6F8B05005F0C6FF9FEDA00A9A
:1002C000A04BC9F820300BF0A3F907EE100AF8EEA6
:1002D000C77AB6EE008A67EE887A9B4B9B4AC9F8CC
:1002E0002400FCEEE77A04202421C9F8287089F85C
:1002F0002C70C9ED0C7A9F72DF721F735F739F734E
:100300001F70187259725A6005F0EAFF41F2B06E20
:100310004FF001098E4A06F80E9041F6B03E8D4826
:1003200002F80E9004F6D42EC6F8C000CEF80050A5
:1003300002F5B86E884BCEF8000004F6BC20874961
:10034000016004F6CC209FED867AC3F80CA002F27F
:10035000C45C1F625F62C3ED008A9D611D6183ED15
:10036000028AC3ED018A04F6C4238CED008ADFED16
:100370007D7A016002F2BC5C04F52C61DFF8FCB10F
:1003800081ED007ADFF8F8E18CED008A04F52D614B
:10039000DFF8F0C1C3F800B040F27753C2F8C835B7
:1003A000DFF8E4A1C1ED007A02F2CC5039464FF4F7
:1003B000AF52CCF800A0CEF800A0C6F8C83086ED49
:1003C000318A86ED2F8A0DF055FA39464FF4AF5237
:1003D00004F6EC2706F1CC000DF04CFA04F52F6082
:1003E0003D6004F6F827056004F60C303D6004F526
:1003F0003167056004F618303D6004F62837056063
:1004000004F638303D6004F53367056004F6343097
:100410003D6004F64837C0F8008004F658303D606F
:1004200004F53567056004F654303D6004F6E827AE
:10043000C0F80080DFF854B1C7F800B004F6083007
:1004400084F8DC9A84F8FC9A04F6F42704F614394C
:10045000C0F800B0DFF838A1C9F800A004F52E609C
:10046000C7F800A004F6E4294FF0785704F5306A85
:1004700007603D49CAF8007004F60430C9F800105E
:1004800004F61C3A04F63C39384B016004F65C3142
:10049000CAF80030C9F8003004F5346004F6243A94
:1004A00004F64439DFF8ECC0DFF8ECE0304A0B60CA
:1004B0004FF07A5104F532670360CAF8002004F562
:1004C000366004F6683AC9F80020CCF8001004F64B
:1004D000643904F6783CCEF8001004F674313B60C1
:1004E00004F5376E0360C9F80020CAF80050CCF854
:1004F0000050C1F8008004F67C304FE00038024024
:100500000000024064000020D34D621010E000E0C3
:1005100000ED00E00008065000000010F02100107F
:100520006F12833A00000030BF9F7A3FDC17002033
:10053000A80A0020D00A00209C240020BCEF002044
:1005400000A00C460000A043B80A0020C4D900084F
:10055000F8100010CDCC4CBE6812002000004842BC
:10056000AE47E13D8FC2F53DA913D43ECDCC4C3F03
:1005700000C012440AD7233CD40A0020DB0FC93F35
:10058000A42C0010AC160010000070436666663F95
:10059000CDCCCC3EC80A0020B00A002004F5386A51
:1005A00004F6843904F6883C04F539610360CAF81E
:1005B0000030C9F80020CEF80050CCF800500D6093
:1005C00004F6983E04F6943004F69C3A04F53A6337
:1005D00004F6A83904F6B83204F53B6C04F6BC31D5
:1005E000C0F80080CEF80050CAF800501D60C9F86D
:1005F00000501560CCF8005004F6B43E04F53C60A1
:1006000004F6C43A04F6C83304F6D83904F53D625A
:1006100004F6D43C0D6004F53E61CEF80080CCF8C1
:10062000008004F6DC3E0560CAF8005004F6E430B1
:1006300004F6E83A1D60C9F8005004F6F83304F5F2
:100640003F69156004F6A43C04F6F4320D6004F62C
:10065000FC31DFF818B4C2F80080CEF80050056015
:10066000CAF8005004F5406004F6044E1D6004F61C
:10067000084AC9F8005004F5416204F61849CCF85C
:1006800000B004F542630D6004F6144C04F61C41FE
:100690003746C6F80480CCF8008047F8088B056020
:1006A000CEF80050CAF80050C9F8005015601D601F
:1006B0000D6004F6244406F12C080DF02DF907EE28
:1006C000100AF8EEC77AB0EE687A67EEA97A44F8B5
:1006D000045BA7EE897ADFF898E34FF00009A7ECF6
:1006E000017AF0EE477A96ED007A77EE877A474501
:1006F000C6ED007AE1D1B7EE008AC8EE277ACC4B7E
:10070000DFF870B3C3F8109000244FF0010803F134
:10071000240021464FF4A462C3F82090C3F80CB023
:1007200083F84885C3F84445DFF824A383ED018AA4
:10073000CEED007A0DF09EF8BE4BBF4EC3F80CB064
:10074000214603F130004FF4A462C3F81490C3F8BB
:100750001090C3F82C9083F8588583ED018AC3F874
:1007600050450DF087F8B54BB54DC3F80CB04FF4BC
:10077000A462214603F12C00C3F81490C3F8109032
:10078000C3F8289083ED018A83F85485C3F84C455B
:100790000DF070F8DAF83030AA480199AA4F43F00A
:1007A0000803CAF830304FF002094FF0100B8DF8F3
:1007B00054808DF856408DF85740CDF850B08DF8E4
:1007C000559005F0FDFEDAF83030019943F007034B
:1007D000CAF8303030464FF4107314938DF85490AB
:1007E0008DF855908DF856808DF8574005F0E8FE4D
:1007F000336A019923F070633362336A43F0806394
:100800003362736A23F0F0037362736A43F0400348
:10081000736228464FF4A05314938DF854908DF8CA
:1008200055908DF856408DF8574005F0C9FE874821
:10083000036A23F470230362036A43F4C023036250
:100840006B6A23F470636B626B6A43F4C0636B6220
:100850003B684B4500F0CD810199CDF850B005F0D3
:10086000AFFE6B6A23F470236B626B6A43F4C023A0
:100870006B62734C019902220023802520468DF87B
:1008800054208DF855208DF856308DF8573014953A
:1008900005F096FE236A6B4A23F070432362236AB5
:1008A000102143F0C043236244F6FF735183013BA0
:1008B000FDD1644B664C10221A83236C43F4001361
:1008C0002364236A43F4001323624FF4001005F0FD
:1008D0006FFE604B1A8892B242F001021A809A8829
:1008E000A36822F03F0203F00C031204042B4FEA2A
:1008F000124201F0A985082B41F0A3856368616865
:1009000013F4800F18BF5448636808BF534801F0C0
:100910003F01B0FBF1F1C3F3881301FB03F34C4932
:100920004C68C4F3014401346400B3FBF4F4484858
:100930004B498568DFF840C1464B4A4EC5F3031E5C
:1009400044F2330511F80E80D0F808E0CEF3822E81
:1009500024FA08F411F80E80D0F808E024FA08F41C
:10096000ACFB0480CEF3423E800C024311F80E1023
:100970009A801A88A109A6FB01C1890922F0010207
:1009800003294FEA024298BF04210130120C1A8059
:10099000188499831A8892B242F001021A801A8848
:1009A00022F4816222F002021204120C42F48062EC
:1009B0001A8001211D81022008F076FBAF21044638
:1009C000042008F071FB284BAF220444812105204C
:1009D0001A7008F069FB04210444062008F064FB47
:1009E000CB210444202008F05FFB2120CB2108F01C
:1009F0005BFB3B68022B41D10121082008F054FB2E
:100A000001210546092008F04FFBC02105440E20B6
:100A100008F04AFB2C4400210444142008F044FB55
:100A200000210444152008F03FFB044426E000BFE9
:100A3000901200200C0B0020000402405005002002
:100A400000080240000C02400400002000000240A8
:100A5000003802400054004000127A000024F400E4
:100A60000C000020632D3E05AC0A00200000B040C1
:100A7000000000100000DC4383DE1B439E210220A7
:100A800008F012FB002104440A2008F00DFB3B682B
:100A9000022B044404D00E20042108F005FB04447A
:100AA0000021272008F000FB0F2104441F2008F03C
:100AB000FBFA0A2126181A2008F0F6FA554C0A21EA
:100AC00006441B2008F0F0FA236C43F4004323642F
:100AD000236A43F40043236206444FF4004005F0C8
:100AE00067FD4D4A938B23F47B6323F00F031B04B4
:100AF0001B0C022193831184918BA3681B0289B282
:100B000003D5A36823F40003A360424B434CD3F8FE
:100B10008450D3F884E05B684148424A03F03F03C5
:100B2000B4FBF3F4C5F38815CEF3027305FB04F4AC
:100B3000B4FBF3F31B0A03EB83035B00A0FB03E3AB
:100B40009B0A0533A2FB0302D2085308981E02F049
:100B50000102120280B292B2FD289CBF42F40072E0
:100B60001A432D4B88BF40F2022241F420611A84BF
:100B700099833B68022B11D1264A2B4B116C41F013
:100B8000005111641A68169922F47F6222F00E0255
:100B90000A431A601A6842F001021A60002E00F03F
:100BA000B383224C0DF14808214D2248224A39686E
:100BB000A2604FF4C86303602846236105F0B2FCCD
:100BC0002B6843F001032B60134B9A8B570504D419
:100BD0009A8B92B242F480629A83184B184C194A4D
:100BE0001949116000251D602369DE072ED4FEE738
:100BF000FEE7DAF83030019943F00103CAF83030EB
:100C00000323CDF850B08DF857408DF8543005F0DF
:100C1000D7FC2EE600380240003C004000127A006B
:100C2000F1197605CDCCCCCC0074004060240020B6
:100C3000B860024008000020E017002000000020FB
:100C400000000240DC04002060240020DB4EDC4B6E
:100C500001991D70336BDFF8A0B343F001033363D8
:100C60004FF4D0524FF003090223204614928DF81E
:100C700055908DF854308DF856508DF8575005F03A
:100C80009FFC636A019923F0F0036362636A43F097
:100C9000A0036362636A23F470436362636A43F48C
:100CA00020436362636A23F470236362636A43F4DC
:100CB00020230127636220464FF480638DF855900E
:100CC00014938DF856708DF8577005F079FC626AB0
:100CD000BC4BBD49DFF81C9322F470626262626A09
:100CE00042F420626262726C42F480427264726BFF
:100CF0004FF0006442F08002726340469C601C2208
:100D0000D9608DF848208DF84A708DF84B708DF8B9
:100D1000495005F001FD336C3B433364284605F030
:100D2000D7FC9BF804308BF803704022072B8BF81C
:100D300000508BF801508BF802508BF81C708BF828
:100D400020508BF821708BF8062007D803F53173FB
:100D500009EB43039A88C2F30E029A809BF8053090
:100D6000072B07D803F5317309EB43039A88C2F3C5
:100D70000E029A809549964CCBF864100023082106
:100D8000C9F81033CBF86840C9F81433C9F85033A8
:100D900089F88C33C9F81833C9F8543389F88D337E
:100DA000C9F81C33C9F8583389F88E33C9F8203391
:100DB000C9F85C3389F88F33C9F82433C9F8603334
:100DC00089F89033C9F82833C9F8643389F8913326
:100DD000C9F82C33C9F8683389F89233C9F830332D
:100DE000C9F86C3389F89333C9F83433C9F87033D0
:100DF00089F89433C9F83833C9F8743389F89533CE
:100E0000C9F83C33A9F8B21389F800104021A9F8B9
:100E10000410042189F801104FF4A071DFF8DC817F
:100E2000DFF8DCC1A9F8061002214FF0A0426948A2
:100E300089F808106849DFF8CCE1684F684E694DC1
:100E4000C9F81080012408F55878C9F818C0ACF525
:100E5000A06CC9F87833C9F80C2089F8963389F862
:100E60000330C9F84033C9F854E0C9F87C33C9F8F5
:100E70001C7089F89733C9F85860C9F84433C9F829
:100E80002050C9F88033C9F85C0089F89833C9F854
:100E90002410C9F84833C9F86080C9F88433A0F534
:100EA000E06089F89933A1F58C61C9F84C3389F871
:100EB0000240C9F8883389F80B4089F89A33C9F899
:100EC00014C09368C9F8CC00C9F89010A8F5C86898
:100ED0000CF5A07CAEF5B46EA7F56877A6F5B06604
:100EE000A5F5607500F5D07001F53061C9F8948002
:100EF000C9F898C0C9F89CE0C9F8A070C9F8A46006
:100F0000C9F8A850C9F8AC00C9F8D0100CF52B5C92
:100F1000DFF8F4E03448354E354DC9F8D8C0A1F5B6
:100F2000007123F0010308F5D7584FF05027C9F896
:100F3000DCE0C9F80C11C9F8D480C9F8E070C9F830
:100F4000E460C9F8E850C9F8EC009360D36843F056
:100F50004003D36005F020FA99F80920D9F80C3045
:100F6000002A0CBF4FF434124FF474129A632146D6
:100F7000142004F0FFFF99F80320D9F80C30A242A6
:100F800006D19A68052161F3440242F020029A607A
:100F9000DA68184D6FF39E7242F000520121DA6058
:100FA000322004F0E7FF284605F092FBD9F80C3117
:100FB00000241C6099F80830012B27E0003802401B
:100FC0007800002000ED00E00005FA056800002030
:100FD0001C000020400B0050600900502009005008
:100FE000200B00504009005000800050006000506D
:100FF00000700050985D0120E004002000080050BF
:1010000000090050000B0050004000506B69214D5A
:101010001A6816BF012164F3010261F301021A602C
:10102000284604F01FFFD9F814301A686FF38202C3
:101030001A6099F80B30012B264600F0CB81EB6843
:1010400000221192119A144942F020021192119A31
:10105000102060F38A121192119A1A611A69119282
:1010600003E01A691192013902D0119A9406F8D45A
:101070000221032004F07EFF00231293129AD9F874
:101080000C30054942F010021292129A1A611A6944
:10109000129207E0985D0120400D03001A69129238
:1010A000013902D0129AD006F8D40320022104F0AC
:1010B00061FF99F80030B948002B5BD0D0F8904020
:1010C0004FF0FF310022012BA160E26052D9D0F82D
:1010D0009440022BA160E2604CD9D0F89840032BD9
:1010E000A160E26046D9D0F89C40042BA160E26088
:1010F00040D9D0F8A040052BA160E2603AD9D0F8E1
:10110000A440062BA160E26034D9D0F8A840072B98
:10111000A160E2602ED9D0F8AC40082BA160E2605B
:1011200028D9D0F8B000092B8160C26022D9D9F843
:10113000B4409A48A1600A2BE2601BD9D0F8B840AD
:101140000B2BA160E26015D9D0F8BC400C2BA1603C
:10115000E2600FD9D0F8C0400D2BA160E26009D940
:10116000D0F8C4400E2BA160E26003D9D0F8C8309B
:101170009960DA608A4BD9F8CC2001215983136831
:101180006FF382036FF341036FF3C3036FF34513F0
:10119000D90402D443F480531360C820012104F021
:1011A000E9FEDBF8682099F80310D9F80C301068D4
:1011B0007C4C7D4F7D4EDFF814A2002291429A6153
:1011C0004FF0FF3108BF10226FF08045596142F0A7
:1011D0000C5259605D619C61996942F4001242F0C1
:1011E00008020A439A619A6842F001029A608047B5
:1011F0006F4B704ADA600124432301988DF8503018
:101200008DF851408DF852408DF8534005F084FA26
:101210001722022301988DF850208DF852308DF856
:1012200051408DF8534005F077FA02238DF8433092
:10123000D9F810234FF00008002A48D19BF800206D
:101240005D49002A40F0E185D9F81033002B40F0C9
:1012500028864FF08043012131601A8822F0010274
:101260001204120C1A809A8922F001021204120C44
:101270009A811A8822F45C721204120C1A8042F6C7
:10128000DF644FF6FE720520DC62188599821A82AF
:101290001A8892B242F080021A809A8992B20A4366
:1012A0009A811A8892B20A431A803368002BFCD1C3
:1012B0004FF08042138823F001031B041B0C1380A2
:1012C00002238DF84330D9F81023002AB6D09BF8BA
:1012D00000300A2BBDD801A151F823F049120008B3
:1012E000BB140008111E00085312000879140008EE
:1012F0009B140008451400081B140008F51300088F
:101300005312000853160008D7F80080B8F1010FF7
:1013100001F0BA80294C11AE3B68012B01F0978097
:10132000274B28481A6B42F4001242F001021A635C
:101330001A6C0DF1480842F000521A640325414628
:101340001022002312928DF84F308DF84C5005F08A
:1013500037F91D4B169A1968DFF874E021F47F61A4
:1013600021F00E010A431A601A6842F001021A6065
:10137000BEF804309BB243F08003AEF80430332251
:10138000012330468DF845508DF846508DF84420A5
:101390008DF8473005F0C0F906E400BF985D0120E4
:1013A0000008024000080080A85E0120080B002011
:1013B00000ED00E00006FA05E004002060240020B3
:1013C0000038024000000240007400406810002015
:1013D000003C00402122A121EB6862F30F0461F37D
:1013E0000F06C0F28004C0F280065A629C62C3F805
:1013F000006125E6DBF86830C64C9B6B98470128F6
:101400007FF427AF636EC4481B68214698470028C5
:101410007FF41FAF052323701BE79BF81C308BF86C
:101420001280013B0A2B3FF614AFDFE813F0630490
:1014300050042D0418049F048304CF04FA03C90345
:10144000B803EA03DBF86430B24CB348DB682146EA
:1014500098478DF843009DF84330DBB21A1FD2B293
:10146000012A40F25A85062B7FF4F3AEA36E0A22BE
:101470001B6822709847ECE69BF80230092B3FF678
:10148000E8AEDFE813F02803BB02F901A10149022D
:10149000190272014D0124011C01DBF864309D4CDE
:1014A0009B689D48214698478DF843009DF843303E
:1014B000002BD0D106232370CBE6DBF86830954CA7
:1014C0009B689847B9F98C25934B002A80F2568582
:1014D000B3F98E25002A80F24E85B3F99025002AB3
:1014E00080F24685B3F99225002A80F22885B3F967
:1014F0009425002A80F26D85B3F99625002A80F2A2
:101500006585B3F99825002A80F25D85B3F99A358F
:10151000002B80F25585FF236371B9F98E257E4B30
:10152000002A80F24785B3F99025002A80F23F8592
:10153000B3F99225002A80F23785B3F99425002A61
:1015400080F23B85B3F99625002A80F29085B3F9A5
:101550009825002A80F28885B3F99A35002BB8BF08
:10156000FF2380F28B856C488BF8043004F07AFC02
:10157000DBF86830DB689847D9F8CC20DBF86830B6
:101580001068C0F341408BF82100042200F00300F2
:101590009B698BF8002098479BF804109BF821204A
:1015A00009EB410009EB4113B0F88C4583F8B18396
:1015B00004F07F0501F11E00C4F3C01483F8AE43AC
:1015C00009EB40109BF8204083F8AC439BF80640A1
:1015D00083F8AD53A3F8B24383F8AF2303F56A73DE
:1015E00080F8048080F805800AB901221A724A48FE
:1015F00005F0CCF89BF805109BF8212009EB410081
:1016000009EB4113B0F88C4583F8B18304F07F05F2
:1016100001F11E00C4F3C01483F8AE4309EB40107F
:101620009BF8204083F8AC439BF8064083F8AD5309
:10163000A3F8B24383F8AF2303F56A7380F80480FC
:1016400080F805800AB901221A72334805F09EF825
:10165000FFE59BF804208BF8008001238BF8033012
:101660008BF81C308BF82130072A4FF040038BF8A1
:1016700001808BF802808BF820808BF8063007D829
:1016800002F5317309EB43039A88C2F30E029A8084
:101690009BF80530072B07D803F5317309EB43039B
:1016A0009A88C2F30E029A80DBF868305B6898472C
:1016B000DBF8643018485B6818499847C9E5DBF8DF
:1016C00068305B6B984708238BF80030C1E59BF8C6
:1016D00003209BF83930ABF816300921012A8BF82A
:1016E0001480ABF81880ABF81A808BF81510094BF2
:1016F00000F08D84022A7FF4ACAD1A7F0D2A00F031
:1017000001850B3AD2B2012A3FF6A3AD0122DA706D
:101710009FE500BFE0040020985D01200005002047
:101720009BF83220AE4C002A00F08B8442F44072C9
:10173000E378E282802106222175627540F2094138
:10174000FF22012B2183628300F0EE83022B7FF4C2
:1017500080AD237F0D2B00F0FF850B3BDBB2012B0F
:101760003FF677AD0123E37073E59BF831209C4C85
:10177000002A00F0448442F44072E378E28280213F
:1017800006222175627540F20941FF22012B218357
:10179000628300F0C983022B7FF45BAD237F0D2BA6
:1017A000DBD199F8112184F81C800123032AE3700E
:1017B0008C4B00F02286DBF868300198DB6A984792
:1017C00007238BF8023044E59BF80320ABF8188020
:1017D00080214FF4007306208BF81410012A4FF07B
:1017E0000901ABF816308BF81500ABF81A107C4BDA
:1017F00000F0F283022A7FF42CAD1A7F0D2A80D1EB
:1018000099F8131199F812018AF8020000EB0120EF
:1018100099F81021D88699F811018AF803108AF8EE
:10182000002099F8141183F834208AF8010099F8FF
:10183000152183F8350099F816018AF8041001245F
:1018400083F838108AF8052099F8171183F83920A1
:101850008AF8060099F8182183F83A00042083F8E2
:101860001C80DC708AF8071083F83B108AF8082087
:1018700083F83C209870ECE49BF803108BF81480FC
:10188000012005248142ABF81880ABF81A808BF850
:101890001540ABF81600524A00F0C68302297FF4C7
:1018A000D8AC137F0D2B00F03F840B3BDBB2012B38
:1018B0003FF6CFACD070CCE49BF83020484C002AE7
:1018C00000F0958342F44072E378E28280210622A0
:1018D0002175627540F20941FF22012B2183628349
:1018E00000F02283022B7FF4B4AC237F0D2B7FF416
:1018F00034AF99F8112184F81C800123032AE37086
:10190000384B00F05985DBF8683001989B6A98479E
:1019100006238BF802309CE49BF80320BBF836408A
:10192000ABF81880802306218BF81430012A4FF47D
:101930000073ABF81630ABF81A408BF81510284B33
:1019400000F09883022A7FF484AC1A7F0D2A7FF47A
:10195000D8AE012283F81C80DA7024B122482349D2
:1019600022460BF0EDFE99F8132199F8101199F821
:1019700012318BF8341099F8111199F815018BF880
:10198000351003EB022399F8161199F814218BF8FE
:1019900039009BB299F817018BF83A10092C99F885
:1019A0001811ABF836308BF838208BF83B008BF8E9
:1019B0003C1008D9012A40F215840D4B0D4CA3F8B8
:1019C000008084F800800C48DBF8683000F10A01E0
:1019D0005B6A00F11402984705238BF8023038E463
:1019E000E0040020985D012068100020A85E01201E
:1019F000CC0A0020B40A0020140500209BF80350F4
:101A0000ABF81880802306214FF480728BF81430D5
:101A1000012D4FF012038BF81510ABF81620ABF820
:101A20001A30CE4C00F01583022D7FF412AC237FC8
:101A30000D2B7FF492AE99F8122199F8183199F88C
:101A4000131199F8190184F81C8002EB012103EBB2
:101A5000002099F81B2199F81A31A18403EB022385
:101A600099F81D1199F81C21A38502EB012199F821
:101A70001031E185012299F81111E27084F82230C9
:101A800099F8142199F8153184F8231084F8262048
:101A900099F8161199F8172184F8273099F81E3112
:101AA00084F8281084F8292099F81F1199F820212A
:101AB00084F8303099F82131608584F8311084F849
:101AC000322084F83330A36E04F12200DB6998479A
:101AD000A570FFF7BEBB9BF80330ABF818808022DF
:101AE00006204FF480718BF81420012B4FF0080270
:101AF0008BF81500ABF81610ABF81A20974C00F0D5
:101B00001382022B7FF4A5AB237F0D2B7FF425AE30
:101B100099F8130199F8123199F8101199F81121D7
:101B200084F8221003EB0023A38499F8143199F868
:101B3000151184F8232084F8263099F8162199F895
:101B4000173184F82710012584F8282084F82930DB
:101B50008348A37184F81C80E57004F083F96179EF
:101B6000A379A57009EB411202F56A725089984277
:101B700001D003B153817A4804F008FE9BF80410A9
:101B80009BF8063009EB411202F56A7250899842BF
:101B90003FF45BAD002B3FF458AD538155E59BF806
:101BA00005306E4A4B4493F89B33DBB2012B00F0B7
:101BB0008D82022B00F09382032B7FF44AAB5EE010
:101BC0009BF8050009EB000100F1150209EB401339
:101BD00009EB421281F89B830125022183F8AE8331
:101BE000C2F81881C3F8BC8383F8C55382F8141176
:101BF000C3F8C08304F0FCFB0A238BF81C30FFF70A
:101C000028BB9BF80E20554B0132D2B2022A8BF82A
:101C10000E2040F23F8208215A7899741A70FFF71B
:101C200018BB9BF804204D4B4D494A4492F89B2326
:101C3000D2B2012A00F04A82032A20D04969494DD4
:101C40008C68188A2988A4B2201A884217D8042AD6
:101C50007FF4FFAA59789A741970FFF7FABA9BF8C3
:101C600004303E4A4B4493F89B33DBB2012B00F027
:101C70008881042B00F00582032B40F084810B2324
:101C80008BF81C30FFF7E5BA9BF80400DBF808205E
:101C900009EB401300F1150109EB4111012483F810
:101CA000AE43022481F81441C1F8182109EB000465
:101CB000BBF80C20C3F8C083C3F8BC2384F89B8313
:101CC00004F096FB04238BF81C30FFF7C2BA9BF894
:101CD0000520224B4A4492F89B23D2B2012A00F0FD
:101CE000DD81032A7FF4B5AA0B21052219779A74A6
:101CF000FFF7AFBA9BF805001B4D00F1150209EB89
:101D0000401309EB4212032483F8AE8309EB000170
:101D1000C2F8185182F814410822C3F8C083C3F8EE
:101D2000BC2381F89B8304F063FB02238BF81C30F7
:101D3000FFF78FBA9BF80530084A4B4493F89B3362
:101D4000DBB2012B00F0CF81042B00F09A81022B33
:101D50007FF432AF05231377FFF77BBAE00400204E
:101D6000985D01204C050020F40400209BF805003C
:101D7000BBF80C4002944FEA401E00F1150300F13D
:101D80001E0209EB0E0509EB431C09EB4212DBF8BE
:101D900008400121517185F8AE83CCF81841029CAE
:101DA000C5F8BC4309EB431309EB0E0409EB000231
:101DB000022183F81411C4F8C08382F89B8304F0D5
:101DC00017FB06238BF81C30FFF743BA9BF804007F
:101DD00009EB401300F1150209EB4212012483F8CC
:101DE000AE4309EB00010224C2F8188182F81441C5
:101DF000C3F8BC83C3F8C08381F89B8304F0F8FA6E
:101E000008238BF81C30FFF724BA9A4200D00B70DD
:101E1000DBF868301B6998479BF804208BF800803A
:101E200001238BF803308BF81C308BF82130072A04
:101E30004FF040038BF801808BF802808BF82080F4
:101E40008BF8063007D802F5317309EB43039A8803
:101E5000C2F30E029A809BF80530072B07D803F5D2
:101E6000317309EB43039A88C2F30E029A80DBF8C0
:101E700068305B689847DBF86430A6485B68A64921
:101E80009847A9F89085A9F89285A9F89485A9F8AA
:101E90009685A9F89885A9F89A858BF80080FFF7B0
:101EA000D8B94FF08043642232601A8822F00102D0
:101EB00012040121120C8BF800101A809A8922F06A
:101EC00001021204120C9A811A8822F45C72120424
:101ED000120C1A8042F6DF644FF6FE720520DC62B7
:101EE000188599821A821A8892B242F080021A806A
:101EF0009A8992B20A439A811A8892B20A431A8046
:101F00003368002BFCD14FF08042138823F001038B
:101F10001B041B0C1380FFF79CB9A36E5B6C9847E6
:101F20000A232370FFF795B90421A28123770722A2
:101F30000223A76061702270E370FFF78AB9032360
:101F40001A4609EB42024FF40041A2F88C15B9F889
:101F50008C258BF8053013043FF5DFAA00231A46C1
:101F600009EB420248F28001A2F88C15FFF7FBBA98
:101F700002231A46E5E701231A46E2E700231A4640
:101F8000DFE709231377D9F81430BBF810109868ED
:101F9000624B80B21A88624B411A91427FF659A96E
:101FA0000B221A77FFF755B903231A46D8E7022305
:101FB0001A46D5E701231A46D2E704231A46CFE78B
:101FC00007231A46BDE706231A46BAE705231A4631
:101FD000B7E704231A46B4E704209F6099810721DC
:101FE0001A77022258701970DA70FFF732B9A36EAF
:101FF0004C489B6A98470623A370FFF72AB9A36E43
:102000004848DB6A98470723A370FFF722B90420EA
:102010001A7707210222C3F80880A3F80C805870B1
:102020001970DA70FFF715B904231177537007217F
:102030000223C2F80880A2F80C801170D370FFF759
:1020400008B9A36E37481B6B98470823A370FFF7A6
:1020500000B90421A38107220223A76025776170BC
:102060002270E370FFF7F5B806231A4678E70523D8
:102070001A4675E704209F609C81B0E707231A4643
:102080006EE79BF801308BF800300C238BF81C3086
:10209000FFF7DFB801221A77FFF7DBB81A7D598BFB
:1020A00022F07F02D2B211B3DFF870C041F2883162
:1020B000ACF80010002A40F04C8105221A77D9F8BC
:1020C00014309B68ABF81030FFF7C3B89BF80130B1
:1020D0008BF800300D238BF81C30FFF7BAB80923BA
:1020E0001377FFF7B6B807231377FFF7B2B8DFF817
:1020F0002CE03221AEF80010002A40F09F81072228
:102100001A77DCE7012283F81C809970DA70FFF7F8
:10211000A0B800BF985D0120000500204C050020FC
:10212000E004002008DA00084FF08043316019888D
:10213000D07021F001010904090C1980998982F8F5
:102140001C8021F001021204120C9A811A8822F4D8
:102150005C721204120C1A8042F6DF614FF6FE72B6
:10216000D9621C8598821A821A8892B242F0800243
:102170001A809A8992B242F001029A811A8892B228
:1021800042F001021A803368002BFCD14FF08042EC
:10219000012113888BF8201023F00103DBF868106D
:1021A0001B041B0C13800B6A98479BF820309BF88C
:1021B000041003228BF802201BB109EB411282F8B4
:1021C000AC33A84C204604F0E1FA9BF820309BF891
:1021D0000510002B3FF439AA04EB411484F8AC330A
:1021E000FFF733BAA04DDFF89CC22D78BCF800C0D1
:1021F0009E480C95CDF82CC00925CDF83C90AB42FB
:1022000040F2878002781044154441780429ADB229
:10221000F5D190F803E08178CDF810E07246022AFB
:102220000291ECD80479039481790791039990F88D
:1022300000C090F805E0C279047ACDF814C00229F4
:10224000CDF818E008920994D9D8029A884C52B275
:1022500004F10A0C0D9212B202EBC2034FF0000916
:102260000CEB021223440A924946AC46039D8D4270
:1022700049DD0278104462444478052C1FFA82FC40
:10228000F4D10A9ADDF830E0C90000910A440D99B2
:102290008E4542D0059C02991C704FF004055D707C
:1022A0009970049C039D0699DC701D715971079CFF
:1022B000089D09999C71DD711972029C0C944579F5
:1022C000047990F801E0CDF838E00099DDF828E0D5
:1022D00004EB052405780EF80150C57890F802E06B
:1022E0009480A4B20B940E9C547009F10109847976
:1022F000D5705FFA89F9039D82F802E04FFA89F1FF
:102300008D429471B5DCBBF836306546AB423FF682
:1023100079AFDDF83C90FFF750BB04794579DDF8E3
:102320002CE004EB05218E45EDDC059919704FF08A
:1023300004015970029999700499D970039919711F
:1023400006995971079999710899D9710999197262
:10235000B7E703221A77B2E699F8112184F81C80B6
:102360000123032AE3703F4B09D0DBF86830019862
:102370001B6B984708238BF80230FEF76ABF93F86F
:102380001031023BFF2BA8BFFF2398B280B10DF1A3
:1023900051020023374C991CE35C02F8013C8BB2DC
:1023A0009842114602F10102F4D881F80080DCE77E
:1023B000019981F80080D8E793F81031023BFF2B98
:1023C000A8BFFF2398B298B10DF151020023DFF8A6
:1023D000A4C0991C1CF8033002F8013C8BB298424F
:1023E000114602F10102F2D881F80080FFF78BBAA2
:1023F000019981F80080FFF786BA93F81031023B0B
:10240000FF2BA8BFFF2398B298B10DF15102002312
:10241000DFF860E0991C1EF8033002F8013C8BB233
:102420009842114602F10102F2D881F80080FFF7CC
:10243000C2B9019981F80080FFF7BDB909221A7766
:102440003DE60D4CFEF773BA0C4CFEF770BA0C4B20
:102450009A8892B242F002029A800DF14808FEF783
:10246000A3BB00BF985D0120B40A0020A85E012034
:102470001E050020AA5E01200024F40000127A004C
:10248000003C0040CC0A00202B4B2C4D196B2C4CEF
:102490002C4ADFF8B49041F4001119632B6823F043
:1024A00001032B602868212120F001004FF03D53EB
:1024B00028604FF6FE7C2E6028466E604FF4806EDA
:1024C000AE604FF0400AEE602E616961D3604FF458
:1024D00000614FF400524FF480732660A66066617D
:1024E000E66226636663A6634FF440362262636247
:1024F000A662C4F80490C4F80CA0C4F810C0C4F8D4
:1025000018E0E16104F00EF82B6843F010032B6033
:102510002B6811AE43F008032B602F2203233046B3
:102520008DF847808DF844208DF845308DF8463081
:1025300004F0F2F8FEF7F0BE00380240B860024046
:1025400060240020006002400C3C00402DE9F04F68
:102550002DED0E8B87B000F10409AC4FAC4EAD4DA4
:10256000DFF8E882AC4C9FEDAD9ADFEDAD9A9FEDC0
:10257000AD8A00F244600490BB6AA4495A1E002B45
:10258000BA6241F3C584D5ED037AF5EEC07AF1EE77
:1025900010FA08D577EE887AF5EEC07AF1EE10FAE7
:1025A000F8D4C5ED037AF4EEC87AF1EE10FA08DB40
:1025B00077EEC87AF4EEC87AF1EE10FAF8DAC5EDE3
:1025C000037A9FED990A95ED00AA27EE800A09F09B
:1025D0001FF89649D5ED037AD5ED025A9FED946A1E
:1025E000944ADFF86CE2D2ED006A9EF8003001EB0D
:1025F000800090ED007A2AEE077AF7EE008A77EEF7
:10260000288AE5EE867A68EEA68A85ED077AC8ED17
:10261000028AC5ED037A0F2B03F29282DFE813F0F2
:10262000060CD60A500C6A0B1E0BA80B34050309C6
:1026300038087B0776060E0AD8034A021E011000EE
:10264000DFF810A29FED7C7A9AF84835CAED038A2C
:10265000DAED04BADAED066ADAED077ADAED08AAFD
:10266000DAF844C5002B42F01280C8EE878A9FED4D
:10267000737AF4EEC78AF1EE10FA02F11F80B6EE1B
:10268000007AF4EE478AF1EE10FAC8BFF0EE478AFE
:1026900078EEE78A9FED6A7A37EEA8BAF4EEC7BA09
:1026A000F1EE10FA7BEE268AC2F2B6833BEEC77AD1
:1026B000F7EE007A2BEE07AA78EECA8AF4EEE78AE4
:1026C000F1EE10FAC2F2AA8578EEE78ADFED5D7AC4
:1026D0005D4B01933AEE28CAB6EE000A2CEE27CAEB
:1026E0004FEA8C018CEE0BCA0391CDF808C0DFF8DD
:1026F00068B13CEE400A08F08BFF05EE100AF8EED8
:10270000C56A019B0399DDF808C000F03F007CEE2C
:10271000666A03EBC00292ED017AD2ED007AE6EE32
:10272000877A0BEB010E40309EED007A77EE277A28
:10273000B0F5905F02F5007201F10401CEED007A70
:10274000E9DB9FED40CA01932AEE0CCAB6EE000AFF
:102750008CEE0BCACDF808C03CEE400A08F058FFDA
:1027600005EE900AF8EEE56A019B039ADDF808C0D1
:1027700000F03F007CEE666A03EBC003D3ED017A04
:1027800093ED007AA6EEA77A0BEB02014030D1ED73
:10279000007AE8EE877AB0F5905F03F5007302F1F6
:1027A0000402C1ED007AE9DBCAED05BA0CF10C03B5
:1027B0000AEB8303F6EE007A93ED016A9AED017A53
:1027C000DFF890B077EECA6AF0EE6A8A76EE266A93
:1027D000C3ED016A0AEB8C03D3ED096A76EEEAAA2F
:1027E0000CF10103EAEEA78AB3F5807F68EE87AAB1
:1027F000CAED00AA02F079858AED06AA8AED07BA29
:10280000CAED088ACAF8443500F054BFD40A002043
:10281000681200208C2D0010EC2D001000000030FC
:10282000CDCCCC3EDB0FC94083F922430CDA000843
:102830001F420939382E001000803B47ACC52737AE
:1028400008E53C1E0000804210EA00080C2D001034
:102850003400001090120020B4120020DFF84CA2C7
:10286000DFED8D7A9AED067ADAED054A9FED8B5A07
:10287000DFF83CB28A4B9AED036ADBED066AD3EDD2
:10288000065A28EE877A64EEA77A68EEA66AE7EE23
:10289000057A68EEA58A77EE867A8AED027AF5EEF9
:1028A000C07AF1EE10FACAED037ACBED026AC3EDFD
:1028B000028A08D577EE887AF5EEC07AF1EE10FA42
:1028C000F8D4CAED037AF4EEC87AF1EE10FA08DB18
:1028D00077EEC87AF4EEC87AF1EE10FAF8DACAEDBB
:1028E000037A9FED700ADAED008A019327EE800AE1
:1028F00008F08EFE6C49D8ED057AD8ED025A9FEDAE
:10290000676AD8ED036A019B01EB800090ED007AC5
:1029100028EE877A67EE277A8AED077AE5EE867ADF
:1029200077EEA67AF5EEC07AF1EE10FAC8ED037AEA
:1029300008D577EE887AF5EEC07AF1EE10FAF8D481
:10294000C8ED037AF4EEC87AF1EE10FA08DB77EE00
:10295000C87AF4EEC87AF1EE10FAF8DAC8ED037A24
:102960009FED500AD8ED008A019327EE800A08F007
:102970004FFE019BDFED487AD3ED055A9FED477A74
:1029800093ED026A484AD3ED036A65EEA77A02EB3B
:102990008000E6EE077A90ED007A77EEA67A68EE90
:1029A000878AF5EEC07AF1EE10FAC3ED037AC8ED2E
:1029B000078A08D577EE887AF5EEC07AF1EE10FA3C
:1029C000F8D4C3ED037AF4EEC87AF1EE10FA08DB1E
:1029D00077EEC87AF4EEC87AF1EE10FAF8DAC3EDC1
:1029E000037A9FED300AD3ED008A019327EE800A27
:1029F00008F00EFEDFF8B0E0DBED057ADBED025A01
:102A00009FED266ADBED036A019B0EEB800090EDE3
:102A1000007A28EE877A67EE277A83ED077AE5EE6B
:102A2000867A77EEA67AF5EEC07AF1EE10FACBED63
:102A3000037A08D577EE887AF5EEC07AF1EE10FACF
:102A4000F8D4CBED037AF4EEC87AF1EE10FA08DB95
:102A500077EEC87AF4EEC87AF1EE10FAF8DACBED38
:102A6000037A9FED100ADBED008A27EE800A08F05A
:102A7000CFFD0D49D8ED07AA01EB8000D0ED007A1B
:102A800068EEA77AB6EE007A77EEAAAACBED077ABF
:102A90006AEE87AA00F00EBE000000001F4209394E
:102AA0006C2D001083F922430CDA00082C2D001045
:102AB0004C2D0010DFF804A3DAED065A9AED096AEE
:102AC000DAED077A9AED027ADAF81420F8EE656A00
:102AD00015EE900AE6EE267A431C9342CAF81830A7
:102AE00067EE877ACAED0A7A82F01080DFF8D0A20A
:102AF000A94B9AED066ADAED094A9AED077AD3ED09
:102B0000005ADAF81800DAED026ADAF81410B8EEB2
:102B1000465AB7EE006A37EE866AA4EE857A421C02
:102B20008A42F3EE097AE6EE257ACAF8182027EEF3
:102B3000267AC8ED027A8AED0A7A81F05987DFF8A1
:102B400084B2DFF884A2DBED066ADBED094ADBED37
:102B5000077ADBF818009BED026ADBF81420B8EE68
:102B6000665AF7EE006A37EE267AE4EE857A411C63
:102B70009142F3EE096AE7EE256ACBF8181067EE8A
:102B8000867ACAED026ACBED0A7A81F0E686B7EE64
:102B9000007A77EE877AB3EE096AA7EEA56ADFF8C6
:102BA0002CB2D8ED037A8BED026AF5EEC07AF1EE25
:102BB00010FA0DD577EE887AF5EEC07AF1EE10FABC
:102BC000F8D4F4EEC87AF1EE10FA06DB77EEC87AA4
:102BD000F4EEC87AF1EE10FAF8DAD8ED025A9FED69
:102BE0006F7A6F4BF4EEC75AF1EE10FA01F1BA8525
:102BF0009FED6C7AF4EEC77AF1EE10FA83ED047A69
:102C000001F1C685DFED684A98ED004AB0EE005A42
:102C1000E7EE854A38EE475A34EEC77A27EE047A53
:102C200087EE055ADFED614A9AED037A88ED075A7F
:102C3000E5EEA47AB5EEC07AF1EE10FAC8ED037AAB
:102C400008D537EE087AB5EEC07AF1EE10FAF8D46E
:102C50008AED037AB4EEC87AF1EE10FA08DB37EEAB
:102C6000487AB4EEC87AF1EE10FAF8DA8AED037A0F
:102C7000DFED4A7AF4EEE76AF1EE10FA41F1D88717
:102C8000DFED4B7ADFED4B5A66EEA77AF4EEE57A8C
:102C9000F1EE10FA01F2CE87F0EE657AB4EEE77A43
:102CA000F1EE10FACAED045A01F1CC87DFED3E4A8D
:102CB0009AED004AF0EE005AE7EE254A78EE675AA0
:102CC00074EEE77A67EE847AC7EEA55ADFED374AED
:102CD000DBED037ACAED075AA6EEA47AF5EEC07AC8
:102CE000F1EE10FA75EE255A8AED037A08D577EEE3
:102CF000887AF5EEC07AF1EE10FAF8D4CBED037ACB
:102D0000F4EEC87AF1EE10FA08DB77EEC87AF4EE4A
:102D1000C87AF1EE10FAF8DACBED037A9FED1F7A5C
:102D2000B4EEC76AF1EE10FA42F1EC809FED207A22
:102D3000DFED206A26EE077AB4EEE67AF1EE10FABD
:102D400002F2E280B0EE667AF4EEC77AF1EE10FAA3
:102D5000CBED046A02F1E080DFED136ADBED004A9F
:102D6000B0EE005AE7EE856A38EE475A36EEC77A7B
:102D700027EE247A87EE057A9FED0C5ADFED0E6A76
:102D80008BED077AE6EE057A35EE877ACBED037A9E
:102D900067EE26AA00F08EBC7C0000200000FA45F9
:102DA0000C2D0010DB0F4940DB0FC9C01F42093951
:102DB0002EE3CD3917B7D138C3F5A83E380000103F
:102DC00064000010900000102C2D00104C2D0010FD
:102DD000DFF8A4A29AED065A9AED096ADAED077AAD
:102DE0009AED027ADAF81420F8EE456A15EE100A28
:102DF000E6EE267A431C9342CAF8183027EE877A0B
:102E00008AED0A7A81F03D86DFF870B2DFF870A2B1
:102E10009BED066A9BED095ADBED077ADBED026A52
:102E2000DBF81800DBF81420F8EE465AB7EE006A1B
:102E3000E5EE257A431C934237EE067A67EEA67AD2
:102E400068EE876ACBF81830CBED0A7ACAED026AD1
:102E500081F03C85B7EE007A37EE877AD8ED037AB9
:102E6000DFF820B268EE878AF5EEC07AF1EE10FA4C
:102E7000CBED028A0DD577EE887AF5EEC07AF1EEC9
:102E800010FAF8D4F4EEC87AF1EE10FA06DB77EE19
:102E9000C87AF4EEC87AF1EE10FAF8DA98ED026A20
:102EA0009FED6D7A6D4BB4EEC76AF1EE10FA01F149
:102EB000E9849FED6B7AF4EEC77AF1EE10FA83EDB8
:102EC000047A01F1F5849FED675AD8ED004AF0EEDF
:102ED000005AA7EEA55A78EE475A35EE477A27EE04
:102EE000247AC7EE255A9FED605A9AED037AC8ED11
:102EF000075AE6EE057AB5EEC07AF1EE10FAC8EDA3
:102F0000037A08D537EE087AB5EEC07AF1EE10FAFA
:102F1000F8D48AED037AB4EEC87AF1EE10FA08DB41
:102F200037EE487AB4EEC87AF1EE10FAF8DA8AEDA4
:102F3000037ADFED497AF4EEE76AF1EE10FA41F137
:102F40005387DFED4A7A9FED4A6A66EEA77AF4EE80
:102F5000C67AF1EE10FA01F24987F0EE467AB4EE45
:102F6000E77AF1EE10FA8AED046A01F147879FEDE6
:102F70003D5ADAED004AB0EE006AA7EE065A38EE86
:102F8000676A75EE677A67EEA47A87EE866A9FEDC8
:102F9000365ADBED037A8AED076AA6EE857AF5EEFE
:102FA000C07AF1EE10FA35EE866A8AED037A08D51A
:102FB00077EE887AF5EEC07AF1EE10FAF8D4CBED20
:102FC000037AF4EEC87AF1EE10FA08DB77EEC87AED
:102FD000F4EEC87AF1EE10FAF8DACBED037A9FED51
:102FE0001E7AF4EEC78AF1EE10FA41F15E879FED8A
:102FF0001F7ADFED1F6A28EE877AB4EEE67AF1EEEB
:1030000010FA01F25487B0EE667AF4EEC77AF1EE68
:1030100010FACBED046A01F15287DFED126A9BEDE5
:10302000005AF0EE005AE7EEA56A78EE475A36EEFF
:10303000C77A27EE057A87EE257ADFED0B5ADFEDAA
:103040000D6A8BED077AE8EEA57A36EE077ACBEDBE
:10305000037A67EE26AA2DE30000FA450C2D001036
:10306000DB0F4940DB0FC9C01F4209392EE3CD39C0
:1030700017B7D138C3F5A83E38000010640000101F
:103080002C2D00104C2D0010DFF870C29CF8543528
:10309000DCF84C15DCF85025CCED038ADCED05BAE4
:1030A000DCED07CADCED087ADCED095A9CED0ACAB2
:1030B00003910592002B41F06482DFED8B6A9CED59
:1030C000045AC8EEA66AB7EE007A35EE075AB6EE95
:1030D000006A25EE066A9FED855AF4EEC56AF1EEA8
:1030E00010FA37EE677A01F18B82B6EE005AF4EEF1
:1030F000456AF1EE10FAC8BFF0EE456AF4EE467A82
:10310000F1EE10FAC8BFB0EE676AB4EEC76AF1EE2E
:1031100010FAD8BFB0EE467A37EE657A76EEE76AF7
:1031200075EE878A9FED727A37EEA6AAF4EEC7BADB
:10313000F7EE007AF1EE10FA7AEE2CCA77EEE8AAF2
:10314000C1F28E853BEEC77A059B2AEE07BA7CEE6C
:10315000CBCA002B02F00080F4EEE7CAF1EE10FAC1
:1031600082F2238287EEA8DA0399DFF894A1DFF8D0
:1031700094B1890005913CEEE87AC7EEAA7A87EE11
:103180002A7A3DEE27DAF6EE00DA7DEEC7DA2AEE8D
:103190000DDA9FED58EACDF808C02BEE0EEAF6EEF8
:1031A00000CA8EEE0AEA7EEE6CCAB0EE6C0A08F037
:1031B0002FFA05EE100A00F03F00F8EEC56A431C36
:1031C0000AEB830A7EEE666A059BDDF808C05AEDBD
:1031D000017A9AED007A37EE677A0BEB0302E6EE9E
:1031E000877A4030B0F58E5F0AF5807AB0EE677A64
:1031F000D2ED007AEDEE077A03F10403C2ED007A16
:10320000E5DBB0EE4EDAB0EE6C0ACDF808C008F09F
:10321000FFF905EE900AF8EEE56AFEEE00CA364BBD
:103220000599DDF808C000F03F007CEEEDCA7DEEA8
:10323000666A03EBC003D3ED017A93ED007AA6EE44
:10324000A77A0BEB01024030D2ED007AECEE877AE0
:10325000B0F5905F03F5007301F10401C2ED007A4F
:10326000E9DBF4EECB8AF1EE10FA42F239818BEE13
:1032700028DA00230593F6EE007A3DEE67DACCED0E
:1032800006BA0399DCED01AADFF870A001F10E0384
:103290000CEB8303D3ED017A37EE8DDAF0EE4CBA06
:1032A00083ED01DA0CEB8103D3ED0B7A37EECCCA58
:1032B000F6EE007AECEE27BA4B1CB3F5807F6BEE8E
:1032C000AAAACCED00AA01F0F887CCF84C35059BF2
:1032D0008CED07BA8CED08AACCED098ACCED0ABAC0
:1032E000CCF85035E6E100BF00803B47ACC527373E
:1032F00008E53C1E0000804210EA0008500500204E
:10330000C47B01087C050020AE47A13F1FED026A87
:10331000D8ED037ADFF868A3DFF868B3F7EE086A40
:1033200028EE866A68EEA66AF5EEC07AF1EE10FA2B
:103330008AED026ACBED026A0DD577EE887AF5EE5A
:10334000C07AF1EE10FAF8D4F4EEC87AF1EE10FA81
:1033500006DB77EEC87AF4EEC87AF1EE10FAF8DA06
:103360009FEDC07AF4EEC78AF1EE10FA01F11E82E9
:103370009FEDBD7AF4EEC77AF1EE10FA88ED047A8B
:1033800001F12A829FEDB95AD8ED004AF0EE005AB9
:10339000A7EEA55A78EE475A35EE477A27EE247AFB
:1033A000C7EE255A9FEDB25A9AED037AC8ED075A37
:1033B000E8EE857AB5EEC07AF1EE10FAC8ED037A40
:1033C00008D537EE087AB5EEC07AF1EE10FAF8D4E7
:1033D0008AED037AB4EEC87AF1EE10FA08DB37EE24
:1033E000487AB4EEC87AF1EE10FAF8DA8AED037A88
:1033F000DFED9C7AB4EEE76AF1EE10FA41F1B285A6
:10340000DFED9C7A9FED9C5A66EE277AF4EEC57A42
:10341000F1EE10FA01F2A885F0EE457AB4EEE77A03
:10342000F1EE10FA8AED045A01F1A685DFED8F4A1C
:103430009AED004AB0EE005AE7EE054A38EE675AB8
:1034400074EEE77A67EE847A87EE855ADFED884A74
:10345000DBED037A8AED075AA6EE247AF5EEC07A00
:10346000F1EE10FA75EE855A8AED037A08D577EEFB
:10347000887AF5EEC07AF1EE10FAF8D4CBED037A43
:10348000F4EEC87AF1EE10FA08DB77EEC87AF4EEC3
:10349000C87AF1EE10FAF8DACBED037A9FED717A83
:1034A000F4EEC76AF1EE10FA41F175839FED717A7F
:1034B0009FED716A26EE877AB4EEC67AF1EE10FAC5
:1034C00001F26B83B0EE467AF4EEC77AF1EE10FAB1
:1034D0008BED046A01F169839FED646ADBED004ABC
:1034E000B0EE005AA7EE856A38EE475A36EE477AB4
:1034F00027EE247A87EE057A9FED5D5A9FED5F6A8D
:103500008BED077AE6EE857A35EE877ACBED037A96
:1035100067EE06AACEE098ED037ADFF864A1F7EE35
:10352000086A68EEA66AB5EEC07AF1EE10FACAED46
:10353000026A0DD537EE087AB5EEC07AF1EE10FAD0
:10354000F8D4B4EEC87AF1EE10FA06DB37EE487A1A
:10355000B4EEC87AF1EE10FAF8DADFED427AF4EE62
:10356000E78AF1EE10FA01F14581DFED3F7AB4EE22
:10357000E77AF1EE10FAC8ED047A01F15181DFED3E
:103580003B5A98ED005AB0EE006AE7EE065A38EE64
:10359000676A75EEE77A67EE857A87EE866ADFED11
:1035A000345ADAED037A88ED076AA8EEA57AF5EECB
:1035B000C07AF1EE10FA88ED037A08D577EE887AB2
:1035C000F5EEC07AF1EE10FAF8D4CAED037AF4EE13
:1035D000C87AF1EE10FA08DB77EEC87AF4EEC87A12
:1035E000F1EE10FAF8DACAED037A9FED1E7AF4EEE6
:1035F000C76AF1EE10FA41F19D849FED1E7ADFED6E
:103600001E5A26EE877AB4EEE57AF1EE10FA01F250
:103610009384B0EE657AF4EEC77AF1EE10FACAED53
:10362000045A01F19184DFED115ADAED004AB0EE4F
:10363000005AE7EE855A38EE475A35EEC77A27EE3C
:10364000247A87EE057ADFED0A5A8AED077AE6EEEC
:10365000A57A36EE077AF6EE006A67EE26AACAED7C
:10366000037A27E00000FA45DB0F4940DB0FC9C0B1
:103670001F4209392EE3CD3917B7D138C3F5A83E1B
:103680002C2D00104C2D0010CDCC4CBFCDCCCC3F00
:10369000D8ED00AA0AF040F907EE100AF8EEC76A62
:1036A0005FED077A1FED077A66EE896AE6EE877AA4
:1036B0006AEEA7AA716A326ACB4B0131012A7162A4
:1036C000D3ED048A00F02086032A00F00D86002A3C
:1036D00000F0AB85D4ED037AC6ED058AF5EEC07A2D
:1036E000F1EE10FA08D577EE887AF5EEC07AF1EEB1
:1036F00010FAF8D4C4ED037AF4EEC87AF1EE10FAB9
:1037000008DB77EEC87AF4EEC87AF1EE10FAF8DA50
:10371000C4ED037A9FEDB50A94ED00BA27EE800A56
:1037200007F076FFB249D4ED037AB24AD4ED025ADB
:103730009FEDB16A92ED00AA3A6BDFF8ECE2AA4B7A
:1037400001EB800090ED007A716A2BEE077AF7EEBC
:10375000006A77EE266AE5EE867A914266EEA88ADE
:1037600084ED077A28EE8AAACEED008A2AEE2AAAEC
:10377000C4ED037A80F0A284A04803784BB9DFF847
:10378000ACA2DAED008AF5EE408AF1EE10FA40F0D4
:10379000F6859B4AD2ED008AF5EE408AF1EE10FAEA
:1037A00040F0D0849748B0EE4A0A02F02BFC9648CD
:1037B000F0EE408AB0EE4A0A02F024FC934838EE5C
:1037C000800A0378F6EE007A60EE278A002B40F03C
:1037D0007F848F490B78002B40F04284B0EE68AABA
:1037E000F7EE007AB4EEE7AAF1EE10FA40F3508457
:1037F00047F6FF72F7EE007AF4EEE78AF1EE10FA80
:1038000040F3FD8447F6FF7329F8023C049B29F836
:10381000042C09F1040999457EF4AEAE07B0BDEC65
:103820000E8BBDE8F08FDFF808A29AF85835DAF869
:103830005015CAED038ADAED05AADAED07CADAED0A
:10384000087A9AED096ADAED0ABA9AED0BCA039181
:10385000DAF854C5002B40F0D786DFED6E5A9AEDAA
:10386000045AC8EEA58ADFED6C5AB7EE007A35EE41
:10387000075AF4EEE58AF6EE006AF1EE10FA37EE3A
:10388000677A65EE266A00F1FE86F6EE005AF4EEDF
:10389000658AF1EE10FAC8BFF0EE658AF4EE667A3A
:1038A000F1EE10FAC8BFF0EE676A78EEE78AF4EE40
:1038B000C76AF1EE10FA37EEA8AADFED587AD8BF42
:1038C000B0EE667A37EE467AF4EEE7AAF1EE10FA39
:1038D00036EE07BA7AEE2CCAC1F22E827AEEE77A79
:1038E0006AEE278A7CEEE8CABCF1000F01F01F8463
:1038F000F7EE007AF4EEE7CAF1EE10FA81F27C8579
:103900000399474BDFF82CB189000591DFED45BAEB
:10391000019368EEABBAB6EE000ACBEE8ABA3BEE84
:10392000C00A07F075FE06EE100AF8EEC66A019BA3
:10393000059A00F03F007BEEE66A03EBC00393EDCF
:10394000017AD3ED007AE6EE877A0BEB0201403084
:1039500091ED007A77EE277AB0F5905F03F500736A
:1039600002F10402C1ED007AE9DBF6EE00BAB4EE32
:10397000E8BAF1EE10FA41F2F5844FF0000CCAED0E
:1039800006AA0399DAED01AADFF8A4B001F1100349
:103990000AEB8303D3ED007A77EEAB7AF0EE4CCAF4
:1039A000C3ED007A0AEB8103D3ED0C7A37EECCCA73
:1039B000F6EE007AECEE27CA4B1CB3F5807F6CEE76
:1039C000AAAACAED00AA01F0A484CAED078A8AED6A
:1039D00008AA8AED09BACAED0ABACAED0BCACAF832
:1039E0005035CAF854C565E66812002083F92243B1
:1039F0000CDA0008300000101F42093935000010B1
:103A0000CC2D0010CC2C0010EC2C00103700001036
:103A10003600001000803B47ACC5273708E53C1E48
:103A200010EA0008000080422C000010AC2D0010AD
:103A30000C0B00203C0B0020B537983F1FED026AAD
:103A4000D8ED037ADFF8C8A3DFF8C8B3F7EE086A49
:103A500028EE866A68EEA66AF5EEC07AF1EE10FAF4
:103A60008AED026ACBED026A0DD577EE887AF5EE23
:103A7000C07AF1EE10FAF8D4F4EEC87AF1EE10FA4A
:103A800006DB77EEC87AF4EEC87AF1EE10FAF8DACF
:103A90009FEDE17AF4EEC78AF1EE10FA00F13E866E
:103AA0009FEDDE7AF4EEC77AF1EE10FA88ED047A33
:103AB00000F14A869FEDDA5AD8ED004AF0EE005A3E
:103AC000A7EEA55A78EE475A35EE477A27EE247AC4
:103AD000C7EE255A9FEDD35A9AED037AC8ED075ADF
:103AE000E8EE857AB5EEC07AF1EE10FAC8ED037A09
:103AF00008D537EE087AB5EEC07AF1EE10FAF8D4B0
:103B00008AED037AB4EEC87AF1EE10FA08DB37EEEC
:103B1000487AB4EEC87AF1EE10FAF8DA8AED037A50
:103B2000DFEDBD7AB4EEE76AF1EE10FA41F168809C
:103B3000DFEDAC7A9FEDAC5A66EE277AF4EEC57AEB
:103B4000F1EE10FA01F25E80F0EE457AB4EEE77A1B
:103B5000F1EE10FA8AED045A01F15C80DFEDB04A13
:103B60009AED004AB0EE005AE7EE054A38EE675A81
:103B700074EEE77A67EE847A87EE855ADFEDA94A1C
:103B8000DBED037A8AED075AA6EE247AF5EEC07AC9
:103B9000F1EE10FA75EE855A8AED037A08D577EEC4
:103BA000887AF5EEC07AF1EE10FAF8D4CBED037A0C
:103BB000F4EEC87AF1EE10FAFFF670AC77EEC87A40
:103BC000F4EEC87AF1EE10FAF8DA65E4DFED877A00
:103BD000F4EEE78AF1EE10FA01F12F83DFED847A3B
:103BE000F4EEE78AD8ED037AF1EE10FAF5EEC07A3A
:103BF00005D400F0A3BC77EE887AF5EEC07AF1EE3A
:103C000010FAF8D4F4EEC87AF1EE10FA06DB77EE8B
:103C1000C87AF4EEC87AF1EE10FAF8DA9FED7F7AFE
:103C2000D8ED00AAF4EEC77A87EE877AF1EE10FAA3
:103C30004FBFF6EE006AB0EE006AF6EE006A37EEAD
:103C4000467A6AEEA6AA6AEE87AA9FED767AC8ED52
:103C500007AAE8EE877AC8ED037A2BE56549664A3C
:103C6000DFED666ADFED665ADFED664A9FED6D5A5D
:103C7000012306EE103AB8EEC67A68EE877AF4EEC3
:103C8000E57AF1EE10FA29D5F2EC017AF4EEC87A71
:103C9000F1EE10FA08DB77EEC87AF4EEC87AF1EEAE
:103CA00010FAF8DA42ED017A27EEA46A27EE057AD7
:103CB000BCEEC66ADFF854E116EE100AE8EE877A29
:103CC00080B20EEB800090ED007AB1EC016A42ED1B
:103CD000017A01330B2BE6EE076ACAD14A4BD8EDC5
:103CE000007A93ED007A66EE876A66EEA7AAC8EDC1
:103CF00007AADFE4D8ED037AF5EEC07AF1EE10FA08
:103D000008D577EE887AF5EEC07AF1EE10FAF8D49D
:103D1000C8ED037AF4EEC87AF1EE10FA08DB77EE1C
:103D2000C87AF4EEC87AF1EE10FAF8DAC8ED037A40
:103D30009FED340AD8ED008ADFED3BAA27EE800A1A
:103D400007F066FC314AD8ED037A98ED026ADFEDA0
:103D5000356A02EB800090ED007AE6EE267A28EED6
:103D6000877AC8ED037A88ED077A67EE2AAAA1E47C
:103D700098ED030AB5EEC00AF1EE10FA08D530EE60
:103D8000080AB5EEC00AF1EE10FAF8D488ED030A7D
:103D9000B4EEC80AF1EE10FA08DB30EE480AB4EED1
:103DA000C80AF1EE10FAF8DA88ED030A07F0E2FC2F
:103DB000D8ED00AAD8ED037AD8ED026A9FED197A02
:103DC00060EE2AAAE6EE877A60EE2AAAC8ED037AA8
:103DD00060EE2AAA60EE2AAA60EE2AAAC8ED07AA17
:103DE00068E400BF2EE3CD3917B7D138000048434F
:103DF0000000164404000010102E00100000000007
:103E00000080BB4683F92243000000100CDA000852
:103E10002C2D00104C2D00100000FA45DB0F4940FE
:103E2000DB0FC9C01F420939CDCC4C3FD8ED037A16
:103E3000F5EEC07AF1EE10FA0DD577EE887AF5EE50
:103E4000C07AF1EE10FAF8D4F4EEC87AF1EE10FA76
:103E500006DB77EEC87AF4EEC87AF1EE10FAF8DAFB
:103E60001FED137AF4EEC78AF1EE10FA00F1E68442
:103E70001FED167AF4EEC77AF1EE10FA88ED047AA7
:103E800000F1F2845FED1A6AD8ED005AB0EE006AD4
:103E9000E7EE866A38EE476A36EEC77A27EE257A6D
:103EA00087EE067A5FED216A5FED21AA88ED077A39
:103EB000E8EEA67A67EE2AAAC8ED037AFFF7FABB06
:103EC00098ED030AB4EEC80AF1EE10FA08DB30EE02
:103ED000480AB4EEC80AF1EE10FAF8DA88ED030ADF
:103EE00007F048FCD8ED037A98ED026A5FED336A7B
:103EF00098ED007A5FED34AAE6EE267A20EE070A06
:103F0000C8ED037A88ED070A60EE2AAAFFF7D2BB54
:103F100091F82C30002B00F0C982D148C37A13B934
:103F2000437B002B44D002F0DBF9DFF848B3CD49E6
:103F3000DFEDCDAACA4AC1ED01AA8A465B461AEE58
:103F4000901A4FF07E504AF8081B43F8080B4FF0C8
:103F5000000E9FEDC6AADFEDC68ACDF80C90CBF817
:103F60000400D14682F80DE09A4609F0D5FC05EE32
:103F7000100AF8EEC57AF0EE685A67EE897ABD4805
:103F8000E9EC01AAE7EE8A5A00F12C01EAEC015AA9
:103F90009BED007A75EE877A8A45CBED007AE4D105
:103FA000B7EE007AC7EE277ADDF80C90C0ED007A04
:103FB000AB4A937BBBB109F0AFFC05EE100AB8EE3B
:103FC000C57ADFEDAD7A27EE097AB0EE690AA7EE81
:103FD000270A07F067FBB5EE400AF1EE10FA4FF042
:103FE000000300F09F823268F26100234FF07E529E
:103FF00073623362B261A1480378002B40F03282D1
:104000009748837A0246002B40F0968197F82C203F
:104010009B4BBA5CDFF8C8A203EB8203994A1B688A
:10402000136009F079FC05EE100AF8EEC57A97F8EE
:104030002C207B6ABB6267EE897AF0EE695A531CCA
:10404000E7EEA95ADBB20F2B8F4887F82C3088BFD8
:104050000023C0ED005A88BF8AF82C30FEF793BACF
:104060008A488B49B0EE680A02F03AFD89488A49CD
:10407000B0EE40AAB0EE680A02F032FDF7EE007A28
:10408000B4EEE7AAF1EE10FAF0EE408A3FF7B0ABDB
:10409000FFEE007AB4EEE7AAF1EE10FA48BF48F25C
:1040A00001023FF5A7ABDFED7D7A2AEE27AABDEE30
:1040B000CAAA1AEE102A92B2FFF79CBB0021DA6856
:1040C0009961DA610021032259621A62FFF754BB39
:1040D000734B7449D3ED006AD1F800C0DFED667A06
:1040E0009FED717A9CED006A704A66EEA77AD2ED78
:1040F000006AE6EE077AB7EE007AE7EEA68AC3ED2D
:10410000007AF4EEC78AF1EE10FA40F3E681F0EEA1
:10411000478A6748674A0368DFF89CA1E3EC018A95
:10412000C2EB030BD34503600CF1040CC8BF026063
:104130006148C1F800C0C2EB0C038342C8BF0A60EB
:10414000FFF747BBD2ED037AF5EEC07AF1EE10FA35
:1041500009D577EE887AF5EEC07AF1EE10FAF8D448
:10416000564BC3ED037AF4EEC87AF1EE10FA0ADB8F
:1041700077EEC87AF4EEC87AF1EE10FAF8DADFF8E2
:104180003CE1CEED037A9FED4E0A27EE800A07F060
:104190003FFA4C49494A4C4BD2ED037A92ED024A20
:1041A000DFED4A4A93ED005ADFED495A01EB8000FA
:1041B00090ED007AF7EE006AB6EE006A37EE267AE6
:1041C00068EE868AE4EE247A28EE877AC2ED037AD6
:1041D00077EE266A82ED077A26EE857AB4EEE57AE6
:1041E000F1EE10FA40F32381DFED3A7A9FED3A7A4F
:1041F0003A4B83ED017AC3ED027AFFF7D3BAFFEEB3
:10420000007AF4EEE78AF1EE10FA48BF48F20103B3
:104210003FF5FAAADFED217A68EEA78AFDEEE88A7B
:1042200018EE903A9BB2FFF7EFBA93ED077AD3ED11
:10423000067A78EE878AF4EEE78AF1EE10FAC3ED9B
:10424000048AFFF647AA5A689968DA610122C3ED29
:10425000047AF0EE678A99611A62FFF73BBA00BFF1
:10426000B80A00200C2E001000000000BF9F7A3F0B
:104270006F12833A000000109A99193F3500001020
:10428000187A0108382E001030000010BC00001011
:10429000AC2C0010B4160010BC2C001000FEFF4621
:1042A000285D0120A80A0020CCCCCC3E8000002054
:1042B000D00A00209C2400207F380100CC2D001063
:1042C00083F922430CDA0008B00A00201F420939A2
:1042D0003333733F03123A413333F33EEC2C001077
:1042E000D40A002000000000D3ED037A1FED037A0A
:1042F00078EEE78AF4EEC78AF1EE10FA40F2E58034
:10430000C3ED048AFFF7E6B993ED017AD3ED027AA3
:1043100078EEC78AF4EEE78AF1EE10FAC3ED048A6C
:104320003FF6D8A900210222C3ED047AF0EE678A95
:10433000D9611A62FFF7CEB9407AE24918445BB2FC
:1043400050721FFA83FE01F1110011F8013B734412
:104350009BB21AB26A2A04DD0C3B9BB21AB26A2ADB
:10436000FADC002A03DA0C339BB21A04FBD4814234
:1043700001F8013CE9D1D44900238B7246E6DAED1D
:10438000037AF5EEC07AF1EE10FA08D577EE887A66
:10439000F5EEC07AF1EE10FAF8D4CAED037AF4EE35
:1043A000C87AF1EE10FA08DB77EEC87AF4EEC87A34
:1043B000F1EE10FAF8DACAED037A9FEDC40A27EE9F
:1043C000800A07F025F9C249C24BDAED037A9AED6B
:1043D000024ADFEDC14A93ED005ADFEDC05A01EB0E
:1043E000800090ED007AF7EE006AB6EE006A37EED4
:1043F000267A68EE868AE4EE247A28EE877ACAED79
:10440000037A77EE266A8AED077A26EE857AB4EE8D
:10441000E57AF1EE10FA6ADDDFEDB17A9FEDB17A5F
:10442000B14B83ED017AC3ED027AFFF7B2B927EE03
:10443000067ADFEDAE7A67EE277AB9EE046A77EE98
:10444000A75A67EEA76AA7EEA56A67EEA66AFAEE14
:104450000E5AE7EEA56AF0EE087A66EE277AC6EE07
:10446000A77AC5E609F058FA05EE100ADFEDA00AB2
:104470009FEDA00AF8EEC57AE7EE890A07F0B8F9D1
:104480009FED9D7ADFED957A20EE070AB4EEE70AFC
:10449000F1EE10FA40F39783DFED917A9FED917A78
:1044A000914B83ED017AC3ED027AA9E5934B1B781A
:1044B000002B3FF432AD924B1B78002B7FF42DADD7
:1044C00003F022FE04F09CFC27E50422F0EE478A6C
:1044D00083ED047A1A62FFF7FDB8FFEE007AF4EE7E
:1044E000678AF1EE10FA48BFF0EE678A11E627EE10
:1044F000067ADFED7E7A67EE277AB9EE046A77EE08
:10450000A75A67EEA76AA7EEA56A67EEA66AFAEE53
:104510000E5AE7EEA56AF0EE087A66EE277AC6EE46
:10452000A77A7DE7F168B36100220323F16172622B
:10453000336260E577EE887AF5EEC07AF1EE10FA34
:10454000F8D4F4EEC87AF1EE10FA06DB77EEC87A0A
:10455000F4EEC87AF1EE10FAF8DA9FED647AF4EE30
:10456000C77AF1EE10FA00F19C86DFED666AD8EDAD
:1045700000AAB8EE087AA7EEA67A67EE2AAAFFF795
:1045800064BBDFED616ADFED617AC8EEA66AF4EE26
:10459000E76AF1EE10FA00F11285B6EE007AF4EE59
:1045A000C76AF1EE10FAC8BFF0EE477A41F32C82E9
:1045B000DCED045A9FED555AB7EE006A35EE866A77
:1045C000F6EE00CA26EE2C6A0023B4EEE76AF1EE9E
:1045D00010FA54BFF0EE465AF0EE675AF4EE475A1E
:1045E000F1EE10FAF4EEC56AC8BFF0EE475AF1EEEC
:1045F00010FA65EEACCA8CF8543505937EF575ADAE
:10460000F0EE456AFEF77ABD9FED3F7ADFED3F7A27
:10461000C8EE878AF4EEE78AF1EE10FA00F1CB8457
:10462000B6EE007AF4EEC78AF1EE10FAC8BFF0EEEB
:10463000477A41F328829AED046ADFED345ADFEDC0
:104640002CCAF7EE006A76EE266AF6EE00BA66EE3F
:10465000AB6A4FF0000CF4EEE76AF1EE10FA54BFCB
:10466000B0EE666AB0EE676AB4EE476AF1EE10FA31
:10467000F4EEE58AC8BFB0EE476AF1EE10FA8AF8A8
:1046800058C57FF502A9F0EE658AFFF707B9C8EEB5
:10469000878ADFED1E7AF4EEE78AF1EE10FA40F138
:1046A000798400238AF84835F6EE006A9FED177A80
:1046B000F4EEC78AF1EE10FA7DF5E1AFF0EE478A2D
:1046C000FDF7E6BFD40A0020B80A002083F9224390
:1046D0000CDA0008C80A00201F4209393333733F3F
:1046E00003123A413333F33ECC2C0010DB0F494028
:1046F0000000000055550541CDCC4C3C7800002011
:10470000245D012083F9223F00803B47ACC5273759
:104710002EE3CD3917B7D1380080BB461FED047AA0
:104720005FED045A28EE877AB4EEE57AF1EE10FADE
:104730003FF6B8A9B0EE657AF4EEC77AF1EE10FA5A
:10474000C8ED045A7FF5B6A9F8EE005A85EE877ACF
:10475000F7EE005AE7EE875A98ED007A65EE875A31
:10476000FFF7B8B91FED167A1FED165A25EE877AB6
:10477000B4EEC57AF1EE10FA3EF63CAAB0EE457AF8
:10478000F4EEC77AF1EE10FA83ED045A7EF53AAAF8
:10479000B8EE005A85EE077AB7EE005AA7EE875AB0
:1047A00098ED007A25EE075AFEF73CBA1FED287AFD
:1047B0005FED285A28EE877AB4EEE57AF1EE10FA2A
:1047C0003EF6D8ADB0EE657AF4EEC77AF1EE10FAA7
:1047D000C8ED045A7EF5D6ADF8EE005A85EE877A1C
:1047E000F7EE005AE7EE875A98ED007A65EE875AA1
:1047F000FEF7D8BD5FED3A7A1FED3A6A68EEA77A08
:10480000F4EEC67AF1EE10FA3EF6B1AEF0EE467A6C
:10481000B4EEE77AF1EE10FA88ED046A7EF5AFAEF9
:10482000B8EE006AC6EE277AB7EE006AA7EE276AEE
:10483000D8ED007A26EE276AFEF7B1BE1FED4C7A5E
:104840005FED4C6A28EE877AB4EEE67AF1EE10FA64
:104850003FF610ABB0EE667AF4EEC77AF1EE10FADE
:10486000C8ED046A7FF50EABF8EE006A86EE877A33
:10487000F7EE006AE7EE876A98ED007A26EE877A0F
:10488000FFF710BB1FED5E7A5FED5E5A26EE077AEA
:10489000B4EEE57AF1EE10FA3EF60DABB0EE657AC5
:1048A000F4EEC77AF1EE10FAC3ED045A7EF50BABC5
:1048B000F8EE005A85EE877AF7EE005AE7EE875A4F
:1048C00098ED007A65EE875AFEF70DBB5FED6E7AC4
:1048D0009BED00AADBED01AADBF82020CBF81C2021
:1048E00087EE8AAA0023CBF81830C7EEAAAA8BED70
:1048F00003AACBED04AA09F00FF805EE100AF8EEB2
:10490000C57A7AEECAAA67EE897AA7EEAAAABCEEA1
:10491000CAAA8BED05AA08F0FFFF05EE900AF8EE93
:10492000E56AF0EE007A66EE896ABFEE007AA6EEDE
:10493000A77A9BED076A9BED055A8BED087A37EE57
:10494000467AB8EE456ADBED0A7ADAED026A87EE5E
:10495000067A8BED097AFEF77DBA5FED917ADBED91
:10496000008A9BED01AADBF82010CBF81C10C7EEE3
:10497000A88A0022CBF8182087EE8AAACBED038AFA
:104980008BED04AA019308F0C7FF05EE100AF8EEBC
:10499000C57A3AEE68AA67EE897AE7EE8A8AFCEE73
:1049A000E88ACBED058A08F0B7FF05EE900AF8EE2D
:1049B000E56AF0EE007A66EE896ABFEE007AA6EE4E
:1049C000A77A019B9BED076A9BED055A8BED087A50
:1049D00037EE467AB8EE456AD3ED005ADBED0A7A37
:1049E000DAED026A87EE067A8BED097AFEF7CFB828
:1049F0005FEDB77ADAED008A9AED01AADAF82010B5
:104A0000CAF81C10C7EEA88A0022CAF8182087EE40
:104A10008AAACAED038A8AED04AA019308F07CFFF2
:104A200005EE100AF8EEC57A3AEE68AA67EE897AC2
:104A3000E7EE8A8AFCEEE88ACAED058A08F06CFF88
:104A400005EE900AF8EEE56AB0EE007A66EE896A45
:104A5000FFEE007AE6EE877A019B9AED077A9AEDEF
:104A6000056ACAED087AF8EE466A77EEC77AD3EDA2
:104A7000005A9AED0A7AC7EEA67ACAED097AFEF7CD
:104A80005EB85FEDDB7A9AED00AADAED01AADAF8FA
:104A90002020CAF81C2087EE8AAA0023CAF8183002
:104AA000C7EEAAAA8AED03AACAED04AA08F034FF49
:104AB00005EE100AF8EEC57A7AEECAAA67EE897A90
:104AC000A7EEAAAABCEECAAA8AED05AA08F024FF9E
:104AD00005EE900AF8EEE56AB0EE007A66EE896AB5
:104AE000FFEE007AE6EE877A9AED056ADAED076A5C
:104AF000CAED087A77EEE67AF8EE466A9AED0A7A17
:104B0000C7EEA67ACAED097AFEF77EB9DFEDF37A31
:104B1000DAED008A9AED01AADAF82020CAF81C2002
:104B2000C7EEA88A0023CAF8183087EE8AAACAED11
:104B3000038A8AED04AA08F0EFFE05EE100AF8EEEB
:104B4000C57A3AEE68AA67EE897AE7EE8A8AFCEEC1
:104B5000E88ACAED058A08F0DFFE05EE900AF8EE55
:104B6000E56AF0EE007A66EE896ABFEE007AA6EE9C
:104B7000A77A9AED056ADAED076A8AED087A37EEC8
:104B8000667AF8EE466ADAED0A7A87EE267A8AEDD8
:104B9000097AFDF7ABBF9FEDD87AF4EEC77AF1EE54
:104BA00010FA8BED047A7EF597ACB8EE006A86EECB
:104BB000077AB7EE006AA7EE876A9BED007A26EEC9
:104BC000077AFEF799BCB6EE007A20EE077ADFEDA1
:104BD000CA7A67EE277AB9EE046A77EEA75A67EECB
:104BE000A76AA7EEA56A67EEA66AFAEE0E5AE7EE86
:104BF000A56AF0EE087A66EE277AC6EEA77A4FE449
:104C0000DFEDBD7AB4EEE77AF1EE10FACAED047A80
:104C10007EF5A4AFB8EE005AC5EE277AB7EE005A7B
:104C2000A7EE275ADAED007A25EE275AFEF7A6BF3F
:104C3000DFEDB17AB4EEE77AF1EE10FACAED047A5C
:104C40007EF534A8F8EE005AC5EEA77AF7EE005AC2
:104C5000E7EE275ADAED007A65EEA75AFEF736B886
:104C6000059B002B40F000828CEEA8DAF4EEEC8A73
:104C7000B6EE007AF1EE10FA3DEE47DA40F2028528
:104C8000059BF7EE007AF4EEE7CAF1EE10FAC0F2F7
:104C900084843CEEE7BADFED9ABADFED916ADFF883
:104CA00048A2DFF848B26BEE2BBA8BEE0A6ACBEE65
:104CB0008ABAC7EEAAAA8BEE28DAC7EEA87AB6EEB1
:104CC000007A76EE266A3BEEC70ACCED066A77EEEE
:104CD000AAAACDF808C03DEE47DA06F099FC05EE29
:104CE000100AF8EEC57A00F03F000399DDF808C01D
:104CF000431C6AEE2A6A7BEEE7BA0AEB830A8B0052
:104D00005AED017A9AED007A37EE677A0BEB0302DF
:104D1000EBEE877A4030B0F58E5F0AF5807AB0EE20
:104D2000677AD2ED007AE6EE877A03F10403C2EDEA
:104D3000007AE5DBFEF7A5BABCF1000F40F0438135
:104D4000B4EEECBAF1EE10FA40F260856346F7EE8D
:104D5000008AF4EEE8CAF1EE10FAC0F245837CEE68
:104D6000E88ADFED67AADFED5E7A5E4BDFF880B19F
:104D700068EEAAAA88EE8A7ACAEE8AAA77EE277A1D
:104D8000B6EE000A3AEEC00ACAED067A0193CDF8F3
:104D900008C006F03DFC05EE100AF8EEC57A019B4E
:104DA0000399DDF808C000F03F007AEEE7AA03EBB4
:104DB000C0038A0093ED017AD3ED007AEAEE877A98
:104DC0000BEB0201403091ED007A77EE277AB0F5D7
:104DD000905F03F5007302F10402C1ED007AE9DB94
:104DE000F6EE00BAFEF7CDBDDFED437AB4EEE77A1A
:104DF000F1EE10FACAED047A7EF5B9A8B8EE006AB1
:104E0000C6EE277AB7EE006AA7EE276ADAED007AD7
:104E100026EE276AFEF7BBB8B7EE00AAF4EECA8A00
:104E2000F1EE10FAC0F2028238EECAAADFED348A3F
:104E30002C4BDFF8C0B06AEE288ACAEE0B7AC8EEB7
:104E40008B8A37EE877AB6EE000A38EEC00A8AED12
:104E5000057A0193CDF808C006F0DAFB06EE100AD9
:104E6000F8EEC66A019BDDF808C000F03F0078EE5E
:104E7000E66A03EBC0034FEA8C0293ED017AD3EDAF
:104E8000007AE6EE877A0BEB0201403091ED007A72
:104E900077EE277AB0F5905F03F5007302F1040214
:104EA000C1ED007AE9DBFDF781BC9FED137AF4EEEA
:104EB000C77AF1EE10FA8BED047A7EF5AEA8F8EE23
:104EC000006A86EE877AF7EE006AE7EE876A9BED66
:104ED000007A26EE877AFEF7B0B800BF0080BB46A6
:104EE00008E53C1E10EA0008C47B01087C05002090
:104EF0003C0B0020B4120020DB0F494058FF7F3FDD
:104F0000000080421FED047AF4EEC77AF1EE10FA49
:104F10008BED047A7DF520AFF8EE006A86EE877A95
:104F2000F7EE006AE7EE876A9BED007A26EE877A55
:104F3000FDF722BF1FED107AF4EEC77AF1EE10FAFA
:104F40008AED047A7EF56FABF8EE005A85EE877A2B
:104F5000F7EE005AE7EE875A9AED007A25EE877A47
:104F6000FEF771BB5FED1C7AB4EEE77AF1EE10FA52
:104F7000CAED047A7EF55AAAB8EE005AC5EE277A31
:104F8000B7EE005AA7EE275ADAED007A25EE275A37
:104F9000FEF75CBAF6EE007AF4EEE78AF1EE10FA6C
:104FA0004FF00003D8BFF0EE687A8AF84835F6EE85
:104FB000006AFFF77BBB1FED2F7AFFF73CBB1FEDAD
:104FC000317AFFF7F5BAF7EE008AF4EEE8CAF1EEAF
:104FD00010FAC0F202827CEEE88A5FED37AA039AEB
:104FE000D84BDFF86CB368EEAAAA88EE8A7A9200F2
:104FF0000592CAEE8AAA77EE277AB6EE000A3AEE52
:10500000C00ACAED067A019306F002FB05EE100A0B
:10501000F8EEC57A019B059900F03F007AEEE7AA09
:1050200003EBC00292ED017AD2ED007AEAEE877AC4
:105030000BEB010E40309EED007A77EE277AB0F54B
:10504000905F02F5007201F10401CEED007AE9DB18
:10505000B4EEE8BAF1EE10FA40F2DE84F6EE00BAF1
:105060004FF0000CFEF78DBCF4EEE7CAF1EE10FA3B
:10507000C0F284823CEEE7BADFEDB9CA039ADFF8EA
:10508000D4A2DFF8D4B26BEE2CCACBEE0A6A92003F
:105090000592CCEE8ACAC7EEA8BAC7EEAA7A36EE57
:1050A000877AB6EE000A3CEEC00A8CED067A3BEE3B
:1050B000A7DACDF808C006F0ABFA05EE100AF8EE54
:1050C000C57A00F03F00431C6AEE0D6A7CEEE7CA29
:1050D0000599DDF808C00AEB830353ED017A93EDDF
:1050E000007A37EE677A0BEB0102ECEE877A4030FC
:1050F000B0F58E5F03F58073B0EE677AD2ED007A7B
:10510000E6EE877A01F10401C2ED007AE5DBF4EE08
:10511000CB8AF1EE10FA40F22F848BEE28DA0023CE
:105120000593F6EE007A3DEE67DAFEF7AAB8B4EE24
:10513000ECBAF1EE10FA40F2A783F7EE007AF4EE43
:10514000E7CAF1EE10FAFEF612AC039A7D4BDFF8D7
:1051500000B292000592D8E3CCEEA8DAF4EEEC8A25
:10516000B6EE007AF1EE10FA7DEEC7DA40F2EF8289
:10517000F4EEE7CAF1EE10FAC0F2DA820399DFF832
:10518000D4A1DFF8D4B189000591F7EE007A7CEE66
:10519000E7CA9FED737ACDF808C07BEE2C6ACCEE9F
:1051A000A8DA66EE87CA87EEA8DACCEE8ACAC7EE1E
:1051B000AA7AB6EE007A3CEEC70A3DEE27DA7DEE1B
:1051C000C7DA06F025FA05EE900A00F03F00F8EE87
:1051D000E57A431C0AEB830A6AEE0D6A7CEEE7CAA5
:1051E000059BDDF808C05AED017A9AED007A37EE9A
:1051F000677A0BEB0302ECEE877A4030B0F58E5FF6
:105200000AF5807AB0EE677AD2ED007AE6EE877A18
:1052100003F10403C2ED007AE5DB1BE24FEA8C02E6
:10522000484BDFF838B10392FDF78BBA0023B0EE9C
:1052300068AACAF81430FDF7B9BAD8ED037AF5EECA
:10524000C07AF1EE10FA0DD577EE887AF5EEC07AD5
:10525000F1EE10FAF8D4F4EEC87AF1EE10FA06DBAB
:1052600077EEC87AF4EEC87AF1EE10FAF8DA9FED2C
:10527000367AF4EEC77AF1EE10FA87EE877A00F10B
:10528000F581F0EE006A37EE667A98ED006A27EE57
:10529000066AFEEE006A27EE067A67EE26AAFEF799
:1052A000D4BCDFED2A6AD8ED00AAB7EE007AA7EEEB
:1052B000A67A67EE2AAAFEF7C8BC0AF22C414FF480
:1052C00090720AF12C00CDF808C008F039FA0AF5FE
:1052D000A67000214FF4806208F0CCFADAED00AA43
:1052E000DDF808C00023FDF7F0BF0BF224414FF4B6
:1052F00090720BF1240008F023FA0BF5A270002144
:105300004FF4806208F0B6FADBED00AA0023FDF747
:1053100073BA0BF586614FF490720BF13000CDF843
:1053200008C008F00DFA0BF5A87000214FF4806258
:1053300008F0A0FADBED00AADDF808C00023FEF7B4
:1053400044BB00BF10EA0008DB0F494083F922BFCD
:105350003C0B0020C47B01087C050020B412002017
:10536000000080425FED027AEC4B019378EECBBAFD
:10537000B6EE000A6BEEA7BADFF8A4B3CBEE8ABA9A
:105380003BEEC00A06F044F907EE100AF8EEC76AD1
:10539000019B039900F03F007BEEE66A03EBC0033C
:1053A0008A0093ED017AD3ED007AE6EE877A0BEB73
:1053B0000201403091ED007A77EE677AB0F5905FA8
:1053C00003F5007302F10402C1ED007AE9DBFEEEA1
:1053D00000BA4FF0010CFEF7D2BA0023F0EE6C8A4F
:1053E000CAF81830FEF7CDBA0022F0EE6C8A9C465F
:1053F000CAF81820FEF7C5BA7CEEE7CADFEDCB7A13
:10540000039AC64B019378EEACBAB6EE000A6BEE87
:10541000A7BA9200CBEE8ABA0592DFF804B33BEE4E
:10542000C00A06F0F5F805EE100AF8EEC57A019B01
:10543000059900F03F007BEEE7BA03EBC00292ED66
:10544000017AD2ED007AEBEE877A0BEB010E403059
:105450009EED007A77EE277AB0F5905F02F5007244
:1054600001F10401CEED007AE9DBB4EEECBAF1EE25
:1054700010FA3EF67AAA7CEECBBADFEDAC7A019355
:1054800078EEABBAB6EE000A6BEEA7BACBEE8ABAEC
:105490003BEEC00A06F0BCF805EE900AF8EEE57A9D
:1054A000019B059900F03F007BEEE7BA03EBC002D9
:1054B00092ED017AD2ED007AEBEE877A0BEB010EDA
:1054C00040309EED007A77EE677AB0F5905F02F596
:1054D000007201F10401CEED007AE9DBFEF716BAA5
:1054E0007BEE687ADFED91CACDF808C067EEACCAF2
:1054F000FFEE006ACCEE8ACADFF828A2B7EE007A87
:1055000087EEAADA87EE287AC6EEAAAAF6EE007A25
:105510003CEEE70A7AEEC7AA37EECDDA06F078F865
:1055200005EE100AF8EEC56A00F03F00411C2AEEB5
:105530002A6A7CEEE66A059BDDF808C00AEB810A60
:105540005AED017A9AED007A37EE677A0BEB030297
:10555000E6EE877A4030B0F58E5F0AF5807AB0EEDD
:10556000677AD2ED007AE6EE077A03F10403C2ED22
:10557000007AE5DB01230593FDF781BE7CEEE87A36
:105580000023C7EEAAAACCF81830B6EE00DAB0EEC7
:105590006CBA3DEE6ADAFDF774BE0022B0EE6CBA6A
:1055A0000593CCF81820FDF76CBE7CEEE7CA9FEDA2
:1055B0005F7A0399CDF808C07BEE2CDA87EEA8EA73
:1055C00089000591DFF85CA1DFF85CB16DEE87DA48
:1055D000C7EEAA7ACDEE8ADAB6EE000A3DEEC00A30
:1055E0003EEE27DA06F014F805EE100AF8EEC57A5A
:1055F00000F03F00431C2AEE0DDA7DEEE7DA059954
:10560000DDF808C00AEB830353ED017A93ED007ACD
:1056100037EE677A0BEB0102EDEE877A4030B0F59A
:105620008E5F03F58073B0EE677AD2ED007AEDEE0F
:10563000077A01F10401C2ED007AE5DBF4EEEC8AB1
:10564000F1EE10FA40F23482CCEEA8CAF6EE007AFF
:105650007CEEE7DA9FED35DA2BEE0DDAF6EE00CAD6
:105660008DEE0ADA7DEE6CCAFDF7CDBDD8ED00AA4D
:10567000F6EE006A6AEEA6AA6AEE87AA67EE2AAA82
:10568000FEF7E3BA7CEEE86A9FED28BACDF808C0D1
:1056900026EE8BBAFFEE00BA8BEE0ABADFF884A0D2
:1056A000DFF884B0C7EEA87AC6EEAA6ACBEEAABA33
:1056B0003BEE470A7BEEE7BA37EE66DA05F0A8FF65
:1056C00005EE100AF8EEC57A00F03F000399DDF808
:1056D00008C0431C6AEE2BBA3BEE67BA0AEB830A9A
:1056E0008B005AED017A9AED007A37EE677A0BEB70
:1056F0000302EBEE077A4030B0F58E5F0AF5807A50
:10570000B0EE677AD2ED007AEBEE877A03F104030C
:10571000C2ED007AE5DB0123FFF7B3BA10EA000817
:105720003C0B0020C47B01087C0500200000804267
:105730001FED02DA0399DFF864B32BEE0DDA89006E
:105740008DEE0ADA05917DEE47CAFDF75CBD7CEE71
:10575000E86A9FEDD56A0399CDF808C03BEE26DADA
:10576000BFEE00EA2DEE06DAC7EEA87A89000591B1
:10577000DFF82CA3DFF824B38DEE0ADAC6EEAA6AAE
:105780008EEE2AEA3DEE470A3EEE67EA77EE66DAEB
:1057900005F03EFF05EE100AF8EEC57A00F03F0076
:1057A000431C2AEE0EEA3DEE67DA0599DDF808C0E3
:1057B0000AEB830353ED017A93ED007A37EE677AB3
:1057C0000BEB0102EDEE077A4030B0F58E5F03F58A
:1057D0008073B0EE677AD2ED007AEEEE077A01F1CF
:1057E0000401C2ED007AE5DBF7EE007AF4EEE7CAD9
:1057F000F1EE10FABFF6C9AC87EEA8DAC7EEAA7AC6
:105800003DEE27DA2AEE0DDAFDF7C3BCDFEDA67A0E
:10581000A14B01937CEECB8AB6EE000A68EEA78A14
:10582000CDF808C0C8EE8A8ADFF878B238EEC00A30
:1058300005F0EEFE05EE100AF8EEC57A019B03991D
:10584000DDF808C000F03F0078EEE78A03EBC00304
:105850008A0093ED017AD3ED007AE8EE877A0BEBBC
:105860000201403091ED007A77EE677AB0F5905FF3
:1058700003F5007302F10402C1ED007AE9DBFEEEEC
:1058800000BA0123FFF763BA7CEECBBADFED867A6C
:10589000039A814B019378EEABBAB6EE000A6BEE39
:1058A000A7BA9200CBEE8ABA0592DFF8F8B13BEEC8
:1058B000C00A05F0ADFE05EE100AF8EEC57A019BB0
:1058C000059900F03F007BEEE7BA03EBC00292EDD2
:1058D000017AD2ED007AEBEE877A0BEB010E4030C5
:1058E0009EED007A77EE677AB0F5905F02F5007270
:1058F00001F10401CEED007AE9DBF7EE007AF4EE77
:10590000E7CAF1EE10FAFEF601A8F7EE00BA7CEE57
:10591000EBBADFED657A019378EEABBAB6EE000A2A
:105920006BEEA7BACBEE8ABA3BEEC00A05F070FE6A
:1059300005EE900AF8EEE57A019B059A00F03F002B
:105940007BEEE7BA03EBC00393ED017AD3ED007A67
:10595000EBEE877A0BEB0201403091ED007A77EEA7
:10596000277AB0F5905F03F5007302F10402C1EDF0
:10597000007AE9DBFDF7F9BF7BEE687ADFED4ACA12
:10598000CDF808C067EEACCA87EEAADACCEE8ACAB8
:10599000BFEE007AC7EE2AAAF6EE007A3CEEE70ADE
:1059A00037EECDDA05F034FE05EE900A7AEEEBBA6A
:1059B000F8EEE57A00F03F00411C6AEE2BBA7CEE6F
:1059C000E7CA059BDDF808C00AEB810A5AED017AA7
:1059D0009AED007A37EE677A0BEB0302ECEE877AEA
:1059E0004030B0F58E5F0AF5807AB0EE677AD2ED7E
:1059F000007AEBEE877A03F10403C2ED007AE5DB6F
:105A000001230593FDF73DBCB7EE007A37EE667AC9
:105A1000F0EE667AFEF7CCBDDFED237A019378EEE7
:105A2000CBAAB6EE000A6AEEA7AACAEE8AAA3AEE96
:105A3000C00A05F0EDFD05EE900AF8EEE57A019B4F
:105A4000059A00F03F007AEEE7AA03EBC00393ED5E
:105A5000017AD3ED007AEAEE877A0BEB020140304F
:105A600091ED007A77EE677AB0F5905F03F50073F9
:105A700002F10402C1ED007AE9DBFEEE00BA4FF05C
:105A8000010CFDF77EBFB7EE007A37EE687AF0EED4
:105A9000687AFEF7D0BD00BF10EA00087C05002040
:105AA000C47B01083C0B0020000080420000000085
:105AB0007CEEE87A5FED046ACDF808C07BEE27CA79
:105AC000BFEE007A6CEEA6CAC7EEAADACCEE8ACA9E
:105AD00087EE2A7AF6EE007A3CEEE70A77EEEDDA08
