:020000040800F2
:100000003C5B012015900008B5480008B148000885
:10001000AD480008A9480008A548000800000000F5
:10002000000000000000000000000000A1480008DF
:100030009D4800080000000099480008CD460008CF
:10004000B5570008B5570008B5570008B557000860
:10005000B5570008B5570008B55700085D480008B7
:10006000B5570008B5570008B5570008B19F0008FC
:10007000B5570008B5570008B5570008B557000830
:10008000B5570008B5570008B5570008B557000820
:10009000B5570008B5570008B5570008B557000810
:1000A000B5570008B5570008B5570008B557000800
:1000B00011480008B5570008B5570008B5570008A3
:1000C000B5570008B5570008B5570008B5570008E0
:1000D000B5570008B5570008B5570008B5570008D0
:1000E000B5570008B5570008B5570008B5570008C0
:1000F000B5570008B5570008B557000809A0000813
:10010000B5570008B5570008B5570008D147000893
:10011000B5570008B5570008B5570008B55700088F
:10012000B5570008B5570008B5570008B55700087F
:10013000B5570008B5570008B5570008B55700086F
:10014000B5570008B5570008B5570008A59F000827
:10015000B5570008B5570008B5570008B55700084F
:10016000B5570008B5570008B5570008B55700083F
:10017000B5570008B5570008B5570008B55700082F
:10018000B5570008B55700082DE980480020A5B0F4
:1001900005F038F8012005F035F8DA4C022005F0BA
:1001A00031F8032005F02EF8236BD74843F0010304
:1001B0002363626C0DF1900B42F480420123626470
:1001C0004BF8403D002559468DF854508DF8575056
:1001D00004F0B8FFCD4ACE4B1268A3FB02025209CD
:1001E000013AB2F1807F80F0B284CA4BCA495A60AA
:1001F000F020072281F823009D601A60626BC74BD4
:1002000042F0400262631A6842F004021A605968C0
:10021000C24AC907FBD59068C14EDFF868A3DFF872
:100220006893C04CDFEDC08ADFEDC09A9FEDC09AA5
:100230000CF0EAF8BF49C04AC04BC6F840A043F2F0
:10024000C82EC1F800E0BE491160002500274FF01C
:100250007E58BC4A1A60B1EE008AB0EE00AA06F1E0
:100260003800C6F82C80C6F8308086F8347086F8DE
:10027000357086F8367086F8377086ED0E8AB5656B
:1002800086ED0FAA04F0A2FD06F1640086ED198A3E
:10029000C6F86CA0C6F8845086ED1AAA04F096FD44
:1002A00006F1900086ED248AC6F898A0C6F8B050F2
:1002B00086ED25AA04F08AFD9FEDA30AA34BC9F899
:1002C00020300AF009F807EE100AF8EEC77AB6EE09
:1002D000008A67EE887A9E4B9E4AC9F82400FCEE9D
:1002E000E77A04202421C9F8287089F82C70C9ED18
:1002F0000C7A9F72DF721F735F739F731F70187287
:1003000059725A6004F0AEFD41F2B06E4FF001092F
:10031000914A06F80E9041F6B03E904802F80E90D1
:1003200004F6D42EC6F8C000CEF8005002F5B86E20
:100330008B49CEF8000004F6BC208A4B016004F61D
:10034000CC209FED897ADFED896ADFED897AC3F8E9
:100350000CA002F2C45C8CED008A1F625F6202F2A4
:10036000BC5C0160C3ED008A04F52C619D611D61D8
:1003700083ED028AC3ED018A04F6C42381ED007A7D
:10038000DFF808E28CED008A04F52D61DFF800C289
:10039000C3ED006A40F27753C1ED007AC2F8C83568
:1003A000DFF8F0A1CCF800A0394602F2CC504FF4AF
:1003B000AF52CEF800A0C6F8C83086ED318A86ED7F
:1003C0002F8A09F0E7FE39464FF4AF5204F6EC27C6
:1003D00006F1CC0009F0DEFE04F52F603D6004F666
:1003E000F827056004F60C303D6004F531670560C0
:1003F00004F618303D6004F62837056004F63830FE
:100400003D6004F53367056004F634303D6004F662
:100410004837C0F8008004F658303D6004F5356771
:100420000560DFED547A3D6004F6543004F6E827A9
:10043000C0F80080C7ED007A84F8DC9A84F8FC9A52
:1004400004F6083004F6F42704F61439C0ED007AF7
:10045000DFF844A1C9F800A004F52E60C7F800A099
:1004600004F6E4294FF0785704F5306A07604249F2
:10047000CAF8007004F60430C9F8001004F61C3AFB
:1004800004F63C393D4B016004F65C31CAF800309B
:10049000C9F8003004F5346004F6243A04F644390F
:1004A000DFF8F8C0DFF8F8E0354A0B604FF07A511A
:1004B00004F532670360CAF8002004F5366004F6DC
:1004C000683AC9F80020CCF8001004F66439CEF878
:1004D000001004F6743104F6783C3B6004F5376E86
:1004E0000360C9F80020CAF80050C1F8008004F683
:1004F0007C3004F5386A04F6843904F53961CCF8A7
:1005000000504FE000380240000002403000002060
:10051000D34D621010E000E000ED00E0000806504E
:1005200000000010F02100106F12833A000000302C
:10053000BF9F7A3FE0040020E80400201C4D01200A
:100540002812002048DD002000A00C460000A04337
:100550002C050020ECC40008F8100010CDCC4CBED7
:1005600000004842F44C0120AE47E13DDB0FC93F9B
:100570008FC2F53D6666663FA913D43ECDCC4C3F95
:1005800000C012440AD7233CF0040020A42C001021
:10059000AC16001000007043CDCCCC3EF04C0120D6
:1005A000E404002004F6883C0360CAF80030C9F86F
:1005B0000020CEF800500D6004F6983E04F694300A
:1005C00004F69C3A04F53A6304F6A83904F6B83206
:1005D00004F6BC31CCF8005004F53B6CC0F8008048
:1005E000CEF80050CAF800501D60C9F800501560E0
:1005F00004F6B43E04F53C6004F6C43A04F6C8338D
:1006000004F6D83904F53D620D6004F53E61CCF87E
:10061000005004F6D43CCEF80080056004F6DC3EC1
:1006200004F6E430CAF800501D6004F6E83A04F617
:10063000F833C9F80050156004F53F6904F6F43248
:100640000D6004F6FC31CCF80080F1EE067A04F679
:10065000A43CC2F80080CEF800500560CAF80050F3
:1006600004F5406004F6044E1D6004F6084AC9F81B
:10067000005004F5416204F61849CCED007A04F507
:1006800042630D6004F6144C04F61C413746C6F86C
:100690000480CCF8008047F8088B0560CEF8005045
:1006A000CAF80050C9F8005015601D600D6004F6CE
:1006B000244406F12C080BF0AFFE07EE100AF8EE0A
:1006C000C77AB0EE687A67EEA97A44F8045BA7EEC1
:1006D000897ACD4BA7EC017AF0EE477A96ED007A55
:1006E00077EE877A4745C6ED007AE4D1B7EE007A17
:1006F000C7EE277ADFF82883C448C54DC54CC64FDE
:100700004FF002090026012259464FF0100AC3EDAE
:10071000007AD8F8303043F00803C8F830308DF84C
:1007200054200192CDF850A08DF855908DF8566068
:100730008DF8576004F006FDD8F83030019A43F088
:100740000703C8F8303028464FF4107359468DF827
:10075000562014938DF854908DF855908DF857606D
:1007600004F0F0FC2B6A23F070632B622B6A43F0D9
:1007700080632B626B6A23F0F0036B626B6A43F059
:1007800040036B6220464FF4A053594614938DF8F2
:1007900054908DF855908DF856608DF8576004F0A0
:1007A000D1FC9E48036A23F470230362036A43F476
:1007B000C0230362636A23F470636362636A43F471
:1007C000C06363623B684B4500F0C2815946CDF877
:1007D00050A004F0B7FC636A23F470236362636A79
:1007E00043F4C02363628B4C0222002359468025C8
:1007F00020468DF854208DF855208DF856308DF810
:100800005730149504F09EFC236A804A23F070430D
:100810002362236A102143F0C043236244F6FF732E
:100820005183013BFDD1794B7D4C10221A83236CFF
:1008300043F400132364236A43F4001323624FF448
:10084000001004F077FC774B1A8892B242F0010254
:100850001A809A88A36822F03F0203F00C03120466
:10086000042B4FEA124201F0AF85082B41F0A98515
:100870006368616813F4800F18BF6B48636808BF32
:100880006A4801F03F01B0FBF1F1C3F3881301FBAB
:1008900003F363494C68C4F3014401346400B3FBBF
:1008A000F4F45F4862498568DFF890C15D4B614EA2
:1008B000C5F3031E44F2330511F80E80D0F808E0AA
:1008C000CEF3822E24FA08F411F80E80D0F808E056
:1008D00024FA08F4ACFB0480CEF3423E800C0243C1
:1008E00011F80E109A801A88A109A6FB01C1890986
:1008F00022F0010203294FEA024298BF042101308D
:10090000120C1A80188499831A8892B242F001025C
:100910001A801A8822F4816222F002021204120C58
:1009200042F480621A8001211D81022007F03CF907
:10093000AF210446042007F037F93F4BAF220444AF
:10094000812105201A7007F02FF9042104440620A4
:1009500007F02AF9CB210444202007F025F92120B3
:10096000CB2107F021F93B68022B19D10121082086
:1009700007F01AF901210546092007F015F9C021F1
:1009800005440E2007F010F92C44002104441420E3
:1009900007F00AF900210444152007F005F9044482
:1009A0009E21022007F000F9002104440A2007F0EC
:1009B000FBF83B68022B044404D00E20042107F00E
:1009C000F3F804440021272007F0EEF80F21044437
:1009D0001F2007F0E9F80A2126181A2007F0E4F88A
:1009E0000F4C0A2106441B2007F0DEF8236C43F469
:1009F00000432364236A43F40043236206444FF414
:100A0000004004F097FB1BE000000010000C0240C7
:100A100000040240000802401400002000000240D0
:100A2000003802400054004000127A000024F40014
:100A30001C000020632D3E052405002083DE1B439F
:100A40004C4A938B23F47B6323F00F031B041B0C92
:100A5000022193831184918BA3681B0289B203D571
:100A6000A36823F40003A360434B444CD3F88450A1
:100A7000D3F884E05B684248424A03F03F03B4FB8A
:100A8000F3F4C5F38815CEF3027305FB04F4B4FB4D
:100A9000F3F31B0A03EB83035B00A0FB03E39B0A56
:100AA0000533A2FB0302D2085308981E02F001028C
:100AB000120280B292B2FD289CBF42F400721A4327
:100AC0002C4B88BF40F2022241F420611A849983A2
:100AD0003B68022B11D1284A2B4B116C41F000517D
:100AE00011641A68169922F47F6222F00E020A43FA
:100AF0001A601A6842F001021A60002E00F0B683F4
:100B0000224C0DF14808224D2248234A3968A26040
:100B10004FF4C86303602846236104F0C5FA2B68CC
:100B200043F001032B60134B9A8B570504D49A8B27
:100B300092B242F480629A83184B194C194A1A49AE
:100B4000116000251D602369DE072FD4FEE7FEE754
:100B5000D8F8303043F00103C8F830305946032349
:100B6000CDF850A08DF857608DF8543004F0EAFAB3
:100B700039E600BF003C00400038024000127A0015
:100B8000F1197605CDCCCCCC00740040B04A0120E0
:100B9000B860024018000020A80500202C000020AA
:100BA00000000240EC4C012028120020DB4EDC4B00
:100BB000DFF8A4A31D70336B43F0010333634FF4DC
:100BC000D0524FF0030902232046594614928DF863
:100BD00055908DF854308DF856508DF8575004F0DC
:100BE000B1FA636A23F0F0036362636A43F0A0031F
:100BF0006362636A23F470436362636A43F420436D
:100C00006362636A23F470236362636A43F420239C
:100C10000127636220464FF4806359468DF8559052
:100C200014938DF856708DF8577004F08BFA626A41
:100C3000BC4BBD49DFF81C9322F470626262626AA9
:100C400042F420626262726C42F480427264726B9F
:100C50004FF0006442F08002726340469C601C22A8
:100C6000D9608DF848208DF84A708DF84B708DF85A
:100C7000495004F013FB336C3B433364284604F0C3
:100C8000E9FA9AF804308AF803704022072B8AF8B0
:100C900000508AF801508AF802508AF81C708AF8CD
:100CA00020508AF821708AF8062007D803F531739E
:100CB00009EB43039A88C2F30E029A809AF8053032
:100CC000072B07D803F5317309EB43039A88C2F366
:100CD0000E029A809549964CCAF8641000230821A8
:100CE000C9F81033CAF86840C9F81433C9F850334A
:100CF00089F88C33C9F81833C9F8543389F88D331F
:100D0000C9F81C33C9F8583389F88E33C9F8203331
:100D1000C9F85C3389F88F33C9F82433C9F86033D4
:100D200089F89033C9F82833C9F8643389F89133C6
:100D3000C9F82C33C9F8683389F89233C9F83033CD
:100D4000C9F86C3389F89333C9F83433C9F8703370
:100D500089F89433C9F83833C9F8743389F895336E
:100D6000C9F83C33A9F8B21389F800104021A9F85A
:100D70000410042189F801104FF4A071DFF8DC8120
:100D8000DFF8DCC1A9F8061002214FF0A042694843
:100D900089F808106849DFF8CCE1684F684E694D62
:100DA000C9F81080012408F55878C9F818C0ACF5C6
:100DB000A06CC9F87833C9F80C2089F8963389F803
:100DC0000330C9F84033C9F854E0C9F87C33C9F896
:100DD0001C7089F89733C9F85860C9F84433C9F8CA
:100DE0002050C9F88033C9F85C0089F89833C9F8F5
:100DF0002410C9F84833C9F86080C9F88433A0F5D5
:100E0000E06089F89933A1F58C61C9F84C3389F811
:100E10000240C9F8883389F80B4089F89A33C9F839
:100E200014C09368C9F8CC00C9F89010A8F5C86838
:100E30000CF5A07CAEF5B46EA7F56877A6F5B066A4
:100E4000A5F5607500F5D07001F53061C9F89480A2
:100E5000C9F898C0C9F89CE0C9F8A070C9F8A460A6
:100E6000C9F8A850C9F8AC00C9F8D0100CF52B5C33
:100E7000DFF8F4E03448354E354DC9F8D8C0A1F557
:100E8000007123F0010308F5D7584FF05027C9F837
:100E9000DCE0C9F80C11C9F8D480C9F8E070C9F8D1
:100EA000E460C9F8E850C9F8EC009360D36843F0F7
:100EB0004003D36004F032F899F80920D9F80C30D7
:100EC000002A0CBF4FF434124FF474129A63214677
:100ED000142003F011FE99F80320D9F80C30A24237
:100EE00006D19A68052161F3440242F020029A601B
:100EF000DA68184D6FF39E7242F000520121DA60F9
:100F0000322003F0F9FD284604F0A4F9D9F80C3199
:100F100000241C6099F80830012B27E000380240BB
:100F20000000002000ED00E00005FA0504000020AC
:100F300034000020400B0050600900502009005090
:100F4000200B00504009005000800050006000500D
:100F500000700050904D01203C050020000800501A
:100F600000090050000B0050004000506B69214DFB
:100F70001A6816BF012164F3010261F301021A60CD
:100F8000284603F031FDD9F814301A686FF3820255
:100F90001A6099F80B30012B264600F0CB81EB68E4
:100FA00000221192119A144942F020021192119AD2
:100FB000102060F38A121192119A1A611A69119223
:100FC00003E01A691192013902D0119A9406F8D4FB
:100FD0000221032003F090FD00231293129AD9F806
:100FE0000C30054942F010021292129A1A611A69E5
:100FF000129207E0904D0120400D03001A691292F1
:10100000013902D0129AD006F8D40320022103F04D
:1010100073FD99F80030BA48002B5BD0D0F89040AF
:101020004FF0FF310022012BA160E26052D9D0F8CD
:101030009440022BA160E2604CD9D0F89840032B79
:10104000A160E26046D9D0F89C40042BA160E26028
:1010500040D9D0F8A040052BA160E2603AD9D0F881
:10106000A440062BA160E26034D9D0F8A840072B39
:10107000A160E2602ED9D0F8AC40082BA160E260FC
:1010800028D9D0F8B000092B8160C26022D9D9F8E4
:10109000B4409B48A1600A2BE2601BD9D0F8B8404D
:1010A0000B2BA160E26015D9D0F8BC400C2BA160DD
:1010B000E2600FD9D0F8C0400D2BA160E26009D9E1
:1010C000D0F8C4400E2BA160E26003D9D0F8C8303C
:1010D0009960DA608B4BD9F8CC20012159831368D1
:1010E0006FF382036FF341036FF3C3036FF3451391
:1010F000D90402D443F480531360C820012103F0C3
:10110000FBFCDAF8682099F80310D9F80C30106865
:101110007D4C7E4F7E4E002291429A614FF0FF310E
:1011200008BF10226FF08045596142F00C5259609F
:101130005D619C61996942F4001242F008020A4321
:101140009A619A6842F001029A608047714B724A34
:10115000DA600124432358468DF850308DF8514011
:101160008DF852408DF8534004F098F8172202236E
:1011700058468DF850208DF852308DF851408DF83A
:10118000534004F08BF8CDF808B00223CB468DF81D
:101190004330DBF810234FF00008002A48D19AF8BA
:1011A00000205E49002A40F0DB85DBF81033002B7D
:1011B00040F022864FF08043012139601A8822F0E6
:1011C00001021204120C1A809A8922F00102120400
:1011D000120C9A811A8822F45C721204120C1A8082
:1011E00042F6DF644FF6FE720520DC6218859982B4
:1011F0001A821A8892B242F080021A809A8992B2B8
:101200000A439A811A8892B20A431A803B68002BDB
:10121000FCD14FF08042138823F001031B041B0C08
:10122000138002238DF84330DBF81023002AB6D058
:101230009AF800300A2BBDD801A151F823F000BF65
:10124000AB1100081B140008671D0008B511000849
:10125000D9130008FB130008A51300087B1300082E
:1012600055130008B5110008B3150008D7F8008021
:10127000B8F1010F01F0B580294C11AE3B68012B8C
:1012800001F0A580274B28481A6B42F4001242F067
:1012900001021A631A6C0DF1480842F000521A64F8
:1012A000032541461022002312928DF84F308DF80D
:1012B0004C5003F047FF1D4B169A1968DFF870E099
:1012C00021F47F6121F00E010A431A601A6842F08E
:1012D00001021A60BEF804309BB243F08003AEF8FE
:1012E00004303322012330468DF845508DF84650A6
:1012F0008DF844208DF8473003F0D0FF03E400BFA1
:10130000904D01200008024000080080EC040020FD
:10131000EC4A012000ED00E00006FA053C05002043
:10132000B04A012000380240000002400074004032
:10133000003C00402122A121EB6862F30F0461F31D
:101340000F06C0F28004C0F280065A629C62C3F8A5
:10135000006125E6DAF86830C64C9B6B9847012897
:101360007FF428AF636EC4481B6821469847002865
:101370007FF420AF052323701CE79AF81C308AF80D
:101380001280013B0A2B3FF615AFDFE813F054043F
:1013900041041E04090488047404B704EB03BA036F
:1013A000A903DB03DAF86430B24CB348DB682146AA
:1013B00098478DF843009DF84330DBB21A1FD2B234
:1013C000012A40F25585062B7FF4F4AEA36E0A2263
:1013D0001B6822709847EDE69AF80230092B3FF619
:1013E000E9AEDFE813F05C02F001F502A10116039B
:1013F000C00272014D0124011C01DAF864309D4CD9
:101400009B689D48214698478DF843009DF84330DE
:10141000002BD0D106232370CCE6DAF86830954C47
:101420009B689847BBF98C25934B002A80F2728504
:10143000B3F98E25002A80F26A85B3F99025002A37
:1014400080F26285B3F99225002A80F24B85B3F9C8
:101450009425002A80F27B85B3F99625002A80F234
:101460007385B3F99825002A80F26B85B3F99A3514
:10147000002B80F26385FF236371BBF98E257E4BC1
:10148000002A80F22885B3F99025002A80F2208571
:10149000B3F99225002A80F21185B3F99425002A28
:1014A00080F25885B3F99625002A80F24485B3F975
:1014B0009825002A80F23C85B3F99A35002BB8BFF5
:1014C000FF2380F232856C488AF8043003F08CFAEE
:1014D000DAF86830DB689847DBF8CC20DAF8683057
:1014E0001068C0F341408AF82100042200F0030094
:1014F0009B698AF8002098479AF804109AF82120EE
:101500000BEB41000BEB4113B0F88C4583F8B18332
:1015100004F07F0501F11E00C4F3C01483F8AE434C
:101520000BEB40109AF8204083F8AC439AF8064041
:1015300083F8AD53A3F8B24383F8AF2303F56A737E
:1015400080F8048080F805800AB901221A724A489E
:1015500003F0DEFE9AF805109AF821200BEB41000B
:101560000BEB4113B0F88C4583F8B18304F07F0591
:1015700001F11E00C4F3C01483F8AE430BEB40101E
:101580009AF8204083F8AC439AF8064083F8AD53AC
:10159000A3F8B24383F8AF2303F56A7380F804809D
:1015A00080F805800AB901221A72334803F0B0FEB0
:1015B00000E69AF804208AF8008001238AF80330B4
:1015C0008AF81C308AF82130072A4FF040038AF845
:1015D00001808AF802808AF820808AF8063007D8CD
:1015E00002F531730BEB43039A88C2F30E029A8023
:1015F0009AF80530072B07D803F531730BEB43033B
:101600009A88C2F30E029A80DAF868305B689847CD
:10161000DAF8643018485B6818499847CAE5DAF880
:1016200068305B6B984708238AF80030C2E59AF867
:1016300003209AF83930AAF816300921012A8AF8CD
:101640001480AAF81880AAF81A808AF81510094B95
:1016500000F0B084022A7FF4ADAD1A7F0D2A00F0AD
:1016600020860B3AD2B2012A3FF6A4AD0122DA70ED
:10167000A0E500BF3C050020904D01205C05002046
:101680009AF83220D04C002A00F0478442F440728D
:10169000E378E282802106222175627540F20941D9
:1016A000FF22012B2183628300F01884022B7FF438
:1016B00081AD237F0D2B00F002860B3BDBB2012BAB
:1016C0003FF678AD0123E37074E59AF83120BE4C03
:1016D000002A00F05F8442F44072E378E2828021C5
:1016E00006222175627540F20941FF22012B2183F8
:1016F000628300F0C483022B7FF45CAD237F0D2B4B
:10170000DBD19BF8112184F81C800123032AE370AC
:10171000AE4B00F00486DAF868300298DB6A98472E
:1017200007238AF8023045E59AF80320AAF81880C2
:1017300080214FF4007306208AF81410012A4FF01C
:101740000901AAF816308AF81500AAF81A109E4B5B
:1017500000F01B84022A7FF42DAD1A7F0D2A80D160
:101760009BF813119BF81201B07000EB01209BF85D
:101770001021D8869BF81101F17032709BF814117A
:1017800083F8342070709BF8152183F835009BF89E
:1017900016013171012483F8381072719BF817110A
:1017A00083F83920B0719BF8182183F83A0004209F
:1017B00083F81C80DC70F17183F83B10327283F87F
:1017C0003C209870F6E49AF80350AAF81880802319
:1017D00006214FF480728AF81430012D4FF0120365
:1017E0008AF81510AAF81620AAF81A30764C00F0DC
:1017F000B483022D7FF4DEAC237F0D2B7FF45DAF2D
:101800009BF812219BF818319BF813119BF81901D2
:1018100084F81C8002EB012103EB00209BF81B21C4
:101820009BF81A31A18403EB02239BF81D119BF84E
:101830001C21A38502EB01219BF81031E1850122D7
:101840009BF81111E27084F822309BF814219BF868
:10185000153184F8231084F826209BF816119BF884
:10186000172184F827309BF81E3184F8281084F85B
:1018700029209BF81F119BF8202184F830309BF819
:101880002131608584F8311084F8322084F83330B7
:10189000A36E04F12200DB699847A5708AE49AF8E8
:1018A0000330AAF81880802206204FF480718AF84D
:1018B0001420012B4FF008028AF81500AAF8161020
:1018C000AAF81A20404C00F0DA82022B7FF472ACA6
:1018D000237F0D2B7FF4F1AE9BF813019BF812319F
:1018E0009BF810119BF8112184F8221003EB0023C0
:1018F000A3849BF814319BF8151184F8232084F8F5
:1019000026309BF816219BF8173184F82710012503
:1019100084F8282084F829302C48A37184F81C808E
:10192000E57003F061F86179A379A5700BEB4112C2
:1019300002F56A725089984201D003B1538123485D
:1019400003F0E6FC9AF804109AF806300BEB41120B
:1019500002F56A72508998423FF427AE002B3FF49B
:1019600024AE538121E69AF83020174C002A00F06B
:10197000198342F44072E378E282802106222175C5
:10198000627540F20941FF22012B2183628300F03E
:10199000A582022B7FF40EAC237F0D2B7FF48DAE3E
:1019A0009BF8112184F81C800123032AE370074B64
:1019B00000F0E884DAF8683002989B6A98470623BA
:1019C0008AF80230FFF7F6BB3C050020904D01205D
:1019D0009AF803108AF81480012005248142AAF89D
:1019E0001880AAF81A808AF81540AAF81600D34A77
:1019F00000F0ED8202297FF4DDAB137F0D2B00F0A8
:101A0000F2830B3BDBB2012B3FF6D4ABD070FFF778
:101A1000D1BB9AF80320BAF83640AAF81880802380
:101A200006218AF81430012A4FF40073AAF8163000
:101A3000AAF81A408AF81510C04B00F09A82022AC0
:101A40007FF4B8AB1A7F0D2A7FF40BAE012283F826
:101A50001C80DA7024B1BA48BA49224608F000FB6B
:101A60009BF813219BF810119BF812318AF834105F
:101A70009BF811119BF815018AF8351003EB02232E
:101A80009BF816119BF814218AF839009BB29BF839
:101A900017018AF83A10092C9BF81811AAF8363069
:101AA0008AF838208AF83B008AF83C100AD9012AC3
:101AB00040F2D682DFF8A0C2DFF8A0E2ACF80080E6
:101AC0008EF80080A048DAF8683000F10A015B6AFD
:101AD00000F11402984705238AF80230FFF76ABB29
:101AE0009AF80530954A5B4493F89B33DBB2012B9F
:101AF00000F0A182022B00F06883032B7FF45AAB25
:101B00005EE09AF805000BEB000100F115020BEB0B
:101B100040130BEB421281F89B830125022183F8CD
:101B2000AE83C2F81881C3F8BC8383F8C55382F82A
:101B30001411C3F8C08303F01DFA0A238AF81C307D
:101B4000FFF738BB9AF80E207C4B0132D2B2022A42
:101B50008AF80E2040F2628208215A7899741A702D
:101B6000FFF728BB9AF80420744B78495A4492F83E
:101B70009B23D2B2012A00F05E82032A20D0496959
:101B8000734D8C68188A2988A4B2201A884217D805
:101B9000042A7FF40FAB59789A741970FFF70ABBC7
:101BA0009AF80430654A5B4493F89B33DBB2012B0F
:101BB00000F07181042B00F03582032B40F06D8121
:101BC0000B238AF81C30FFF7F5BA9AF80400DAF80C
:101BD00008200BEB401300F115010BEB4111012420
:101BE00083F8AE43022481F81441C1F818210BEBAD
:101BF0000004BAF80C20C3F8C083C3F8BC2384F8EF
:101C00009B8303F0B7F904238AF81C30FFF7D2BA9C
:101C10009AF80520494B5A4492F89B23D2B2012AE4
:101C200000F0E281032A7FF4C5AA0B21052219776F
:101C30009A74FFF7BFBA9AF80500464D00F11502F5
:101C40000BEB40130BEB4212032483F8AE830BEB38
:101C50000001C2F8185182F814410822C3F8C08369
:101C6000C3F8BC2381F89B8303F084F902238AF82C
:101C70001C30FFF79FBA9AF80530304A5B4493F85E
:101C80009B33DBB2012B00F01383042B00F0CA81DD
:101C9000022B7FF432AF05231377FFF78BBA9AF844
:101CA0000500BAF80C4003944FEA401900F11503FF
:101CB00000F11E020BEB09050BEB431E0BEB42126E
:101CC000DAF808400BEB43130121D944517185F830
:101CD000AE830BEB0002CEF818410221039CC5F83D
:101CE000BC4383F81411C9F8C08382F89B8303F0C6
:101CF00041F906238AF81C30FFF75CBA9AF8040011
:101D00000BEB401300F115020BEB4212012483F898
:101D1000AE430BEB00010224C2F8188182F8144193
:101D2000C3F8BC83C3F8C08381F89B8303F022F916
:101D300008238AF81C30FFF73DBA00BF3C0500209D
:101D4000EC4A0120A04E012070050020904D01209A
:101D5000260500205005002028050020DC04002076
:101D60009A4200D00B70DAF868301B6998479AF8ED
:101D700004208AF8008001238AF803308AF81C3096
:101D80008AF82130072A4FF040038AF801808AF848
:101D900002808AF820808AF8063007D802F531736D
:101DA0000BEB43039A88C2F30E029A809AF805302F
:101DB000072B07D803F531730BEB43039A88C2F363
:101DC0000E029A80DAF868305B689847DAF8643077
:101DD0009D485B689D499847ABF89085ABF8928524
:101DE000ABF89485ABF89685ABF89885ABF89A85F7
:101DF0008AF80080FFF7DEB94FF0804364223A6032
:101E00001A8822F0010212040121120C8AF8001033
:101E10001A809A8922F001021204120C9A811A88FF
:101E200022F45C721204120C1A8042F6DF644FF640
:101E3000FE720520DC62188599821A821A8892B295
:101E400042F080021A809A8992B20A439A811A88D3
:101E500092B20A431A803B68002BFCD14FF08042BB
:101E6000138823F001031B041B0C1380FFF7A2B996
:101E7000A36E5B6C98470A232370FFF79BB9744DE0
:101E8000A5600421A28123770722022361702270BA
:101E9000E370FFF78FB909231377DBF81430BAF832
:101EA000101098686B4B80B21A886B4B411A9142A4
:101EB0007FF680A90B221A77FFF77CB903231A4615
:101EC0000BEB420248F28001A2F88C15FFF7FBBA37
:101ED00002231A46F4E701231A46F1E75C48A060A2
:101EE0000421CFE703231A460BEB42024FF40041D3
:101EF000A2F88C15BBF88C258AF8053013043FF541
:101F0000BCAA00231A46DBE702231A46ECE70123AA
:101F10001A46E9E700231A46E6E7A36E4F481B6B13
:101F200098470823A370FFF745B907231A46C7E768
:101F300006231A46C4E705231A46C1E707231A46B3
:101F4000D2E706231A46CFE705231A46CCE7042337
:101F50001A46C9E704231A46B2E704213C48A38184
:101F600007220223A060257761702270E370FFF7DB
:101F700021B9374D9D6004209C8107211A770222E8
:101F800058701970DA70FFF715B9314C9C60042055
:101F90009981F2E7A36E3148DB6A98470723A37063
:101FA000FFF708B9A36E2D489B6A98470623A370D4
:101FB000FFF700B904201A7707210222C3F808802E
:101FC000A3F80C8058701970DA70FFF7F3B8042387
:101FD0001177537007210223C2F80880A2F80C8001
:101FE0001170D370FFF7E6B81A7D598B22F07F028B
:101FF000D2B2002900F0ED80DFF858C041F28831FC
:10200000ACF80010002A40F0BA8105221A77DBF8FC
:1020100014309B68AAF81030FFF7CCB801221A7769
:10202000FFF7C8B89AF801308AF800300C238AF814
:102030001C30FFF7BFB89AF801308AF800300D2342
:102040008AF81C30FFF7B6B8904D01205C050020DF
:10205000A04E0120260500203C050020D8C4000821
:10206000BD48BE4900780C900988BD480B910925F0
:10207000CDF83CB0AB4240F2898002781044154460
:1020800041780429ADB2F5D1C27884780492022A4D
:102090000394EFD8017990F800C0CDF814C090F8FF
:1020A00005E08279C47990F808C0CDF818E00229DB
:1020B00007920894CDF824C0DCD8DDF80CE0A94CD8
:1020C0004FFA8EFE0FFA8EF204F10A0C02EBC203F5
:1020D0004FF0000B0CEB02122344CDF834E00A92CF
:1020E0005C46A946A1424BDD027810444A4445783B
:1020F000052D1FFA82F9F5D10A9ADDF830E0E400E7
:10210000009422440D9CA64543D0059D1D704FF0C0
:1021100004045C70039D049C9D70DC70069D079C0C
:102120005D719C71089D099CDD7119711C72039D84
:102130000C9590F805E0057990F801C0CDF838C00D
:10214000009CDDF828C005EB0E2590F800E00CF8A7
:1021500004E00BF1010B90F802C090F803E09580C9
:10216000ADB25FFA8BFB0B950E9D55704FFA8BF459
:1021700085799571A14282F802C082F803E0B3DC50
:10218000BAF836304D46AB423FF677AFDDF83CB09B
:1021900090E4057990F805E0DDF82CC005EB0E24FD
:1021A000A445EDDC059C1C704FF004045C70039C9E
:1021B0009C70049CDC70069C5C71079C9C71089C64
:1021C000DC71099C19711C72B6E709231377FEF7BD
:1021D000F1BFDFF89CE13221AEF80010002A6BD18C
:1021E00007221A7713E74FF0804339601988D070BF
:1021F00021F001010904090C1980998982F81C80D9
:1022000021F001021204120C9A811A8822F45C72E5
:102210001204120C1A8042F6DF614FF6FE72D96288
:102220001C8598821A821A8892B242F080021A8023
:102230009A8992B242F001029A811A8892B242F0CF
:1022400001021A803B68002BFCD14FF08042012133
:1022500013888AF8201023F00103DAF868101B04B1
:102260001B0C13800B6A98479AF820309AF80410D8
:1022700003228AF802201BB10BEB411282F8AC3327
:10228000394C204603F044F89AF820309AF80510AB
:10229000002B3FF48AA904EB411484F8AC33FFF718
:1022A00084B9012283F81C809970DA70FEF782BF2E
:1022B00007231377FEF77EBF09221A77A7E69BF85C
:1022C000112184F81C800123032AE370264B09D0D6
:1022D000DAF8683002981B6B984708238AF80230B6
:1022E000FEF768BF93F81031023BFF2BA8BFFF2316
:1022F00098B280B10DF1510200231C4C991CE35C93
:1023000002F8013C8BB29842114602F10102F4D866
:1023100081F80080DCE7029981F80080D8E793F823
:102320001031023BFF2BA8BFFF2398B210B30DF171
:1023300051020023DFF834C0991C1CF8033002F866
:10234000013C8BB29842114602F10102F2D881F8A9
:102350000080FFF7E0B900BFDC0400202805002062
:10236000A04E01207A050020904D0120A24E0120B0
:1023700026050020029981F80080FFF7CCB90322DE
:102380001A7744E693F81031023BFF2BA8BFFF23D6
:1023900098B288B10DF1510200233E4C991CE35CC8
:1023A00002F8013C8BB29842114602F10102F4D8C6
:1023B00081F80080FFF7FEBA029981F80080FFF7EC
:1023C000F9BA354CFEF76DBA344CFEF76ABA344BA5
:1023D0009A8892B242F002029A800DF14808FEF704
:1023E00092BB304B304D196B304C314ADFF8C49002
:1023F00041F4001119632B6823F001032B60286856
:10240000212120F001004FF03D5328604FF6FE7C63
:102410002E6028466E604FF4806EAE604FF0400A2A
:10242000EE602E616961D3604FF400614FF4005299
:102430004FF480732660A6606661E6622663666379
:10244000A6634FF4403622626362A662C4F8049029
:10245000C4F80CA0C4F810C0C4F818E0E16102F0A0
:1024600023FE2B6843F010032B602B6811AE43F062
:1024700008032B602F22032330468DF847808DF808
:1024800044208DF845308DF8463002F007FFFEF706
:10249000F5BE00BFA24E01200024F40000127A0015
:1024A000003C004000380240B8600240B04A0120C1
:1024B000006002400C3C00402DE9F04F2DED088BF0
:1024C00085B000F10409DFF83C83C74EC74DC84F03
:1024D000C84C9FEDC99ADFEDC99A9FEDC98A00F2F9
:1024E00044600390D8F82830C6495A1E002BC8F81B
:1024F000282041F36782D5ED037AF5EEC07AF1EE3C
:1025000010FA08D577EE887AF5EEC07AF1EE10FA77
:10251000F8D4C5ED037AF4EEC87AF1EE10FA08DBD0
:1025200077EEC87AF4EEC87AF1EE10FAF8DAC5ED73
:10253000037A9FEDB50A95ED00AA27EE800A07F011
:10254000CBFEB249D5ED037AD5ED025A9FEDB86ABC
:10255000AF4ADFF8D8E2D2ED006A9EF8003001EB16
:10256000800090ED007A2AEE077AF7EE008A77EE87
:10257000288AE5EE867A68EEA68A85ED077AC7EDA9
:10258000028AC5ED037A102B01F2DE81DFE813F039
:10259000E100F7027A00A2008C01DC09DC0952019B
:1025A000440011001009FC0685047F03AF076E0587
:1025B000D901D7ED037AF5EEC07AF1EE10FA0DD518
:1025C00077EE887AF5EEC07AF1EE10FAF8D4F4EEF0
:1025D000C87AF1EE10FA06DB77EEC87AF4EEC87A24
:1025E000F1EE10FAF8DA9FED8B7ADFED916ADFED0C
:1025F0008AAAF4EEC77AE8EEA67A97ED007AC7EDDC
:10260000037AF1EE10FA58BFB1EE477A87ED077AF8
:1026100067EE2AAA01F0DEB8D7ED037AF5EEC07AAC
:10262000F1EE10FA0DD577EE887AF5EEC07AF1EE7C
:1026300010FAF8D4F4EEC87AF1EE10FA06DB77EE71
:10264000C87AF4EEC87AF1EE10FAF8DA9FED717AF2
:10265000F4EEC77AF1EE10FA00F10E83DFED6F6A47
:10266000D7ED00AAB8EE087AA7EEA67A67EE2AAAF6
:102670009FED6F7AC7ED07AAE8EE877AC7ED037A78
:1026800001F0A8B897ED030AB4EEC80AF1EE10FA0B
:1026900008DB30EE480AB4EEC80AF1EE10FAF8DAB8
:1026A00087ED030A07F0CAFED7ED037A97ED026AB9
:1026B000DFED5F6A97ED007ADFED59AAE6EE267A44
:1026C00020EE070AC7ED037A87ED070A60EE2AAA13
:1026D00001F080B8D7ED037AF5EEC07AF1EE10FA8A
:1026E00008D577EE887AF5EEC07AF1EE10FAF8D4D4
:1026F000C7ED037AF4EEC87AF1EE10FA08DB77EE54
:10270000C87AF4EEC87AF1EE10FAF8DAC7ED037A77
:102710009FED3D0AD7ED008ADFED41AA27EE800A42
:1027200007F0DAFD3949D7ED037A97ED026ADFED5C
:10273000406A01EB800090ED007AE6EE267A28EE02
:10274000877AC7ED037A87ED077A67EE2AAA01F048
:1027500041B8D7ED037AF5EEC07AF1EE10FA0DD557
:1027600077EE887AF5EEC07AF1EE10FAF8D4F4EE4E
:10277000C87AF1EE10FA06DB77EEC87AF4EEC87A82
:10278000F1EE10FAF8DA9FED277AF4EEC78AF1EE4F
:1027900010FA01F194849FED1F7AF4EEC77AF1EEFE
:1027A00010FA87ED047A01F1A084DFED1F6AD7EDFE
:1027B000005AB0EE006AE7EE866A38EE476A36EEF7
:1027C000C77A27EE257A87EE067ADFED196ADFED04
:1027D00014AA87ED077AE8EEA67A67EE2AAAC7ED73
:1027E000037A00F0F7BF00BFF44C01208C2D0010DD
:1027F0000C2D0010EC2D001000000030CDCCCC3E94
:10280000DB0FC940F004002083F922430CC5000807
:10281000382E0010DB0F49409A99193F83F9223F67
:10282000CDCC4C3F0000FA45DB0FC9C0340000108E
:102830001F42093997ED030AB5EEC00AF1EE10FA0E
:1028400008D530EE080AB5EEC00AF1EE10FAF8D459
:1028500087ED030AB4EEC80AF1EE10FA08DB30EE99
:10286000480AB4EEC80AF1EE10FAF8DA87ED030A66
:1028700007F0E4FDD7ED00AAD7ED037AD7ED026AA1
:102880001FED157A60EE2AAAE6EE877A60EE2AAA94
:10289000C7ED037A60EE2AAA60EE2AAA60EE2AAAA1
:1028A000C7ED07AA00F096BFD549D64ADFEDD66A34
:1028B000DFEDD65ADFEDD64A9FEDD65A012306EE5C
:1028C000103AB8EEC67A68EE877AF4EEE57AF1EE61
:1028D00010FA29D5F2EC017AF4EEC87AF1EE10FA8A
:1028E00008DB77EEC87AF4EEC87AF1EE10FAF8DA7F
:1028F00042ED017A27EEA46A27EE057ABCEEC66A9D
:10290000DFF81CE316EE100AE8EE877A80B20EEBD1
:10291000800090ED007AB1EC016A42ED017A01335A
:102920000B2BE6EE076ACAD1BB4BD7ED007A93EDCD
:10293000007A66EE876A66EEA7AAC7ED07AA00F0DE
:1029400049BFDFF8E8A2DFEDB07A9AED067ADAED5A
:10295000054A9FEDB05ADFF8D8B2B04B9AED036A42
:10296000DBED066AD3ED065A28EE877A64EEA77A85
:1029700068EEA66AE7EE057A68EEA58A77EE867AB3
:102980008AED027AF5EEC07AF1EE10FACAED037A1A
:10299000CBED026AC3ED028A08D577EE887AF5EEB0
:1029A000C07AF1EE10FAF8D4CAED037AF4EEC87AE0
:1029B000F1EE10FA08DB77EEC87AF4EEC87AF1EEA1
:1029C00010FAF8DACAED037A9FED910ADAED008A7F
:1029D000019327EE800A07F07FFC9149D7ED057A35
:1029E000D7ED025A9FED8B6AD7ED036A019B01EB8D
:1029F000800090ED007A28EE877A67EE277A8AEDDC
:102A0000077AE5EE867A77EEA67AF5EEC07AF1EEF1
:102A100010FAC7ED037A08D577EE887AF5EEC07A1A
:102A2000F1EE10FAF8D4C7ED037AF4EEC87AF1EEBD
:102A300010FA08DB77EEC87AF4EEC87AF1EE10FAF5
:102A4000F8DAC7ED037A9FED720AD7ED008A019399
:102A500027EE800A07F040FC019BDFED6B7AD3ED97
:102A6000055A9FED6C7A93ED026A6D4AD3ED036AC5
:102A700065EEA77A02EB8000E6EE077A90ED007A29
:102A800077EEA67A68EE878AF5EEC07AF1EE10FA54
:102A9000C3ED037AC7ED078A08D577EE887AF5EE9D
:102AA000C07AF1EE10FAF8D4C3ED037AF4EEC87AE6
:102AB000F1EE10FA08DB77EEC87AF4EEC87AF1EEA0
:102AC00010FAF8DAC3ED037A9FED510AD3ED008ACC
:102AD000019327EE800A07F0FFFBDFF844E1DBED0E
:102AE000057ADBED025A9FED4B6ADBED036A019B31
:102AF0000EEB800090ED007A28EE877A67EE277A59
:102B000083ED077AE5EE867A77EEA67AF5EEC07A5F
:102B1000F1EE10FACBED037A08D577EE887AF5EE70
:102B2000C07AF1EE10FAF8D4CBED037AF4EEC87A5D
:102B3000F1EE10FA08DB77EEC87AF4EEC87AF1EE1F
:102B400010FAF8DACBED037A9FED310ADBED008A5B
:102B500027EE800A07F0C0FB3149D7ED07AA01EB49
:102B60008000D0ED007A68EEA77AB6EE007A77EEB4
:102B7000AAAACBED077A6AEE87AA00F02BBEDFED9A
:102B8000297AF4EEE78AF1EE10FA01F16085DFEDC3
:102B9000267AF4EEE78AD7ED037AF1EE10FAF5EE35
:102BA000C07A51D5F1EE10FA0DD577EE887AF5EEB0
:102BB000C07AF1EE10FAF8D4F4EEC87AF1EE10FA19
:102BC00006DB77EEC87AF4EEC87AF1EE10FAF8DA9E
:102BD0009FED187AD7ED00AAF4EEC77A87EE877AD0
:102BE000F1EE10FA4FBFF6EE006AB0EE006AF6EEB4
:102BF000006A37EE467A6AEEA6AA6AEE87AA37E539
:102C000004000010102E0010000000000080BB46E1
:102C100083F922431F420939000000106C2D001077
:102C20000CC5000800004843000016442C2D00107D
:102C30004C2D0010DB0F494083F922BFB537983F78
:102C400077EE887AF5EEC07AF1EE10FAF8D4F4EE69
:102C5000C87AF1EE10FAFFF6F9AC77EEC87AF4EE26
:102C6000C87AF1EE10FAF8DA1FED0E7AF4EEC77AB0
:102C7000F1EE10FA7FF5F2AC5FED116AD7ED00AA24
:102C8000B7EE007AA7EEA67A67EE2AAAF0E41FED67
:102C9000156AD7ED037ADFF8CCA3DFF8CCB3F7EEF3
:102CA000086A28EE866A68EEA66AF5EEC07AF1EE4A
:102CB00010FA8AED026ACBED026A0DD577EE887ABA
:102CC000F5EEC07AF1EE10FAF8D4F4EEC87AF1EE2F
:102CD00010FA06DB77EEC87AF4EEC87AF1EE10FA55
:102CE000F8DA9FEDD87AF4EEC78AF1EE10FA01F126
:102CF0000A829FEDD57AF4EEC77AF1EE10FA87EDED
:102D0000047A01F116829FEDD15AD7ED004AF0EE18
:102D1000005AA7EEA55A78EE475A35EE477A27EEC5
:102D2000247AC7EE255A9FEDCA5A9AED037AC7ED69
:102D3000075AE8EE857AB5EEC07AF1EE10FAC7EDE3
:102D4000037A08D537EE087AB5EEC07AF1EE10FABC
:102D5000F8D48AED037AB4EEC87AF1EE10FA08DB03
:102D600037EE487AB4EEC87AF1EE10FAF8DA8AED66
:102D7000037ADFEDB47AB4EEE76AF1EE10FA41F1CE
:102D80004E84DFEDB47A9FEDB45A66EE277AF4EE06
:102D9000C57AF1EE10FA01F24484F0EE457AB4EE11
:102DA000E77AF1EE10FA8AED045A01F14284DFED80
:102DB000A74A9AED004AB0EE005AE7EE054A38EE0F
:102DC000675A74EEE77A67EE847A87EE855ADFED0C
:102DD000A04ADBED037A8AED075AA6EE247AF5EED7
:102DE000C07AF1EE10FA75EE855A8AED037A08D5AD
:102DF00077EE887AF5EEC07AF1EE10FAF8D4CBEDE2
:102E0000037AF4EEC87AF1EE10FA08DB77EEC87AAE
:102E1000F4EEC87AF1EE10FAF8DACBED037A9FED12
:102E2000897AF4EEC76AF1EE10FA41F133839FED2F
:102E3000897A9FED896A26EE877AB4EEC67AF1EE3A
:102E400010FA01F22983B0EE467AF4EEC77AF1EE79
:102E500010FA8BED046A01F127839FED7C6ADBEDAC
:102E6000004AB0EE005AA7EE856A38EE475A36EEB1
:102E7000477A27EE247A87EE057A9FED755A9FED03
:102E8000776A8BED077AE6EE857A35EE877ACBEDB9
:102E9000037A67EE06AA00F09DBC9FED716AD7ED3C
:102EA000037ADFF8C0A1DFF8C0B1F7EE086A28EEB8
:102EB000866A68EEA66AF5EEC07AF1EE10FA8AED3F
:102EC000026ACBED026A0DD577EE887AF5EEC07A0C
:102ED000F1EE10FAF8D4F4EEC87AF1EE10FA06DB4F
:102EE00077EEC87AF4EEC87AF1EE10FAF8DA9FEDD0
:102EF000557AF4EEC78AF1EE10FA41F128819FED80
:102F0000557ADFED555A28EE877AB4EEE57AF1EE80
:102F100010FA01F21E81B0EE657AF4EEC77AF1EE96
:102F200010FAC7ED045A01F11C819FED485AD7ED04
:102F3000004AF0EE005AA7EEA55A78EE475A35EE51
:102F4000477A27EE247AC7EE255A9FED415A9AED2B
:102F5000037AC7ED075AE8EE857AB5EEC07AF1EE4E
:102F600010FAC7ED037A08D537EE087AB5EEC07AC5
:102F7000F1EE10FAF8D48AED037AB4EEC87AF1EEE5
:102F800010FA08DB37EE487AB4EEC87AF1EE10FAA0
:102F9000F8DA8AED037ADFED2B7AB4EEE76AF1EE28
:102FA00010FA41F1AC82DFED2B7A9FED2B5A66EEE1
:102FB000277AF4EEC57AF1EE10FA01F2A282F0EE71
:102FC000457AB4EEE77AF1EE10FA8AED045A01F18F
:102FD000A082DFED1E4A9AED004AB0EE005AE7EEFD
:102FE000054A38EE675A74EEE77A67EE847A87EE20
:102FF000855ADFED174ADBED037A8AED075AA6EE14
:10300000247AF5EEC07AF1EE10FA75EE855A8AED63
:10301000037A08D577EE887AF5EEC07AF1EE10FAE9
:10302000F8D4CBED037AF4EEC87AF1EE10FAFFF69D
:10303000F6AE77EEC87AF4EEC87AF1EE10FAF8DA66
:10304000EBE600BF0000FA45DB0F4940DB0FC9C0CB
:103050001F4209392EE3CD3917B7D138C3F5A83E41
:10306000AE47A13F2C2D00104C2D0010DFF804A31B
:10307000DAED065A9AED096ADAED077A9AED027AE4
:10308000DAF81420F8EE656A15EE900AE6EE267A74
:10309000431C9342CAF8183067EE877ACAED0A7A61
:1030A00081F01381DFF8D0A2A94B9AED066ADAED20
:1030B000094A9AED077AD3ED005ADAF81800DAEDEA
:1030C000026ADAF81410B8EE465AB7EE006A37EE24
:1030D000866AA4EE857A421C8A42F3EE097AE6EE0D
:1030E000257ACAF8182027EE267AC7ED027A8AEDEB
:1030F0000A7A81F05C80DFF884B2DFF884A2DBED2D
:10310000066ADBED094ADBED077ADBF818009BED78
:10311000026ADBF81420B8EE665AF7EE006A37EE62
:10312000267AE4EE857A411C9142F3EE096AE7EED5
:10313000256ACBF8181067EE867ACAED026ACBEDE5
:103140000A7A81F05C81B7EE007A77EE877AB3EE87
:10315000096AA7EEA56ADFF82CB2D7ED037A8BEDEA
:10316000026AF5EEC07AF1EE10FA0DD577EE887AA4
:10317000F5EEC07AF1EE10FAF8D4F4EEC87AF1EE7A
:1031800010FA06DB77EEC87AF4EEC87AF1EE10FAA0
:10319000F8DAD7ED025A9FED6F7A6F4BF4EEC75A0B
:1031A000F1EE10FA00F167879FED6C7AF4EEC77AC2
:1031B000F1EE10FA83ED047A00F17387DFED684ACF
:1031C00097ED004AB0EE005AE7EE854A38EE475ACE
:1031D00034EEC77A27EE047A87EE055ADFED614AAE
:1031E0009AED037A87ED075AE5EEA47AB5EEC07A38
:1031F000F1EE10FAC7ED037A08D537EE087AB5EE8E
:10320000C07AF1EE10FAF8D48AED037AB4EEC87AF7
:10321000F1EE10FA08DB37EE487AB4EEC87AF1EE38
:1032200010FAF8DA8AED037ADFED4A7AF4EEE76A0B
:10323000F1EE10FA41F1AB81DFED4B7ADFED4B5A45
:1032400066EEA77AF4EEE57AF1EE10FA01F2A181CA
:10325000F0EE657AB4EEE77AF1EE10FACAED045AB0
:1032600001F19F81DFED3E4A9AED004AF0EE005AEF
:10327000E7EE254A78EE675A74EEE77A67EE847ACD
:10328000C7EEA55ADFED374ADBED037ACAED075AE0
:10329000A6EEA47AF5EEC07AF1EE10FA75EE255A94
:1032A0008AED037A08D577EE887AF5EEC07AF1EEEA
:1032B00010FAF8D4CBED037AF4EEC87AF1EE10FAF6
:1032C00008DB77EEC87AF4EEC87AF1EE10FAF8DA95
:1032D000CBED037A9FED1F7AB4EEC76AF1EE10FAD8
:1032E00041F125819FED207ADFED206A26EE077AF5
:1032F000B4EEE67AF1EE10FA01F21B81B0EE667AD6
:10330000F4EEC77AF1EE10FACBED046A01F11981FF
:10331000DFED136ADBED004AB0EE005AE7EE856A96
:1033200038EE475A36EEC77A27EE247A87EE057ACA
:103330009FED0C5ADFED0E6A8BED077AE6EE057A0B
:1033400035EE877ACBED037A67EE26AA42E200BF1C
:10335000980000200000FA450C2D0010DB0F4940BA
:10336000DB0FC9C01F4209392EE3CD3917B7D13859
:10337000C3F5A83E38000010640000109000001053
:103380002C2D00104C2D001097ED037ADFF808A4C7
:10339000F7EE086A68EEA66AB5EEC07AF1EE10FAAA
:1033A000CAED026A0DD537EE087AB5EEC07AF1EEB5
:1033B00010FAF8D4B4EEC87AF1EE10FA06DB37EE64
:1033C000487AB4EEC87AF1EE10FAF8DADFEDEA7A6C
:1033D000F4EEE78AF1EE10FA40F1D186DFEDE77AFC
:1033E0009FEDE76A68EEA77AF4EEC67AF1EE10FA7E
:1033F00000F2C786F0EE467AB4EEE77AF1EE10FA04
:1034000087ED046A00F1C586DFEDDE5A97ED005ABC
:10341000B0EE006AE7EE065A38EE676A75EEE77AB4
:1034200067EE857A87EE866ADFEDD75ADAED037AA2
:1034300087ED076AA8EEA57AF5EEC07AF1EE10FAEC
:1034400087ED037A08D577EE887AF5EEC07AF1EE4B
:1034500010FAF8D4CAED037AF4EEC87AF1EE10FA55
:1034600008DB77EEC87AF4EEC87AF1EE10FAF8DAF3
:10347000CAED037A9FEDC07AF4EEC76AF1EE10FA56
:1034800041F1B5809FEDBD7ADFEDBD5A26EE877A1A
:10349000B4EEE57AF1EE10FA01F2AB80B0EE657AA7
:1034A000F4EEC77AF1EE10FACAED045A01F1A980E0
:1034B000DFEDB45ADAED004AB0EE005AE7EE855A75
:1034C00038EE475A35EEC77A27EE247A87EE057A2A
:1034D000DFEDAD5A8AED077AE6EEA57A36EE077A89
:1034E000F6EE006A67EE26AACAED037A72E1DFF80B
:1034F000ACA29AED065A9AED096ADAED077A9AEDCE
:10350000027ADAF81420F8EE456A15EE100AE6EEB3
:10351000267A431C9342CAF8183027EE877A8AED40
:103520000A7A80F08D86DFF878B2DFF86CA29BED26
:10353000066A9BED095ADBED077ADBED026ADBF8E0
:103540001800DBF81420F8EE465AB7EE006AE5EEF4
:10355000257A431C934237EE067A67EEA67A68EE28
:10356000876ACBF81830CBED0A7ACAED026A80F090
:10357000FF86B7EE007A37EE877AD7ED037ADFF869
:1035800024B268EE878AF5EEC07AF1EE10FACBED40
:10359000028A0DD577EE887AF5EEC07AF1EE10FA50
:1035A000F8D4F4EEC87AF1EE10FA06DB77EEC87ABA
:1035B000F4EEC87AF1EE10FAF8DA97ED026A9FEDB0
:1035C0006E7A724BB4EEC76AF1EE10FA00F12F85F5
:1035D0009FED6F7AF4EEC77AF1EE10FA83ED047A7C
:1035E00000F13B859FED675AD7ED004AF0EE005A97
:1035F000A7EEA55A78EE475A35EE477A27EE247A99
:10360000C7EE255A9FED605A9AED037AC7ED075A27
:10361000E6EE057AB5EEC07AF1EE10FAC7ED037A60
:1036200008D537EE087AB5EEC07AF1EE10FAF8D484
:103630008AED037AB4EEC87AF1EE10FA08DB37EEC1
:10364000487AB4EEC87AF1EE10FAF8DA8AED037A25
:10365000DFED497AF4EEE76AF1EE10FA40F1AF8758
:10366000DFED467A9FED466A66EEA77AF4EEC67AFB
:10367000F1EE10FA00F2A587F0EE467AB4EEE77AA2
:10368000F1EE10FA8AED046A00F1A3879FED3D5A2E
:10369000DAED004AB0EE006AA7EE065A38EE676A25
:1036A00075EE677A67EEA47A87EE866A9FED365AE2
:1036B000DBED037A8AED076AA6EE857AF5EEC07A2D
:1036C000F1EE10FA35EE866A8AED037A08D577EEC8
:1036D000887AF5EEC07AF1EE10FAF8D4CBED037AE1
:1036E000F4EEC87AF1EE10FA08DB77EEC87AF4EE61
:1036F000C87AF1EE10FAF8DACBED037A9FED1E7A74
:10370000F4EEC78AF1EE10FA40F129879FED1B7A9B
:10371000DFED1B6A28EE877AB4EEE67AF1EE10FA56
:1037200000F21F87B0EE667AF4EEC77AF1EE10FA77
:10373000CBED046A00F11D87DFED126A9BED005AA4
:10374000F0EE005AE7EEA56A78EE475A36EEC77AF1
:1037500027EE057A87EE257ADFED0B5ADFED0D6A4D
:103760008BED077AE8EEA57A36EE077ACBED037A91
:1037700067EE26AA2EE000BF0000FA452EE3CD3901
:1037800017B7D138DB0FC9C01F4209390C2D001003
:10379000DB0F4940C3F5A83E2C2D00103800001067
:1037A000640000104C2D0010CDCC4CBFCDCCCC3FD4
:1037B000D7ED00AA08F030FE07EE100AF8EEC76A4F
:1037C0005FED077A1FED077A66EE896AE6EE877A83
:1037D0006AEEA7AA716A326AD04B0131012A71627E
:1037E000D3ED048A00F0B982032A00F0A782002AF0
:1037F00000F0CA82D4ED037AC6ED058AF5EEC07AF0
:10380000F1EE10FA08D577EE887AF5EEC07AF1EE8F
:1038100010FAF8D4C4ED037AF4EEC87AF1EE10FA97
:1038200008DB77EEC87AF4EEC87AF1EE10FAF8DA2F
:10383000C4ED037A9FEDBA0A94ED00BA27EE800A30
:1038400006F04AFDB74BD4ED037AD4ED025A9FED52
:10385000B66ADFF81CE3716A9EED00AAD8F8302042
:1038600003EB800090ED007AB048AC4B2BEE077A6A
:10387000F7EE006A77EE266AE5EE867A914266EE0A
:10388000A88A84ED077A28EE8AAAC0ED008A2AEE7B
:103890002AAAC4ED037A80F0D781A5490B784BB9E9
:1038A000DFF8D0A2DAED008AF5EE408AF1EE10FAE8
:1038B00040F083829F4BD3ED008AF5EE408AF1EE13
:1038C00010FA40F0CA819C48B0EE4A0A01F05CF957
:1038D0009A48F0EE408AB0EE4A0A01F055F998484D
:1038E00038EE800A0378F6EE007A60EE278A002B25
:1038F00040F0718193490B78002B40F03F81B0EE8E
:1039000068AAF7EE007AB4EEE7AAF1EE10FA40F3F7
:103910004D8147F6FF72F7EE007AF4EEE78AF1EE9A
:1039200010FA40F3F68147F6FF7329F8042C039A46
:1039300029F8023C09F1040991457EF4D3AD05B0A4
:10394000BDEC088BBDE8F08FD7ED037AF5EEC07AB9
:10395000F1EE10FA08D577EE887AF5EEC07AF1EE3E
:1039600010FAF8D4C7ED037AF4EEC87AF1EE10FA43
:1039700008DB77EEC87AF4EEC87AF1EE10FAF8DADE
:10398000C7ED037A9FED660AD7ED008ADFED6EAAD8
:1039900027EE800A06F0A0FC624AD7ED037A97ED85
:1039A000026ADFED616A02EB800090ED007AE6EEDC
:1039B000267A28EE877AC7ED037A67EE2AAA87ED82
:1039C000077A07E791F82C30002B00F0ED825F4872
:1039D000C37A13B9437B002B44D001F043FADFF8DC
:1039E00080B15B49DFED5BAA584AC1ED01AA8A4666
:1039F0005B461AEE901A4FF07E504AF8081B43F8C7
:103A0000080B4FF0000E9FED54AADFED548ACDF85D
:103A10000890CBF80400D14682F80DE09A4608F0F1
:103A2000FBFC05EE100AF8EEC57AF0EE685A67EE78
:103A3000897A4B48E9EC01AAE7EE8A5A00F12C0199
:103A4000EAEC015A9BED007A75EE877A8A45CBED58
:103A5000007AE4D1B7EE007AC7EE277ADDF8089055
:103A6000C0ED007A394A937BBBB108F0D5FC05EE76
:103A7000100AB8EEC57ADFED3B7A27EE097AB0EE90
:103A8000690AA7EE270A06F071FCB5EE400AF1EECE
:103A900010FA4FF0000300F0C2823268F261002396
:103AA0004FF07E5273623362B26121480378002B7B
:103AB00040F056822548837A0246002B40F0D5819B
:103AC00098F82C20284B18F80220DFF8ACA003EB64
:103AD0008203264A1B68136008F09EFC05EE100A5C
:103AE000F8EEC57A98F82C20D8F82430C8F8283099
:103AF00067EE897AF0EE695A531CE7EEA95ADBB2F9
:103B00000F2B1B4888F82C3088BF0023C0ED005ACB
:103B100088BF8AF82C30FEF7EEBC00BFF44C0120C1
:103B200083F922430CC500081F4209392C000010FC
:103B300035000010CC2D0010CC2C0010EC2C001007
:103B40003700001036000010CDCC4C3F2C05002073
:103B50000C2E001000000000BF9F7A3F6F12833AC6
:103B6000000000109A99193F10D50008382E001057
:103B700030000010AC2D0010F0040020DA48DB49C2
:103B8000B0EE680A01F06EFDD948DA49B0EE40AAFD
:103B9000B0EE680A01F066FDF7EE007AB4EEE7AA2F
:103BA000F1EE10FAF0EE408A3FF7B3AEFFEE007A86
:103BB000B4EEE7AAF1EE10FA48BF48F201023FF571
:103BC000AAAEDFEDCD7A2AEE27AABDEECAAA1AEE7A
:103BD000102A92B29FE6C94BC949D3ED006AD1F8C9
:103BE00000C0DFEDC87A9FEDC87A9CED006AC74A35
:103BF00066EEA77AD2ED006AE6EE077AB7EE007AB3
:103C0000E7EEA68AC3ED007AF4EEC78AF1EE10FA69
:103C100040F3E081F0EE478ABD48BE4A0368DFF812
:103C2000F8A2E3EC018AC2EB030BD34503600CF16D
:103C3000040CC8BF0260B848C1F800C0C2EB0C0356
:103C40008342C8BF0A6055E60021DA689961DA61EB
:103C50000021032259621A621FE6D3ED037AF5EEC2
:103C6000C07AF1EE10FA0AD577EE887AF5EEC07ACE
:103C7000F1EE10FAF8D4DFF8A4E2CEED037AF4EE18
:103C8000C87AF1EE10FA09DB77EEC87AF4EEC87A5A
:103C9000F1EE10FAF8DAA148C0ED037A9FEDA00A20
:103CA00027EE800A06F018FB9E499C4A9E4BD2EDF7
:103CB000037A92ED024ADFED9D4A93ED005ADFED63
:103CC000A55A01EB800090ED007AF7EE006AB6EE9F
:103CD000006A37EE267A68EE868AE4EE247A28EEC9
:103CE000877AC2ED037A77EE266A82ED077A26EEAE
:103CF000857AB4EEE57AF1EE10FA40F3D980DFED83
:103D0000967A9FED967A8A4B83ED017AC3ED027A1B
:103D1000D9E5FFEE007AF4EEE78AF1EE10FA48BF3B
:103D200048F201033FF501AEDFED737A68EEA78A32
:103D3000FDEEE88A18EE903A9BB2F6E5D3ED037AF1
:103D40009FED817A78EEE78AF4EEC78AF1EE10FAF9
:103D500040F23981C3ED048A4CE593ED017AD3ED4D
:103D6000027A78EEC78AF4EEE78AF1EE10FAC3ED34
:103D7000048A3FF63FAD00210222C3ED047AF0EE43
:103D8000678AD9611A6235E593ED077AD3ED067A31
:103D900078EE878AF4EEE78AF1EE10FAC3ED048A32
:103DA000FFF628AD5A689968DA610122C3ED047AFA
:103DB000F0EE678A99611A621CE5DAED037AF5EE96
:103DC000C07AF1EE10FA08D577EE887AF5EEC07A6F
:103DD000F1EE10FAF8D4CAED037AF4EEC87AF1EEF7
:103DE00010FA08DB77EEC87AF4EEC87AF1EE10FA32
:103DF000F8DACAED037A9FED4A0A27EE800A06F048
:103E00006BFA484A4B4BDAED037A9AED024ADFED42
:103E1000474A93ED005ADFED4F5A02EB800090EDD8
:103E2000007AF7EE006AB6EE006A37EE267A68EEA0
:103E3000868AE4EE247A28EE877ACAED037A77EE52
:103E4000266A8AED077A26EE857AB4EEE57AF1EEF7
:103E500010FA40F3C980DFED407A9FED407A364B8F
:103E600083ED017AC3ED027A24E5407A33491844A0
:103E70005BB250721FFA83FE01F1110011F8013B91
:103E800073449BB21AB26A2A04DD0C3B9BB21AB28D
:103E90006A2AFADC002A03DA0C339BB21A04FBD438
:103EA000814201F8013CE9D1254900238B7207E6E4
:103EB00027EE067ADFED237A67EE277AB9EE046AF9
:103EC00077EEA75A67EEA76AA7EEA56A67EEA66A1D
:103ED000FAEE0E5AE7EEA56AF0EE087A66EE277A59
:103EE000C6EEA77A0FE700BFBC000010AC2C001094
:103EF000B4160010BC2C001000FEFF46204D01201F
:103F0000E80400209A99193FCCCCCC3E80000020D8
:103F10001C4D0120281200207F380100CC2D0010FC
:103F200083F922430CC50008E40400201F4209392C
:103F3000EC2C0010F04C0120CC2C0010F0040020E0
:103F40002C050020DB0F49400000000055550541BD
:103F5000CDCC4C3C3333733F03123A413333F33E01
:103F600008F05AFA05EE100A5FED090A1FED090A7A
:103F7000F8EEC57AE7EE890A06F09EFA1FED0C7A94
:103F80005FED0C7A20EE070AB4EEE70AF1EE10FAC4
:103F900040F398825FED107A1FED107AED4B83EDC0
:103FA000017AC3ED027A85E5EB4B1B78002B3FF4D9
:103FB0000EADEA4B1B78002B7FF409AD02F024FE16
:103FC00003F09EFC03E50422F0EE478A83ED047AB9
:103FD0001A620FE4FFEE007AF4EE678AF1EE10FA4F
:103FE00048BFF0EE678A17E627EE067ADFEDDF7A44
:103FF00067EE277AB9EE046A77EEA75A67EEA76AEA
:10400000A7EEA56A67EEA66AFAEE0E5AE7EEA56A73
:10401000F0EE087A66EE277AC6EEA77A1FE7F16817
:10402000B36100220323F161726233623DE59FEDCB
:10403000CC7ADFEDCC5A26EE077AB4EEE57AF1EED3
:1040400010FA3FF6C7AAB0EE657AF4EEC77AF1EE41
:1040500010FAC3ED045A7FF5C5AAF8EE005A85EEB2
:10406000877AF7EE005AE7EE875A97ED007A65EE09
:10407000875AFFF7C7BA9FEDBA7A9FEDBA5A25EE75
:10408000877AB4EEC57AF1EE10FA3FF68FA8B0EE5B
:10409000457AF4EEC77AF1EE10FA83ED045A7FF513
:1040A0008DA8B8EE005A85EE077AB7EE005AA7EE53
:1040B000875A97ED007A25EE075AFFF78FB89FEDE4
:1040C000A87ADFEDA86A28EE877AB4EEE67AF1EEF8
:1040D00010FA3EF662ABB0EE667AF4EEC77AF1EE15
:1040E00010FAC7ED046A7EF560ABF8EE006A86EE62
:1040F000877AF7EE006AE7EE876A97ED007A26EE98
:10410000877AFEF762BB9FED967ADFED965A28EE2E
:10411000877AB4EEE57AF1EE10FA3EF6ECADB0EE49
:10412000657AF4EEC77AF1EE10FAC7ED045A7EF51F
:10413000EAADF8EE005A85EE877AF7EE005AE7EE20
:10414000875A97ED007A65EE875AFEF7ECBD9FED32
:10415000877AF4EEC77AF1EE10FA87ED047A7EF5ED
:10416000E4AEF8EE005A85EE877AF7EE005AE7EEF5
:10417000875A97ED007A65EE875AFEF7E6BEDFEDC7
:104180007B7AB4EEE77AF1EE10FAC7ED047A7FF5A8
:104190003BA9B8EE006AC6EE277AB7EE006AA7EE32
:1041A000276AD7ED007A26EE276AFFF73DB9DFEDE3
:1041B0006E7ADAED008A9AED01AADAF82010CAF8D0
:1041C0001C10C7EEA88A0022CAF8182087EE8AAA17
:1041D000CAED038A8AED04AA019308F01DF905EEE1
:1041E000100AF8EEC57A3AEE68AA67EE897AE7EE29
:1041F0008A8AFCEEE88ACAED058A08F00DF905EE18
:10420000900AF8EEE56AB0EE007A66EE896AFFEE93
:10421000007AE6EE877A019B9AED077A9AED056AB5
:10422000CAED087AF8EE466A77EEC77AD3ED005AFF
:104230009AED0A7AC7EEA67ACAED097AFEF75BBF55
:10424000DFED497A9AED00AADAED01AADAF820202A
:10425000CAF81C2087EE8AAA0023CAF81830C7EED5
:10426000AAAA8AED03AACAED04AA08F0D5F805EEB9
:10427000100AF8EEC57A7AEECAAA67EE897AA7EE36
:10428000AAAABCEECAAA8AED05AA08F0C5F805EEEE
:10429000900AF8EEE56AB0EE007A66EE896AFFEE03
:1042A000007AE6EE877A9AED056ADAED076ACAEDDA
:1042B000087A77EEE67AF8EE466A9AED0A7AC7EE61
:1042C000A67ACAED097AFFF72EB9DFED277ADAED83
:1042D000008A9AED01AADAF82020CAF81C20C7EE5D
:1042E000A88A0023CAF8183087EE8AAACAED038A82
:1042F0008AED04AA08F090F805EE100AF8EEC57AE7
:104300003AEE68AA67EE897AE7EE8A8AFCEEE88AD6
:10431000CAED058A08F080F805EE900AF8EEE56A25
:10432000F0EE007A66EE896ABFEE007AA6EEA77A12
:104330009AED056ADAED076A8AED087A37EE667A51
:10434000F8EE466ADAED0A7A87EE267A8AED097A7D
:10435000FEF7A8BECC2C0010000000203C4D012030
:104360002EE3CD3917B7D1380080BB46DB0F49406B
:104370005FED037A9BED00AADBED01AADBF82020BC
:10438000CBF81C2087EE8AAA0023CBF81830C7EEA2
:10439000AAAA8BED03AACBED04AA08F03DF805EE1E
:1043A000100AF8EEC57A7AEECAAA67EE897AA7EE05
:1043B000AAAABCEECAAA8BED05AA08F02DF805EE54
:1043C000900AF8EEE56AF0EE007A66EE896ABFEED2
:1043D000007AA6EEA77A9BED076A9BED055A8BED56
:1043E000087A37EE467AB8EE456ADBED0A7ADAEDFE
:1043F000026A87EE067A8BED097AFFF7BAB85FEDAD
:10440000267ADBED008A9BED01AADBF82010CBF8C1
:104410001C10C7EEA88A0022CBF8182087EE8AAAC3
:10442000CBED038A8BED04AA019307F0F5FF05EEAF
:10443000100AF8EEC57A3AEE68AA67EE897AE7EED6
:104440008A8AFCEEE88ACBED058A07F0E5FF05EEE7
:10445000900AF8EEE56AF0EE007A66EE896ABFEE41
:10446000007AA6EEA77A019B9BED076A9BED055AA1
:104470008BED087A37EE467AB8EE456AD3ED005AEE
:10448000DBED0A7ADAED026A87EE067A8BED097ABD
:10449000FEF759BE1FED4B7AF4EEC77AF1EE10FA33
:1044A0008BED047A7EF5D9ACB8EE006A86EE077A19
:1044B000B7EE006AA7EE876A9BED007A26EE077AD0
:1044C000FEF7DBBCB6EE007A20EE077A5FED597A94
:1044D00067EE277AB9EE046A77EEA75A67EEA76A05
:1044E000A7EEA56A67EEA66AFAEE0E5AE7EEA56A8F
:1044F000F0EE087A66EE277AC6EEA77A4EE55FED13
:10450000657AB4EEE77AF1EE10FACAED047A7EF538
:1045100060ADB8EE005AC5EE277AB7EE005AA7EEA6
:10452000275ADAED007A25EE275AFEF762BD1FED15
:10453000717AF4EEC77AF1EE10FA8BED047A7EF51B
:10454000E7AEF8EE006A86EE877AF7EE006AE7EEED
:10455000876A9BED007A26EE877AFEF7E9BE1FEDAB
:104560007D7AF4EEC77AF1EE10FA8BED047A7FF5DE
:10457000E3A8F8EE006A86EE877AF7EE006AE7EEC7
:10458000876A9BED007A26EE877AFFF7E5B85FED44
:10459000897AB4EEE77AF1EE10FACAED047A7EF584
:1045A00061AEF8EE005AC5EEA77AF7EE005AE7EED4
:1045B000275ADAED007A65EEA75AFEF763BE5FED83
:1045C000957AB4EEE77AF1EE10FACAED047A7FF547
:1045D0005DA8B8EE006AC6EE277AB7EE006AA7EECD
:1045E000276ADAED007A26EE276AFFF75FB81FED3B
:1045F000A17AF4EEC77AF1EE10FA8AED047A7EF52C
:1046000057AFF8EE005A85EE877AF7EE005AE7EEDC
:10461000875A9AED007A25EE877AFEF759BF5FED4B
:10462000AD7AB4EEE77AF1EE10FACAED047A7EF5CF
:10463000BEABB8EE005AC5EE277AB7EE005AA7EE29
:10464000275ADAED007A25EE275AFEF7C0BBD7EDE0
:10465000037AF5EEC07AF1EE10FA0DD577EE887A8E
:10466000F5EEC07AF1EE10FAF8D4F4EEC87AF1EE75
:1046700010FA06DB77EEC87AF4EEC87AF1EE10FA9B
:10468000F8DA1FEDC67AF4EEC77AF1EE10FA87EE8B
:10469000877A0FD4F0EE006A37EE667A97ED006AFB
:1046A00027EE066AFEEE006A27EE067A67EE26AA75
:1046B000FDF7DEBFD7ED00AAF6EE006A6AEEA6AA05
:1046C0006AEE87AA67EE2AAAFDF7D2BF254B1A68C1
:1046D00030B40AB1013A1A60234B1A680AB1013AA0
:1046E0001A60224A1368013B136023B9204BDB6830
:1046F0004FF400425A831F4B1B780BB930BC7047F4
:104700001D4B1E491B690A7803F001039A4211D020
:104710001B4A10780138C0B210700028EED1194D34
:10472000194C0B7001212970237043B90A231370AF
:1047300030BC7047124B0A221A7030BC7047134BC2
:104740001C780A2515700A4A2CB1187093684FF42A
:1047500080425A83D2E7197093684FF480421A83DB
:10476000CCE700BF284D0120304D0120384D0120FD
:10477000840000200000002000000240244D0120A1
:104780007C0000202C4D0120344D01203C4D0120A7
:10479000024B1B684FF480525A83704784000020FC
:1047A000024B1B684FF480525A83704784000020EC
:1047B000024B1B684FF480521A837047840000201C
:1047C000024B9B684FF480421A837047840000209C
:1047D0000C4B1B899B0782B001D402B070470A4B77
:1047E0001B68022B04D0074B00229A8102B070474D
:1047F0000023064A01930192019A0C320192019A18
:104800001360F0E7003C00401400002000740040FA
:104810004FF080431A8A9989D00789B201D5CA0717
:1048200000D470474FF6FE71074A1982116819B11A
:104830001368013B136070471A8822F001021204CA
:10484000120C1A80704700BFEC040020024B1B685A
:104850004FF480525A8370478400002010B5054CF5
:1048600063699B0705D5044B9B6E5B6998470223E0
:10487000636110BD003C01403C05002000207047F2
:104880000023C0F810331846704700BF0123C0F85A
:1048900010330020704700BF704700BF704700BF53
:1048A000704700BFFEE700BFFEE700BFFEE700BFA6
:1048B000FEE700BF704700BF00207047704700BF91
:1048C00001207047704700BF704700BF704700BFAE
:1048D000704700BF704700BF704700BF704700BF00
:1048E000704700BF704700BF704700BF002070478F
:1048F00010B5F1EE087AB4EEE70AF1EE10FA2DEDFC
:10490000028B0446B0EE408A64D4DFED347AB4EE14
:10491000670AF1EE10FAC8BFB0EE678AB0EE480A37
:1049200005F08AFCBDEEC00AE3689FED2D5A10EE3B
:10493000102A9B1A48BF03F5AF6304EB8302D2ED44
:10494000045A5A1E48BF03F2775204EB8203F8EE72
:10495000C07AD3ED044A9FED230A531E48BF02F2EA
:10496000775338EE678A04EB830292ED044AF0EE47
:10497000006A5A1E78EE666A48BF03F2775204EB6B
:104980008204B0EE087A38EE477A26EE800A94ED7B
:10499000043AFEEE003A67EE233A20EE030AB7EE41
:1049A000006A38EE466AF6EE007AA3EE840A68EEF4
:1049B000277A28EE068A26EE055A67EEA47A28EEB4
:1049C000000ABDEC028BE5EE257A26EE877AA7EE8B
:1049D000270A10BDB0EE678AA0E700BF0040AE44D2
:1049E000ABAA2ABEABAA2A3EF0B4D0F8CC40414BC9
:1049F00022686FF382026FF341026FF3C3026FF319
:104A0000451242F480750A214FF0804225601960FA
:104A1000118821F001010904090C1180918921F00C
:104A200001010904090C9181118821F45C710904C8
:104A30000126090C42F6DF6C05274FF6FE70118047
:104A4000C2F82CC0178596821082118889B241F075
:104A500080011180918989B231439181118889B295
:104A6000314311801A682348002AFBD14FF080415E
:104A700062F308250A8822F001021204120C14269F
:104A80000A80256006600A8822F001021204120CD6
:104A90000A808A8922F001021204120C8A810A8893
:104AA00022F45C7212040124120C42F6DF66052522
:104AB0004FF6FE700A80CE620D858C8208820A88CD
:104AC00092B242F080020A808A8992B222438A819D
:104AD0000A8892B222430A801A68002AFCD14FF059
:104AE00080420120138823F001031B041B0C138058
:104AF000F0BC7047EC040020224A70B44FF08044B0
:104B00001060238823F001031B041B0C2380A3895E
:104B100023F001031B041B0C0229A3812FD042F6B2
:104B2000DF6301290CBF194600214FF080430125A6
:104B3000188820F45C7000040526000C4FF6FE7403
:104B40001880D9621E859D821C82198889B241F025
:104B500080011980998989B229439981198889B27C
:104B6000294319801368002BFCD14FF0804270BCA0
:104B7000138823F001031B041B0C138070470B21C7
:104B8000D3E700BFEC04002090ED063AD0ED016AB7
:104B90009FED857A9FED852ADFED852A90ED046AE9
:104BA000D0ED053AD0ED027A037820EE033AB6EE66
:104BB000004AF4EEC76A63EE046AF2EE0E1A66EE7D
:104BC000A66AF0EE425AE6EEA15A013B9FED797AD1
:104BD0002DED028BF0EE478AE6EEA58A76EEA24A2C
:104BE000F0EE685AF0EE478AE6EEA48AF1EE10FA8B
:104BF000C8EEA55AB8BF90ED031A90ED078A63EE90
:104C0000255AB4BF71EE010AF0EE000A35EE888A2B
:104C100020EEC65A66EE044AA8EE045A64EEA44A90
:104C200035EE635AF0EE426A25EE045AE4EEA16ACC
:104C300025EE055A34EEA28AA5EE212A75EE222A27
:104C4000F0EE478AB0EE474AA4EEA64AE4EE888A20
:104C5000F0EE474AE5EE024AA5EE227AB7EE003AB8
:104C600087EE247AA8BFB7EE001A27EE875AF0EE37
:104C7000434A35EE055AC8EE846AE1EE054A67EE0E
:104C8000A72A83EE245A77EE071A62EE852AF0EE01
:104C9000634A62EE872A61EEC11A62EEA62A27EE07
:104CA000851AE2EEA54A21EE261A32EE833AE6EEA6
:104CB000014A37EEA74AC4EE834A24EE262A35EE8F
:104CC000E43AC0ED075A23EE077A67EE877AE6EEFC
:104CD000267A67EE857AA1EEA77AE2EE273A24EEED
:104CE000077AC0ED053AA6EE267A80ED047A042B09
:104CF0001CD8DFE803F0033E474C3300DFED2E7A8B
:104D0000F4EEE74AF1EE10FA48D4DFED2C7AF4EE37
:104D1000E74AF1EE10FA44DCDFED297A9FED290A2B
:104D2000E4EEA47A64EE804A84EEA70AF7EE007AF5
:104D3000B4EEE70AF1EE10FA04DDB0EE670ABDEC5E
:104D4000028B7047FFEE007AB4EE670AF1EE10FABC
:104D500048BFB0EE670ABDEC028B7047E7EEE05A41
:104D6000DFED197A75EEE45A74EEE54A24EEA70AEF
:104D7000DCE7E7EEE05ADFED147A75EEE44A24EE64
:104D8000A70AD3E79FED100A27EE800ACEE7E7EEE9
:104D9000E05ADFED0D7A25EEA70AC7E7BFEE000A5D
:104DA000C4E7B7EE000AC1E74B59E63E0000D24324
:104DB0000000D24200406C449A99F9BF9A99F93F99
:104DC000AE478940CDCC8440AE47613F10B5DFEDA2
:104DD000237A036A2DED048B90ED008A90ED019A01
:104DE000C36187EE888A00238361044687EE899A2F
:104DF00080ED038A80ED049A07F00EFB06EE900A20
:104E0000DFED178AF8EEE67A39EE489A67EEA87A6F
:104E1000A7EE898ABCEEC88A84ED058A07F0FCFA01
:104E200007EE100AF8EEC77AB0EE007A67EEA88AAD
:104E3000FFEE007AE8EE877ABDEC048B94ED077AFA
:104E4000D4ED056AC4ED087A77EEC77AB8EE667AD3
:104E5000C7EE877AC4ED097A10BD00BF0080BB465B
:104E600000000030F8B5294C294D2DED048BDFED05
:104E7000298ADFED299A04F11107B7EE008A6E68DE
:104E8000337809EE103A07F0C7FA07EE100AB8EEC9
:104E9000499AF8EEC77A39EE489A67EEA87AB0EEEA
:104EA000480AA7EE890A05F017FA2B7A365C09EE54
:104EB000103A07F0B1FA07EE100AF8EEC77AB8EE2A
:104EC000499A67EEA87AB0EE690AA9EE270A05F0BA
:104ED00003FA6A7A00EB4000153A02EB8003334490
:104EE0009BB21AB26A2A04DD0C3B9BB21AB26A2A40
:104EF000FADC002A03DA0C339BB21A04FBD404F860
:104F0000013FBC42BBD1BDEC048BF8BDEF040020D7
:104F10002C050020000000300000000030B583B0F8
:104F20000023124C124D019303200221FFF7E4FDF0
:104F3000EB68013C1A69019214D0019A002AF3DA55
:104F400001990A4A41F00101019101991961196918
:104F50000191013A02D00199C907F8D40320022136
:104F6000FFF7CAFD002003B030BD00BF410D0300B4
:104F7000904D01204B4B2DE9F00345015C1986B0A3
:104F8000D4F8BC13002281B1B4F8B2634F1E374489
:104F9000B7FBF6F7BFB2B7F5807F71D931024FF496
:104FA0008076C4F8BC13374601E0012637465C1909
:104FB00094F8AE83B8F1000F05D0B4F8B21301FB3A
:104FC00007F1C4F8BC1300F1150C03EB4C1703EB0D
:104FD000800497F8149193F80380D4F8904061F31B
:104FE000120266F3DC4269F35E72B8F1010F2261CE
:104FF0005E6904BFD7F8182162612268B768DFF8DC
:10500000A48007F0010787F0010767F35D7242F0A3
:1050100000426FF39E722260DA7862BB454405F568
:105020006A75AA793ABB31B36A7A032A10D8DFE8E5
:1050300002F02A022A0232690192CC1C92B2C4F315
:105040008F04A24204D2DA68946944F080649461C7
:1050500089B203EB4C1C033103EB80038910DCF8AD
:105060001821D3F8D04006D00023013352F8040BA6
:1050700020609942F9D1002006B0BDE8F0037047E6
:10508000C7F3090693E7DC68E26A0392CD1C92B28B
:10509000C5F38F05AA42DBD2A26942F02002A261C9
:1050A000D6E700BF904D0120DFF880C02DE9F00762
:1050B000DCF80C70DCF80060DCF81450DCF8184008
:1050C000DCF81C10DCF82020DCF82430DCF834A0FC
:1050D000DCF83890DFF858803E4335432C432143B9
:1050E0000A431A43DCF828300168DCF82C70DCF83D
:1050F0001060DCF80840DCF804501A4342EA0A0A5F
:105100004AEA090901EA080849EA0802DCF83030ED
:10511000026042693B4322F0070213434361466049
:105120008560C460BDE8F007704700BFB04A012049
:105130003F801CF0024B1A6A22EA00001862704796
:105140000038024000222DE9F00713460E680127BF
:105150004FF0030804E00133102B02F102022ED0BD
:1051600007FA03F404EA0605A542F4D1D0F800904A
:1051700091F804C008FA02F4E44304EA0909C0F80B
:105180000090D0F800900CFA02FA0CF1FF3C5FFAA4
:105190008CFC4AEA0909BCF1010FC0F8009011D952
:1051A000C56891F807C02C40C460C5680CFA02F4C9
:1051B00001332C43102BC46002F10202D0D1BDE8B0
:1051C000F0077047D0F808A091F8059091F806C054
:1051D00004EA0A0AC0F808A0D0F808A009FA02F9FF
:1051E00049EA0A09C0F80890D0F8049029EA0505B0
:1051F000456045680CFA03FC1FFA8CFC4CEA050577
:105200004560CDE730B50F4B0F4A196B52F820209F
:105210000E4C0F4D83B00A4335F8105054F820005F
:105220001A63002401230222694600958DF8043098
:105230008DF807308DF806408DF80520FFF782FFC6
:1052400003B030BD00380240BCD600088400002006
:10525000CCD6000830B50F4B0F4D1A6B83B042F01F
:1052600004021A63012400230222284669468DF8AD
:1052700005208DF806308DF8073000948DF8044035
:10528000FFF760FF2C832146C820FFF735FC03B0F1
:1052900030BD00BF0038024000080240C378F0B4BF
:1052A00063B90378184A5909203103F01F0301201C
:1052B00000FA03F342F82130F0BC7047134B4778F3
:1052C000DA68857803781049D243C2F30222C2F12A
:1052D0000404E4B20F2607FA04F446FA02F2E4B238
:1052E0002A40224303F1604303F561431201D2B225
:1052F00083F800230378012003F01F025B0900FA02
:1053000002F241F82320D7E700E100E000ED00E0E1
:10531000F0B400EB81024FF0FF33D2F890404D0122
:10532000A3604219C37892F8B163012B14BF002225
:1053300004220023032E13D8DFE806F002500244B3
:10534000461906F56A76B77942F4936242F0010293
:10535000002F40D1367A42F040020EB142F02002D6
:105360004669E260B769C2684FF0010C0CFA01F1BE
:105370003943B1619169284441F00071916190F81D
:10538000ACC390F8AF5390F8AD7390F8AE6390F85B
:10539000B123B0F8B213023D6CF39C53684267F33B
:1053A000CE23684166F3CF3360F3514362F39343F6
:1053B00061F30A03032A08BF43F00053236000206F
:1053C000F0BC7047461942F4D36296F8AE6342F0DF
:1053D0000102002EC4D042F48072C1E7461942F4A3
:1053E000087296F8AE6342F00102002EB8D042F483
:1053F000C072B5E72DE9F04791F84330974E05228A
:10540000012B0C460546327005D0A36E1B6C9847E5
:105410000120BDE8F08791F84430032BF5D191F8D5
:105420004A30B1F84C2019064CBF86F8443086F853
:10543000433094F852304CBFA6F84620A6F84820D6
:105440001A0600F1BC80B4F854E096F8447086F86F
:105450004330A6F848E0B5F98C05002880F2C680F4
:10546000B5F98E25002A80F2D280B5F99025002A60
:1054700080F2D380B5F99225002A80F2D480B5F964
:105480009425002A80F2D580B5F99625002A80F26D
:10549000D680B5F99825002A80F2D780B5F99A25EB
:1054A000002A80F2D880FF221146002886F8421098
:1054B00080F29180B5F98E35002B80F2A580B5F988
:1054C0009035002B80F2A680B5F99235002B80F242
:1054D000A780B5F99435002B80F2A880B5F99635F0
:1054E000002B80F2A980B5F99835002B80F2AA80B4
:1054F000B5F99A35002BB8BFFF2080F2A98005EBE3
:10550000420386F84100B3F88C7594F8210094F8B2
:10551000208005EB421207F07F0AC7F3C0194FF055
:10552000020C002702F56A7382F8ADA382F8AE93ED
:1055300082F8AC83A2F8B2E382F8AF0382F8B1C379
:1055400082F8C47382F8C57308B901221A7228461A
:10555000FFF7DEFE96F8411094F8212094F820C061
:10556000B6F8467005EB410005EB4113B0F88C45E9
:1055700083F8ACC3184604F07F09C4F3C0184FF099
:10558000020E002483F8AD9383F8AE8383F8AF2333
:1055900083F8B1E3A3F8B27303F56A7380F8C443E8
:1055A00080F8C5430AB901221A722846FFF7B0FEF7
:1055B0002B4A0020032310703370BDE8F087B4F845
:1055C000542086F844301F46A6F84620B6F848E036
:1055D00096F843303FE7002003466FEA474705EB64
:1055E00043036FEA5747A3F88C7588E700221146FA
:1055F00005EB41016FEA43436FEA5343A1F88C3551
:10560000B5F98C05114650E701200346E5E7012274
:105610001146EDE702200346DFE702221146E7E7E5
:1056200003200346D9E703221146E1E7042003469D
:10563000D3E704221146DBE705200346CDE7052228
:105640001146D5E706200346C7E706221146CFE7F5
:1056500007200346C1E707221146C9E7404D012054
:105660003D4D0120D1ED027AD1ED016A9FED4D7AD9
:10567000E6EE877A70B5F5EEC07A00F5AF561036D3
:10568000F1EE10FA2DED048B0D46D6ED008AC1ED3A
:10569000027A0446B0EE409A0AD59FED437A77EE3F
:1056A000877AF5EEC07AF1EE10FAF8D4C5ED027AF9
:1056B0009FED3D7AF4EEC77AF1EE10FA08DB77EE53
:1056C000C77AF4EEC77AF1EE10FAF8DAC5ED027A8D
:1056D0009FED360A27EE800A04F0FEFD344BD5ED2F
:1056E000006A03EB800090ED006AB7EE007A36EEB8
:1056F000077AB1EE088A27EE267A204638EE870A26
:1057000085ED037A30EE080AFFF7F2F841F2F45320
:10571000F0EE408AE356012B2CD096ED000AD4ED32
:10572000019A30EE080A2046FFF7E2F8F0EE497AD7
:10573000E9EE807AB7EE007AF4EEC77AF1EE10FA6D
:1057400025DDF0EE477A94ED020AE36894ED007AE5
:1057500028EE800ABDEC048B40F27652934204EBB3
:105760008301D4BF01330023A7EE870AC1ED047A79
:10577000E36070BDD4ED017AA7EE809AB7EE007AAF
:10578000F0EE497AF4EEC77AF1EE10FAD9DCBFEE0A
:10579000007AF4EE477AF1EE10FA48BFF0EE477A5D
:1057A000D1E700BF1F420939DB0FC94083F922430B
:1057B0000CC50008FEE700BF2DE9F04F2DED048B6E
:1057C000D0F8103389B093B18B4C2378032B14D0CD
:1057D000042B0CD194F84120831893F89B53012D8E
:1057E00040F2948093F89B33042B00F0CF8000208C
:1057F00009B0BDEC048BBDE8F08F94F841207F4BDD
:1058000056019D1903EB421002F11508B5F8B2C319
:1058100090F8C40300954FF0400903EB481709F1D5
:10582000FF3A01974FF0010B85F8AEB30028DDF881
:1058300004B0734FCBF81871E24418BF0220BAFBD2
:10584000FCFAC5F8BC9349468BF814011FFA8AFA92
:10585000009803EB02090025BAF5807FC0F8C05319
:1058600089F89B53284648D8CAF3090C9D1995F826
:10587000AE93B9F1000F05D0B5F8B21301FB0AF1F0
:10588000C5F8BC1303EB481703EB820597F814A186
:1058900093F80390D5F8905061F312006CF3DC405C
:1058A0006AF35E70B9F1010F286108BFD7F81801DB
:1058B0005F6908BF68612868D7F808C0DFF83C91C5
:1058C0000CF0010C8CF0010C6CF35D7040F00040AA
:1058D0006FF39E702860D87800283ED14E4406F5BC
:1058E0006A76B079002838D1002936D0707A03283A
:1058F00020D8DFE800F03D123D12009D4FEA0C2158
:105900004FF4807CC5F8BC13E246AFE73D4B1A78F4
:10591000012A5FD00323237069E738690390CD1C07
:1059200080B2C5F38F05A84204D2D868856945F0D6
:105930008065856189B203EB4818033103EB82036C
:105940008910D8F81801D3F8D05006D000230133BD
:1059500050F8042B2A609942F9D12A4A01210423E4
:1059600000201170237009B0BDEC048BBDE8F08FEE
:10597000DD68E86A0590CE1C80B2C6F38F06B0429F
:10598000D8D2A86940F02000A861D3E794F8445029
:105990000D831E3200EB421000232A064FF002074F
:1059A0004FF00106CB824B830F754E754CBF0371D0
:1059B0004371CB78012B14D0022B7FF418AF0B7FEF
:1059C0000D2B01F0AC800B3BDBB2012B9CBF012304
:1059D000CB700CE7A27800211970AAB90023A3703C
:1059E00098E70C780B770720002302224C70087090
:1059F0008B608B81CA70FAE6404D0120904D0120EA
:105A0000414D01203D4D0120D949DA4BC86802F0D3
:105A1000F0024FF400450821B02A05831960DDD15A
:105A2000E2782379023A752AD8D801A050F822F0FA
:105A30001D600008FB5F0008DD590008C35F000817
:105A4000315F0008DD590008AD5E0008795E00088E
:105A5000DD590008DD590008676300081963000874
:105A6000DD620008C3620008A96200088F620008B6
:105A70006362000843620008F7630008CF63000810
:105A80009D6300088D630008415E00082D5E0008DC
:105A90001F5E0008115E0008035E0008E75D000855
:105AA000BD5D0008515D0008DD590008315D00084A
:105AB000115D0008F15C0008D15C0008455C00083D
:105AC000275C0008095C0008296A00086169000871
:105AD00027690008F5680008DD590008DD5900084D
