:020000040800F2
:1000000014F70120A1A9000885600008816000089C
:100010007D6000087960000875600008000000003D
:1000200000000000000000000000000071600008F7
:100030006D60000800000000696000089D5E000817
:10004000816F0008816F0008816F0008816F0008D0
:10005000816F0008816F0008816F00082D60000823
:10006000816F0008816F0008816F00083DB90008AA
:10007000816F0008816F0008816F0008816F0008A0
:10008000816F0008816F0008816F0008816F000890
:10009000816F0008816F0008816F0008816F000880
:1000A000816F0008816F0008816F0008816F000870
:1000B000E15F0008816F0008816F0008816F000810
:1000C000816F0008816F0008816F0008816F000850
:1000D000816F0008816F0008816F0008816F000840
:1000E000816F0008816F0008816F0008816F000830
:1000F000816F0008816F0008816F000895B90008C2
:10010000816F0008816F0008816F0008A15F0008FF
:10011000816F0008816F0008816F0008816F0008FF
:10012000816F0008816F0008816F0008816F0008EF
:10013000816F0008816F0008816F0008816F0008DF
:10014000816F0008816F0008816F000831B90008D5
:10015000816F0008816F0008816F0008816F0008BF
:10016000816F0008816F0008816F0008816F0008AF
:10017000816F0008816F0008816F0008816F00089F
:10018000816F0008816F00082DE980480020A5B02C
:1001900006F044FC012006F041FCDA4C022006F097
:1001A0003DFC032006F03AFC236BD74843F00103E3
:1001B0002363626C0DF1900B42F480420123626470
:1001C0004BF8403D002559468DF854508DF8575056
:1001D00006F0A0FBCD4ACE4B1268A3FB02025209E7
:1001E000013AB2F1807F80F01185CA4BCA495A604A
:1001F000F020072281F823009D601A60626BC74BD4
:1002000042F0400262631A6842F004021A605968C0
:10021000C24AC907FBD59068C14DDFF868A3C14C3D
:10022000DFEDC18ADFF86093DFEDC09A9FEDC09AE1
:100230000DF0B0FDBF49C04AC04B45F8B4AC43F225
:10024000C82EC1F800E0BE491160002600274FF01B
:100250007E58BC4A1A60B1EE008AA5F1BC00B0EE2F
:1002600000AA45F8CC8C45F8C88C05F8C47C05F884
:10027000C37C05F8C27C05F8C17C05F8C07C05ED9F
:100280002F8A45F89C6C05ED2EAA06F087F9A5F19A
:10029000900005ED248A45F888AC45F8706C05EDB2
:1002A00023AA06F07BF9A5F1640005ED198A45F84B
:1002B0005CAC45F8446C05ED18AA06F06FF99FEDAB
:1002C000A20AA24B45F8183C0BF0E8FB07EE100A17
:1002D000F8EEC77AB6EE008A67EE887A0421FCEE63
:1002E000E77A24229A4B45F8140C45F8107C05F85F
:1002F0000C7CAF71EF712F726F72AF7205F8047CD6
:1003000045ED027A29716A712B6006F093F9914BE1
:10031000C5F818A041F228604FF0010A05F800A0C6
:1003200003F23C5080ED008A03F2345080ED008AE5
:1003300041F62830884903F800A004F64C20A96350
:10034000066003F5A760854A016004F63421DFEDFD
:10035000847A0A6004F64421DFF830E20A6004F689
:100360003822C2ED007A04F64822CEF80080DFF889
:1003700020E2C2F800E004F63C227A48DFF814C21A
:100380009FED797ADFF810E2106040F27752C3F8FF
:10039000402503F2445039462A644FF4AF52EF62CD
:1003A0002F638CED007A8EED007A6E62EE6185ED42
:1003B000058A85ED0F8A85ED0D8AC5ED038AC5EDA9
:1003C000048A0DF09DFC394605F144004FF4AF520C
:1003D0000DF096FC04F6642C04F66827CCF8006057
:1003E00004F5276C3E6004F68427CCF8006004F620
:1003F000882C3E6004F52967CCF8006004F52A6C6F
:100400003E6004F52B67CCF8006004F6A82C3E6033
:1004100004F6AC27CCF8006004F52C6CC7F800801B
:1004200004F52D67CCF8006004F6C82C3E60DFEDC3
:100430004F7ACCF8006004F6CC2704F5266CC7F898
:100440000080CCED007A84F854AA84F874AA04F5EC
:10045000286704F66C2C04F68C2AC7ED007A444811
:10046000CAF8000004F65827CCF8000004F6782AF1
:100470004FF0785CC7F800C004F65C2004F67C27D7
:10048000CAF800C03B493C4B016004F6942A04F6CC
:10049000982C396004F6B821CAF80030CCF8003046
:1004A00004F6B42004F69C2A04F6BC2CDFF8ECE039
:1004B000324D334A0B604FF07A5104F6D427036073
:1004C000CAF8002004F6D82004F52E6ACCF80020E3
:1004D000CEF8001004F6DC2C296004F6EC2104F5BB
:1004E0002F6E3B6004F6E8250360CCF80020CAF8C4
:1004F0000060C1F8008004F6F42004F6F82A04F63F
:10050000FC2C4DE00038024000000240300000208A
:10051000D34D621010E000E000ED00E0000806504E
:10052000F8100010E83200106F12833A000000301B
:10053000BF9F7A3F00070020EC060020E80600205D
:100540000407002024D2002000A00C460000A04395
:1005500068DE0008F0210010CDCC4CBE00004842FF
:10056000AE47E13DDB0FC93F000070436666663F62
:10057000CDCCCC3EA913D43ECDCC4C3FDC040020E6
:1005800000C012440AD7233C00000010F4060020EB
:100590008FC2F53D1C270010143D0010CCDB01205C
:1005A00004F60831CEF8006004F5306E0360CAF836
:1005B0000030CCF800202E600E6004F5316504F6A2
:1005C0000C3004F6143A04F6183304F5326C04F5D2
:1005D000336204F63431CEF8006004F6283EC0F8E9
:1005E00000802E60CAF800601E60CCF800601660C3
:1005F00004F62C3504F6383004F63C3A04F534633E
:1006000004F5356C04F648320E6004F65831CEF825
:10061000006004F64C3EC5F80080066004F65435D0
:1006200004F65C30CAF800601E6004F5366A04F512
:100630003763CCF80060166004F6683C04F66C3250
:100640000E6004F67431CEF80080F1EE067A04F6FE
:100650001C3EC2F800802E600660CAF8006004F6F6
:10066000783004F67C351E6004F5386ACCF80060FA
:1006700004F6883204F5396CCEED007A04F698332E
:100680000E6004F68C3E04F694314F46CEF800809E
:10069000C9F8048047F8088B06602E60CAF800602D
:1006A000CCF8006016601E600E6004F69C3409F100
:1006B0002C080DF077FB07EE100AF8EEC77AB0EEC3
:1006C000687A67EEA97A44F8046BA7EE897AD44D6C
:1006D0009FEDD48AA7EC017AF0EE477A99ED007A83
:1006E00077EE877A4745C9ED007AE2D1F7EE008AC6
:1006F000C8EEA77A00244FF0010A214605F1500008
:100700004FF4A462C5F8704585F874A5DFF82C9302
:10071000DFF84483C44EC54F9FEDC59AC5ED007AFE
:1007200085ED0F8A85ED138AC5ED0C8A85ED0E9A4D
:100730000DF0E6FA05F27C5305F28452C3ED008A0F
:1007400082ED009A05F28C5305F5B16283ED008AC3
:10075000214605F2A45382ED008A05F5B5604FF4F9
:10076000A46285F8D0AAC5F8C84A83ED008A0DF0C6
:10077000C7FA05F6D822C2ED008A05F5815305F5C2
:100780002E6241F2280082ED009A05F6E82205F675
:10079000E42E05F800A01C60214605F6FC2305F5B3
:1007A000306082ED008A4FF4A4628EED008A83ED02
:1007B000008A0DF0A5FAD9F830309E4843F00803BE
:1007C000C9F8303002251022594614928DF854A0F1
:1007D0008DF856408DF857408DF8555006F09AF830
:1007E000D9F8303043F00703C9F8303040464FF4B1
:1007F0001073594614938DF854508DF855508DF858
:1008000056A08DF8574006F085F8D8F8203023F030
:100810007063C8F82030D8F8203043F08063C8F8FF
:100820002030D8F8243023F0F003C8F82430D8F86A
:10083000243043F04003C8F8243030464FF4A0532E
:10084000594614938DF854508DF855508DF85640F4
:100850008DF8574006F05EF87748036A23F470235A
:100860000362036A43F4C0230362736A23F4706370
:100870007362736A43F4C06373623B68AB4200F017
:10088000C68110235946149306F044F8736A23F482
:1008900070237362736A43F4C0237362624C022252
:1008A00000235946802520468DF854208DF8552088
:1008B0008DF856308DF85730149506F02BF8236AD2
:1008C0005C4A23F070432362236A102143F0C04343
:1008D000236244F6FF735183013BFDD1554B574CC6
:1008E00010221A83236C43F400132364236A43F415
:1008F000001323624FF4001006F004F8504B1A88DE
:1009000092B242F001021A809A88A36822F03F0254
:1009100003F00C031204042B4FEA124201F0B285DB
:10092000082B41F0AC856368616813F4800F18BF31
:100930004448636808BF444801F03F01B0FBF1F14F
:10094000C3F3881301FB03F33C494C68C4F301442F
:1009500001346400B3FBF4F438483C498568DFF89F
:10096000FCC0374B3A4EC5F3031E44F2330511F871
:100970000E80D0F808E0CEF3822E24FA08F411F8A5
:100980000E80D0F808E024FA08F4ACFB0480CEF323
:10099000423E800C024311F80E109A801A88A10979
:1009A000A6FB01C1890922F0010203294FEA024294
:1009B00098BF04210130120C1A80188499831A8878
:1009C00092B242F001021A801A8822F4816222F067
:1009D00002021204120C42F480621A8001211D816D
:1009E000022008F0A7FDAF210446042008F0A2FD74
:1009F000184BAF220444812105201A7008F09AFD9B
:100A000004210444062008F095FDCB210444202055
:100A100008F090FD2120CB2108F08CFD3B681FE001
:100A20000000001000000000000802401800002034
:100A30000000DC43000C024000000240003802408D
:100A40000054004000127A000024F400040000204A
:100A5000632D3E05E10400200004024083DE1B43B9
:100A6000022B19D10121082008F064FD012105465F
:100A7000092008F05FFDC02105440E2008F05AFD52
:100A80002C4400210444142008F054FD00210444A7
:100A9000152008F04FFD04449E21022008F04AFD75
:100AA000002104440A2008F045FD3B68022B044461
:100AB00004D00E20042108F03DFD0444002127202D
:100AC00008F038FD0F2104441F2008F033FD0A21EF
:100AD00026181A2008F02EFD554C0A2106441B202A
:100AE00008F028FD236C43F400432364236A43F495
:100AF0000043236206444FF4004005F003FF4D4AD3
:100B0000938B23F47B6323F00F031B041B0C022144
:100B100093831184918BA3681B0289B203D5A368C8
:100B200023F40003A360424B434CD3F88450D3F822
:100B300084E05B684148424A03F03F03B4FBF3F4AE
:100B4000C5F38815CEF3027305FB04F4B4FBF3F38D
:100B50001B0A03EB83035B00A0FB03E39B0A053343
:100B6000A2FB0302D2085308981E02F001021202EF
:100B700080B292B2FD289CBF42F400721A432D4B02
:100B800088BF40F2022241F420611A8499833B68B5
:100B9000022B11D1264A2B4B116C41F000511164EC
:100BA0001A68169922F47F6222F00E020A431A6034
:100BB0001A6842F001021A60002E00F0B583224C40
:100BC0000DF14808214D2248224A3968A2604FF4AD
:100BD000C86303602846236105F04EFE2B6843F08E
:100BE00001032B60134B9A8B570504D49A8B92B256
:100BF00042F480629A83184B184C194A19491160C3
:100C000000251D602369DE072ED4FEE7FEE7D9F834
:100C1000303043F00103C9F8303010250323594622
:100C200014958DF857408DF8543005F073FE35E675
:100C300000380240003C004000127A00F1197605AD
:100C4000CDCCCCCC00740040BCE80120B8600240A0
:100C5000140000203CDC01202C0000200000024099
:100C6000F8060020BCE80120DB4EDC4BDFF8A4A333
:100C70001D70336B43F0010333634FF4D0524FF0D8
:100C8000030902232046594614928DF855908DF899
:100C900054308DF856508DF8575005F03BFE636A7E
:100CA00023F0F0036362636A43F0A0036362636A44
:100CB00023F470436362636A43F420436362636AAC
:100CC00023F470236362636A43F420230127636281
:100CD00020464FF4806359468DF8559014938DF853
:100CE00056708DF8577005F015FE626ABC4BBD4911
:100CF000DFF81C9322F470626262626A42F420623E
:100D00006262726C42F480427264726B4FF00064F3
:100D100042F08002726340469C601C22D9608DF8CC
:100D200048208DF84A708DF84B708DF8495005F0C9
:100D30009DFE336C3B433364284605F04BFE9AF826
:100D400004308AF803704022072B8AF800508AF892
:100D500001508AF802508AF81C708AF820508AF8EC
:100D600021708AF8062007D803F5317309EB430395
:100D70009A88C2F30E029A809AF80530072B07D89A
:100D800003F5317309EB43039A88C2F30E029A808C
:100D90009549964CCAF8641000230821C9F810330D
:100DA000CAF86840C9F81433C9F8503389F88C334D
:100DB000C9F81833C9F8543389F88D33C9F81C338E
:100DC000C9F8583389F88E33C9F82033C9F85C3331
:100DD00089F88F33C9F82433C9F8603389F8903320
:100DE000C9F82833C9F8643389F89133C9F82C332A
:100DF000C9F8683389F89233C9F83033C9F86C33CD
:100E000089F89333C9F83433C9F8703389F89433C7
:100E1000C9F83833C9F8743389F89533C9F83C33C5
:100E2000A9F8B21389F800104021A9F80410042190
:100E300089F801104FF4A071DFF8DC81DFF8DCC124
:100E4000A9F8061002214FF0A042694889F808105D
:100E50006849DFF8CCE1684F684E694DC9F81080E9
:100E6000012408F55878C9F818C0ACF5A06CC9F889
:100E70007833C9F80C2089F8963389F80330C9F81B
:100E80004033C9F854E0C9F87C33C9F81C7089F8BC
:100E90009733C9F85860C9F84433C9F82050C9F8E5
:100EA0008033C9F85C0089F89833C9F82410C9F870
:100EB0004833C9F86080C9F88433A0F5E06089F848
:100EC0009933A1F58C61C9F84C3389F80240C9F80F
:100ED000883389F80B4089F89A33C9F814C09368AD
:100EE000C9F8CC00C9F89010A8F5C8680CF5A07C2A
:100EF000AEF5B46EA7F56877A6F5B066A5F5607592
:100F000000F5D07001F53061C9F89480C9F898C037
:100F1000C9F89CE0C9F8A070C9F8A460C9F8A85045
:100F2000C9F8AC00C9F8D0100CF52B5CDFF8F4E080
:100F30003448354E354DC9F8D8C0A1F5007123F0BD
:100F4000010308F5D7584FF05027C9F8DCE0C9F87D
:100F50000C11C9F8D480C9F8E070C9F8E460C9F888
:100F6000E850C9F8EC009360D36843F04003D360C5
:100F700005F0BCFB99F80920D9F80C30002A0CBF09
:100F80004FF434124FF474129A632146142005F082
:100F90009BF999F80320D9F80C30A24206D19A683F
:100FA000052161F3440242F020029A60DA68184D8C
:100FB0006FF39E7242F000520121DA60322005F098
:100FC00083F9284605F006FDD9F80C3100241C6091
:100FD00099F80830012B27E000380240000000207B
:100FE00000ED00E00005FA051C00002034000020A0
:100FF000400B00506009005020090050200B0050A9
:101000004009005000800050006000500070005007
:1010100068E90120D0DB01200008005000090050E1
:10102000000B0050004000506B69214D1A6816BF3C
:10103000012164F3010261F301021A60284605F000
:10104000BBF8D9F814301A686FF382021A6099F865
:101050000B30012B264600F0CB81EB680022119269
:10106000119A144942F020021192119A102060F353
:101070008A121192119A1A611A69119203E01A697F
:101080001192013902D0119A9406F8D4022103205A
:1010900005F01AF900231293129AD9F80C30054979
:1010A00042F010021292129A1A611A69129207E023
:1010B00068E90120400D03001A691292013902D03B
:1010C000129AD006F8D40320022105F0FDF899F811
:1010D0000030BA48002B5BD0D0F890404FF0FF3181
:1010E0000022012BA160E26052D9D0F89440022B7B
:1010F000A160E2604CD9D0F89840032BA160E26077
:1011000046D9D0F89C40042BA160E26040D9D0F8C9
:10111000A040052BA160E2603AD9D0F8A440062B8C
:10112000A160E26034D9D0F8A840072BA160E2604A
:101130002ED9D0F8AC40082BA160E26028D9D0F8B5
:10114000B000092B8160C26022D9D9F8B4409B4815
:10115000A1600A2BE2601BD9D0F8B8400B2BA1602C
:10116000E26015D9D0F8BC400C2BA160E2600FD929
:10117000D0F8C0400D2BA160E26009D9D0F8C4407E
:101180000E2BA160E26003D9D0F8C8309960DA6014
:101190008B4BD9F8CC200121598313686FF382035C
:1011A0006FF341036FF3C3036FF34513D90402D404
:1011B00043F480531360C820012105F085F8DAF864
:1011C000682099F80310D9F80C3010687D4C7E4FD8
:1011D0007E4E002291429A614FF0FF3108BF1022EB
:1011E0006FF08045596142F00C5259605D619C611D
:1011F000996942F4001242F008020A439A619A681F
:1012000042F001029A608047714B724ADA60012411
:10121000432358468DF850308DF851408DF8524098
:101220008DF8534005F022FC1722022358468DF812
:1012300050208DF852308DF851408DF8534005F014
:1012400015FCCDF808B00223CB468DF84330DBF80F
:1012500010234FF00008002A48D19AF800205E4978
:10126000002A40F0DB85DBF81033002B40F02286AB
:101270004FF08043012139601A8822F001021204E4
:10128000120C1A809A8922F001021204120C9A811F
:101290001A8822F45C721204120C1A8042F6DF647F
:1012A0004FF6FE720520DC62188599821A821A8830
:1012B00092B242F080021A809A8992B20A439A81CD
:1012C0001A8892B20A431A803B68002BFCD14FF077
:1012D0008042138823F001031B041B0C138002239C
:1012E0008DF84330DBF81023002AB6D09AF800308E
:1012F0000A2BBDD801A151F823F000BF67120008E6
:10130000D7140008231E0008711200089514000865
:10131000B7140008611400083714000811140008FD
:10132000711200086F160008D7F80080B8F1010F9D
:1013300001F0B580294C11AE3B68012B01F0A5806E
:10134000274B28481A6B42F4001242F001021A633C
:101350001A6C0DF1480842F000521A640325414608
:101360001022002312928DF84F308DF84C5005F06A
:10137000D1FA1D4B169A1968DFF870E021F47F61ED
:1013800021F00E010A431A601A6842F001021A6045
:10139000BEF804309BB243F08003AEF80430332231
:1013A000012330468DF845508DF846508DF8442085
:1013B0008DF8473005F05AFB04E400BF68E90120CE
:1013C0000008024000080080F0060020E40400202D
:1013D00000ED00E00006FA05D0DB0120BCE80120AA
:1013E000003802400000024000740040003C004011
:1013F0002122A121EB6862F30F0461F30F06C0F212
:101400008004C0F280065A629C62C3F8006125E63F
:10141000DAF86830C64C9B6B984701287FF428AFF8
:10142000636EC4481B682146984700287FF420AFAC
:10143000052323701CE79AF81C308AF81280013BC0
:101440000A2B3FF615AFDFE813F0540441041E04E5
:10145000090488047404B704EB03BA03A903DB038B
:10146000DAF86430B24CB348DB68214698478DF80F
:1014700043009DF84330DBB21A1FD2B2012A40F27A
:101480005585062B7FF4F4AEA36E0A221B682270EA
:101490009847EDE69AF80230092B3FF6E9AEDFE80F
:1014A00013F05C02F001F502A1011603C002720103
:1014B0004D0124011C01DAF864309D4C9B689D4865
:1014C000214698478DF843009DF84330002BD0D13A
:1014D00006232370CCE6DAF86830954C9B68984771
:1014E000BBF98C25934B002A80F27285B3F98E25C7
:1014F000002A80F26A85B3F99025002A80F262857D
:10150000B3F99225002A80F24B85B3F99425002A7D
:1015100080F27B85B3F99625002A80F27385B3F9B2
:101520009825002A80F26B85B3F99A35002B80F25A
:101530006385FF236371BBF98E257E4B002A80F201
:101540002885B3F99025002A80F22085B3F99225E9
:10155000002A80F21185B3F99425002A80F258857B
:10156000B3F99625002A80F24485B3F99825002A1C
:1015700080F23C85B3F99A35002BB8BFFF2380F287
:1015800032856C488AF8043004F016FEDAF86830C8
:10159000DB689847DBF8CC20DAF868301068C0F3D5
:1015A00041408AF82100042200F003009B698AF878
:1015B000002098479AF804109AF821200BEB41007C
:1015C0000BEB4113B0F88C4583F8B18304F07F0531
:1015D00001F11E00C4F3C01483F8AE430BEB4010BE
:1015E0009AF8204083F8AC439AF8064083F8AD534C
:1015F000A3F8B24383F8AF2303F56A7380F804803D
:1016000080F805800AB901221A724A4805F068FA82
:101610009AF805109AF821200BEB41000BEB4113CF
:10162000B0F88C4583F8B18304F07F0501F11E000A
:10163000C4F3C01483F8AE430BEB40109AF820407B
:1016400083F8AC439AF8064083F8AD53A3F8B2434D
:1016500083F8AF2303F56A7380F8048080F805806F
:101660000AB901221A72334805F03AFA00E69AF8EC
:1016700004208AF8008001238AF803308AF81C309D
:101680008AF82130072A4FF040038AF801808AF84F
:1016900002808AF820808AF8063007D802F5317374
:1016A0000BEB43039A88C2F30E029A809AF8053036
:1016B000072B07D803F531730BEB43039A88C2F36A
:1016C0000E029A80DAF868305B689847DAF864307E
:1016D00018485B6818499847CAE5DAF868305B6BC8
:1016E000984708238AF80030C2E59AF803209AF850
:1016F0003930AAF816300921012A8AF81480AAF88C
:101700001880AAF81A808AF81510094B00F0B084E6
:10171000022A7FF4ADAD1A7F0D2A00F020860B3A25
:10172000D2B2012A3FF6A4AD0122DA70A0E500BFD3
:10173000D0DB012068E90120F0DB01209AF832209B
:10174000D04C002A00F0478442F44072E378E282F1
:10175000802106222175627540F20941FF22012B8A
:101760002183628300F01884022B7FF481AD237FF4
:101770000D2B00F002860B3BDBB2012B3FF678AD60
:101780000123E37074E59AF83120BE4C002A00F082
:101790005F8442F44072E378E28280210622217560
:1017A000627540F20941FF22012B2183628300F020
:1017B000C483022B7FF45CAD237F0D2BDBD19BF820
:1017C000112184F81C800123032AE370AE4B00F042
:1017D0000486DAF868300298DB6A984707238AF8AB
:1017E000023045E59AF80320AAF8188080214FF4CA
:1017F000007306208AF81410012A4FF00901AAF894
:1018000016308AF81500AAF81A109E4B00F01B84B7
:10181000022A7FF42DAD1A7F0D2A80D19BF8131177
:101820009BF81201B07000EB01209BF81021D886C4
:101830009BF81101F17032709BF8141183F8342079
:1018400070709BF8152183F835009BF816013171F3
:10185000012483F8381072719BF8171183F839202E
:10186000B0719BF8182183F83A00042083F81C809B
:10187000DC70F17183F83B10327283F83C20987071
:10188000F6E49AF80350AAF81880802306214FF452
:1018900080728AF81430012D4FF012038AF8151067
:1018A000AAF81620AAF81A30764C00F0B483022D5C
:1018B0007FF4DEAC237F0D2B7FF45DAF9BF812210C
:1018C0009BF818319BF813119BF8190184F81C80C0
:1018D00002EB012103EB00209BF81B219BF81A313E
:1018E000A18403EB02239BF81D119BF81C21A38507
:1018F00002EB01219BF81031E18501229BF81111C7
:10190000E27084F822309BF814219BF8153184F89A
:10191000231084F826209BF816119BF8172184F8D1
:1019200027309BF81E3184F8281084F829209BF872
:101930001F119BF8202184F830309BF821316085FD
:1019400084F8311084F8322084F83330A36E04F127
:101950002200DB699847A5708AE49AF80330AAF858
:101960001880802206204FF480718AF81420012B01
:101970004FF008028AF81500AAF81610AAF81A20E3
:10198000404C00F0DA82022B7FF472AC237F0D2BE7
:101990007FF4F1AE9BF813019BF812319BF8101104
:1019A0009BF8112184F8221003EB0023A3849BF8F9
:1019B00014319BF8151184F8232084F826309BF805
:1019C00016219BF8173184F82710012584F8282068
:1019D00084F829302C48A37184F81C80E57004F049
:1019E000EBFB6179A379A5700BEB411202F56A72EA
:1019F0005089984201D003B15381234805F070F813
:101A00009AF804109AF806300BEB411202F56A724C
:101A1000508998423FF427AE002B3FF424AE538107
:101A200021E69AF83020174C002A00F0198342F47E
:101A30004072E378E282802106222175627540F2CD
:101A40000941FF22012B2183628300F0A582022B32
:101A50007FF40EAC237F0D2B7FF48DAE9BF811210C
:101A600084F81C800123032AE370074B00F0E8840C
:101A7000DAF8683002989B6A984706238AF80230A1
:101A8000FFF7F6BBD0DB012068E901209AF80310CC
:101A90008AF81480012005248142AAF81880AAF847
:101AA0001A808AF81540AAF81600D34A00F0ED8291
:101AB00002297FF4DDAB137F0D2B00F0F2830B3B8B
:101AC000DBB2012B3FF6D4ABD070FFF7D1BB9AF855
:101AD0000320BAF83640AAF81880802306218AF835
:101AE0001430012A4FF40073AAF81630AAF81A40ED
:101AF0008AF81510C04B00F09A82022A7FF4B8AB26
:101B00001A7F0D2A7FF40BAE012283F81C80DA7055
:101B100024B1BA48BA4922460CF058F89BF8132170
:101B20009BF810119BF812318AF834109BF81111B0
:101B30009BF815018AF8351003EB02239BF8161168
:101B40009BF814218AF839009BB29BF817018AF898
:101B50003A10092C9BF81811AAF836308AF8382068
:101B60008AF83B008AF83C100AD9012A40F2D68252
:101B7000DFF8A0C2DFF8A0E2ACF800808EF80080A9
:101B8000A048DAF8683000F10A015B6A00F114023B
:101B9000984705238AF80230FFF76ABB9AF80530A8
:101BA000954A5B4493F89B33DBB2012B00F0A18292
:101BB000022B00F06883032B7FF45AAB5EE09AF8A7
:101BC00005000BEB000100F115020BEB40130BEBD2
:101BD000421281F89B830125022183F8AE83C2F86B
:101BE0001881C3F8BC8383F8C55382F81411C3F875
:101BF000C08304F0A7FD0A238AF81C30FFF738BB26
:101C00009AF80E207C4B0132D2B2022A8AF80E20BA
:101C100040F2628208215A7899741A70FFF728BB43
:101C20009AF80420744B78495A4492F89B23D2B214
:101C3000012A00F05E82032A20D04969734D8C6826
:101C4000188A2988A4B2201A884217D8042A7FF457
:101C50000FAB59789A741970FFF70ABB9AF80430E1
:101C6000654A5B4493F89B33DBB2012B00F0718132
:101C7000042B00F03582032B40F06D810B238AF892
:101C80001C30FFF7F5BA9AF80400DAF808200BEBDD
:101C9000401300F115010BEB4111012483F8AE4311
:101CA000022481F81441C1F818210BEB0004BAF8A2
:101CB0000C20C3F8C083C3F8BC2384F89B8304F0D2
:101CC00041FD04238AF81C30FFF7D2BA9AF80520A8
:101CD000494B5A4492F89B23D2B2012A00F0E28188
:101CE000032A7FF4C5AA0B21052219779A74FFF7FE
:101CF000BFBA9AF80500464D00F115020BEB4013F0
:101D00000BEB4212032483F8AE830BEB0001C2F805
:101D1000185182F814410822C3F8C083C3F8BC23C9
:101D200081F89B8304F00EFD02238AF81C30FFF734
:101D30009FBA9AF80530304A5B4493F89B33DBB284
:101D4000012B00F01383042B00F0CA81022B7FF4D7
:101D500032AF05231377FFF78BBA9AF80500BAF86C
:101D60000C4003944FEA401900F1150300F11E02E4
:101D70000BEB09050BEB431E0BEB4212DAF80840A4
:101D80000BEB43130121D944517185F8AE830BEB62
:101D90000002CEF818410221039CC5F8BC4383F829
:101DA0001411C9F8C08382F89B8304F0CBFC06238E
:101DB0008AF81C30FFF75CBA9AF804000BEB40136A
:101DC00000F115020BEB4212012483F8AE430BEB3A
:101DD00000010224C2F8188182F81441C3F8BC83C0
:101DE000C3F8C08381F89B8304F0ACFC08238AF815
:101DF0001C30FFF73DBA00BFD0DB0120E404002017
:101E000078EA012004DC012068E90120E4060020D2
:101E1000E4DB0120FC060020E00400209A4200D010
:101E20000B70DAF868301B6998479AF804208AF832
:101E3000008001238AF803308AF81C308AF82130A8
:101E4000072A4FF040038AF801808AF802808AF856
:101E500020808AF8063007D802F531730BEB430374
:101E60009A88C2F30E029A809AF80530072B07D899
:101E700003F531730BEB43039A88C2F30E029A8089
:101E8000DAF868305B689847DAF864309D485B6838
:101E90009D499847ABF89085ABF89285ABF894854F
:101EA000ABF89685ABF89885ABF89A858AF80080F0
:101EB000FFF7DEB94FF0804364223A601A8822F0BF
:101EC000010212040121120C8AF800101A809A896A
:101ED00022F001021204120C9A811A8822F45C7218
:101EE0001204120C1A8042F6DF644FF6FE720520CF
:101EF000DC62188599821A821A8892B242F08002B6
:101F00001A809A8992B20A439A811A8892B20A4335
:101F10001A803B68002BFCD14FF08042138823F0DD
:101F200001031B041B0C1380FFF7A2B9A36E5B6CAB
:101F300098470A232370FFF79BB9744DA5600421CD
:101F4000A28123770722022361702270E370FFF7DA
:101F50008FB909231377DBF81430BAF8101098689A
:101F60006B4B80B21A886B4B411A91427FF680A965
:101F70000B221A77FFF77CB903231A460BEB4202B8
:101F800048F28001A2F88C15FFF7FBBA02231A462B
:101F9000F4E701231A46F1E75C48A0600421CFE78B
:101FA00003231A460BEB42024FF40041A2F88C15B2
:101FB000BBF88C258AF8053013043FF5BCAA002332
:101FC0001A46DBE702231A46ECE701231A46E9E743
:101FD00000231A46E6E7A36E4F481B6B9847082379
:101FE000A370FFF745B907231A46C7E706231A4629
:101FF000C4E705231A46C1E707231A46D2E706239A
:102000001A46CFE705231A46CCE704231A46C9E748
:1020100004231A46B2E704213C48A3810722022385
:10202000A060257761702270E370FFF721B9374D0A
:102030009D6004209C8107211A7702225870197034
:10204000DA70FFF715B9314C9C6004209981F2E7F2
:10205000A36E3148DB6A98470723A370FFF708B9DE
:10206000A36E2D489B6A98470623A370FFF700B91B
:1020700004201A7707210222C3F80880A3F80C80F5
:1020800058701970DA70FFF7F3B8042311775370A2
:1020900007210223C2F80880A2F80C801170D370C7
:1020A000FFF7E6B81A7D598B22F07F02D2B20029E1
:1020B00000F0ED80DFF858C041F28831ACF8001034
:1020C000002A40F0BA8105221A77DBF814309B68A9
:1020D000AAF81030FFF7CCB801221A77FFF7C8B87A
:1020E0009AF801308AF800300C238AF81C30FFF788
:1020F000BFB89AF801308AF800300D238AF81C30F6
:10210000FFF7B6B868E90120F0DB012078EA01208A
:10211000E4060020D0DB012064DE0008BD48BE4993
:1021200000780C900988BD480B910925CDF83CB08A
:10213000AB4240F28980027810441544417804296A
:10214000ADB2F5D1C27884780492022A0394EFD814
:10215000017990F800C0CDF814C090F805E08279BC
:10216000C47990F808C0CDF818E0022907920894C5
:10217000CDF824C0DCD8DDF80CE0A94C4FFA8EFE77
:102180000FFA8EF204F10A0C02EBC2034FF0000BBF
:102190000CEB02122344CDF834E00A925C46A946C7
:1021A000A1424BDD027810444A444578052D1FFAC0
:1021B00082F9F5D10A9ADDF830E0E4000194224476
:1021C0000D9CA64543D0059D1D704FF004045C7026
:1021D000039D049C9D70DC70069D079C5D719C7145
:1021E000089D099CDD7119711C72039D0C9590F876
:1021F00005E0057990F801C0CDF838C0019CDDF804
:1022000028C005EB0E2590F800E00CF804E00BF177
:10221000010B90F802C090F803E09580ADB25FFA30
:102220008BFB0B950E9D55704FFA8BF4857995714C
:10223000A14282F802C082F803E0B3DCBAF836307B
:102240004D46AB423FF677AFDDF83CB090E4057900
:1022500090F805E0DDF82CC005EB0E24A445EDDC7C
:10226000059C1C704FF004045C70039C9C70049CE3
:10227000DC70069C5C71079C9C71089CDC71099C5D
:1022800019711C72B6E709231377FEF7F1BFDFF867
:102290009CE13221AEF80010002A6BD107221A7798
:1022A00013E74FF0804339601988D07021F00101A5
:1022B0000904090C1980998982F81C8021F0010217
:1022C0001204120C9A811A8822F45C721204120C05
:1022D0001A8042F6DF614FF6FE72D9621C85988241
:1022E0001A821A8892B242F080021A809A8992B2B7
:1022F00042F001029A811A8892B242F001021A80D9
:102300003B68002BFCD14FF08042012113888AF8F2
:10231000201023F00103DAF868101B041B0C138053
:102320000B6A98479AF820309AF8041003228AF82A
:1023300002201BB10BEB411282F8AC33394C204622
:1023400004F0CEFB9AF820309AF80510002B3FF4E9
:102350008AA904EB411484F8AC33FFF784B9012255
:1023600083F81C809970DA70FEF782BF0723137719
:10237000FEF77EBF09221A77A7E69BF8112184F8A1
:102380001C800123032AE370264B09D0DAF8683059
:1023900002981B6B984708238AF80230FEF768BF43
:1023A00093F81031023BFF2BA8BFFF2398B280B1F6
:1023B0000DF1510200231C4C991CE35C02F8013C16
:1023C0008BB29842114602F10102F4D881F80080E4
:1023D000DCE7029981F80080D8E793F81031023BDE
:1023E000FF2BA8BFFF2398B210B30DF151020023B9
:1023F000DFF834C0991C1CF8033002F8013C8BB2A2
:102400009842114602F10102F2D881F80080FFF7EC
:10241000E0B900BFE0040020FC06002078EA0120BB
:102420000EDC012068E901207AEA0120E4060020A0
:10243000029981F80080FFF7CCB903221A7744E6AD
:1024400093F81031023BFF2BA8BFFF2398B288B14D
:102450000DF1510200233E4C991CE35C02F8013C53
:102460008BB29842114602F10102F4D881F8008043
:10247000FFF7FEBA029981F80080FFF7F9BA354CF0
:10248000FEF76ABA344CFEF767BA344B9A8892B2B8
:1024900042F002029A800DF14808FEF793BB304BE0
:1024A000304D196B304C314ADFF8C49041F40011C3
:1024B00019632B6823F001032B602868212120F089
:1024C00001004FF03D5328604FF6FE7C2E602846F9
:1024D0006E604FF4806EAE604FF0400AEE602E6189
:1024E0006961D3604FF400614FF400524FF4807380
:1024F0002660A6606661E66226636663A6634FF4A3
:10250000403622626362A662C4F80490C4F80CA04C
:10251000C4F810C0C4F818E0E16104F0ADF92B680C
:1025200043F010032B602B6811AE43F008032B60BF
:102530002F22032330468DF847808DF844208DF8F4
:1025400045308DF8463004F091FAFEF7F5BE00BF35
:102550007AEA01200024F40000127A00003C0040D6
:1025600000380240B8600240BCE801200060024030
:102570000C3C00402DE9F04F2DED0E8B85B000F1A5
:102580000408B84FB84EB94DB94C9FEDBA9ADFED7B
:10259000BA9A9FEDBA8A00F244600390BB6AB149CF
:1025A0005A1E002BBA6241F3F384D5ED037AF5EE9F
:1025B000C07AF1EE10FA08D577EE887AF5EEC07A97
:1025C000F1EE10FAF8D4C5ED037AF4EEC87AF1EE24
:1025D00010FA08DB77EEC87AF4EEC87AF1EE10FA5A
:1025E000F8DAC5ED037A9FEDA60A95ED00AA27EE6D
:1025F000800A09F053FAA349D5ED037AD5ED025AC2
:102600009FEDA16AA14ADFF89CE2D2ED006A9EF834
:10261000003001EB800090ED007A9D482AEE077AA9
:10262000F7EE008A77EE288AE5EE867A68EEA68ACB
:1026300085ED077AC0ED028AC5ED037A0F2B03F210
:102640002484DFE813F09300A909E2004E00310171
:1026500010008906AB05DF040A04D108A7070D0A9C
:102660007E016F0B2B038A4A92ED030AB5EEC00A76
:10267000F1EE10FA09D530EE080AB5EEC00AF1EE17
:1026800010FAF8D4824880ED030AB4EEC80AF1EEDD
:1026900010FA09DB30EE480AB4EEC80AF1EE10FA7F
:1026A000F8DA7B4981ED030A09F0AAFA784A9FED2E
:1026B000767A92ED00AAD2ED037AD2ED026A20EE8C
:1026C0000AAAE6EE877A20EE0AAAC2ED037A20EE85
:1026D0000AAA20EE0AAA20EE0AAA82ED07AA00F0B2
:1026E000A4BC6B4BD3ED037AF5EEC07AF1EE10FA91
:1026F00009D577EE887AF5EEC07AF1EE10FAF8D4C3
:102700006348C0ED037AF4EEC87AF1EE10FA09DB03
:1027100077EEC87AF4EEC87AF1EE10FAF8DA5C498E
:10272000C1ED037A9FED560A594A9FED5AAAD2EDA0
:10273000008A27EE800A09F0B1F9554BDFF844E131
:10274000D3ED037A93ED026ADFED4F6A0EEB800062
:1027500090ED007AE6EE267A28EE877AC3ED037ACA
:1027600083ED077A27EE0AAA00F05FBC4848D0ED57
:10277000037AF5EEC07AF1EE10FA0DD577EE887A8D
:10278000F5EEC07AF1EE10FAF8D4F4EEC87AF1EE74
:1027900010FA06DB77EEC87AF4EEC87AF1EE10FA9A
:1027A000F8DA9FED3D7AF4EEC78AF1EE10FA02F105
:1027B00054809FED3A7A364A82ED047AF4EEC77A75
:1027C000F1EE10FA02F16080DFED356ADFF8C0E06B
:1027D000B0EE006AE7EE866ADEED005A38EE476A30
:1027E00036EEC77A27EE257A87EE067A2848DFED9F
:1027F000266A9FED28AA80ED077AE8EEA67A27EEF2
:102800000AAAC0ED037A00F010BCDFF884E09EED68
:10281000030AB4EEC80AF1EE10FA09DB30EE480AFA
:10282000B4EEC80AF1EE10FAF8DA194B83ED030A98
:1028300009F0E6F9DFF858E0DFED136ADEED037A20
:102840009EED026A9EED007A9FED12AAE6EE267AD0
:1028500020EE070ACEED037A8EED070A20EE0AAAD3
:10286000E3E300BFC010001004110010FC3D001095
:102870005C3E001000000030CDCCCC3EDB0FC940E8
:1028800083F922439CDE00081F420939A83E00104C
:102890007C3D0010CDCC4C3F0000FA45DB0F494099
:1028A000DB0FC9C034100010E849E94ADFEDE96ADE
:1028B000DFEDE95ADFEDE94A9FEDE95A012306EE23
:1028C000103AB8EEC67A68EE877AF4EEE57AF1EE61
:1028D00010FA29D5F2EC017AF4EEC87AF1EE10FA8A
:1028E00008DB77EEC87AF4EEC87AF1EE10FAF8DA7F
:1028F00042ED017A27EEA46A27EE057ABCEEC66A9D
:10290000DFF880E316EE100AE8EE877A80B20EEB6D
:10291000800090ED007AB1EC016A42ED017A01335A
:102920000B2BE6EE076ACAD1CE4BCF4893ED007A67
:10293000D0ED007A66EE876A26EEA7AA80ED07AA98
:1029400073E3DFF844A39AED065A9AED096ADAEDCB
:10295000077A9AED027ADAF81420F8EE456A15EE55
:10296000100AE6EE267A431C9342CAF8183067EE46
:10297000877ACAED0A7A82F02480DFF810A3BB4B75
:102980009AED066ADAED094A9AED077AD3ED005A14
:10299000DAF81800DAED026ADAF81410DFF8C8E2A3
:1029A000B8EE465AB7EE006A37EE866AA4EE857A2C
:1029B000421C8A42F3EE097AE6EE257ACAF818201C
:1029C00027EE267ACEED027A8AED0A7A82F03E80F0
:1029D000DFF8BCB2DFF8BCA2DBED066ADBED094A2A
:1029E000DBED077ADBF818009BED026ADBF81420B8
:1029F000B8EE665AF7EE006A37EE267AE4EE857A8C
:102A0000411C9142F3EE096AE7EE256ACBF81810F3
:102A100067EE867ACAED026ACBED0A7A82F05F80B1
:102A2000B7EE007A77EE877A8F48DFF86CB2B3EEB4
:102A3000096AA7EEA56AD0ED037A8BED026AF5EE7E
:102A4000C07AF1EE10FA0DD577EE887AF5EEC07AFD
:102A5000F1EE10FAF8D4F4EEC87AF1EE10FA06DBD3
:102A600077EEC87AF4EEC87AF1EE10FAF8DA7E4919
:102A70009FED7F7AD1ED025AF4EEC75AF1EE10FACB
:102A80000B4641F110879FED7B7A9FED7B5A25EE37
:102A9000877AB4EEC57AF1EE10FA01F20687B0EE4D
:102AA000457AF4EEC77AF1EE10FA81ED045A01F19D
:102AB0000487DFED724A6C4BB0EE005AE7EE854AB0
:102AC00093ED004A38EE475A34EEC77A27EE047A7F
:102AD00087EE055ADFF890E1DFED614A9AED037A5F
:102AE0008EED075AE5EEA47AB5EEC07AF1EE10FA53
:102AF000CEED037A08D537EE087AB5EEC07AF1EE5E
:102B000010FAF8D48AED037AB4EEC87AF1EE10FA2E
:102B100008DB37EE487AB4EEC87AF1EE10FAF8DA4C
:102B20008AED037ADFED527AF4EEE76AF1EE10FAFD
:102B300042F19481DFED4F7ADFED4F5A66EEA77ACE
:102B4000F4EEE57AF1EE10FA02F28A81F0EE657A9F
:102B5000B4EEE77AF1EE10FACAED045A02F1888178
:102B6000DFED464A9AED004AF0EE005AE7EE254ABC
:102B700078EE675A74EEE77A67EE847AC7EEA55A64
:102B8000DFED374ADBED037ACAED075AA6EEA47AE9
:102B9000F5EEC07AF1EE10FA75EE255A8AED037A59
:102BA00008D577EE887AF5EEC07AF1EE10FAF8D40F
:102BB000CBED037AF4EEC87AF1EE10FA08DB77EE8B
:102BC000C87AF4EEC87AF1EE10FAF8DACBED037AAF
:102BD0009FED277AB4EEC76AF1EE10FA42F1268132
:102BE0009FED247ADFED246A26EE077AB4EEE67ACA
:102BF000F1EE10FA02F21C81B0EE667AF4EEC77ABA
:102C0000F1EE10FACBED046A02F11A81DFED1B6AD6
:102C1000DBED004AB0EE005AE7EE856A38EE475A1F
:102C200036EEC77A27EE247A87EE057A9FED0C5AA6
:102C3000DFED136A8BED077AE6EE057A35EE877ADB
:102C4000CBED037A27EE26AAEFE100BF04000010C7
:102C5000803E0010000000000080BB4683F9224344
:102C60001F420939000000107C3D00108000002048
:102C70000000FA452EE3CD3917B7D138DB0FC9C0B4
:102C8000C3F5A83E9CDE00083C1000106810001040
:102C9000941000109C3D0010BC3D0010DFF858A3BC
:102CA0009FEDCA7A9AF84835CAED038ADAED04BA7C
:102CB000DAED066ADAED077A9AED08AADAF8441531
:102CC000002B41F0AF85C8EE878A9FEDC17AF4EE04
:102CD000C78AF1EE10FA01F1BC85B6EE007AF4EE87
:102CE000478AF1EE10FAC8BFF0EE478A78EEE78A1D
:102CF0009FEDB87A37EEA8BAF4EEC7BAF1EE10FA43
:102D00007BEE268AC2F21C803BEEC77AF7EE007A91
:102D10006BEE07AA78EEEA8AF4EEE78AF1EE10FA93
:102D2000C2F2848278EEE78ADFEDAB7AAB4A01919A
:102D30003AEEA8CAB6EE000A2CEE27CA4FEA81097D
:102D40008CEE0BCA0092DFF8B4B23CEE400A08F0F9
:102D5000A5FE05EE100AF8EEC56A009A019900F08A
:102D60003F007CEE666A02EBC003CE4693ED017A2B
:102D7000D3ED007AE6EE877A0BEB0E0C40309CED3B
:102D8000007A77EE277AB0F5905F03F500730EF1C5
:102D9000040ECCED007AE9DB9FED8FCA01912AEE9B
:102DA0008CCAB6EE000A8CEE0BCA00923CEE400ACA
:102DB00008F074FE05EE900AF8EEE56A009A0199B3
:102DC00000F03F007CEE666A4B4602EBC002D2ED9B
:102DD000017A92ED007AA6EEA77A0BEB030E403053
:102DE000DEED007AE8EE877AB0F5905F02F50072CA
:102DF00003F10403CEED007AE9DBCAED05BA01F177
:102E00000C030AEB8303F6EE007A93ED016A9AED68
:102E1000017ADFF8E4B177EEEA6AF0EE4A8A76EEFC
:102E2000266AC3ED016A0AEB8103D3ED096A36EE27
:102E3000CAAA0131EAEE278AB1F5807F28EE87AA77
:102E40008AED00AA02F0AE82CAED06AA8AED07BAA0
:102E5000CAED088ACAF84415E7E06148DFF8A0A186
:102E600090ED037AF7EE086A68EEA66AB5EEC07ACE
:102E7000F1EE10FACAED026A0DD537EE087AB5EE1A
:102E8000C07AF1EE10FAF8D4B4EEC87AF1EE10FA86
:102E900006DB37EE487AB4EEC87AF1EE10FAF8DACB
:102EA000DFED507AF4EEE78AF1EE10FA41F1558544
:102EB000DFED4D7A9FED4D6A68EEA77AF4EEC67AA3
:102EC000F1EE10FA02F2DC87454AF0EE467A82ED26
:102ED000046AB4EEE77AF1EE10FA01F14985DFED0C
:102EE000445ADFF8FCE0B0EE006AE7EE065A9EEDC9
:102EF000005A38EE676A75EEE77A67EE857A87EEF4
:102F0000866A3748DFED3B5ADAED037A80ED076ACF
:102F1000A8EEA57AF5EEC07AF1EE10FA80ED037A0C
:102F200008D577EE887AF5EEC07AF1EE10FAF8D48B
:102F3000CAED037AF4EEC87AF1EE10FA08DB77EE08
:102F4000C87AF4EEC87AF1EE10FAF8DACAED037A2C
:102F50009FED247AF4EEC76AF1EE10FA41F1D886BB
:102F60009FED217ADFED215A26EE877AB4EEE57ADD
:102F7000F1EE10FA01F2CE86B0EE657AF4EEC77A81
:102F8000F1EE10FACAED045A01F1CC86DFED185AC1
:102F9000DAED004AB0EE005AE7EE855A38EE475AAD
:102FA00035EEC77A27EE247A87EE057ADFED115ADF
:102FB0008AED077AE6EEA57A36EE077AF6EE006A33
:102FC00027EE26AACAED037A2FE000BF00803B4718
:102FD000ACC5273708E53C1E00008042A0EE000883
:102FE0007C3D00100000FA452EE3CD3917B7D138EB
:102FF000DB0FC9C01F4209392C000010500000101F
:103000009C3D0010BD4991ED00AA0AF0CBFE05EEF3
:10301000100AF8EEC56A9FEDBA7ADFEDBA7A66EE6D
:10302000896AE6EE877A2AEE27AA716A326AB64B77
:103030000131012A7162D3ED048A01F09181032AE2
:1030400001F0C081002A01F0A381D4ED037AC6ED1E
:10305000058AF5EEC07AF1EE10FA08D577EE887A97
:10306000F5EEC07AF1EE10FAF8D4C4ED037AF4EE7E
:10307000C87AF1EE10FA08DB77EEC87AF4EEC87A77
:10308000F1EE10FAF8DAC4ED037A9FEDA00AD4ED60
:1030900000AA27EE800A08F001FD9D49D4ED037ACD
:1030A0009C4A94ED025ADFED9C5AD2ED006A3A6BCD
:1030B000DFF894E2944B01EB800090ED007A716AA6
:1030C0002AEE877AB7EE006A37EE066AE5EE257AD1
:1030D000914266EE288A84ED077A28EEA67ACEED34
:1030E000008A27EE0AAAC4ED037A81F0D1808B48CA
:1030F00003784BB9DFF854A2DAED008AF5EE408A86
:10310000F1EE10FA41F06E81854AD2ED008AF5EEBB
:10311000408AF1EE10FA41F05E808248B0EE4A0A31
:1031200003F01AF98048F0EE408AB0EE4A0A03F044
:1031300013F97E4838EE800A0378F6EE007A60EEE6
:10314000278A002B40F0FE8779480378002B40F057
:10315000CB87B0EE68AAF7EE007AB4EEE7AAF1EEFC
:1031600010FA40F3D98747F6FF72F7EE007AF4EED3
:10317000E78AF1EE10FA41F3958047F6FF7328F8DD
:10318000023C039B28F8042C08F1040898457FF4BE
:1031900005AA05B0BDEC0E8BBDE8F08FDFF8B0A13D
:1031A0009AF85835CAED038A9AED05CADAED07CACE
:1031B000DAED087A9AED096ADAED0ABA9AED0BAA05
:1031C000DAF85095DAF854C5002B41F0B182DFED02
:1031D000595A9AED045AC8EEA58ADFED575AB7EE50
:1031E000007A35EE075AF4EEE58AF6EE006AF1EE63
:1031F00010FA37EE677A65EE266A01F1D882F6EEAC
:10320000005AF4EE658AF1EE10FAC8BFF0EE658A56
:10321000F4EE667AF1EE10FAC8BFF0EE676A78EE67
:10322000E78AF4EEC76AF1EE10FA77EEA8AADFEDAE
:10323000437AD8BFB0EE667A37EE467AB4EEE7CA84
:10324000F1EE10FA36EE07BA7AEEACCAC1F23D865C
:103250007CEE677A6AEEA78A7CEEE8CABCF1000FC2
:1032600001F0D886F7EE007AF4EEE7CAF1EE10FA34
:1032700082F28C824FEA8901314ADFF8D8B002919C
:10328000DFED30BA009268EEABBAB6EE000ACBEED4
:10329000AABA3BEEC00A08F001FC06EE100AF8EEEE
:1032A000C66A009A029900F03F007BEEE66A02EBE4
:1032B000C00292ED017AD2ED007AE6EE877A0BEB4E
:1032C0000103403093ED007A77EE277AB0F5905FF6
:1032D00002F5007201F10401C3ED007AE9DBF6EEBC
:1032E00000BAB4EEE8BAF1EE10FA42F256834FF0AB
:1032F000000C8AED06CA01F01ABF00BF7C3D001029
:10330000CDCCCC3FCDCC4CBF0411001083F922436F
:103310009CDE0008301000101F42093935100010E3
:103320003C3E00103C3D00105C3D00103810001089
:103330003710001000803B47ACC5273708E53C1E1E
:10334000A0EE0008000080422C1000101C3E00106F
:1033500078050010A8050010864B93F85425C3ED9E
:10336000038AD3ED05BAD3ED07CAD3ED087AD3EDBE
:10337000095A93ED0ACAD3F84C95D3F850C5002AE0
:1033800041F09381DFED7C6A93ED045AC8EEA66AA2
:10339000B7EE007A35EE075AB6EE006A25EE066AF9
:1033A0009FED765AF4EEC56AF1EE10FA37EE677AC1
:1033B00001F1BA81B6EE005AF4EE456AF1EE10FA68
:1033C000C8BFF0EE456AF4EE467AF1EE10FAC8BFD7
:1033D000B0EE676AB4EEC76AF1EE10FAD8BFB0EE8D
:1033E000467A37EE657A76EEE76A75EE878A9FED64
:1033F000647A77EEA6AAF4EEC7BAF7EE007AF1EE99
:1034000010FA7AEEACCA37EEE8AAC1F23F853BEE7D
:10341000C77A2AEE87BA7CEECBCABCF1000F41F026
:103420000F86F4EEEC8AF1EE10FA42F299838CEEFC
:10343000A8DAF4EEE7CAB6EE007AF1EE10FA3DEE45
:1034400047DAC2F2F3824FEA8901DFF840A1DFF8E0
:1034500040B10291F7EE007A7CEEE7CA9FED497A1F
:1034600000937BEE2C6A8CEEA8DA66EE87CAC7EE74
:10347000A8DACCEEAACAC7EE8A7AB6EE007A3CEE9B
:10348000C70A7DEEA7DA3DEE47DA08F007FB05EE46
:10349000900A00F03F00F8EEE56A421C0AEB820A4F
:1034A0002AEEAD6A7CEEE66A029A009B5AED017A3A
:1034B0009AED007A37EE677A0BEB0201E6EE877A37
:1034C0004030B0F58E5F0AF5807AB0EE677AD1EDC4
:1034D000007AE6EE077A02F10402C1ED007AE5DB3C
:1034E0009FED28EA2BEE0EEAF6EE00CA8EEE2AEAEF
:1034F0007EEE6CCAB0EE6C0A009308F0CFFA05EECF
:10350000900AF8EEE56AFEEE00CA1F4ADDF808E010
:10351000009B00F03F007CEECDCA7EEE666A02EBB7
:10352000C002D2ED017A92ED007AA6EEA77A0BEBFB
:103530000E014030D1ED007AECEE877AB0F5905F65
:1035400002F500720EF1040EC1ED007AE9DBF4EE33
:10355000CB8AF1EE10FA42F28F818BEE28DA4FF02F
:10356000000CF6EE007A3DEE67DAC3ED06BA01F024
:1035700024BE00BFD40A001000803B47ACC52737EB
:1035800008E53C1E00008042A0EE000854800108BF
:10359000000B00108A4A9FED8B6AD2ED037ADFF8A8
:1035A00040A2DFF840B2F7EE086A28EE866A68EEBD
:1035B000A66AF5EEC07AF1EE10FA8AED026ACBED5A
:1035C000026A0DD577EE887AF5EEC07AF1EE10FA40
:1035D000F8D4F4EEC87AF1EE10FA06DB77EEC87A8A
:1035E000F4EEC87AF1EE10FAF8DA9FED777AF4EE9D
:1035F000C78AF1EE10FA41F1CA819FED747ADFEDCE
:10360000745A28EE877AB4EEE57AF1EE10FA02F2F7
:103610003284DFF8ACE1B0EE657ACEED045AF4EE18
:10362000C77AF1EE10FA01F1BD819FED6A5A644943
:10363000F0EE005AA7EEA55AD1ED004A78EE475AAF
:1036400035EE477A27EE247AC7EE255A5C4A9FED7D
:10365000625A9AED037AC2ED075AE8EE857AB5EE22
:10366000C07AF1EE10FAC2ED037A08D537EE087A87
:10367000B5EEC07AF1EE10FAF8D48AED037AB4EE22
:10368000C87AF1EE10FA08DB37EE487AB4EEC87A61
:10369000F1EE10FAF8DA8AED037ADFED4B7AB4EE48
:1036A000E76AF1EE10FA41F14284DFED487A9FEDCE
:1036B000485A66EE277AF4EEC57AF1EE10FA01F276
:1036C0003884F0EE457AB4EEE77AF1EE10FA8AED3E
:1036D000045A01F13684DFED3F4A9AED004AB0EE1C
:1036E000005AE7EE054A38EE675A74EEE77A67EE5D
:1036F000847A87EE855ADFED384ADBED037A8AED6E
:10370000075AA6EE247AF5EEC07AF1EE10FA75EEBD
:10371000855A8AED037A08D577EE887AF5EEC07A75
:10372000F1EE10FAF8D4CBED037AF4EEC87AF1EEAC
:1037300010FA08DB77EEC87AF4EEC87AF1EE10FAE8
:10374000F8DACBED037A9FED207AF4EEC76AF1EE5A
:1037500010FA41F1A8829FED1D7A9FED1D6A26EEB9
:10376000877AB4EEC67AF1EE10FA01F29E82B0EEDC
:10377000467AF4EEC77AF1EE10FA8BED046A01F1A5
:103780009C829FED146ADBED004AB0EE005AA7EE72
:10379000856A38EE475A36EE477A27EE247A87EE66
:1037A000057A9FED0D5A9FED0D6A8BED077AE6EED7
:1037B000857A35EE877ACBED037A27EE06AA34E4D4
:1037C0007C3D0010B537983F0000FA452EE3CD3917
:1037D00017B7D138DB0FC9C01F420939C3F5A83E5E
:1037E0009C3D0010BC3D001090499FED916AD1EDC9
:1037F000037ADFF864A2DFF864B2F7EE086A28EE15
:10380000866A68EEA66AF5EEC07AF1EE10FA8AEDE5
:10381000026ACBED026A0DD577EE887AF5EEC07AB2
:10382000F1EE10FAF8D4F4EEC87AF1EE10FA06DBF5
:1038300077EEC87AF4EEC87AF1EE10FAF8DA9FED76
:103840007D7AF4EEC78AF1EE10FA41F16A809FEDBD
:103850007A7ADFED7A5A28EE877AB4EEE57AF1EEDD
:1038600010FA02F2FE82714BB0EE657AC3ED045A93
:10387000F4EEC77AF1EE10FA01F15F809FED705A15
:103880006A48F0EE005AA7EEA55AD0ED004A78EE4D
:10389000475A35EE477A27EE247AC7EE255A634910
:1038A0009FED685A9AED037AC1ED075AE8EE857AE2
:1038B000B5EEC07AF1EE10FAC1ED037A08D537EE15
:1038C000087AB5EEC07AF1EE10FAF8D48AED037AF0
:1038D000B4EEC87AF1EE10FA08DB37EE487AB4EEAF
:1038E000C87AF1EE10FAF8DA8AED037ADFED517A50
:1038F000B4EEE76AF1EE10FA41F10183DFED4E7AA2
:103900009FED4E5A66EE277AF4EEC57AF1EE10FA84
:1039100001F2F782F0EE457AB4EEE77AF1EE10FAB2
:103920008AED045A01F1F582DFED454A9AED004A2D
:10393000B0EE005AE7EE054A38EE675A74EEE77AC1
:1039400067EE847A87EE855ADFED3E4ADBED037A37
:103950008AED075AA6EE247AF5EEC07AF1EE10FA57
:1039600075EE855A8AED037A08D577EE887AF5EEFA
:10397000C07AF1EE10FAF8D4CBED037AF4EEC87AFF
:10398000F1EE10FAFFF6DFAE77EEC87AF4EEC87A01
:10399000F1EE10FAF8DAD4E6DFED2B7AF4EEE78AEE
:1039A000F1EE10FA01F14984DFED287AF4EEE78AAE
:1039B000F1EE10FA01F1D3821C48D0ED037AF5EE56
:1039C000C07AF1EE10FA0DD577EE887AF5EEC07A6E
:1039D000F1EE10FAF8D4F4EEC87AF1EE10FA06DB44
:1039E00077EEC87AF4EEC87AF1EE10FAF8DA9FEDC5
:1039F000187AF4EEC77AF1EE10FA01F1C084DFED27
:103A0000156A0A49B8EE087AA7EEA67A91ED00AADF
:103A100027EE0AAA9FED0B7A044AE8EE877A82ED38
:103A200007AAC2ED037AFFF700BB00BF7C3D001080
:103A3000AE47A13F0000FA452EE3CD3917B7D13884
:103A4000DB0FC9C01F42093900004843000016447B
:103A5000DB0F494083F9223F9C3D0010BC3D001024
:103A6000DFF8B0A29AED065A9AED096ADAED077A04
:103A70009AED027ADAF81420F8EE456A15EE100A8B
:103A8000E6EE267A431C9342CAF8183027EE877A6E
:103A90008AED0A7A81F0C280DFF87CB2DFF87CA27E
:103AA0009BED066A9BED095ADBED077ADBED026AB6
:103AB000DBF81800DBF81420F8EE465AB7EE006A7F
:103AC000E5EE257A431C934237EE067A67EEA67A36
:103AD00068EE876ACBF81830CBED0A7ACAED026A35
:103AE00081F048808348DFF838B2B7EE007A37EECD
:103AF000877AD0ED037A68EE878AF5EEC07AF1EE28
:103B000010FACBED028A0DD577EE887AF5EEC07A01
:103B1000F1EE10FAF8D4F4EEC87AF1EE10FA06DB02
:103B200077EEC87AF4EEC87AF1EE10FAF8DA714955
:103B30009FED717A91ED026AB4EEC76AF1EE10FA68
:103B40000B4600F1C9869FED6D7AF4EEC77AF1EE6F
:103B500010FA83ED047A00F1D5869FED695A654B22
:103B6000F0EE005AA7EEA55AD3ED004A78EE475A78
:103B700035EE477A27EE247AC7EE255ADFF874E14E
:103B80009FED605A9AED037ACEED075AE6EE057A7C
:103B9000B5EEC07AF1EE10FACEED037A08D537EE25
:103BA000087AB5EEC07AF1EE10FAF8D48AED037A0D
:103BB000B4EEC87AF1EE10FA08DB37EE487AB4EECC
:103BC000C87AF1EE10FAF8DA8AED037ADFED4A7A74
:103BD000F4EEE76AF1EE10FA41F1F880DFED4A7A8F
:103BE0009FED4A6A66EEA77AF4EEC67AF1EE10FA15
:103BF00001F2EE80F0EE467AB4EEE77AF1EE10FADA
:103C00008AED046A01F1EC809FED3D5ADAED004A3D
:103C1000B0EE006AA7EE065A38EE676A75EE677A6C
:103C200067EEA47A87EE866A9FED365ADBED037A5B
:103C30008AED076AA6EE857AF5EEC07AF1EE10FA03
:103C400035EE866A8AED037A08D577EE887AF5EE46
:103C5000C07AF1EE10FAF8D4CBED037AF4EEC87A1C
:103C6000F1EE10FA08DB77EEC87AF4EEC87AF1EEDE
:103C700010FAF8DACBED037A9FED1F7AF4EEC78ADB
:103C8000F1EE10FA41F1BA809FED1F7ADFED1F6A65
:103C900028EE877AB4EEE67AF1EE10FA01F2B080FF
:103CA000B0EE667AF4EEC77AF1EE10FACBED046A64
:103CB00001F1AE80DFED126A9BED005AF0EE005A82
:103CC000E7EEA56A78EE475A36EEC77A27EE057A10
:103CD00087EE257ADFED0B5ADFED0D6A8BED077A63
:103CE000E8EEA57A36EE077ACBED037A27EE26AA20
:103CF000FFF79BB97C3D00100000FA45DB0F4940FF
:103D0000DB0FC9C01F4209392EE3CD3917B7D138AF
:103D1000C3F5A83E3C100010681000109C3D001038
:103D2000BC3D0010DFF860A2DFED917A9AED067AD3
:103D3000DAED054A9FED8F5ADFF850B28E4B9AEDBF
:103D4000036ADBED066AD3ED065A28EE877A64EE45
:103D5000A77A68EEA66AE7EE057A68EEA58A77EE9E
:103D6000867A8AED027AF5EEC07AF1EE10FACAEDA3
:103D7000037ACBED026AC3ED028A08D577EE887A22
:103D8000F5EEC07AF1EE10FAF8D4CAED037AF4EE4B
:103D9000C87AF1EE10FA08DB77EEC87AF4EEC87A4A
:103DA000F1EE10FAF8DACAED037A9FED740ADAED53
:103DB000008A009327EE800A07F070FE7049714A6E
:103DC0009FED6C6AD2ED057AD2ED025AD2ED036A0C
:103DD000009B01EB800090ED007A28EE877A67EE79
:103DE000277A8AED077AE5EE867A77EEA67AF5EEFF
:103DF000C07AF1EE10FAC2ED037A0AD577EE887A2E
:103E0000F5EEC07AF1EE10FAF8D4DFF878E1CEEDF5
:103E1000037AF4EEC87AF1EE10FA09DB77EEC87A8D
:103E2000F4EEC87AF1EE10FAF8DA5648C0ED037AEB
:103E30009FED520A534927EE800AD1ED008A009384
:103E400007F02CFE009BDFED4A7AD3ED055A9FED7B
:103E5000497A93ED026A4A4AD3ED036ADFF824E116
:103E600065EEA77A02EB8000E6EE077A90ED007A25
:103E700077EEA67A68EE878AF5EEC07AF1EE10FA50
:103E8000C3ED037ACEED078A08D577EE887AF5EE92
:103E9000C07AF1EE10FAF8D4C3ED037AF4EEC87AE2
:103EA000F1EE10FA08DB77EEC87AF4EEC87AF1EE9C
:103EB00010FAF8DAC3ED037A9FED300AD3ED008AE9
:103EC000009327EE800A07F0E9FD2D49DBED057A26
:103ED000DBED025A9FED276ADBED036A009B01EBE5
:103EE000800090ED007A28EE877A67EE277A83EDDE
:103EF000077AE5EE867A77EEA67AF5EEC07AF1EEED
:103F000010FACBED037A08D577EE887AF5EEC07A11
:103F1000F1EE10FAF8D4CBED037AF4EEC87AF1EEB4
:103F200010FA08DB77EEC87AF4EEC87AF1EE10FAF0
:103F3000F8DACBED037A9FED110ADBED008A27EE6C
:103F4000800A07F0ABFD0E4A0E4B02EB8000D0ED6D
:103F5000007A93ED07AA68EEA77AB6EE007A37EEFC
:103F60008AAACBED077A2AEE07AAFFF75EB800BF50
:103F7000000000001F420939DC3D001083F9224394
:103F80009CDE00087C3D00109C3D0010BC3D0010F4
:103F900091F82C30002B00F0F682CD48C37A13B98B
:103FA000437B002B3ED002F045FBDFF83893C94934
:103FB000DFEDC9AAC64AC1ED01AA8A46CB461AEE70
:103FC000901A4FF07E504FF0000E9FEDC4AADFED27
:103FD000C48A4BF8080B4AF8081BC9F8040082F899
:103FE0000DE009F0DFFE05EE100AF8EEC57AF0EEFE
:103FF000685A67EE897ABB48EAEC01AAE7EE8A5A6A
:1040000000F12C01EBEC015A99ED007A75EE877AFC
:104010008B45C9ED007AE4D1B7EE007AC7EE277A76
:10402000C0ED007AAA4A937BBBB109F0BBFE05EE56
:10403000100AB8EEC57ADFEDAC7A27EE097AB0EE59
:10404000690AA7EE270A07F073FDB5EE400AF1EE04
:1040500010FA4FF0000300F020833268F261002371
:104060004FF07E5273623362B261A0480378002B36
:1040700040F065829648837A0246002B40F0268203
:10408000DFF8CCB29BF80030012B00F04882022B05
:1040900000F09A8297F82C20954BBA5C9549DFF88E
:1040A000B4A203EB82031B680B6009F07BFE05EEF4
:1040B000100AF8EEC57A97F82C308F487A6ABA62FF
:1040C00067EE897AF0EE695A0133E7EEA95ADBB25E
:1040D0000F2B87F82C3088BF0023C0ED005A88BF13
:1040E0008AF82C30FEF761BA84488549B0EE680A38
:1040F00002F0A0FE83488449B0EE40AAB0EE680A00
:1041000002F098FEF7EE007AB4EEE7AAF1EE10FAAC
:10411000F0EE408A3FF727A8FFEE007AB4EEE7AA58
:10412000F1EE10FA48BF48F201023FF51EA8DFED9C
:10413000777A2AEE27AABDEECAAA1AEE102A92B200
:10414000FFF713B8724B734993ED007ADFED667A8F
:10415000D1F800C0DFED706A9CED006A6F4A27EE6F
:10416000277AD2ED007AA6EE267AB0EE685AA7EE4C
:10417000275AF7EE006AB4EEE65AF1EE10FAF0EEC6
:10418000457A83ED007A40F31582F0EE667A644852
:10419000644A0368DFF890A1E3EC017AC2EB030BF9
:1041A000D34503600CF1040CC8BF02605E48C1F83F
:1041B00000C0C2EB0C0383425C4BC8BF0A6093EDA6
:1041C000007AF7EE006A76EEC76A68EEA68AE7EE36
:1041D000878AFEF7B9BFD2ED037AF5EEC07AF1EE29
:1041E00010FA09D577EE887AF5EEC07AF1EE10FA7A
:1041F000F8D44F4BC3ED037AF4EEC87AF1EE10FA1F
:104200000ADB77EEC87AF4EEC87AF1EE10FAF8DA43
:10421000DFF81CE1CEED037A9FED500A27EE800A0D
:1042200007F03CFC4349424ADFED434AD2ED037AB2
:1042300092ED024A414BDFED425A93ED005A01EBF9
:10424000800090ED007AF7EE006AB6EE006AE4EEC8
:10425000247A37EE267A68EE868AC2ED037A28EE53
:10426000877A77EE267A82ED077A67EE857AF4EE22
:10427000E57AF1EE10FA40F30E81DFED327A9FED30
:10428000326A324B83ED016AC3ED027AFEF745BF15
:104290000021DA689961DA610021032259621A6209
:1042A000FEF725BFFFEE007AF4EEE78AF1EE10FA92
:1042B00048BF48F201033EF562AFDFED147A68EEC5
:1042C000A78AFDEEE88A18EE903A9BB2FEF757BF38
:1042D000F41000107C3E001000000000BF9F7A3FE9
:1042E0006F12833A000000109A99193F35100010A0
:1042F000A87E0108A83E0010301000102C110010FC
:104300001C3D0010242700102C3D001000FEFF462D
:10431000FCE80120EC060020CCCCCC3E8400002040
:10432000E806002004070020BFD401007C00002024
:104330003C3E00109CDE00081F420939DC040020CE
:104340003333733F03123A413333F33E5C3D001085
:1043500036100010C01000100000000083F9224346
:1043600093ED017AD3ED027A78EEC78AF4EEE78A0C
:10437000F1EE10FAC3ED048A3EF667AE0021022288
:10438000C3ED047AF0EE678AD9611A62FEF75DBE6A
:1043900093ED077AD3ED067A78EE878AF4EEE78A12
:1043A000F1EE10FAC3ED048AFEF64FAE5A68996832
:1043B000DA610122C3ED047AF0EE678A99611A622C
:1043C000FEF743BED3ED037A1FED1D7A78EEE78A40
:1043D000F4EEC78AF1EE10FA40F2E480C3ED048AED
:1043E000FEF733BEDAED037AF5EEC07AF1EE10FA9D
:1043F00008D577EE887AF5EEC07AF1EE10FAF8D4A7
:10440000CAED037AF4EEC87AF1EE10FA08DB77EE23
:10441000C87AF4EEC87AF1EE10FAF8DACAED037A47
:104420001FED320A27EE800A07F038FBE249DAED89
:10443000037A9AED024ADFEDE14AE14BDFEDE15A02
:1044400093ED005A01EB800090ED007AF7EE006AE0
:10445000B6EE006AE4EE247A37EE267A68EE868AB3
:10446000CAED037A28EE877A77EE267A8AED077A04
:1044700067EE857AF4EEE57AF1EE10FA40F3F28019
:10448000DFEDD17A9FEDD16AD14B83ED016AC3EDA7
:10449000027AFEF739BE27EE866ADFEDCE7A66EE47
:1044A000277AF9EE046A77EEA75A27EEA77AE7EEA5
:1044B000A56A27EE877AFAEE0E5AA7EEA57AF0EEF5
:1044C000087A66EEA77AC7EE277ADAE6407AC2491A
:1044D00018445BB250721FFA83FE01F1110011F80B
:1044E000013B73449BB21AB26A2A04DD0C3B9BB2B7
:1044F0001AB26A2AFADC002A03DA0C339BB21A04D5
:10450000FBD4814201F8013CE9D1B449DFF800B3A2
:1045100000238B729BF80030012B7FF4B8AD09F0BB
:1045200041FCAF4B0340002BC0F21987032B00F274
:104530007B87DFE813F00B07B706FD06040709F0D9
:1045400031FC05EE100ADFEDA70A9FEDA70AF8EE91
:10455000C57AE7EE890A07F091FB9FEDA47ADFEDBB
:10456000997A20EE070AB4EEE70AF1EE10FA40F36A
:10457000B283DFED957A9FED957A954B83ED017AC5
:10458000C3ED027A76E59A4B1B78002B3FF405AD1C
:10459000984B1B78002B7FF400AD03F0BBFF04F0B9
:1045A00035FEFAE40422F0EE478A83ED047A1A62BB
:1045B000FEF74BBDBFEE007AB4EE475AF1EE10FAAB
:1045C00048BFF0EE477AE2E509F0ECFB8A4B034086
:1045D000002BC0F2E186DBB2A3F10A02D2B2DFF80F
:1045E00034E2012A8EF8003040F2F784042B7FF485
:1045F00051ADDFF81492814BDFED7AAA9FED80AACE
:10460000DFED808AC3ED01AACB469A461AEE900AE6
:104610004FF07E514BF8081B4AF8080BC9F80410FC
:1046200009F0C0FB05EE100AF8EEC57AF0EE685A04
:1046300067EE897A7449EAEC01AAE7EE8A5A01F139
:104640002C00EBEC015A99ED007A75EE877A8345E0
:10465000C9ED007AE4D1B7EE007AC7EE277AC1ED52
:10466000007A17E527EE866ADFED5A7A66EE277A3A
:10467000F9EE046A77EEA75A27EEA77AE7EEA56A65
:1046800027EE877AFAEE0E5AA7EEA57AF0EE087AB0
:1046900066EEA77AC7EE277AF6E6F168B3610022E4
:1046A0000323F16172623362DFE4DFED586ADFED0C
:1046B0005A7AC8EEA66AF4EEE76AF1EE10FA00F153
:1046C000A184B6EE007AF4EEC76AF1EE10FAC8BF24
:1046D000F0EE477A41F3B583D3ED045A9FED4E5A7D
:1046E000B7EE006A35EE866AF6EE00CA26EE2C6A50
:1046F0004FF0000CB4EEE76AF1EE10FA54BFF0EEA2
:10470000465AF0EE675AF4EE475AF1EE10FAF4EE1C
:10471000C56AC8BFF0EE475AF1EE10FA65EEACCAB2
:1047200083F854C57EF546AEF0EE456AFEF74BBE03
:104730009FED367ADFED387AC8EE878AF4EEE78AA5
:10474000F1EE10FA00F16284B6EE007AF4EEC78A58
:10475000F1EE10FAC8BFF0EE477A41F37A839AED92
:10476000046ADFED2D5ADFED1FCAF7EE006A76EE20
:10477000266AF6EE00BA66EEAB6A4FF0000CF4EE75
:10478000E76AF1EE10FA54BFB0EE666AB0EE676AFF
:10479000B4EE476AF1EE10FAF4EEE58AC8BFB0EE67
:1047A000476AF1EE10FA8AF858C57EF528ADF0EEAA
:1047B000658AFEF72DBD00BF9CDE00081F42093947
:1047C000CCDB01203333733F03123A413333F33EE2
:1047D0003C3D0010DB0F4940C0100010F4100010E9
:1047E000030000800000000055550541CDCC4C3C35
:1047F00000000020F8E801200F0000807C3E00103F
:10480000BF9F7A3F6F12833A0000001000803B4741
:104810003610001034100010ACC527372EE3CD3908
:1048200017B7D138C8EE878A5FED057AF4EEE78ACC
:10483000F1EE10FA40F1D68300238AF84835F6EEFF
:10484000006A1FED0B7AF4EEC78AF1EE10FA7EF5DE
:1048500044AAF0EE478AFEF749BA1FED107A5FEDE1
:10486000106A28EE877AB4EEE67AF1EE10FA01F2D9
:10487000FD82B0EE667AE34AF4EEC77AF1EE10FA02
:10488000C2ED046A7DF5A0AFF8EE006A86EE877A85
:10489000DC4BF7EE006AE7EE876A93ED007A26EECE
:1048A000877AFDF7A3BF9FEDDB7AF4EEC77AF1EECE
:1048B00010FA83ED047A7EF5FCA8B8EE005A85EE76
:1048C000077AD04AB7EE005AA7EE875A92ED007ADF
:1048D00025EE075AFEF7FEB89FEDCB7ADFEDCB5AF7
:1048E00026EE077AB4EEE57AF1EE10FA3FF62DA93E
:1048F000B0EE657AF4EEC77AF1EE10FAC1ED045A23
:104900007FF52BA9F8EE005A85EE877ABD4AF7EEBF
:10491000005AE7EE875A92ED007A65EE875AFFF764
:104920002DB99FEDBC7ADFF8DCE2F4EEC77AF1EE48
:1049300010FA8EED047A7EF5A1AFF8EE005A85EEFE
:10494000877ADFF8C0E2F7EE005AE7EE875A9EED6D
:10495000007A65EE875AFEF7A2BFDFEDAE7AA94B6B
:10496000B4EEE77AF1EE10FAC3ED047A7EF5B7AA59
:10497000B8EE006AC6EE277AA24BB7EE006AA7EE41
:10498000276AD3ED007A26EE276AFEF7BABA9FEDC2
:10499000A17A9C48F4EEC77AF1EE10FA80ED047A21
:1049A0007EF543AEF8EE005A85EE877A9548F7EE2D
:1049B000005AE7EE875A90ED007A65EE875AFEF7C7
:1049C00045BEDFED937ADAED008A9AED01AADAF8B6
:1049D0002020CAF81C20C7EEA88A0023CAF8183085
:1049E00087EE8AAACAED038A8AED04AA09F0DAF9E9
:1049F00005EE100AF8EEC57A3AEE68AA67EE897AF3
:104A0000E7EE8A8AFCEEE88ACAED058A09F0CAF95F
:104A100005EE900AF8EEE56AF0EE007A66EE896A35
:104A2000BFEE007AA6EEA77A9AED056ADAED076A7C
:104A30008AED087A37EE667AF8EE466ADAED0A7A97
:104A400087EE267A8AED097AFDF797BFDFED707A57
:104A5000DAED008A9AED01AADAF82010CAF81C10E3
:104A6000C7EEA88A0022CAF8182087EE8AAACAEDE3
:104A7000038A8AED04AA009309F094F905EE100A5E
:104A8000F8EEC57A3AEE68AA67EE897AE7EE8A8A86
:104A9000FCEEE88ACAED058A09F084F905EE900A71
:104AA000F8EEE56AB0EE007A66EE896AFFEE007A0B
:104AB000E6EE877A009B9AED077A9AED056ACAEDD1
:104AC000087AF8EE466A77EEC77AD3ED005A9AED87
:104AD0000A7AC7EEA67ACAED097AFDF779BFDFED4B
:104AE0004C7ADBED008A9BED01AADBF82010CBF8B5
:104AF0001C10C7EEA88A0022CBF8182087EE8AAADD
:104B0000CBED038A8BED04AA009309F04BF905EE77
:104B1000100AF8EEC57A3AEE68AA67EE897AE7EEEF
:104B20008A8AFCEEE88ACBED058A09F03BF905EEAE
:104B3000900AF8EEE56AF0EE007A66EE896ABFEE5A
:104B4000007AA6EEA77A009B9BED076A9BED055ABB
:104B50008BED087A37EE467AB8EE456AD3ED005A07
:104B6000DBED0A7ADAED026A87EE067A8BED097AD6
:104B7000FDF756BFDFED267A9BED00AADBED01AA1B
:104B8000DBF82020CBF81C2087EE8AAA0023CBF884
:104B90001830C7EEAAAA8BED03AACBED04AA09F040
:104BA00001F905EE100AF8EEC57A7AEECAAA67EEA8
:104BB000897AA7EEAAAABCEECAAA8BED05AA09F0CB
:104BC000F1F805EE900AF8EEE56AF0EE007A66EE8E
:104BD000896ABFEE007AA6EEA77A9BED076A9BED85
:104BE000055A8BED087A37EE467AB8EE456ADBED6A
:104BF0000A7ADAED026A87EE067A8BED097AFEF719
:104C000071BF00BF7C3D00102EE3CD3917B7D138FE
:104C10000080BB46DB0F4940000080425FED047A14
:104C20009AED00AADAED01AADAF82020CAF81C20D1
:104C300087EE8AAA0023CAF81830C7EEAAAA8AED1E
:104C400003AACAED04AA09F0ADF805EE100AF8EEC1
:104C5000C57A7AEECAAA67EE897AA7EEAAAABCEE4E
:104C6000CAAA8AED05AA09F09DF805EE900AF8EEA9
:104C7000E56AB0EE007A66EE896AFFEE007AE6EE4B
:104C8000877A9AED056ADAED076ACAED087A77EE57
:104C9000E67AF8EE466A9AED0A7AC7EEA67ACAED87
:104CA000097AFEF7F9BE1FED257AF4EEC77AF1EE28
:104CB00010FA8BED047A7EF564ADB8EE006A86EEEC
:104CC000077AB7EE006AA7EE876A9BED007A26EEB8
:104CD000077AFEF766BDB6EE007A20EE077A5FED42
:104CE000337A67EE277AB9EE046A77EEA75A67EE51
:104CF000A76AA7EEA56A67EEA66AFAEE0E5AE7EE75
:104D0000A56AF0EE087A66EE277AC6EEA77A34E452
:104D10001FED407AF4EEC77AF1EE10FA8AED047ACC
:104D20007EF534A9F8EE005A85EE877AF7EE005A40
:104D3000E7EE875A9AED007A25EE877AFEF736B9C4
:104D4000F7EE00AAF4EEEA8AF1EE10FAC0F26782FA
:104D500078EEEAAA5FED508AE44ADFF8A8B36AEE7B
:104D6000A88ACAEE8B7AC8EE8B8A37EE877AB6EEBF
:104D7000000A38EEC00A8AED057A0191009206F029
:104D80008DFE06EE100AF8EEC66A009A019900F050
:104D90003F0078EEE66A02EBC0028B0092ED017AEA
:104DA000D2ED007AE6EE877A0BEB030E40309EEDF3
:104DB000007A77EE277AB0F5905F02F5007203F182
:104DC0000403CEED007AE9DBFEF719B8DFEDC87A0F
:104DD000B4EEE77AF1EE10FACAED047A7EF514AF7C
:104DE000B8EE006AC6EE277AB7EE006AA7EE276A29
:104DF000DAED007A26EE276AFEF716BF9FEDBC7A41
:104E0000F4EEC77AF1EE10FA8BED047A7EF552AF2C
:104E1000F8EE006A86EE877AF7EE006AE7EE876AB8
:104E20009BED007A26EE877AFEF754BF9FEDB07AAD
:104E3000F4EEC77AF1EE10FA8BED047A7DF5E6AE6A
:104E4000F8EE006A86EE877AF7EE006AE7EE876A88
:104E50009BED007A26EE877AFDF7E8BEDFEDA47AB7
:104E6000B4EEE77AF1EE10FACAED047A7DF578AE89
:104E7000F8EE005AC5EEA77AF7EE005AE7EE275A89
:104E8000DAED007A65EEA75AFDF77ABEBCF1000FA5
:104E900040F08181F4EEEC8AF1EE10FA40F2D58513
:104EA0008CEEA8DA6246F6EE007A3DEE67DAF7EEAF
:104EB000007AF4EEE7CAF1EE10FA80F215840021D0
:104EC000B0EE6CBA9446996177E1BCF1000F40F006
:104ED0002181B4EEECBAF1EE10FA40F2048663469A
:104EE000F7EE008AF4EEE8CAF1EE10FA80F21185CE
:104EF0000022F0EE6C8A9C46CAF8182017E1DFED1C
:104F00007C7AB4EEE77AF1EE10FACAED047A7EF517
:104F10000BADB8EE005AC5EE277AB7EE005AA7EEF1
:104F2000275ADAED007A25EE275AFEF70DBDDFEDA0
:104F3000707AB4EEE77AF1EE10FACAED047A7EF5F3
:104F4000CAABB8EE005AC5EE277AB7EE005AA7EE04
:104F5000275ADAED007A25EE275AFEF7CCBB6549D1
:104F6000D1ED037AF5EEC07AF1EE10FA0DD577EEB9
:104F7000887AF5EEC07AF1EE10FAF8D4F4EEC87A39
:104F8000F1EE10FA06DB77EEC87AF4EEC87AF1EEAD
:104F900010FAF8DA9FED567AF4EEC77AF1EE10FACD
:104FA00087EE877A00F1E181524B93ED00AAB0EED3
:104FB000006AF6EE006A37EE467A2AEE26AA2AEE54
:104FC00007AA9FED4D7ADFF82CE1E8EE877A8EEDA7
:104FD00007AACEED037AFEF728B80C238EF800302E
:104FE000FFF758B8F6EE007AF4EEE78AF1EE10FA21
:104FF0004FF00003D8BFF0EE687A8AF84835F6EE35
:10500000006A1EE49FED3D7AFFF766BB9FED3B7A99
:10501000FFF7A5BBB4EEECBAF1EE10FA40F20D8644
:10502000F7EE007AF4EEE7CAF1EE10FAFEF659A9AF
:105030004FEA89012D4ADFF8D0B0029100F03FBE5F
:10504000F4EEE7CAF1EE10FA80F2B682C7EEA8DA03
:105050004FEA8901DFF8B4A0DFF8B4B002913CEE6A
:10506000E87AC7EE8A7A87EE0A7A7DEEA7DAB6EE9C
:1050700000DA3DEE47DA6AEEADDA9FED21EA009301
:105080002BEE0EEAF6EE00CA8EEE2AEA7EEE6CCA2F
:10509000B0EE6C0A06F002FD05EE100A00F03F00CB
:1050A000F8EEC56A421C0AEB820A7EEE666A029A34
:1050B000009B5AED017A9AED007A37EE677A0BEB96
:1050C0000201E6EE877A4030B0F58E5F0AF5807A0D
:1050D000B0EE677AD1ED007AEDEE877A02F1040244
:1050E000C1ED007AE5DBFEF705BA00BFA0EE0008CF
:1050F000DB0F49407C3D00101F42093958FF7F3FBC
:105100000000804250000010A805001054800108E3
:10511000000B0010F7EE008AF4EEE8CAF1EE10FA88
:1051200080F286810023F0EE6C8ACAF8183009F10B
:1051300010020AEB820292ED007ADAED017ADFF8D2
:105140005CB437EE2B7AB0EE4ACA82ED007A0AEBF5
:10515000890292ED0C7A37EE4AAAB6EE007AAAEEF0
:1051600007CA09F10102B2F5807F2CEE27AA8AED69
:1051700000AA00F02B81CAED078ACAED08AA8AEDC1
:1051800009BACAED0ABA8AED0BCACAF85025CAF89C
:1051900054C5FDF74ABFF4EEE7CAF1EE10FA80F20B
:1051A00090817CEEE87AB6EE00DA87EE8AAA0022D9
:1051B0009A61B0EE6CBA3DEE4ADA09F10E0203EBE9
:1051C0008202D2ED017A93ED01AADFF8D4A337EE83
:1051D0008DDAF0EE4CBA82ED01DA03EB8902D2ED02
:1051E0000B7A37EECCCAF6EE007AECEE27BA09F16C
:1051F0000102B2F5807F2BEE8AAA83ED00AA00F0AF
:10520000FC8083ED07BAC3ED08AAC3ED098AC3ED9C
:105210000ABAC3F84C25C3F850C5FDF706BF0023F2
:10522000F0EE68AACAF81430FDF7E9BDD14ADFF8FC
:1052300074B34FEA8109FDF7AFBDCF49D1ED037AD1
:10524000F5EEC07AF1EE10FA0DD577EE887AF5EE2C
:10525000C07AF1EE10FAF8D4F4EEC87AF1EE10FA52
:1052600006DB77EEC87AF4EEC87AF1EE10FAF8DAD7
:105270009FEDC27AF4EEC77AF1EE10FA87EE877AE4
:1052800000F1CE84BC4BF0EE006A37EE667A93ED07
:10529000006A27EE066AFEEE006A27EE067A27EE1F
:1052A00026AA8EE6DFF8E892B549DFEDB6AA9FEDB3
:1052B000B6AAC1ED01AA4B468A464FF07E501AEEBF
:1052C000901A43F8080BDFEDB18A4AF8081BCDF8B5
:1052D0000880C9F80400984608F064FD05EE100A3D
:1052E000F8EEC57AF0EE685A67EE897AA848EAECDB
:1052F00001AAE7EE8A5A00F12C01E8EC015A99ED77
:10530000007A75EE877A8845C9ED007AE4D1B7EE68
:10531000007AC7EE277ADFF87CE2DDF808809BF898
:10532000003004228EF80020C0ED007AFEF7AFBEF8
:1053300098489BF800300B220270FEF7A8BE9549F2
:105340009BF800300C220A70FEF7A1BEDFF844E2A1
:105350009BF8003009228EF80020FEF798BE013B32
:1053600063F003030133FFF7E1B8834A92ED00AA2B
:10537000F6EE006A2AEE26AA2AEE07AA21E6DFED5B
:10538000866A7D48B7EE007AA7EEA67A90ED00AA6D
:1053900027EE0AAAFEF73EBB013B63F00F03013381
:1053A000FFF719B90BF224414FF490720BF124006E
:1053B00008F00CFC00210BF5A2704FF4806208F09D
:1053C0009FFC9BED00AA0021FDF73EBD0BF5866119
:1053D0004FF490720BF13000CDF804C008F0F6FBEA
:1053E0004FF480620BF5A870002108F089FC9BED5A
:1053F00000AADDF804C00022BDE60AF22C414FF4F9
:1054000090720AF12C008DE8081008F0DFFB4FF4D1
:1054100080620AF5A670002108F072FC9AED00AADD
:1054200000229DE80810ECE69BF80030FEF72FBE46
:105430007CEEE88ADFED5FBA4E4ADFF86CB168EEC9
:10544000ABBA88EEAA7A4FEA89010291CBEEAABAEA
:1054500077EE277AB6EE000A3BEEC00ACAED067A6E
:10546000009206F01BFB05EE100AF8EEC56A009AE2
:10547000DDF808E000F03F007BEEE66A02EBC001D9
:1054800091ED017AD1ED007AE6EE877A0BEB0E030F
:10549000403093ED007A77EE277AB0F5905F01F512
:1054A00000710EF1040EC3ED007AE9DBB4EEE8BA48
:1054B000F1EE10FA40F28E84F6EE00BA4FF0000CD6
:1054C00035E63CEEE7BADFED3BCADFF8E0A0DFF8F7
:1054D000E0B06BEE2CCA8BEE2A6A4FEA890102918A
:1054E000CCEEAACAC7EEA8BA8BEE28DAC7EE8A7A43
:1054F000F6EE006A36EE077A3CEEE60A83ED067AAF
:105500003DEE66DA7BEEA7DA009306F0C7FA05EE09
:10551000100AF8EEC56A00F03F00421C2AEEAD6AA0
:105520007CEEE66ADDF808E0009B0AEB820252EDB1
:10553000017A92ED007A37EE677A0BEB0E01E6EE18
:10554000877A4030B0F58E5F02F58072B0EE677AF0
:10555000D1ED007AE6EE077A0EF1040EC1ED007A85
:10556000E5DBF4EECB8AF1EE10FA40F2DF834FF088
:10557000000C22E6A0EE00087C3D0010DB0F494045
:105580007C3E001000000000BF9F7A3F6F12833AFC
:10559000000000103410001083F922BF78050010BD
:1055A000D40A001050000010A80500105480010813
:1055B000000B0010000080427CEEE7CA1FED037A6A
:1055C00000937BEE2CEA87EEA8EA4FEA890102916C
:1055D000DFF848A4DFF848B46EEE87EAC7EE8A7AAF
:1055E000CEEEAAEA8CEEA8DAB6EE007A3EEEC70A54
:1055F0007EEE27DA3DEE47DA06F050FA05EE100AA5
:10560000F8EEC56A00F03F00421C6AEEADDA7EEEAD
:10561000E66ADDF808E0009B0AEB820252ED017AAF
:1056200092ED007A37EE677A0BEB0E01E6EE877AA1
:105630004030B0F58E5F02F58072B0EE677AD1ED42
:10564000007AEDEE877A0EF1040EC1ED007AE5DB0B
:10565000F4EEEC8AF1EE10FA3DF642AF7CEEE87A19
:10566000DFEDEB6A00937BEE27CABFEE007A6CEEAB
:10567000A6CA87EE8ADACCEEAACA87EE0A7AF6EED6
:10568000007A3CEEE70A37EECDDA37EE4EEA06F066
:1056900005FA05EE900AF8EEE57A00F03F00421CAC
:1056A0002AEE8EEA7CEEE7CADDF808E0009B0AEB02
:1056B000820252ED017A92ED007A37EE677A0BEBB7
:1056C0000E01ECEE877A4030B0F58E5F02F5807205
:1056D000B0EE677AD1ED007AEEEE077A0EF1040EA5
:1056E000C1ED007AE5DBC8E43CEEE7BADFEDC8BA0D
:1056F000DFEDC86ADFF824A3DFF824B36BEE2BBA22
:105700008BEE2A6ACBEEAABA87EE8AAA8BEE28DA4B
:10571000C7EEA87AB6EE007A76EE266A3BEEC70AA6
:10572000C3ED066A37EE8AAA3DEE47DA8DE8081027
:1057300006F0B4F907EE100AF8EEC76A00F03F0071
:105740009DE80810421C2AEE8A6A7BEEE66A0AEBA4
:10575000820A4FEA89025AED017A9AED007A37EE11
:10576000677A0BEB0201E6EE877A4030B0F58E5F88
:105770000AF5807AB0EE677AD1ED007AE6EE077A24
:1057800002F10402C1ED007AE5DB16E57CEEE7CA22
:10579000DFED9F7AA04A009278EEACBAB6EE000A2E
:1057A0006BEEA7BA4FEA8903CBEEAABA0293DFF8F1
:1057B00074B23BEEC00A06F071F905EE100AF8EE7D
:1057C000C56A009ADDF808E000F03F007BEEE66A6B
:1057D00002EBC00191ED017AD1ED007AE6EE877A15
:1057E0000BEB0E03403093ED007A77EE277AB0F59D
:1057F000905F01F500710EF1040EC3ED007AE9DB54
:10580000B4EEECBAF1EE10FA3DF669AD7CEECBBA2F
:10581000DFED7F7A009278EEABBAB6EE000A6BEE5F
:10582000A7BACBEEAABA3BEEC00A06F037F905EEEE
:10583000900AF8EEE57A009ADDF808E000F03F0003
:105840007BEEE7BA02EBC00191ED017AD1ED007A6F
:10585000EBEE877A0BEB0E03403093ED007A77EE98
:10586000677AB0F5905F01F500710EF1040EC3ED9B
:10587000007AE9DBFDF704BD7BEE687ADFED64CAF0
:10588000009367EEACCAFFEE006ACCEEAACADFF85E
:105890008CA1B7EE007A87EE8ADA87EE287A86EE58
:1058A0008AAAF6EE007A3CEEE70A3AEE47AA37EE0D
:1058B000CDDA06F0F3F806EE100AF8EEC66A00F04C
:1058C0003F0000F1010E2AEE8A6A7CEEE66A029A37
:1058D000009B0AEB8E0A5AED017A9AED007A37EEB8
:1058E000677A0BEB0201E6EE877A4030B0F58E5F07
:1058F0000AF5807AB0EE677AD1ED007AE6EE077AA3
:1059000002F10402C1ED007AE5DB4FF0010CFDF776
:105910002CBE7CEEE88ADFED3EBADFED3E7A3E4AF1
:10592000DFF800B168EEABBA88EEAA7ACBEEAABA7D
:1059300077EE277AB6EE000A3BEEC00ACAED067A89
:105940008DE8041006F0AAF805EE900AF8EEE56A74
:10595000009ADDF804C000F03F007BEEE66A02EB3F
:10596000C0024FEA890192ED017AD2ED007AE6EEAB
:10597000877A0BEB0103403093ED007A77EE277ABC
:10598000B0F5905F02F5007201F10401C3ED007AF9
:10599000E9DBF6EE00BAFFF7CABBDFED1D7A1E4A5F
:1059A000009278EECBBAB6EE000A6BEEA7BADFF83B
:1059B00074B0CBEEAABA3BEEC00A06F06FF807EE61
:1059C000100AF8EEC76A009A00F03F007BEEE66A24
:1059D00002EBC0024FEA890192ED017AD2ED007A22
:1059E000E6EE877A0BEB0103403093ED007A77EE19
:1059F000677AB0F5905F02F5007201F10401C3ED22
:105A0000007AE9DBFEEE00BA4FF0010CFDF771BC45
:105A10000000804208E53C1EA0EE0008548001080A
:105A2000000B0010A8050010000080421FED02EAE4
:105A3000DFF890B32BEE0EEA4FEA89018EEE2AEAE8
:105A400002917EEE47CAFDF755BD3CEEE87A9FED28
:105A5000E0BADFF874A3DFF86CB327EE0BBAFFEE01
:105A600000BA8BEE2ABA8DE80810C7EEA87A87EE46
:105A70000ADACBEE8ABAB6EE007A3BEE470A7BEE44
:105A8000E7BA37EE4DDA06F009F806EE900AF8EEBE
:105A9000E67A00F03F009DE80810421C6AEEAB6A0F
:105AA0003BEE67BA0AEB820A4FEA89025AED017AA5
:105AB0009AED007A37EE677A0BEB0201EBEE077A8C
:105AC0004030B0F58E5F0AF5807AB0EE677AD1ED9E
:105AD000007AE6EE877A02F10402C1ED007AE5DB96
