:020000040800F2
:1000000014F70120E5A50008355D0008315D000802
:100010002D5D0008295D0008255D00080000000036
:10002000000000000000000000000000215D00084A
:100030001D5D000800000000195D00084D5B000810
:10004000316C0008316C0008316C0008316C00081C
:10005000316C0008316C0008316C0008DD5C000870
:10006000316C0008316C0008316C0008D9B500080B
:10007000316C0008316C0008316C0008316C0008EC
:10008000316C0008316C0008316C0008316C0008DC
:10009000316C0008316C0008316C0008316C0008CC
:1000A000316C0008316C0008316C0008316C0008BC
:1000B000915C0008316C0008316C0008316C00085C
:1000C000316C0008316C0008316C0008316C00089C
:1000D000316C0008316C0008316C0008316C00088C
:1000E000316C0008316C0008316C0008316C00087C
:1000F000316C0008316C0008316C000881B50008D3
:10010000316C0008316C0008316C0008515C00084B
:10011000316C0008316C0008316C0008316C00084B
:10012000316C0008316C0008316C0008316C00083B
:10013000316C0008316C0008316C0008316C00082B
:10014000316C0008316C0008316C000875B500088E
:10015000316C0008316C0008316C0008316C00080B
:10016000316C0008316C0008316C0008316C0008FB
:10017000316C0008316C0008316C0008316C0008EB
:10018000316C0008316C00082DE980480020A5B0D2
:1001900006F078FA012006F075FADC4C022006F031
:1001A00071FA032006F06EFA236BD94843F001037D
:1001B0002363626C0DF1900B42F480420123626470
:1001C0004BF8403D002559468DF854508DF8575056
:1001D00006F0F8F9CF4AD04B1268A3FB020252098D
:1001E000013AB2F1807F80F00F85CC4BCC495A6048
:1001F000F020072281F823009D601A60626BC94BD2
:1002000042F0400262631A6842F004021A605968C0
:10021000C44AC907FBD59068C34DDFF86CA3C34C33
:10022000DFEDC38ADFF86493DFEDC29A9FEDC29AD7
:100230000DF0D2FBC149C24AC24B45F8B8AC43F2FB
:10024000C82EC1F800E0C0491160002600274FF019
:100250007E58BE4A1A60B1EE008AA5F1C000B0EE29
:1002600000AA45F8CC8C45F8C88C05F8C47C05F884
:10027000C37C05F8C27C05F8C17C05ED308A45F8E1
:10028000A06C05ED2FAA05F0E1FFA5F1940005EDA6
:10029000258A45F88CAC45F8746C05ED24AA05F068
:1002A000D5FFA5F1680005ED1A8A45F860AC45F860
:1002B000486C05ED19AA05F0C9FF9FEDA50AA54BED
:1002C00045F81C3C0BF00CFA07EE100AF8EEC77A62
:1002D000B6EE008A67EE887A0421FCEEE77A2422E3
:1002E0009D4B45F8180C45F8147C05F8107CAF7050
:1002F000EF702F716F71AF7105F8087C45ED037ACF
:1003000029706A7045F8043C05F0ECFF9348944B63
:10031000C0F8008004F64820DFF874C2066005F5D6
:10032000B1509049C0F800C003F5D9506963C0F8D6
:1003300000C003F2345041F2246E016004F52361E1
:10034000894AC5F814A04FF0010A0A6005F80EA00A
:1003500004F5246103F5A76EDFED847A8EED008A43
:1003600003F5A66E0A608EED008A04F6342241F68B
:10037000243EC2ED007A04F6442104F6382203F844
:100380000EA0DFF810C2DFF810E2C2F800C003F5DB
:10039000A860C1F800E04FF4AF5240F2775E3946F2
:1003A000C3F83CE5C5F83CE0AF62EF622E62AE6197
:1003B00085ED048A85ED0E8A85ED0C8AC5ED028AED
:1003C000C5ED038A0DF0BEFA394605F140004FF441
:1003D000AF520DF0B7FA04F5266C04F66427CCF89A
:1003E000006004F66C2C3E6004F52867CCF80060D1
:1003F00004F6842C3E6004F68C27CCF8006004F6EA
:100400009C2C3E6004F6AC27CCF8006004F6A42CCB
:100410003E6004F6A827CCF8006004F6BC2CC7F8B0
:10042000008004F6CC27CCF8006004F6C42C3E60B3
:10043000DFED4F7ACCF8006004F6C82704F65C2C98
:10044000C7F80080CCED007A84F850AA84F870AA2E
:1004500004F67C2704F6682C04F6882AC7ED007A97
:100460004448CAF8000004F65427CCF8000004F60B
:10047000742A4FF0785CC7F800C004F6582004F6E0
:100480007827CAF800C03C493C4B016004F5296A52
:1004900004F6942C396004F6B421CAF80030CCF884
:1004A000003004F52B6004F6982A04F6B82CDFF827
:1004B000ECE0334D334A0B604FF07A5104F52D6771
:1004C0000360CAF8002004F6D42004F6DC2ACCF835
:1004D0000020CEF8001004F6D82C296004F6E8219C
:1004E00004F6EC2E3B6004F6E4250360CCF8002013
:1004F000CAF80060C1F8008004F52F6004F6F42A01
:1005000004F6F82C04F604314AE000BF003802403B
:100510000000024020000020D34D621010E000E0F7
:1005200000ED00E000080650F8100010E83200105E
:100530006F12833A00000030BF9F7A3FC4DB012076
:10054000B0DB0120ACDB0120E004002000D0002063
:1005500000A00C460000A043B0DA0008BCDB01207C
:10056000F0210010CDCC4CBE00004842AE47E13D2A
:100570006666663FCDCCCC3EA913D43ECDCC4C3F75
:10058000A8DB012000C012440AD7233C0000001061
:1005900000007043DB0FC93F8FC2F53DC8DB01206F
:1005A000CEF8006004F6FC2E0360CAF80030CCF8E8
:1005B00000202E600E6004F60C3504F6083004F5B9
:1005C000316A04F6143304F61C3C04F62C3204F5AC
:1005D0003361CEF8006004F6243EC0F800802E603F
:1005E000CAF800601E60CCF80060166004F628357A
:1005F00004F6343004F6383A04F63C3304F64C3C46
:1006000004F644320E6004F65431CEF8006004F66D
:10061000483EC5F80080066004F5356504F658309C
:10062000CAF800601E6004F65C3A04F66C33CCF83D
:100630000060166004F6643C04F668320E6004F54F
:100640003761CEF80080F1EE067A04F6183EC2F863
:1006500000802E600660CAF8006004F6743004F66C
:1006600078351E6004F67C3ACCF8006004F68432DB
:1006700004F68C3CCEED007A04F694330E6004F65A
:10068000883E04F539614F46CEF80080C9F80480F1
:1006900047F8088B06602E60CAF80060CCF800604E
:1006A00016601E600E6004F6983409F12C080DF0F7
:1006B0009BF907EE100AF8EEC77AB0EE687A67EE9B
:1006C000A97A44F8046BA7EE897AD44D9FEDD48AB9
:1006D000A7EC017AF0EE477A99ED007A77EE877A07
:1006E0004745C9ED007AE2D1F7EE008AC8EEA77A55
:1006F00000244FF0010A214605F150004FF4A46296
:10070000C5F8704585F874A5DFF82C93DFF84483AD
:10071000C44EC54F9FEDC59AC5ED007A85ED0F8A91
:1007200085ED138AC5ED0C8A85ED0E9A0DF00AF958
:1007300005F27C5305F28452C3ED008A82ED009AE3
:1007400005F28C5305F5B16283ED008A214605F26E
:10075000A45382ED008A05F5B5604FF4A46285F8D4
:10076000D0AAC5F8C84A83ED008A0DF0EBF805F66B
:10077000D822C2ED008A05F5815305F52E6241F2BB
:10078000280082ED009A05F6E82205F6E42E05F829
:1007900000A01C60214605F6FC2305F5306082EDC3
:1007A000008A4FF4A4628EED008A83ED008A0DF07A
:1007B000C9F8D9F830309E4843F00803C9F8303002
:1007C00002251022594614928DF854A08DF85640F7
:1007D0008DF857408DF8555005F0F4FED9F83030BB
:1007E00043F00703C9F8303040464FF410735946C0
:1007F00014938DF854508DF855508DF856A08DF8FF
:10080000574005F0DFFED8F8203023F07063C8F8B9
:100810002030D8F8203043F08063C8F82030D8F872
:10082000243023F0F003C8F82430D8F8243043F003
:100830004003C8F8243030464FF4A053594614936F
:100840008DF854508DF855508DF856408DF857401E
:1008500005F0B8FE7748036A23F470230362036A45
:1008600043F4C0230362736A23F470637362736A90
:1008700043F4C06373623B68AB4200F0C68110234F
:100880005946149305F09EFE736A23F47023736235
:10089000736A43F4C0237362624C022200235946F8
:1008A000802520468DF854208DF855208DF856303F
:1008B0008DF85730149505F085FE236A5C4A23F0C5
:1008C00070432362236A102143F0C043236244F63D
:1008D000FF735183013BFDD1554B574C10221A83B6
:1008E000236C43F400132364236A43F4001323624C
:1008F0004FF4001005F05EFE504B1A8892B242F0A1
:1009000001021A809A88A36822F03F0203F00C03C8
:100910001204042B4FEA124201F0B285082B41F079
:10092000AC856368616813F4800F18BF444863683E
:1009300008BF444801F03F01B0FBF1F1C3F3881355
:1009400001FB03F33C494C68C4F3014401346400E7
:10095000B3FBF4F438483C498568DFF8FCC0374BFA
:100960003A4EC5F3031E44F2330511F80E80D0F859
:1009700008E0CEF3822E24FA08F411F80E80D0F8A5
:1009800008E024FA08F4ACFB0480CEF3423E800C6D
:10099000024311F80E109A801A88A109A6FB01C122
:1009A000890922F0010203294FEA024298BF04217B
:1009B0000130120C1A80188499831A8892B242F07E
:1009C00001021A801A8822F4816222F002021204C3
:1009D000120C42F480621A8001211D81022008F06D
:1009E000CBFBAF210446042008F0C6FB184BAF2216
:1009F0000444812105201A7008F0BEFB0421044440
:100A0000062008F0B9FBCB210444202008F0B4FBF9
:100A10002120CB2108F0B0FB3B681FE00000001054
:100A20000000000000080240080000200000DC4335
:100A3000000C024000000240003802400054004018
:100A400000127A000024F40024000020632D3E05EB
:100A5000DC0400200004024083DE1B43022B19D17A
:100A60000121082008F088FB01210546092008F033
:100A700083FBC02105440E2008F07EFB2C4400219E
:100A80000444142008F078FB00210444152008F0E9
:100A900073FB04449E21022008F06EFB00210444F5
:100AA0000A2008F069FB3B68022B044404D00E20A6
:100AB000042108F061FB04440021272008F05CFBBE
:100AC0000F2104441F2008F057FB0A2126181A2082
:100AD00008F052FB554C0A2106441B2008F04CFB41
:100AE000236C43F400432364236A43F400432362EA
:100AF00006444FF4004005F05DFD4D4A938B23F40E
:100B00007B6323F00F031B041B0C022193831184CE
:100B1000918BA3681B0289B203D5A36823F4000359
:100B2000A360424B434CD3F88450D3F884E05B6815
:100B30004148424A03F03F03B4FBF3F4C5F3881580
:100B4000CEF3027305FB04F4B4FBF3F31B0A03EBCF
:100B500083035B00A0FB03E39B0A0533A2FB0302B4
:100B6000D2085308981E02F00102120280B292B21B
:100B7000FD289CBF42F400721A432D4B88BF40F2FF
:100B8000022241F420611A8499833B68022B11D11F
:100B9000264A2B4B116C41F0005111641A681699CA
:100BA00022F47F6222F00E020A431A601A6842F0B1
:100BB00001021A60002E00F0B583224C0DF14808A6
:100BC000214D2248224A3968A2604FF4C86303606D
:100BD0002846236105F0A8FC2B6843F001032B6035
:100BE000134B9A8B570504D49A8B92B242F48062CD
:100BF0009A83184B184C194A1949116000251D6039
:100C00002369DE072ED4FEE7FEE7D9F8303043F043
:100C10000103C9F8303010250323594614958DF887
:100C200057408DF8543005F0CDFC35E600380240D1
:100C3000003C004000127A00F1197605CDCCCCCCF6
:100C400000740040BCE80120B86002401C00002095
:100C500038DC01200400002000000240C0DB01203D
:100C6000B8E80120DB4EDC4BDFF8A4A31D70336B2A
:100C700043F0010333634FF4D0524FF003090223D2
:100C80002046594614928DF855908DF854308DF8C1
:100C900056508DF8575005F095FC636A23F0F00329
:100CA0006362636A43F0A0036362636A23F4704380
:100CB0006362636A43F420436362636A23F47023CC
:100CC0006362636A43F420230127636220464FF482
:100CD000806359468DF8559014938DF856708DF8B1
:100CE000577005F06FFC626ABC4BBD49DFF81C937E
:100CF00022F470626262626A42F420626262726C22
:100D000042F480427264726B4FF0006442F08002E1
:100D1000726340469C601C22D9608DF848208DF893
:100D20004A708DF84B708DF8495005F0F7FC336C24
:100D30003B433364284605F0CDFC9AF804308AF82A
:100D400003704022072B8AF800508AF801508AF875
:100D500002508AF81C708AF820508AF821708AF8AC
:100D6000062007D803F5317309EB43039A88C2F3D1
:100D70000E029A809AF80530072B07D803F53173D5
:100D800009EB43039A88C2F30E029A809549964C68
:100D9000CAF8641000230821C9F81033CAF8684063
:100DA000C9F81433C9F8503389F88C33C9F81833AB
:100DB000C9F8543389F88D33C9F81C33C9F858334E
:100DC00089F88E33C9F82033C9F85C3389F88F333A
:100DD000C9F82433C9F8603389F89033C9F8283347
:100DE000C9F8643389F89133C9F82C33C9F86833EA
:100DF00089F89233C9F83033C9F86C3389F89333E2
:100E0000C9F83433C9F8703389F89433C9F83833E2
:100E1000C9F8743389F89533C9F83C33A9F8B2138B
:100E200089F800104021A9F80410042189F8011064
:100E30004FF4A071DFF8DC81DFF8DCC1A9F80610FF
:100E400002214FF0A042694889F808106849DFF88C
:100E5000CCE1684F684E694DC9F81080012408F54F
:100E60005878C9F818C0ACF5A06CC9F87833C9F83F
:100E70000C2089F8963389F80330C9F84033C9F853
:100E800054E0C9F87C33C9F81C7089F89733C9F865
:100E90005860C9F84433C9F82050C9F88033C9F8FC
:100EA0005C0089F89833C9F82410C9F84833C9F8A8
:100EB0006080C9F88433A0F5E06089F89933A1F522
:100EC0008C61C9F84C3389F80240C9F8883389F835
:100ED0000B4089F89A33C9F814C09368C9F8CC005C
:100EE000C9F89010A8F5C8680CF5A07CAEF5B46EF2
:100EF000A7F56877A6F5B066A5F5607500F5D07022
:100F000001F53061C9F89480C9F898C0C9F89CE02F
:100F1000C9F8A070C9F8A460C9F8A850C9F8AC0015
:100F2000C9F8D0100CF52B5CDFF8F4E03448354EEE
:100F3000354DC9F8D8C0A1F5007123F0010308F5BB
:100F4000D7584FF05027C9F8DCE0C9F80C11C9F8A0
:100F5000D480C9F8E070C9F8E460C9F8E850C9F86D
:100F6000EC009360D36843F04003D36005F016FAB9
:100F700099F80920D9F80C30002A0CBF4FF434122C
:100F80004FF474129A632146142004F0F5FF99F887
:100F90000320D9F80C30A24206D19A68052161F3EA
:100FA000440242F020029A60DA68184D6FF39E7294
:100FB00042F000520121DA60322004F0DDFF2846C1
:100FC00005F088FBD9F80C3100241C6099F8083032
:100FD000012B27E0003802400000002000ED00E077
:100FE0000005FA050C00002034000020400B0050E2
:100FF0006009005020090050200B005040090050AB
:1010000000800050006000500070005068E901202E
:10101000CCDB01200008005000090050000B0050FC
:10102000004000506B69214D1A6816BF012164F31E
:10103000010261F301021A60284604F015FFD9F895
:1010400014301A686FF382021A6099F80B30012B82
:10105000264600F0CB81EB6800221192119A1449C8
:1010600042F020021192119A102060F38A1211921C
:10107000119A1A611A69119203E01A6911920139E1
:1010800002D0119A9406F8D40221032004F074FFD0
:1010900000231293129AD9F80C30054942F010023D
:1010A0001292129A1A611A69129207E068E90120F5
:1010B000400D03001A691292013902D0129AD0062B
:1010C000F8D40320022104F057FF99F80030BA4801
:1010D000002B5BD0D0F890404FF0FF310022012B65
:1010E000A160E26052D9D0F89440022BA160E26086
:1010F0004CD9D0F89840032BA160E26046D9D0F8D3
:101100009C40042BA160E26040D9D0F8A040052BA0
:10111000A160E2603AD9D0F8A440062BA160E26059
:1011200034D9D0F8A840072BA160E2602ED9D0F8BE
:10113000AC40082BA160E26028D9D0F8B000092BA0
:101140008160C26022D9D9F8B4409B48A1600A2BC3
:10115000E2601BD9D0F8B8400B2BA160E26015D932
:10116000D0F8BC400C2BA160E2600FD9D0F8C04091
:101170000D2BA160E26009D9D0F8C4400E2BA1600C
:10118000E26003D9D0F8C8309960DA608B4BD9F8A7
:10119000CC200121598313686FF382036FF341035D
:1011A0006FF3C3036FF34513D90402D443F48053A0
:1011B0001360C820012104F0DFFEDAF8682099F8F6
:1011C0000310D9F80C3010687D4C7E4F7E4E002203
:1011D00091429A614FF0FF3108BF10226FF08045B5
:1011E000596142F00C5259605D619C61996942F409
:1011F000001242F008020A439A619A6842F0010222
:101200009A608047714B724ADA6001244323584642
:101210008DF850308DF851408DF852408DF8534084
:1012200005F07CFA1722022358468DF850208DF8DD
:1012300052308DF851408DF8534005F06FFACDF8DB
:1012400008B00223CB468DF84330DBF810234FF073
:101250000008002A48D19AF800205E49002A40F090
:10126000DB85DBF81033002B40F022864FF0804303
:10127000012139601A8822F001021204120C1A802E
:101280009A8922F001021204120C9A811A8822F41F
:101290005C721204120C1A8042F6DF644FF6FE7282
:1012A0000520DC62188599821A821A8892B242F06F
:1012B00080021A809A8992B20A439A811A8892B25D
:1012C0000A431A803B68002BFCD14FF08042138800
:1012D00023F001031B041B0C138002238DF8433001
:1012E000DBF81023002AB6D09AF800300A2BBDD8BC
:1012F00001A151F823F000BF63120008D3140008C5
:101300001F1E00086D12000891140008B314000895
:101310005D140008331400080D1400086D12000855
:101320006B160008D7F80080B8F1010F01F0B58006
:10133000294C11AE3B68012B01F0A580274B2848B2
:101340001A6B42F4001242F001021A631A6C0DF19A
:10135000480842F000521A64032541461022002337
:1013600012928DF84F308DF84C5005F02BF91D4B33
:10137000169A1968DFF870E021F47F6121F00E0100
:101380000A431A601A6842F001021A60BEF804307B
:101390009BB243F08003AEF8043033220123304681
:1013A0008DF845508DF846508DF844208DF8473023
:1013B00005F0B4F904E400BF68E901200008024028
:1013C00000080080B8DB0120A8D9012000ED00E072
:1013D0000006FA05CCDB0120BCE801200038024001
:1013E0000000024000740040003C00402122A12186
:1013F000EB6862F30F0461F30F06C0F28004C0F2E1
:1014000080065A629C62C3F8006125E6DAF868300B
:10141000C64C9B6B984701287FF428AF636EC44885
:101420001B682146984700287FF420AF05232370CE
:101430001CE79AF81C308AF81280013B0A2B3FF611
:1014400015AFDFE813F0540441041E0409048804B6
:101450007404B704EB03BA03A903DB03DAF86430BE
:10146000B24CB348DB68214698478DF843009DF89D
:101470004330DBB21A1FD2B2012A40F25585062B47
:101480007FF4F4AEA36E0A221B6822709847EDE643
:101490009AF80230092B3FF6E9AEDFE813F05C0260
:1014A000F001F502A1011603C00272014D012401F1
:1014B0001C01DAF864309D4C9B689D482146984792
:1014C0008DF843009DF84330002BD0D106232370C4
:1014D000CCE6DAF86830954C9B689847BBF98C25C8
:1014E000934B002A80F27285B3F98E25002A80F290
:1014F0006A85B3F99025002A80F26285B3F99225B6
:10150000002A80F24B85B3F99425002A80F27B856E
:10151000B3F99625002A80F27385B3F99825002A3D
:1015200080F26B85B3F99A35002B80F26385FF2337
:101530006371BBF98E257E4B002A80F22885B3F9B2
:101540009025002A80F22085B3F99225002A80F2A6
:101550001185B3F99425002A80F25885B3F99625B0
:10156000002A80F24485B3F99825002A80F23C8550
:10157000B3F99A35002BB8BFFF2380F232856C484F
:101580008AF8043004F070FCDAF86830DB689847B9
:10159000DBF8CC20DAF868301068C0F341408AF8F4
:1015A0002100042200F003009B698AF8002098477C
:1015B0009AF804109AF821200BEB41000BEB411331
:1015C000B0F88C4583F8B18304F07F0501F11E006B
:1015D000C4F3C01483F8AE430BEB40109AF82040DC
:1015E00083F8AC439AF8064083F8AD53A3F8B243AE
:1015F00083F8AF2303F56A7380F8048080F80580D0
:101600000AB901221A724A4805F0C2F89AF8051080
:101610009AF821200BEB41000BEB4113B0F88C45FD
:1016200083F8B18304F07F0501F11E00C4F3C014F8
:1016300083F8AE430BEB40109AF8204083F8AC439C
:101640009AF8064083F8AD53A3F8B24383F8AF236A
:1016500003F56A7380F8048080F805800AB90122D6
:101660001A72334805F094F800E69AF804208AF8D4
:10167000008001238AF803308AF81C308AF8213070
:10168000072A4FF040038AF801808AF802808AF81E
:1016900020808AF8063007D802F531730BEB43033C
:1016A0009A88C2F30E029A809AF80530072B07D861
:1016B00003F531730BEB43039A88C2F30E029A8051
:1016C000DAF868305B689847DAF8643018485B6885
:1016D00018499847CAE5DAF868305B6B98470823E1
:1016E0008AF80030C2E59AF803209AF83930AAF84F
:1016F00016300921012A8AF81480AAF81880AAF85D
:101700001A808AF81510094B00F0B084022A7FF481
:10171000ADAD1A7F0D2A00F020860B3AD2B2012A15
:101720003FF6A4AD0122DA70A0E500BFCCDB0120BA
:1017300068E90120ECDB01209AF83220D04C002A25
:1017400000F0478442F44072E378E282802106226E
:101750002175627540F20941FF22012B21836283CA
:1017600000F01884022B7FF481AD237F0D2B00F055
:1017700002860B3BDBB2012B3FF678AD0123E37011
:1017800074E59AF83120BE4C002A00F05F8442F4E0
:101790004072E378E282802106222175627540F270
:1017A0000941FF22012B2183628300F0C483022BB5
:1017B0007FF45CAD237F0D2BDBD19BF8112184F8E6
:1017C0001C800123032AE370AE4B00F00486DAF894
:1017D00068300298DB6A984707238AF8023045E5AB
:1017E0009AF80320AAF8188080214FF4007306208D
:1017F0008AF81410012A4FF00901AAF816308AF865
:101800001500AAF81A109E4B00F01B84022A7FF4E0
:101810002DAD1A7F0D2A80D19BF813119BF8120170
:10182000B07000EB01209BF81021D8869BF81101C5
:10183000F17032709BF8141183F8342070709BF8AB
:10184000152183F835009BF816013171012483F8C6
:10185000381072719BF8171183F83920B0719BF81A
:10186000182183F83A00042083F81C80DC70F171A1
:1018700083F83B10327283F83C209870F6E49AF8B3
:101880000350AAF81880802306214FF480728AF84A
:101890001430012D4FF012038AF81510AAF8162003
:1018A000AAF81A30764C00F0B483022D7FF4DEAC37
:1018B000237F0D2B7FF45DAF9BF812219BF818312D
:1018C0009BF813119BF8190184F81C8002EB01218D
:1018D00003EB00209BF81B219BF81A31A18403EB3A
:1018E00002239BF81D119BF81C21A38502EB01210B
:1018F0009BF81031E18501229BF81111E27084F808
:1019000022309BF814219BF8153184F8231084F8B9
:1019100026209BF816119BF8172184F827309BF896
:101920001E3184F8281084F829209BF81F119BF899
:10193000202184F830309BF82131608584F8311003
:1019400084F8322084F83330A36E04F12200DB697E
:101950009847A5708AE49AF80330AAF81880802284
:1019600006204FF480718AF81420012B4FF00802F2
:101970008AF81500AAF81610AAF81A20404C00F0B0
:10198000DA82022B7FF472AC237F0D2B7FF4F1AE51
:101990009BF813019BF812319BF810119BF8112151
:1019A00084F8221003EB0023A3849BF814319BF8E6
:1019B000151184F8232084F826309BF816219BF813
:1019C000173184F82710012584F8282084F829305D
:1019D0002C48A37184F81C80E57004F045FA617905
:1019E000A379A5700BEB411202F56A7250899842F7
:1019F00001D003B15381234804F0CAFE9AF80410C1
:101A00009AF806300BEB411202F56A72508998423F
:101A10003FF427AE002B3FF424AE538121E69AF821
:101A20003020174C002A00F0198342F44072E3780A
:101A3000E282802106222175627540F20941FF226F
:101A4000012B2183628300F0A582022B7FF40EAC70
:101A5000237F0D2B7FF48DAE9BF8112184F81C8021
:101A60000123032AE370074B00F0E884DAF86830BA
:101A700002989B6A984706238AF80230FFF7F6BB64
:101A8000CCDB012068E901209AF803108AF8148061
:101A9000012005248142AAF81880AAF81A808AF841
:101AA0001540AAF81600D34A00F0ED8202297FF40F
:101AB000DDAB137F0D2B00F0F2830B3BDBB2012B70
:101AC0003FF6D4ABD070FFF7D1BB9AF80320BAF839
:101AD0003640AAF81880802306218AF81430012A9B
:101AE0004FF40073AAF81630AAF81A408AF81510B5
:101AF000C04B00F09A82022A7FF4B8AB1A7F0D2AFD
:101B00007FF40BAE012283F81C80DA7024B1BA484E
:101B1000BA4922460BF07CFE9BF813219BF810116A
:101B20009BF812318AF834109BF811119BF81501BB
:101B30008AF8351003EB02239BF816119BF8142149
:101B40008AF839009BB29BF817018AF83A10092CE1
:101B50009BF81811AAF836308AF838208AF83B002A
:101B60008AF83C100AD9012A40F2D682DFF8A0C2D6
:101B7000DFF8A0E2ACF800808EF80080A048DAF828
:101B8000683000F10A015B6A00F1140298470523EE
:101B90008AF80230FFF76ABB9AF80530954A5B4431
:101BA00093F89B33DBB2012B00F0A182022B00F0F3
:101BB0006883032B7FF45AAB5EE09AF805000BEBC9
:101BC000000100F115020BEB40130BEB421281F800
:101BD0009B830125022183F8AE83C2F81881C3F8E4
:101BE000BC8383F8C55382F81411C3F8C08304F092
:101BF00001FC0A238AF81C30FFF738BB9AF80E2044
:101C00007C4B0132D2B2022A8AF80E2040F2628264
:101C100008215A7899741A70FFF728BB9AF80420A3
:101C2000744B78495A4492F89B23D2B2012A00F0AF
:101C30005E82032A20D04969734D8C68188A2988EE
:101C4000A4B2201A884217D8042A7FF40FAB59781F
:101C50009A741970FFF70ABB9AF80430654A5B441E
:101C600093F89B33DBB2012B00F07181042B00F061
:101C70003582032B40F06D810B238AF81C30FFF76F
:101C8000F5BA9AF80400DAF808200BEB401300F1DB
:101C900015010BEB4111012483F8AE43022481F8B6
:101CA0001441C1F818210BEB0004BAF80C20C3F85A
:101CB000C083C3F8BC2384F89B8304F09BFB0423FC
:101CC0008AF81C30FFF7D2BA9AF80520494B5A44DB
:101CD00092F89B23D2B2012A00F0E281032A7FF41A
:101CE000C5AA0B21052219779A74FFF7BFBA9AF893
:101CF0000500464D00F115020BEB40130BEB4212B1
:101D0000032483F8AE830BEB0001C2F8185182F86C
:101D100014410822C3F8C083C3F8BC2381F89B8315
:101D200004F068FB02238AF81C30FFF79FBA9AF888
:101D30000530304A5B4493F89B33DBB2012B00F053
:101D40001383042B00F0CA81022B7FF432AF0523EA
:101D50001377FFF78BBA9AF80500BAF80C40039492
:101D60004FEA401900F1150300F11E020BEB0905C3
:101D70000BEB431E0BEB4212DAF808400BEB43135C
:101D80000121D944517185F8AE830BEB0002CEF8E6
:101D900018410221039CC5F8BC4383F81411C9F80B
:101DA000C08382F89B8304F025FB06238AF81C304D
:101DB000FFF75CBA9AF804000BEB401300F1150230
:101DC0000BEB4212012483F8AE430BEB000102241B
:101DD000C2F8188182F81441C3F8BC83C3F8C083E9
:101DE00081F89B8304F006FB08238AF81C30FFF778
:101DF0003DBA00BFCCDB0120A8D9012078EA012040
:101E000000DC012068E90120F8E80120E0DB012086
:101E1000B8E80120B4DB01209A4200D00B70DAF858
:101E200068301B6998479AF804208AF800800123DB
:101E30008AF803308AF81C308AF82130072A4FF0DC
:101E400040038AF801808AF802808AF820808AF8A4
:101E5000063007D802F531730BEB43039A88C2F3BF
:101E60000E029A809AF80530072B07D803F53173D4
:101E70000BEB43039A88C2F30E029A80DAF86830BB
:101E80005B689847DAF864309D485B689D499847DD
:101E9000ABF89085ABF89285ABF89485ABF8968556
:101EA000ABF89885ABF89A858AF80080FFF7DEB921
:101EB0004FF0804364223A601A8822F00102120433
:101EC0000121120C8AF800101A809A8922F001026E
:101ED0001204120C9A811A8822F45C721204120CF9
:101EE0001A8042F6DF644FF6FE720520DC62188528
:101EF00099821A821A8892B242F080021A809A89D4
:101F000092B20A439A811A8892B20A431A803B68B5
:101F1000002BFCD14FF08042138823F001031B04F7
:101F20001B0C1380FFF7A2B9A36E5B6C98470A23C2
:101F30002370FFF79BB9744DA5600421A28123771C
:101F40000722022361702270E370FFF78FB9092323
:101F50001377DBF81430BAF8101098686B4B80B226
:101F60001A886B4B411A91427FF680A90B221A778F
:101F7000FFF77CB903231A460BEB420248F28001BB
:101F8000A2F88C15FFF7FBBA02231A46F4E70123E7
:101F90001A46F1E75C48A0600421CFE703231A4604
:101FA0000BEB42024FF40041A2F88C15BBF88C25D4
:101FB0008AF8053013043FF5BCAA00231A46DBE774
:101FC00002231A46ECE701231A46E9E700231A46E2
:101FD000E6E7A36E4F481B6B98470823A370FFF7F3
:101FE00045B907231A46C7E706231A46C4E705235F
:101FF0001A46C1E707231A46D2E706231A46CFE757
:1020000005231A46CCE704231A46C9E704231A46D7
:10201000B2E704213C48A38107220223A060257770
:1020200061702270E370FFF721B9374D9D60042085
:102030009C8107211A77022258701970DA70FFF715
:1020400015B9314C9C6004209981F2E7A36E3148A8
:10205000DB6A98470723A370FFF708B9A36E2D48E2
:102060009B6A98470623A370FFF700B904201A77EC
:1020700007210222C3F80880A3F80C805870197059
:10208000DA70FFF7F3B804231177537007210223A6
:10209000C2F80880A2F80C801170D370FFF7E6B880
:1020A0001A7D598B22F07F02D2B2002900F0ED8018
:1020B000DFF858C041F28831ACF80010002A40F037
:1020C000BA8105221A77DBF814309B68AAF8103021
:1020D000FFF7CCB801221A77FFF7C8B89AF8013099
:1020E0008AF800300C238AF81C30FFF7BFB89AF842
:1020F00001308AF800300D238AF81C30FFF7B6B89B
:1021000068E90120ECDB012078EA0120F8E80120F1
:10211000CCDB0120A4DA0008BD48BE4900780C9051
:102120000988BD480B910925CDF83CB0AB4240F27F
:10213000898002781044154441780429ADB2F5D164
:10214000C27884780492022A0394EFD8017990F837
:1021500000C0CDF814C090F805E08279C47990F8F9
:1021600008C0CDF818E0022907920894CDF824C0E1
:10217000DCD8DDF80CE0A94C4FFA8EFE0FFA8EF297
:1021800004F10A0C02EBC2034FF0000B0CEB02123D
:102190002344CDF834E00A925C46A946A1424BDDC7
:1021A000027810444A444578052D1FFA82F9F5D18A
:1021B0000A9ADDF830E0E400019422440D9CA64523
:1021C00043D0059D1D704FF004045C70039D049C7A
:1021D0009D70DC70069D079C5D719C71089D099C3B
:1021E000DD7119711C72039D0C9590F805E005795D
:1021F00090F801C0CDF838C0019CDDF828C005EB8F
:102200000E2590F800E00CF804E00BF1010B90F8BB
:1022100002C090F803E09580ADB25FFA8BFB0B959E
:102220000E9D55704FFA8BF485799571A14282F815
:1022300002C082F803E0B3DCBAF836304D46AB4258
:102240003FF677AFDDF83CB090E4057990F805E013
:10225000DDF82CC005EB0E24A445EDDC059C1C70BC
:102260004FF004045C70039C9C70049CDC70069C22
:102270005C71079C9C71089CDC71099C19711C7233
:10228000B6E709231377FEF7F1BFDFF89CE13221AF
:10229000AEF80010002A6BD107221A7713E74FF02F
:1022A000804339601988D07021F001010904090CBC
:1022B0001980998982F81C8021F001021204120C05
:1022C0009A811A8822F45C721204120C1A8042F667
:1022D000DF614FF6FE72D9621C8598821A821A88D5
:1022E00092B242F080021A809A8992B242F00102C0
:1022F0009A811A8892B242F001021A803B68002B40
:10230000FCD14FF08042012113888AF8201023F07D
:102310000103DAF868101B041B0C13800B6A984742
:102320009AF820309AF8041003228AF802201BB190
:102330000BEB411282F8AC33394C204604F028FAFA
:102340009AF820309AF80510002B3FF48AA904EB84
:10235000411484F8AC33FFF784B9012283F81C8060
:102360009970DA70FEF782BF07231377FEF77EBFFE
:1023700009221A77A7E69BF8112184F81C80012313
:10238000032AE370264B09D0DAF8683002981B6BF9
:10239000984708238AF80230FEF768BF93F8103197
:1023A000023BFF2BA8BFFF2398B280B10DF1510271
:1023B00000231C4C991CE35C02F8013C8BB2984250
:1023C000114602F10102F4D881F80080DCE702999D
:1023D00081F80080D8E793F81031023BFF2BA8BFAB
:1023E000FF2398B210B30DF151020023DFF834C07F
:1023F000991C1CF8033002F8013C8BB2984211463C
:1024000002F10102F2D881F80080FFF7E0B900BFC5
:10241000B4DB0120B8E8012078EA01200ADC0120C1
:1024200068E901207AEA0120F8E80120029981F8A0
:102430000080FFF7CCB903221A7744E693F81031F5
:10244000023BFF2BA8BFFF2398B288B10DF15102C8
:1024500000233E4C991CE35C02F8013C8BB298428D
:10246000114602F10102F4D881F80080FFF7FEBAAC
:10247000029981F80080FFF7F9BA354CFEF76ABA85
:10248000344CFEF767BA344B9A8892B242F002029B
:102490009A800DF14808FEF793BB304B304D196B15
:1024A000304C314ADFF8C49041F4001119632B68B5
:1024B00023F001032B602868212120F001004FF058
:1024C0003D5328604FF6FE7C2E6028466E604FF428
:1024D000806EAE604FF0400AEE602E616961D3609D
:1024E0004FF400614FF400524FF480732660A660F1
:1024F0006661E66226636663A6634FF44036226235
:102500006362A662C4F80490C4F80CA0C4F810C0BA
:10251000C4F818E0E16104F007F82B6843F01003F9
:102520002B602B6811AE43F008032B602F2203238E
:1025300030468DF847808DF844208DF845308DF871
:10254000463004F0EBF8FEF7F5BE00BF7AEA012052
:102550000024F40000127A00003C004000380240E1
:10256000B8600240BCE80120006002400C3C004022
:102570002DE9F04F2DED0E8B87B000F10409AC4F23
:10258000AC4EAD4DDFF8E882AC4C9FEDAD9ADFED7F
:10259000AD9A9FEDAD8A00F244600490BB6AA449F5
:1025A0005A1E002BBA6241F3BD84D5ED037AF5EED5
:1025B000C07AF1EE10FA08D577EE887AF5EEC07A97
:1025C000F1EE10FAF8D4C5ED037AF4EEC87AF1EE24
:1025D00010FA08DB77EEC87AF4EEC87AF1EE10FA5A
:1025E000F8DAC5ED037A9FED990A95ED00AA27EE7A
:1025F000800A09F075F89649D5ED037AD5ED025AAF
:102600009FED946A944ADFF86CE2D2ED006A9EF87E
:10261000003001EB800090ED007A2AEE077AF7EEA9
:10262000008A77EE288AE5EE867A68EEA68A85ED3E
:10263000077AC8ED028AC5ED037A0F2B03F2828276
:10264000DFE813F0FE0BCE0A480C620B160BA00B52
:102650003405FB08300873076E06060AD8034A02E1
:102660001E011000DFF810A29FED7C7A9AF8483521
:10267000CAED038ADAED04BADAED066ADAED077A12
:10268000DAED08AADAF844C5002B42F01A80C8EE49
:10269000878A9FED737AF4EEC78AF1EE10FA02F1A1
:1026A0002780B6EE007AF4EE478AF1EE10FAC8BF42
:1026B000F0EE478A78EEE78A9FED6A7A37EEA8BA9D
:1026C000F4EEC7BAF1EE10FA7BEE268AC2F2BE83B0
:1026D0003BEEC77AF7EE007A2BEE07AA78EECA8AAD
:1026E000F4EEE78AF1EE10FAC2F2AB8578EEE78AF3
:1026F000DFED5D7A5D4B02933AEE28CAB6EE000A32
:102700002CEE27CA4FEA8C018CEE0BCA0391CDF850
:1027100004C0DFF868B13CEE400A08F0E1FF05EEC6
:10272000100AF8EEC56A029B0399DDF804C000F0B8
:102730003F007CEE666A03EBC00292ED017AD2EDB7
:10274000007AE6EE877A0BEB010E40309EED007AC0
:1027500077EE277AB0F5905F02F5007201F104017F
:10276000CEED007AE9DB9FED40CA02932AEE0CCA57
:10277000B6EE000A8CEE0BCACDF804C03CEE400A5F
:1027800008F0AEFF05EE900AF8EEE56A029B039AA8
:10279000DDF804C000F03F007CEE666A03EBC00386
:1027A000D3ED017A93ED007AA6EEA77A0BEB020146
:1027B0004030D1ED007AE8EE877AB0F5905F03F50E
:1027C000007302F10402C1ED007AE9DBCAED05BA3B
:1027D0000CF10C030AEB8303F6EE007A93ED016A29
:1027E0009AED017ADFF890B077EECA6AF0EE6A8A65
:1027F00076EE266AC3ED016A0AEB8C03D3ED096A13
:1028000076EEEAAA0CF10103EAEEA78AB3F5807F1F
:1028100068EE87AACAED00AA02F07A858AED06AAB8
:102820008AED07BACAED088ACAF8443500F04CBFF1
:10283000BC10001000110010F83D0010583E0010B0
:1028400000000030CDCCCC3EDB0FC94083F92243E1
:10285000DCDA00081F420939A43E001000803B4723
:10286000ACC5273708E53C1E00008042E0EA0008BE
:10287000783D0010341000102C00001050000010A3
:10288000DFF84CA2DFED8D7A9AED067ADAED054A93
:102890009FED8B5ADFF83CB28A4B9AED036ADBED71
:1028A000066AD3ED065A28EE877A64EEA77A68EEB8
:1028B000A66AE7EE057A68EEA58A77EE867A8AED53
:1028C000027AF5EEC07AF1EE10FACAED037ACBED9A
:1028D000026AC3ED028A08D577EE887AF5EEC07AEF
:1028E000F1EE10FAF8D4CAED037AF4EEC87AF1EEFC
:1028F00010FA08DB77EEC87AF4EEC87AF1EE10FA37
:10290000F8DACAED037A9FED700ADAED008A0293D5
:1029100027EE800A08F0E4FE6C49D8ED057AD8ED80
:10292000025A9FED676AD8ED036A029B01EB8000B3
:1029300090ED007A28EE877A67EE277A8AED077A9B
:10294000E5EE867A77EEA67AF5EEC07AF1EE10FA29
:10295000C8ED037A08D577EE887AF5EEC07AF1EE05
:1029600010FAF8D4C8ED037AF4EEC87AF1EE10FA52
:1029700008DB77EEC87AF4EEC87AF1EE10FAF8DAEE
:10298000C8ED037A9FED500AD8ED008A029327EE36
:10299000800A08F0A5FE029BDFED487AD3ED055AC8
:1029A0009FED477A93ED026A484AD3ED036A65EEDC
:1029B000A77A02EB8000E6EE077A90ED007A77EED8
:1029C000A67A68EE878AF5EEC07AF1EE10FAC3EDCA
:1029D000037AC8ED078A08D577EE887AF5EEC07AD3
:1029E000F1EE10FAF8D4C3ED037AF4EEC87AF1EE02
:1029F00010FA08DB77EEC87AF4EEC87AF1EE10FA36
:102A0000F8DAC3ED037A9FED300AD3ED008A029322
:102A100027EE800A08F064FEDFF8B0E0DBED057A0F
:102A2000DBED025A9FED266ADBED036A029B0EEB9B
:102A3000800090ED007A28EE877A67EE277A83EDA2
:102A4000077AE5EE867A77EEA67AF5EEC07AF1EEB1
:102A500010FACBED037A08D577EE887AF5EEC07AD6
:102A6000F1EE10FAF8D4CBED037AF4EEC87AF1EE79
:102A700010FA08DB77EEC87AF4EEC87AF1EE10FAB5
:102A8000F8DACBED037A9FED100ADBED008A27EE32
:102A9000800A08F025FE0D49D8ED07AA01EB800059
:102AA000D0ED007A68EEA77AB6EE007A77EEAAAAA1
:102AB000CBED077A6AEE87AA00F006BE00000000A0
:102AC0001F420939D83D001083F92243DCDA00089F
:102AD000983D0010B83D0010DFF804A3DAED065A67
:102AE0009AED096ADAED077A9AED027ADAF814209B
:102AF000F8EE656A15EE900AE6EE267A431C9342DC
:102B0000CAF8183067EE877ACAED0A7A82F0188020
:102B1000DFF8D0A2A94B9AED066ADAED094A9AEDE0
:102B2000077AD3ED005ADAF81800DAED026ADAF81B
:102B30001410B8EE465AB7EE006A37EE866AA4EE75
:102B4000857A421C8A42F3EE097AE6EE257ACAF8C3
:102B5000182027EE267AC8ED027A8AED0A7A81F0EB
:102B60006187DFF884B2DFF884A2DBED066ADBED73
:102B7000094ADBED077ADBF818009BED026ADBF807
:102B80001420B8EE665AF7EE006A37EE267AE4EEC5
:102B9000857A411C9142F3EE096AE7EE256ACBF88B
:102BA000181067EE867ACAED026ACBED0A7A81F0D8
:102BB000EE86B7EE007A77EE877AB3EE096AA7EE73
:102BC000A56ADFF82CB2D8ED037A8BED026AF5EE38
:102BD000C07AF1EE10FA0DD577EE887AF5EEC07A6C
:102BE000F1EE10FAF8D4F4EEC87AF1EE10FA06DB42
:102BF00077EEC87AF4EEC87AF1EE10FAF8DAD8ED8A
:102C0000025A9FED6F7A6F4BF4EEC75AF1EE10FA4D
:102C100001F1C2859FED6C7AF4EEC77AF1EE10FAFD
:102C200083ED047A01F1CE85DFED684A98ED004A24
:102C3000B0EE005AE7EE854A38EE475A34EEC77ACE
:102C400027EE047A87EE055ADFED614A9AED037AA2
:102C500088ED075AE5EEA47AB5EEC07AF1EE10FAE7
:102C6000C8ED037A08D537EE087AB5EEC07AF1EEF2
:102C700010FAF8D48AED037AB4EEC87AF1EE10FABD
:102C800008DB37EE487AB4EEC87AF1EE10FAF8DADB
:102C90008AED037ADFED4A7AF4EEE76AF1EE10FA94
:102CA00041F1E087DFED4B7ADFED4B5A66EEA77A14
:102CB000F4EEE57AF1EE10FA01F2D687F0EE657ADD
:102CC000B4EEE77AF1EE10FACAED045A01F1D487B6
:102CD000DFED3E4A9AED004AF0EE005AE7EE254A53
:102CE00078EE675A74EEE77A67EE847AC7EEA55AF3
:102CF000DFED374ADBED037ACAED075AA6EEA47A78
:102D0000F5EEC07AF1EE10FA75EE255A8AED037AE7
:102D100008D577EE887AF5EEC07AF1EE10FAF8D49D
:102D2000CBED037AF4EEC87AF1EE10FA08DB77EE19
:102D3000C87AF4EEC87AF1EE10FAF8DACBED037A3D
:102D40009FED1F7AB4EEC76AF1EE10FA42F1F480FB
:102D50009FED207ADFED206A26EE077AB4EEE67A60
:102D6000F1EE10FA02F2EA80B0EE667AF4EEC77A7B
:102D7000F1EE10FACBED046A02F1E880DFED136AA0
:102D8000DBED004AB0EE005AE7EE856A38EE475AAE
:102D900036EEC77A27EE247A87EE057A9FED0C5A35
:102DA000DFED0E6A8BED077AE6EE057A35EE877A6F
:102DB000CBED037A67EE26AA00F086BC80000020E7
:102DC0000000FA45783D0010DB0F4940DB0FC9C019
:102DD0001F4209392EE3CD3917B7D138C3F5A83EC4
:102DE000381000106410001090100010983D001072
:102DF000B83D0010DFF8A4A29AED065A9AED096AD0
:102E0000DAED077A9AED027ADAF81420F8EE456ADC
:102E100015EE100AE6EE267A431C9342CAF81830E3
:102E200027EE877A8AED0A7A81F04586DFF870B25C
:102E3000DFF870A29BED066A9BED095ADBED077A7D
:102E4000DBED026ADBF81800DBF81420F8EE465AD6
:102E5000B7EE006AE5EE257A431C934237EE067A18
:102E600067EEA67A68EE876ACBF81830CBED0A7A5F
:102E7000CAED026A81F04485B7EE007A37EE877AB0
:102E8000D8ED037ADFF820B268EE878AF5EEC07AD3
:102E9000F1EE10FACBED028A0DD577EE887AF5EED9
:102EA000C07AF1EE10FAF8D4F4EEC87AF1EE10FA26
:102EB00006DB77EEC87AF4EEC87AF1EE10FAF8DAAB
:102EC00098ED026A9FED6D7A6D4BB4EEC76AF1EE34
:102ED00010FA01F1F1849FED6B7AF4EEC77AF1EE0E
:102EE00010FA83ED047A01F1FD849FED675AD8ED65
:102EF000004AF0EE005AA7EEA55A78EE475A35EE92
:102F0000477A27EE247AC7EE255A9FED605A9AED4C
:102F1000037AC8ED075AE6EE057AB5EEC07AF1EE0F
:102F200010FAC8ED037A08D537EE087AB5EEC07A04
:102F3000F1EE10FAF8D48AED037AB4EEC87AF1EE25
:102F400010FA08DB37EE487AB4EEC87AF1EE10FAE0
:102F5000F8DA8AED037ADFED497AF4EEE76AF1EE0A
:102F600010FA41F15B87DFED4A7A9FED4A6A66EE1F
:102F7000A77AF4EEC67AF1EE10FA01F25187F0EE7C
:102F8000467AB4EEE77AF1EE10FA8AED046A01F1BE
:102F90004F879FED3D5ADAED004AB0EE006AA7EE8A
:102FA000065A38EE676A75EE677A67EEA47A87EE9E
:102FB000866A9FED365ADBED037A8AED076AA6EE44
:102FC000857AF5EEC07AF1EE10FA35EE866A8AED72
:102FD000037A08D577EE887AF5EEC07AF1EE10FA2A
:102FE000F8D4CBED037AF4EEC87AF1EE10FA08DBF0
:102FF00077EEC87AF4EEC87AF1EE10FAF8DACBED93
:10300000037A9FED1E7AF4EEC78AF1EE10FA41F1D1
:1030100066879FED1F7ADFED1F6A28EE877AB4EE90
:10302000E67AF1EE10FA01F25C87B0EE667AF4EE21
:10303000C77AF1EE10FACBED046A01F15A87DFEDA1
:10304000126A9BED005AF0EE005AE7EEA56A78EEA0
:10305000475A36EEC77A27EE057A87EE257ADFEDF6
:103060000B5ADFED0D6A8BED077AE8EEA57A36EEA6
:10307000077ACBED037A67EE26AA25E30000FA452E
:10308000783D0010DB0F4940DB0FC9C01F420939F2
:103090002EE3CD3917B7D138C3F5A83E381000104C
:1030A00064100010983D0010B83D0010DFF864B2C5
:1030B0009BF85435DBF84C15CBED038ADBED05BAF4
:1030C000DBED07CADBED087ADBED095A9BED0ACA96
:1030D0000391DBF850C5002B41F06D82DFED876A6C
:1030E0009BED045AC8EEA66AB7EE007A35EE075A91
:1030F000B6EE006A25EE066A9FED815AF4EEC56AC7
:10310000F1EE10FA37EE677A01F19482B6EE005ACA
:10311000F4EE456AF1EE10FAC8BFF0EE456AF4EE3F
:10312000467AF1EE10FAC8BFB0EE676AB4EEC76A2D
:10313000F1EE10FAD8BFB0EE467A37EE657A76EE49
:10314000E76A75EE878A9FED6F7A37EEA6AAF4EEEE
:10315000C7BAF7EE007AF1EE10FA7AEE2CCA77EEE3
:10316000E8AAC1F297853BEEC77A2AEE07BA7CEE51
:10317000CBCABCF1000F02F00680F4EEE7CAF1EE14
:1031800010FA82F2218287EEA8DA0399DFF888A18B
:103190005D4A890005913CEEE87AC7EEAA7A87EE8F
:1031A0002A7A3DEE27DAF6EE00DA7DEEC7DA2AEE6D
:1031B0000DDA9FED56EA02922BEE0EEAF6EE00CA09
:1031C0008EEE0AEA7EEE6CCAB0EE6C0A08F088FA5F
:1031D00005EE100A00F03F00F8EEC56A431C0AEB4A
:1031E000830A7EEE666A059B029A5AED017A9AED91
:1031F000007A37EE677AD118E6EE877A4030B0F57C
:103200008E5F0AF5807AB0EE677AD1ED007AEDEE46
:10321000077A03F10403C1ED007AE6DBB0EE4EDA83
:10322000B0EE6C0A029208F05BFA05EE900AF8EE36
:10323000E56AFEEE00CA364B0599029A00F03F009F
:103240007CEEEDCA7DEE666A03EBC003D3ED017A36
:1032500093ED007AA6EEA77A02EB010E4030DEED88
:10326000007AECEE877AB0F5905F03F5007301F118
:103270000401CEED007AE9DBF4EECB8AF1EE10FA30
:1032800042F240818BEE28DA4FF0000CF6EE007A25
:103290003DEE67DACBED06BA0399DBED01AADFF864
:1032A00074A001F10E030BEB8303D3ED017A37EE2B
:1032B0008DDAF0EE4CBA83ED01DA0BEB8103D3ED3E
:1032C0000B7A37EECCCAF6EE007AECEE27BA4B1C3E
:1032D000B3F5807F6BEEAAAACBED00AA02F00080C6
:1032E0008BED07BA8BED08AACBED098ACBED0ABAB4
:1032F000CBF84C35CBF850C5E6E100BF00803B472A
:10330000ACC5273708E53C1E000B001000008042CA
:10331000E0EA0008D40A0010947C0108AE47A13FFF
:103320001FED026AD8ED037ADFF868A3DFF868B30F
:10333000F7EE086A28EE866A68EEA66AF5EEC07AAD
:10334000F1EE10FA8AED026ACBED026A0DD577EE46
:10335000887AF5EEC07AF1EE10FAF8D4F4EEC87A75
:10336000F1EE10FA06DB77EEC87AF4EEC87AF1EEE9
:1033700010FAF8DA9FEDC07AF4EEC78AF1EE10FA8F
:1033800001F12E829FEDBD7AF4EEC77AF1EE10FACC
:1033900088ED047A01F13A829FEDB95AD8ED004ADE
:1033A000F0EE005AA7EEA55A78EE475A35EE477A66
:1033B00027EE247AC7EE255A9FEDB25A9AED037A8A
:1033C000C8ED075AE8EE857AB5EEC07AF1EE10FA4C
:1033D000C8ED037A08D537EE087AB5EEC07AF1EE7B
:1033E00010FAF8D48AED037AB4EEC87AF1EE10FA46
:1033F00008DB37EE487AB4EEC87AF1EE10FAF8DA64
:103400008AED037ADFED9C7AB4EEE76AF1EE10FA0A
:1034100041F1C285DFED9C7A9FED9C5A66EE277ADA
:10342000F4EEC57AF1EE10FA01F2B885F0EE457AC5
:10343000B4EEE77AF1EE10FA8AED045A01F1B6859E
:10344000DFED8F4A9AED004AB0EE005AE7EE054AEA
:1034500038EE675A74EEE77A67EE847A87EE855A1B
:10346000DFED884ADBED037A8AED075AA6EE247A6F
:10347000F5EEC07AF1EE10FA75EE855A8AED037A10
:1034800008D577EE887AF5EEC07AF1EE10FAF8D426
:10349000CBED037AF4EEC87AF1EE10FA08DB77EEA2
:1034A000C87AF4EEC87AF1EE10FAF8DACBED037AC6
:1034B0009FED717AF4EEC76AF1EE10FA41F185835F
:1034C0009FED717A9FED716A26EE877AB4EEC67A27
:1034D000F1EE10FA01F27B83B0EE467AF4EEC77A91
:1034E000F1EE10FA8BED046A01F179839FED646AC5
:1034F000DBED004AB0EE005AA7EE856A38EE475A77
:1035000036EE477A27EE247A87EE057A9FED5D5AEC
:103510009FED5F6A8BED077AE6EE857A35EE877A66
:10352000CBED037A67EE06AACEE098ED037ADFF8DA
:1035300064A1F7EE086A68EEA66AB5EEC07AF1EE0D
:1035400010FACAED026A0DD537EE087AB5EEC07AE8
:10355000F1EE10FAF8D4B4EEC87AF1EE10FA06DB08
:1035600037EE487AB4EEC87AF1EE10FAF8DADFED09
:10357000427AF4EEE78AF1EE10FA01F15581DFEDBF
:103580003F7AB4EEE77AF1EE10FAC8ED047A01F171
:103590006181DFED3B5A98ED005AB0EE006AE7EE2C
:1035A000065A38EE676A75EEE77A67EE857A87EE37
:1035B000866ADFED345ADAED037A88ED076AA8EE01
:1035C000A57AF5EEC07AF1EE10FA88ED037A08D507
:1035D00077EE887AF5EEC07AF1EE10FAF8D4CAEDFB
:1035E000037AF4EEC87AF1EE10FA08DB77EEC87AC7
:1035F000F4EEC87AF1EE10FAF8DACAED037A9FED2C
:103600001E7AF4EEC76AF1EE10FA41F1AD849FED37
:103610001E7ADFED1E5A26EE877AB4EEE57AF1EED9
:1036200010FA01F2A384B0EE657AF4EEC77AF1EEF7
:1036300010FACAED045A01F1A184DFED115ADAED56
:10364000004AB0EE005AE7EE855A38EE475A35EE9A
:10365000C77A27EE247A87EE057ADFED0A5A8AEDDB
:10366000077AE6EEA57A36EE077AF6EE006A67EE9E
:1036700026AACAED037A27E00000FA45DB0F49408D
:10368000DB0FC9C01F4209392EE3CD3917B7D13836
:10369000C3F5A83E983D0010B83D0010CDCC4CBFFE
:1036A000CDCCCC3FD8ED00AA0AF09EF907EE100A67
:1036B000F8EEC76A5FED077A1FED077A66EE896A52
:1036C000E6EE877A6AEEA7AA716A326ACB4B0131BD
:1036D000012A7162D3ED048A00F03086032A00F0DB
:1036E0001D86002A00F00086D4ED037AC6ED058A17
:1036F000F5EEC07AF1EE10FA08D577EE887AF5EE9D
:10370000C07AF1EE10FAF8D4C4ED037AF4EEC87A78
:10371000F1EE10FA08DB77EEC87AF4EEC87AF1EE33
:1037200010FAF8DAC4ED037A9FEDB50A94ED00BA09
:1037300027EE800A07F0D4FFB249D4ED037AB24AEB
:10374000D4ED025A9FEDB16A92ED00AA3A6BDFF810
:10375000ECE2AA4B01EB800090ED007A716A2BEE4F
:10376000077AF7EE006A77EE266AE5EE867A9142EE
:1037700066EEA88A84ED077A28EE8AAACEED008A42
:103780002AEE2AAAC4ED037A80F0A284A048037826
:103790004BB9DFF8ACA2DAED008AF5EE408AF1EE23
:1037A00010FA40F006869B4AD2ED008AF5EE408A78
:1037B000F1EE10FA40F0DF849748B0EE4A0A02F0CA
:1037C00023FC9648F0EE408AB0EE4A0A02F01CFC58
:1037D000934838EE800A0378F6EE007A60EE278A86
:1037E000002B40F07F848F480378002B40F0428408
:1037F000B0EE68AAF7EE007AB4EEE7AAF1EE10FA9E
:1038000040F3508447F6FF72F7EE007AF4EEE78A51
:10381000F1EE10FA40F30C8547F6FF7329F8023CED
:10382000049B29F8042C09F1040999457EF4B6AEED
:1038300007B0BDEC0E8BBDE8F08FDFF808A29AF858
:103840005835DAF85025CAED038ADAED05AADAED23
:1038500007CADAED087A9AED096ADAED0ABA9AED42
:103860000BCA0392DAF854C5002B40F0E786DFED6F
:103870006E5A9AED045AC8EEA58ADFED6C5AB7EE7F
:10388000007A35EE075AF4EEE58AF6EE006AF1EEBC
:1038900010FA37EE677A65EE266A00F10E87F6EECB
:1038A000005AF4EE658AF1EE10FAC8BFF0EE658AB0
:1038B000F4EE667AF1EE10FAC8BFF0EE676A78EEC1
:1038C000E78AF4EEC76AF1EE10FA37EEA8AADFED48
:1038D000587AD8BFB0EE667A37EE467AF4EEE7AAA9
:1038E000F1EE10FA36EE07BA7AEE2CCAC1F23E8239
:1038F0007AEEE77A6AEE278A7CEEE8CABCF1000F1E
:1039000001F02C84F7EE007AF4EEE7CAF1EE10FA3B
:1039100081F284850399474BDFF82CB1890005912A
:10392000DFED45BA029368EEABBAB6EE000ACBEE15
:103930008ABA3BEEC00A07F0D3FE06EE100AF8EE94
:10394000C66A029B059A00F03F007BEEE66A03EB35
:10395000C00393ED017AD3ED007AE6EE877A0BEBA4
:103960000201403091ED007A77EE277AB0F5905F52
:1039700003F5007302F10402C1ED007AE9DBF6EE13
:1039800000BAB4EEE8BAF1EE10FA41F2FD844FF05D
:10399000000CCAED06AA0399DAED01AADFF8A4B07B
:1039A00001F110030AEB8303D3ED007A77EEAB7AD3
:1039B000F0EE4CCAC3ED007A0AEB8103D3ED0C7A2A
:1039C00037EECCCAF6EE007AECEE27CA4B1CB3F504
:1039D000807F6CEEAAAACAED00AA01F0AD84CAED00
:1039E000078A8AED08AA8AED09BACAED0ABACAEDB1
:1039F0000BCACAF85035CAF854C565E60011001064
:103A000083F92243DCDA0008301000101F42093924
:103A100035100010383E0010383D0010583D0010A1
:103A2000371000103610001000803B47ACC5273718
:103A300008E53C1EE0EA0008000080422C1000105F
:103A4000183E001078050010A8050010B537983F03
:103A50001FED026AD8ED037ADFF8C8A3DFF8C8B318
:103A6000F7EE086A28EE866A68EEA66AF5EEC07A76
:103A7000F1EE10FA8AED026ACBED026A0DD577EE0F
:103A8000887AF5EEC07AF1EE10FAF8D4F4EEC87A3E
:103A9000F1EE10FA06DB77EEC87AF4EEC87AF1EEB2
:103AA00010FAF8DA9FEDE17AF4EEC78AF1EE10FA37
:103AB00000F14E869FEDDE7AF4EEC77AF1EE10FA51
:103AC00088ED047A00F15A869FEDDA5AD8ED004A63
:103AD000F0EE005AA7EEA55A78EE475A35EE477A2F
:103AE00027EE247AC7EE255A9FEDD35A9AED037A32
:103AF000C8ED075AE8EE857AB5EEC07AF1EE10FA15
:103B0000C8ED037A08D537EE087AB5EEC07AF1EE43
:103B100010FAF8D48AED037AB4EEC87AF1EE10FA0E
:103B200008DB37EE487AB4EEC87AF1EE10FAF8DA2C
:103B30008AED037ADFEDBD7AB4EEE76AF1EE10FAB2
:103B400041F17880DFEDAC7A9FEDAC5A66EE277AD2
:103B5000F4EEC57AF1EE10FA01F26E80F0EE457ADD
:103B6000B4EEE77AF1EE10FA8AED045A01F16C80B6
:103B7000DFEDB04A9AED004AB0EE005AE7EE054A92
:103B800038EE675A74EEE77A67EE847A87EE855AE4
:103B9000DFEDA94ADBED037A8AED075AA6EE247A17
:103BA000F5EEC07AF1EE10FA75EE855A8AED037AD9
:103BB00008D577EE887AF5EEC07AF1EE10FAF8D4EF
:103BC000CBED037AF4EEC87AF1EE10FAFFF670ACA2
:103BD00077EEC87AF4EEC87AF1EE10FAF8DA65E416
:103BE000DFED877AF4EEE78AF1EE10FA01F138831F
:103BF000DFED847AF4EEE78AD8ED037AF1EE10FA7D
:103C0000F5EEC07A05D400F0B3BC77EE887AF5EE15
:103C1000C07AF1EE10FAF8D4F4EEC87AF1EE10FAA8
:103C200006DB77EEC87AF4EEC87AF1EE10FAF8DA2D
:103C30009FED7F7AD8ED00AAF4EEC77A87EE877AF7
:103C4000F1EE10FA4FBFF6EE006AB0EE006AF6EE43
:103C5000006A37EE467A6AEEA6AA6AEE87AA9FED58
:103C6000767AC8ED07AAE8EE877AC8ED037A2BE5E5
:103C70006549664ADFED666ADFED665ADFED664A42
:103C80009FED6D5A012306EE103AB8EEC67A68EE43
:103C9000877AF4EEE57AF1EE10FA29D5F2EC017AA2
:103CA000F4EEC87AF1EE10FA08DB77EEC87AF4EE9B
:103CB000C87AF1EE10FAF8DA42ED017A27EEA46A3A
:103CC00027EE057ABCEEC66ADFF854E116EE100A5C
:103CD000E8EE877A80B20EEB800090ED007AB1ECCE
:103CE000016A42ED017A01330B2BE6EE076ACAD175
:103CF0004A4BD8ED007A93ED007A66EE876A66EE5D
:103D0000A7AAC8ED07AADFE4D8ED037AF5EEC07ADA
:103D1000F1EE10FA08D577EE887AF5EEC07AF1EE7A
:103D200010FAF8D4C8ED037AF4EEC87AF1EE10FA7E
:103D300008DB77EEC87AF4EEC87AF1EE10FAF8DA1A
:103D4000C8ED037A9FED340AD8ED008ADFED3BAA77
:103D500027EE800A07F0C4FC314AD8ED037A98EDCB
:103D6000026ADFED356A02EB800090ED007AE6EE44
:103D7000267A28EE877AC8ED037A88ED077A67EE0F
:103D80002AAAA1E498ED030AB5EEC00AF1EE10FAF2
:103D900008D530EE080AB5EEC00AF1EE10FAF8D4F4
:103DA00088ED030AB4EEC80AF1EE10FA08DB30EE33
:103DB000480AB4EEC80AF1EE10FAF8DA88ED030A00
:103DC00007F040FDD8ED00AAD8ED037AD8ED026ADD
:103DD0009FED197A60EE2AAAE6EE877A60EE2AAAAB
:103DE000C8ED037A60EE2AAA60EE2AAA60EE2AAA3B
:103DF000C8ED07AA68E400BF2EE3CD3917B7D13864
:103E00000000484300001644040000107C3E0010EF
:103E1000000000000080BB4683F922430000001030
:103E2000DCDA0008983D0010B83D00100000FA45AB
:103E3000DB0F4940DB0FC9C01F420939CDCC4C3FD5
:103E4000D8ED037AF5EEC07AF1EE10FA0DD577EEE3
:103E5000887AF5EEC07AF1EE10FAF8D4F4EEC87A6A
:103E6000F1EE10FA06DB77EEC87AF4EEC87AF1EEDE
:103E700010FAF8DA1FED137AF4EEC78AF1EE10FAB1
:103E800000F1F6841FED167AF4EEC77AF1EE10FA1F
:103E900088ED047A00F102855FED1A6AD8ED005AC8
:103EA000B0EE006AE7EE866A38EE476A36EEC77A09
:103EB00027EE257A87EE067A5FED216A5FED21AA6B
:103EC00088ED077AE8EEA67A67EE2AAAC8ED037AAB
:103ED000FFF7FABB98ED030AB4EEC80AF1EE10FA48
:103EE00008DB30EE480AB4EEC80AF1EE10FAF8DA50
:103EF00088ED030A07F0A6FCD8ED037A98ED026A74
:103F00005FED336A98ED007A5FED34AAE6EE267A2B
:103F100020EE070AC8ED037A88ED070A60EE2AAAA8
:103F2000FFF7D2BB91F82C30002B00F0D982CB48A0
:103F3000C37A13B9437B002B44D002F0D3F9DFF8E6
:103F400030B3C749DFEDC7AAC44AC1ED01AA8A460A
:103F50005B461AEE901A4FF07E504AF8081B43F861
:103F6000080B4FF0000E9FEDC0AADFEDC08ACDF820
:103F70000C90CBF80400D14682F80DE09A4609F087
:103F800033FD05EE100AF8EEC57AF0EE685A67EEDA
:103F9000897AB748E9EC01AAE7EE8A5A00F12C01C8
:103FA000EAEC015A9BED007A75EE877A8A45CBEDF3
:103FB000007AE4D1B7EE007AC7EE277ADDF80C90EC
:103FC000C0ED007AA54A937BBBB109F00DFD05EE6B
:103FD000100AB8EEC57ADFEDA77A27EE097AB0EEBF
:103FE000690AA7EE270A07F0C5FBB5EE400AF1EE15
:103FF00010FA4FF0000300F0AF823268F261002344
:104000004FF07E5273623362B2619B480378002B9B
:1040100040F042829148837A0246002B40F0A6810C
:1040200097F82C20954BBA5CDFF8B4A203EB82031F
:10403000934A1B68136009F0D7FC05EE100AF8EEEE
:10404000C57A97F82C207B6ABB6267EE897AF0EE1E
:10405000695A531CE7EEA95ADBB20F2B894887F83F
:104060002C3088BF0023C0ED005A88BF8AF82C305E
:10407000FEF79BBA84488549B0EE680A02F032FD2B
:1040800083488449B0EE40AAB0EE680A02F02AFDE7
:10409000F7EE007AB4EEE7AAF1EE10FAF0EE408AFD
:1040A0003FF7B0ABFFEE007AB4EEE7AAF1EE10FAFC
:1040B00048BF48F201023FF5A7ABDFED777A2AEE61
:1040C00027AABDEECAAA1AEE102A92B2FFF79CBB2D
:1040D0000021DA689961DA610021032259621A62CB
:1040E000FFF754BB6D4B6E4993ED007ADFED617ABB
:1040F000D1F800C0DFED6B6A9CED006A6A4A27EEDA
:10410000277AD2ED007AA6EE267AB0EE685AA7EEAC
:10411000275AF7EE006AB4EEE65AF1EE10FAF0EE26
:10412000457A83ED007A40F3F281F0EE667A5F48DB
:104130005F4A0368DFF87CA1E3EC017AC2EB030B72
:10414000D34503600CF1040CC8BF02605948C1F8A4
:1041500000C0C2EB0C038342574BC8BF0A6093ED0B
:10416000007AF7EE006A76EEC76A68EEA68AE7EE96
:10417000878AFFF738BBD2ED037AF5EEC07AF1EE0D
:1041800010FA09D577EE887AF5EEC07AF1EE10FADA
:10419000F8D44A4BC3ED037AF4EEC87AF1EE10FA84
:1041A0000ADB77EEC87AF4EEC87AF1EE10FAF8DAA4
:1041B000DFF808E1CEED037A9FED410A27EE800A91
:1041C00007F08EFA3F493D4A3F4BD2ED037A92ED1C
:1041D000024ADFED3E4A93ED005ADFED3D5A01EB16
:1041E000800090ED007AF7EE006AB6EE006A37EED6
:1041F000267A68EE868AE4EE247A28EE877AC2ED83
:10420000037A77EE266A82ED077A26EE857AB4EE97
:10421000E57AF1EE10FA40F32481DFED2E7A9FED7E
:104220002E7A2E4B83ED017AC3ED027AFFF7C4BAE2
:10423000FFEE007AF4EEE78AF1EE10FA48BF48F29A
:1042400001033FF5EBAADFED147A68EEA78AFDEED5
:10425000E88A18EE903A9BB2FFF7E0BAF01000102F
:10426000783E001000000000BF9F7A3F6F12833A33
:10427000000000109A99193F35100010E87A0108E3
:10428000A43E00103010001028110010183D00103E
:1042900020270010283D001000FEFF46FCE801200A
:1042A000B0DB0120CCCCCC3E84000020ACDB012074
:1042B000E0040020BFD401007C000020383E001044
:1042C00083F92243DCDA0008A8DB01201F42093908
:1042D0003333733F03123A413333F33E583D0010FA
:1042E000BC1000100000000093ED077AD3ED067AB1
:1042F00078EE878AF4EEE78AF1EE10FAC3ED048ACD
:10430000FFF6F2A95A689968DA610122C3ED047ACE
:10431000F0EE678A99611A62FFF7E6B9D3ED037A86
:104320001FED107A78EEE78AF4EEC78AF1EE10FA04
:1043300040F2E580C3ED048AFFF7D6B993ED017A28
:10434000D3ED027A78EEC78AF4EEE78AF1EE10FA3E
:10435000C3ED048A3FF6C8A900210222C3ED047A06
:10436000F0EE678AD9611A62FFF7BEB9407AE24976
:1043700018445BB250721FFA83FE01F1110011F86C
:10438000013B73449BB21AB26A2A04DD0C3B9BB218
:104390001AB26A2AFADC002A03DA0C339BB21A0436
:1043A000FBD4814201F8013CE9D1D44900238B724E
:1043B00036E6DAED037AF5EEC07AF1EE10FA08D5BA
:1043C00077EE887AF5EEC07AF1EE10FAF8D4CAEDFD
:1043D000037AF4EEC87AF1EE10FA08DB77EEC87AC9
:1043E000F4EEC87AF1EE10FAF8DACAED037A9FED2E
:1043F000C40A27EE800A07F073F9C249C24BDAED0E
:10440000037A9AED024ADFEDC14A93ED005ADFEDDF
:10441000C05A01EB800090ED007AF7EE006AB6EE2C
:10442000006A37EE267A68EE868AE4EE247A28EE71
:10443000877ACAED037A77EE266A8AED077A26EE46
:10444000857AB4EEE57AF1EE10FA6ADDDFEDB17A45
:104450009FEDB17AB14B83ED017AC3ED027AFFF79C
:10446000A2B927EE067ADFEDAE7A67EE277AB9EECB
:10447000046A77EEA75A67EEA76AA7EEA56A67EE09
:10448000A66AFAEE0E5AE7EEA56AF0EE087A66EE34
:10449000277AC6EEA77AC4E609F0A6FA05EE100A56
:1044A000DFEDA00A9FEDA00AF8EEC57AE7EE890AD3
:1044B00007F006FA9FED9D7ADFED957A20EE070A68
:1044C000B4EEE70AF1EE10FA40F39783DFED917A4C
:1044D0009FED917A914B83ED017AC3ED027A99E5D4
:1044E000934B1B78002B3FF422AD924B1B78002B93
:1044F0007FF41DAD03F030FE04F0AAFC17E50422A2
:10450000F0EE478A83ED047A1A62FFF7EDB8BFEE4A
:10451000007AB4EE475AF1EE10FA48BFF0EE477A4F
:1045200005E627EE067ADFED7E7A67EE277AB9EEAA
:10453000046A77EEA75A67EEA76AA7EEA56A67EE48
:10454000A66AFAEE0E5AE7EEA56AF0EE087A66EE73
:10455000277AC6EEA77A7DE7F168B36100220323CC
:10456000F1617262336250E577EE887AF5EEC07AD7
:10457000F1EE10FAF8D4F4EEC87AF1EE10FA06DB98
:1045800077EEC87AF4EEC87AF1EE10FAF8DA9FED19
:10459000647AF4EEC77AF1EE10FA00F19586DFED59
:1045A000666AD8ED00AAB8EE087AA7EEA67A67EE9A
:1045B0002AAAFFF754BBDFED616ADFED617AC8EE2E
:1045C000A66AF4EEE76AF1EE10FA00F11285B6EE93
:1045D000007AF4EEC76AF1EE10FAC8BFF0EE477A3F
:1045E00041F31782DBED045A9FED555AB7EE006A8E
:1045F00035EE866AF6EE00CA26EE2C6A0023B4EE8B
:10460000E76AF1EE10FA54BFF0EE465AF0EE675A40
:10461000F4EE475AF1EE10FAF4EEC56AC8BFF0EEB8
:10462000475AF1EE10FA65EEACCA8BF854359C4649
:104630007EF56CADF0EE456AFEF771BD9FED3F7AF9
:10464000DFED3F7AC8EE878AF4EEE78AF1EE10FAE2
:1046500000F1CB84B6EE007AF4EEC78AF1EE10FAE0
:10466000C8BFF0EE477A41F313829AED046ADFED9A
:10467000345ADFED2CCAF7EE006A76EE266AF6EEC3
:1046800000BA66EEAB6A4FF0000CF4EEE76AF1EEAA
:1046900010FA54BFB0EE666AB0EE676AB4EE476ACD
:1046A000F1EE10FAF4EEE58AC8BFB0EE476AF1EE1B
:1046B00010FA8AF858C57FF5F2A8F0EE658AFFF780
:1046C000F7B8C8EE878ADFED1E7AF4EEE78AF1EEDE
:1046D00010FA40F1798400238AF84835F6EE006A32
:1046E0009FED177AF4EEC78AF1EE10FA7DF5D9AF97
:1046F000F0EE478AFDF7DEBFBC100010F01000108E
:1047000083F92243DCDA0008C8DB01201F420939A3
:104710003333733F03123A413333F33E383D0010D5
:10472000DB0F49400000000055550541CDCC4C3C05
:1047300000000020FAE8012083F9223F00803B4777
:10474000ACC527372EE3CD3917B7D1380080BB462B
:104750001FED047A5FED045A28EE877AB4EEE57A0D
:10476000F1EE10FA3FF6A8A9B0EE657AF4EEC77A3A
:10477000F1EE10FAC8ED045A7FF5A6A9F8EE005A3A
:1047800085EE877AF7EE005AE7EE875A98ED007AC1
:1047900065EE875AFFF7A8B91FED167A1FED165A76
:1047A00025EE877AB4EEC57AF1EE10FA3EF634AA19
:1047B000B0EE457AF4EEC77AF1EE10FA83ED045AC2
:1047C0007EF532AAB8EE005A85EE077AB7EE005AA7
:1047D000A7EE875A98ED007A25EE075AFEF734BA0D
:1047E0001FED287A5FED285A28EE877AB4EEE57A35
:1047F000F1EE10FA3EF6C8ADB0EE657AF4EEC77A87
:10480000F1EE10FAC8ED045A7EF5C6ADF8EE005A86
:1048100085EE877AF7EE005AE7EE875A98ED007A30
:1048200065EE875AFEF7C8BD5FED3A7A1FED3A6A2A
:1048300068EEA77AF4EEC67AF1EE10FA3EF6A1AE73
:10484000F0EE467AB4EEE77AF1EE10FA88ED046AFB
:104850007EF59FAEB8EE006AC6EE277AB7EE006A24
:10486000A7EE276AD8ED007A26EE276AFEF7A1BEEA
:104870001FED4C7A5FED4C6A28EE877AB4EEE67A4B
:10488000F1EE10FA3FF600ABB0EE667AF4EEC77ABE
:10489000F1EE10FAC8ED046A7FF5FEAAF8EE006AA0
:1048A00086EE877AF7EE006AE7EE876A98ED007A7F
:1048B00026EE877AFFF700BB1FED5E7A5FED5E5A4A
:1048C00026EE077AB4EEE57AF1EE10FA3EF605AB85
:1048D000B0EE657AF4EEC77AF1EE10FAC3ED045A41
:1048E0007EF503ABF8EE005A85EE877AF7EE005AB4
:1048F000E7EE875A98ED007A65EE875AFEF705BB1A
:104900005FED6E7A9BED00AADBED01AADBF82020BB
:10491000CBF81C2087EE8AAA0023CBF81830C7EE0C
:10492000AAAA8BED03AACBED04AA09F05DF805EE67
:10493000100AF8EEC57A7AEECAAA67EE897AA7EE6F
:10494000AAAABCEECAAA8BED05AA09F04DF805EE9D
:10495000900AF8EEE56AF0EE007A66EE896ABFEE3C
:10496000007AA6EEA77A9BED076A9BED055A8BEDC0
:10497000087A37EE467AB8EE456ADBED0A7ADAED68
:10498000026A87EE067A8BED097AFEF775BA5FED5B
:10499000917ADBED008A9BED01AADBF82010CBF8C1
:1049A0001C10C7EEA88A0022CBF8182087EE8AAA2E
:1049B000CBED038A8BED04AA029309F015F805EEFE
:1049C000100AF8EEC57A3AEE68AA67EE897AE7EE41
:1049D0008A8AFCEEE88ACBED058A09F005F805EE37
:1049E000900AF8EEE56AF0EE007A66EE896ABFEEAC
:1049F000007AA6EEA77A029B9BED076A9BED055A0B
:104A00008BED087A37EE467AB8EE456AD3ED005A58
:104A1000DBED0A7ADAED026A87EE067A8BED097A27
:104A2000FEF7C7B85FEDB77ADAED008A9AED01AA12
:104A3000DAF82010CAF81C10C7EEA88A0022CAF8BB
:104A4000182087EE8AAACAED038A8AED04AA029387
:104A500008F0CAFF05EE100AF8EEC57A3AEE68AA29
:104A600067EE897AE7EE8A8AFCEEE88ACAED058A63
:104A700008F0BAFF05EE900AF8EEE56AB0EE007AAB
:104A800066EE896AFFEE007AE6EE877A029B9AED7F
:104A9000077A9AED056ACAED087AF8EE466A77EE6B
:104AA000C77AD3ED005A9AED0A7AC7EEA67ACAED14
:104AB000097AFEF756B85FEDDB7A9AED00AADAEDD7
:104AC00001AADAF82020CAF81C2087EE8AAA00235F
:104AD000CAF81830C7EEAAAA8AED03AACAED04AA3A
:104AE00008F082FF05EE100AF8EEC57A7AEECAAA3F
:104AF00067EE897AA7EEAAAABCEECAAA8AED05AA31
:104B000008F072FF05EE900AF8EEE56AB0EE007A62
:104B100066EE896AFFEE007AE6EE877A9AED056A1C
:104B2000DAED076ACAED087A77EEE67AF8EE466AB9
:104B30009AED0A7AC7EEA67ACAED097AFEF776B937
:104B4000DFEDF37ADAED008A9AED01AADAF8202097
:104B5000CAF81C20C7EEA88A0023CAF8183087EECE
:104B60008AAACAED038A8AED04AA08F03DFF05EE81
:104B7000100AF8EEC57A3AEE68AA67EE897AE7EE8F
:104B80008A8AFCEEE88ACAED058A08F02DFF05EE58
:104B9000900AF8EEE56AF0EE007A66EE896ABFEEFA
:104BA000007AA6EEA77A9AED056ADAED076A8AED31
:104BB000087A37EE667AF8EE466ADAED0A7A87EE18
:104BC000267A8AED097AFDF7A3BF9FEDD87AF4EE35
:104BD000C77AF1EE10FA8BED047A7EF587ACB8EE69
:104BE000006A86EE077AB7EE006AA7EE876A9BED49
:104BF000007A26EE077AFEF789BCB6EE007A20EE40
:104C0000077ADFEDCA7A67EE277AB9EE046A77EEA3
:104C1000A75A67EEA76AA7EEA56A67EEA66AFAEE3C
:104C20000E5AE7EEA56AF0EE087A66EE277AC6EE2F
:104C3000A77A4FE4DFEDBD7AB4EEE77AF1EE10FA31
:104C4000CAED047A7EF594AFB8EE005AC5EE277A25
:104C5000B7EE005AA7EE275ADAED007A25EE275A6A
:104C6000FEF796BFDFEDB17AB4EEE77AF1EE10FA17
:104C7000CAED047A7EF52CA8F8EE005AC5EEA77AA4
:104C8000F7EE005AE7EE275ADAED007A65EEA75AFA
:104C9000FEF72EB8BCF1000F40F000828CEEA8DACF
:104CA000F4EEEC8AB6EE007AF1EE10FA3DEE47DA59
:104CB00040F2F4846346F7EE007AF4EEE7CAF1EED0
:104CC00010FAC0F279843CEEE7BADFED9ABADFED74
:104CD000916A914ADFF848A26BEE2BBA8BEE0A6A12
:104CE000CBEE8ABAC7EEAAAA8BEE28DAC7EEA87A6C
:104CF000B6EE007A76EE266A3BEEC70ACBED066A80
:104D000077EEAAAA0292CDF804C03DEE47DA06F08B
:104D1000E7FC05EE100AF8EEC57A00F03F000399B3
:104D2000DDF804C0029A431C6AEE2A6A7BEEE7BAF9
:104D30000AEB830A8B005AED017A9AED007A37EE7E
:104D4000677AD118EBEE877A4030B0F58E5F0AF5BE
:104D5000807AB0EE677AD1ED007AE6EE877A03F1D9
:104D60000403C1ED007AE6DBFEF796BABCF1000F52
:104D700040F04381B4EEECBAF1EE10FA40F24E8509
:104D80006346F7EE008AF4EEE8CAF1EE10FAC0F2DC
:104D90003D837CEEE88ADFED67AADFED5E7A5F4B4C
:104DA000DFF880B168EEAAAA88EE8A7ACAEE8AAAEB
:104DB00077EE277AB6EE000A3AEEC00ACAED067A16
:104DC0000293CDF804C006F08BFC05EE100AF8EE55
:104DD000C57A029B0399DDF804C000F03F007AEE2B
:104DE000E7AA03EBC0038A0093ED017AD3ED007AC2
:104DF000EAEE877A0BEB0201403091ED007A77EE14
:104E0000277AB0F5905F03F5007302F10402C1ED5B
:104E1000007AE9DBF6EE00BAFEF7BDBDDFED437ABE
:104E2000B4EEE77AF1EE10FACAED047A7EF5B1A895
:104E3000B8EE006AC6EE277AB7EE006AA7EE276AD8
:104E4000DAED007A26EE276AFEF7B3B8B7EE00AACD
:104E5000F4EECA8AF1EE10FAC0F2FB8138EECAAA6B
:104E6000DFED348A2D4BDFF8C0B06AEE288ACAEE37
:104E70000B7AC8EE8B8A37EE877AB6EE000A38EEE8
:104E8000C00A8AED057A0293CDF804C006F028FC2A
:104E900006EE100AF8EEC66A029BDDF804C000F0C8
:104EA0003F0078EEE66A03EBC0034FEA8C0293ED15
:104EB000017AD3ED007AE6EE877A0BEB02014030FF
:104EC00091ED007A77EE277AB0F5905F03F50073E5
:104ED00002F10402C1ED007AE9DBFDF779BC9FED38
:104EE000137AF4EEC77AF1EE10FA8BED047A7EF5C0
:104EF000A6A8F8EE006A86EE877AF7EE006AE7EE7B
:104F0000876A9BED007A26EE877AFEF7A8B800BF85
:104F10000080BB4608E53C1E000B0010E0EA0008DC
:104F2000947C0108A805001050000010DB0F4940D8
:104F300058FF7F3F000080421FED047AF4EEC77AED
:104F4000F1EE10FA8BED047A7DF518AFF8EE006AF9
:104F500086EE877AF7EE006AE7EE876A9BED007AC5
:104F600026EE877AFDF71ABF1FED107AF4EEC77AA6
:104F7000F1EE10FA8AED047A7EF55FABF8EE005A96
:104F800085EE877AF7EE005AE7EE875A9AED007AB7
:104F900025EE877AFEF761BB5FED1C7AB4EEE77A07
:104FA000F1EE10FACAED047A7EF54AAAB8EE005A7C
:104FB000C5EE277AB7EE005AA7EE275ADAED007A47
:104FC00025EE275AFEF74CBAF6EE007AF4EEE78AA1
:104FD000F1EE10FA4FF00003D8BFF0EE687A8AF8CD
:104FE0004835F6EE006AFFF77BBB1FED2F7AFFF71F
:104FF0003CBB1FED317AFFF7F5BAF7EE008AF4EE0D
:10500000E8CAF1EE10FAC0F2FA817CEEE88A5FEDB0
:1050100037AA039AD44BDFF860B368EEAAAA88EEE9
:105020008A7A92000592CAEE8AAA77EE277AB6EEBD
:10503000000A3AEEC00ACAED067A029306F050FB67
:1050400005EE100AF8EEC57A029B059900F03F00C4
:105050007AEEE7AA03EBC00292ED017AD2ED007A74
:10506000EAEE877A0BEB010E40309EED007A77EE88
:10507000277AB0F5905F02F5007201F10401CEEDE0
:10508000007AE9DBB4EEE8BAF1EE10FA40F2C98436
:10509000F6EE00BA4FF0000CFEF77DBCF4EEE7CA66
:1050A000F1EE10FAC0F279823CEEE7BADFEDB5CA54
:1050B000039BAE4ADFF8C4A26BEE2CCACBEE0A6AA1
:1050C0009B000593CCEE8ACAC7EEA8BAC7EEAA7AAF
:1050D00036EE877AB6EE000A3CEEC00A3BEEA7DA5F
:1050E0008BED067A029206F0FBFA05EE100AF8EE56
:1050F000C57A00F03F00431C6AEE0D6A7CEEE7CAF9
:105100000599029A0AEB830353ED017A93ED007A35
:1051100037EE677A02EB010EECEE877A4030B0F59D
:105120008E5F03F58073B0EE677ADEED007AE6EE0F
:10513000877A01F10401CEED007AE5DBF4EECB8A4B
:10514000F1EE10FA40F220848BEE28DA4FF0000CDA
:10515000F6EE007A3DEE67DAFEF79EB8B4EEECBAF2
:10516000F1EE10FA40F29883F7EE007AF4EEE7CA17
:10517000F1EE10FAFEF605AC03997B4BDFF8F8B1BF
:1051800089000591C9E3CCEEA8DAF4EEEC8AB6EE1C
:10519000007AF1EE10FA7DEEC7DA40F2E382F4EE27
:1051A000E7CAF1EE10FAC0F2CF82039ADFF8CCA181
:1051B000920005926D4AF7EE007A7CEEE7CA9FED09
:1051C000717A02927BEE2C6ACCEEA8DA66EE87CA80
:1051D00087EEA8DACCEE8ACAC7EEAA7AB6EE007AD3
:1051E0003CEEC70A3DEE27DA7DEEC7DA06F078FA24
:1051F00005EE900A00F03F00F8EEE57A431C0AEB5A
:10520000830A6AEE0D6A7CEEE7CA059B029A5AEDA4
:10521000017A9AED007A37EE677AD118ECEE877A48
:105220004030B0F58E5F0AF5807AB0EE677AD1ED46
:10523000007AE6EE877A03F10403C1ED007AE6DB3B
:1052400014E24FEA8C02484BDFF834B10392FDF7C9
:105250008ABA0023B0EE68AACAF81430FDF7B8BACB
:10526000D8ED037AF5EEC07AF1EE10FA0DD577EEAF
:10527000887AF5EEC07AF1EE10FAF8D4F4EEC87A36
:10528000F1EE10FA06DB77EEC87AF4EEC87AF1EEAA
:1052900010FAF8DA9FED367AF4EEC77AF1EE10FAEA
:1052A00087EE877A00F1EE81F0EE006A37EE667ADB
:1052B00098ED006A27EE066AFEEE006A27EE067A8F
:1052C00067EE26AAFEF7CBBCDFED2A6AD8ED00AA6E
:1052D000B7EE007AA7EEA67A67EE2AAAFEF7BFBC61
:1052E0000AF22C414FF490720AF12C00CDF804C060
:1052F00008F08EFA0AF5A67000214FF4806208F0DB
:1053000021FBDAED00AADDF804C00023FDF7E8BFB9
:105310000BF224414FF490720BF1240008F078FA5C
:105320000BF5A27000214FF4806208F00BFBDBED5F
:1053300000AA0023FDF772BA0BF586614FF4907254
:105340000BF13000CDF804C008F062FA0BF5A8703C
:1053500000214FF4806208F0F5FADBED00AADDF8D9
:1053600004C00023FEF73BBBE0EA0008000B00107E
:10537000DB0F494083F922BFA8050010947C010887
:1053800050000010000080425FED027AE94B02936A
:1053900078EECBBAB6EE000A6BEEA7BADFF89CB394
:1053A000CBEE8ABA3BEEC00A06F09AF907EE100A75
:1053B000F8EEC76A029B039900F03F007BEEE66AB5
:1053C00003EBC0038A0093ED017AD3ED007AE6EE99
:1053D000877A0BEB0201403091ED007A77EE677A25
:1053E000B0F5905F03F5007302F10402C1ED007A9D
:1053F000E9DBFEEE00BA4FF0010CFEF7CABA00235B
:10540000F0EE6C8ACAF81830FEF7C5BA0022F0EE4A
:105410006C8A9C46CAF81820FEF7BDBA7CEEE7CA33
:10542000DFEDC87A039AC34B029378EEACBAB6EEBE
:10543000000A6BEEA7BA9200CBEE8ABA0592DFF8AB
:10544000FCB23BEEC00A06F04BF905EE100AF8EE8E
:10545000C57A029B059900F03F007BEEE7BA03EBAB
:10546000C00292ED017AD2ED007AEBEE877A0BEB77
:10547000010E40309EED007A77EE277AB0F5905F0E
:1054800002F5007201F10401CEED007AE9DBB4EE21
:10549000ECBAF1EE10FA3EF672AA7CEECBBADFED72
:1054A000A97A029378EEABBAB6EE000A6BEEA7BA11
:1054B000CBEE8ABA3BEEC00A06F012F905EE900A6E
:1054C000F8EEE57A029B059900F03F007BEEE7BA23
:1054D00003EBC00292ED017AD2ED007AEBEE877A0F
:1054E0000BEB010E40309EED007A77EE677AB0F557
:1054F000905F02F5007201F10401CEED007AE9DB64
:10550000FEF70EBA7BEE687ADFED8ECA029267EE86
:10551000ACCAFFEE006ACCEE8ACADFF824A2B7EE6E
:10552000007A87EEAADA87EE287AC6EEAAAAF6EE05
:10553000007A3CEEE70A7AEEC7AA37EECDDA06F03B
:10554000CFF806EE100AF8EEC66A00F03F00411CE4
:105550002AEE2A6A7CEEE66A059B029A0AEB810A29
:105560005AED017A9AED007A37EE677AD118E6EEB5
:10557000877A4030B0F58E5F0AF5807AB0EE677AB0
:10558000D1ED007AE6EE077A03F10403C1ED007A6B
:10559000E6DB4FF0010CFDF77DBE7CEEE87A0023E0
:1055A000C7EEAAAACBF81830B6EE00DAB0EE6CBAA5
:1055B0003DEE6ADAFDF770BE0022B0EE6CBA9C4692
:1055C000CBF81820FDF768BE7CEEE7CA9FED5D7A48
:1055D0000399594A02927BEE2CDA87EEA8EA8900F9
:1055E0000591DFF85CA16DEE87DAC7EEAA7ACDEE01
:1055F0008ADAB6EE000A3DEEC00A3EEE27DA06F081
:105600006FF805EE100AF8EEC57A00F03F00431C73
:105610002AEE0DDA7DEEE7DA0599029A0AEB8303AA
:1056200053ED017A93ED007A37EE677A02EB010EC3
:10563000EDEE877A4030B0F58E5F03F58073B0EE03
:10564000677ADEED007AEDEE077A01F10401CEED26
:10565000007AE5DBF4EEEC8AF1EE10FA40F22C82EF
:10566000CCEEA8CAF6EE007A7CEEE7DA9FED35DAEA
:105670002BEE0DDAF6EE00CA8DEE0ADA7DEE6CCA7C
:10568000FDF7CEBDD8ED00AAF6EE006A6AEEA6AA36
:105690006AEE87AA67EE2AAAFEF7E1BA7CEEE86A0C
:1056A0009FED28BA244A029226EE8BBAFFEE00BA8A
:1056B0008BEE0ABACDF804C0DFF884A0C7EEA87A52
:1056C000C6EEAA6ACBEEAABA3BEE470A7BEEE7BA71
:1056D00037EE66DA06F004F806EE900AF8EEE67A9F
:1056E00000F03F000399DDF804C0029A431C6AEE03
:1056F0002BBA3BEE67BA0AEB830A8B005AED017AAC
:105700009AED007A37EE677AD118EBEE077A4030DF
:10571000B0F58E5F0AF5807AB0EE677AD1ED007A47
:10572000EBEE877A03F10403C1ED007AE6DB012397
:10573000FFF7C1BAE0EA0008000B0010A80500104E
:10574000947C0108000080421FED02DA0399D44ADC
:105750002BEE0DDA89008DEE0ADA05917DEE47CA4F
:10576000FDF75EBD7CEEE86A9FEDD16A039BCC4AF3
:1057700002923BEE26DABFEE00EA2DEE06DAC7EE25
:10578000A87A9B000593DFF820A38DEE0ADAC6EE17
:10579000AA6A8EEE2AEA3DEE470A3EEE67EA77EE07
:1057A00066DA05F09DFF05EE100AF8EEC57A00F006
:1057B0003F00431C2AEE0EEA3DEE67DA0599029A95
:1057C0000AEB830353ED017A93ED007A37EE677AA3
:1057D00002EB010EEDEE077A4030B0F58E5F03F577
:1057E0008073B0EE677ADEED007AEEEE077A01F1B3
:1057F0000401CEED007AE5DBF7EE007AF4EEE7CABD
:10580000F1EE10FABFF6D7AC87EEA8DAC7EEAA7AA7
:105810003DEE27DA2AEE0DDAFDF7CBBCDFEDA47AF8
:10582000A04B02937CEECB8AB6EE000A68EEA78A04
:10583000CDF804C0C8EE8A8ADFF870B238EEC00A2C
:1058400005F04EFF05EE100AF8EEC57A029B0399AB
:10585000DDF804C000F03F0078EEE78A03EBC003F8
:105860008A0093ED017AD3ED007AE8EE877A0BEBAC
:105870000201403091ED007A77EE677AB0F5905FE3
:1058800003F5007302F10402C1ED007AE9DBFEEEDC
:1058900000BA0123FFF775BA7CEECBBADFED847A4C
:1058A0000399804B029378EEABBAB6EE000A6BEE2A
:1058B000A7BA8900CBEE8ABA0591DFF8F0B13BEECA
:1058C000C00A05F00DFF05EE100AF8EEC57A029B3E
:1058D000059900F03F007BEEE7BA03EBC00292EDC2
:1058E000017AD2ED007AEBEE877A0BEB010E4030B5
:1058F0009EED007A77EE677AB0F5905F02F5007260
:1059000001F10401CEED007AE9DBF7EE007AF4EE66
:10591000E7CAF1EE10FAFEF603A8F7EE00BA7CEE45
:10592000EBBADFED637A029378EEABBAB6EE000A1B
:105930006BEEA7BACBEE8ABA3BEEC00A05F0D0FEFA
:1059400005EE900AF8EEE57A029B059A00F03F001A
:105950007BEEE7BA03EBC00393ED017AD3ED007A57
:10596000EBEE877A0BEB0201403091ED007A77EE97
:10597000277AB0F5905F03F5007302F10402C1EDE0
:10598000007AE9DBFDF7FBBF7BEE687ADFED48CA02
:10599000029267EEACCA87EEAADACCEE8ACABFEEF4
:1059A000007AC7EE2AAAF6EE007A3CEEE70A37EE56
:1059B000CDDA05F095FE05EE900A7AEEEBBAF8EE38
:1059C000E57A00F03F00411C6AEE2BBA7CEEE7CA94
:1059D000059B029A0AEB810A5AED017A9AED007A48
:1059E00037EE677AD118ECEE877A4030B0F58E5FEB
:1059F0000AF5807AB0EE677AD1ED007AEBEE877A1D
:105A000003F10403C1ED007AE6DB4FF0010CFDF772
:105A100043BCB7EE007A37EE667AF0EE667AFEF7B0
:105A2000E1BDDFED237A029378EECBAAB6EE000A51
:105A30006AEEA7AACAEE8AAA3AEEC00A05F050FE9C
:105A400005EE900AF8EEE57A029B059A00F03F0019
:105A50007AEEE7AA03EBC00393ED017AD3ED007A67
:105A6000EAEE877A0BEB0201403091ED007A77EE97
:105A7000677AB0F5905F03F5007302F10402C1ED9F
:105A8000007AE9DBFEEE00BA4FF0010CFDF783BFB0
:105A9000B7EE007A37EE687AF0EE687AFEF7E5BD89
:105AA000000B0010E0EA0008947C0108A805001033
:105AB00000008042000000007CEEE87A5FED046A9E
:105AC00002927BEE27CABFEE007A6CEEA6CAC7EE42
:105AD000AADACCEE8ACA87EE2A7AF6EE007A3CEE93
