:020000040800F2
:10000000A45B0120B110000811110008391100088B
:100010003D110008411100084511000800000000D2
:10002000000000000000000000000000491100086E
:100030004D11000800000000511100086511000872
:10004000AD100008AD100008AD100008AD1000089C
:10005000AD100008AD100008AD1000081511000823
:10006000AD100008AD100008AD1000080D1000081C
:10007000AD100008AD100008AD100008AD1000086C
:10008000AD100008AD100008AD100008AD1000085C
:10009000AD100008AD100008AD100008AD1000084C
:1000A000AD100008AD100008AD100008AD1000083C
:1000B00055110008AD100008AD100008AD10000883
:1000C000AD100008AD100008AD100008AD1000081C
:1000D000AD100008AD100008AD100008AD1000080C
:1000E000AD100008AD100008AD100008AD100008FC
:1000F000AD100008AD100008AD100008A90F0008F1
:10010000AD100008AD100008AD1000087110000817
:10011000AD100008AD100008AD100008AD100008CB
:10012000AD100008AD100008AD100008AD100008BB
:10013000AD100008AD100008AD100008AD100008AB
:10014000AD100008AD100008AD10000859110008EE
:10015000AD100008AD100008AD100008AD1000088B
:10016000AD100008AD100008AD100008AD1000087B
:10017000AD100008AD100008AD100008AD1000086B
:10018000AD100008AD1000080020704738B5114CC4
:1001900094F84210054691B994F841100D4C51B1B4
:1001A000284605F0DBFD284694F8411007F0E2FBF5
:1001B000002384F84130084B00221A7038BD05F046
:1001C000CDFD284694F8421007F0D4FB002384F8B4
:1001D0004230E1E7BC3D0120FC04002070B50E4632
:1001E000054605F06FFE98B11E4C2378032B11D005
:1001F000042B0DD1284694F8411005F06BFE012820
:1002000016D9284694F8411005F064FE042817D04A
:10021000002070BD94F841301348611C402207F063
:100220004BFC124A0121042311702370002070BD81
:100230000E4B1A78012A0ED003232370002070BDC4
:100240002846314694F8442094F8413007F04EFE99
:100250000028F1D0DCE70025601C1D7002F0F8F9E1
:10026000A570E9E7BC3D0120404B0120FC040020C3
:10027000F0B591F843302F4D0522012B83B00C4689
:1002800006462A7005D0A36E1B6C9847012003B068
:10029000F0BD91F84430032BF5D191F84A30B1F814
:1002A0004C20190694F852104BBF85F8443085F85D
:1002B0004330A5F84620A5F848200A06B4F8543083
:1002C00031D485F84310A5F84830304607F00EFBCE
:1002D00095F8441085F84200304607F007FB0227E6
:1002E00085F84100B5F8480094F8202094F82130B2
:1002F00095F8421001900097304607F0ADFA94F857
:10030000202094F82130B5F8464095F84110009728
:100310003046019407F0A0FA074A0020032310702A
:100320002B7003B0F0BD85F84410A5F8463095F861
:100330004310CAE7BC3D0120FC040020F0B50120B9
:100340002E4D85B0014608F0DDF900260223032773
:10035000284602A94FF4D0528DF80C3002928DF845
:100360000D708DF80E608DF80F6007F0E5FF2846E0
:1003700009210A2208F050F828460B210A2208F029
:100380004BF828460A220C2108F046F801244FF4C5
:10039000806302A9284602938DF80D708DF80E40F7
:1003A0008DF80F4007F0C8FF0A210A46284608F0DA
:1003B00033F821464FF4804008F0C8F921468020E8
:1003C00008F0ACF931464FF0006007F0EDFD4FF456
:1003D000A06007F0A3FD1C2301A88DF804308DF860
:1003E00005608DF806408DF8074007F0A1FD204616
:1003F000214608F09FF905B0F0BD00BF00000240A3
:1004000010B54FF4C06082B007F088FD012401A848
:1004100043238DF804308DF805408DF806408DF8A3
:10042000074007F085FD1722022301A88DF805403B
:100430008DF807408DF804208DF8063007F078FD20
:1004400002B010BD034811B1012107F0DDBF012149
:1004500007F0D8BF0008024070B5042086B0012123
:1004600008F050F901250026022326488DF80930AE
:1004700001A901958DF808508DF80A608DF80B6080
:10048000214C07F059FF29461E4807F0BBFFC8233F
:1004900031464FF08040236008F01CFB294632466D
:1004A0004FF0804008F024FB42F6DF6205234FF056
:1004B000804003A90492ADF80C30ADF81460ADF89B
:1004C0000E6008F0ABFA29464FF0804008F026FB9A
:1004D00029464FF0804008F0EFFA29464FF080405F
:1004E0002A4608F005FB29464FF0804008F0F2FA52
:1004F00021680029FCD14FF0804008F0EBFA06B0EB
:1005000070BD00BF000802400005002030B51E4C41
:1005100085B0034600214FF08040236008F0DAFAEE
:100520004FF080400121002208F0E2FA0B25002361
:1005300005224FF0804001A9ADF80420ADF80C3041
:10054000ADF80630029508F069FA4FF080400121BD
:1005500008F0E4FA4FF08040012108F0ADFA0121E3
:100560000A464FF0804008F0C3FA4FF08040012166
:1005700008F0B0FA21680029FCD14FF0804008F063
:10058000A9FA05B030BD00BF0005002030B51E4CF3
:1005900085B0034600214FF08040236008F09AFAAE
:1005A0004FF080400121002208F0A2FA42F6DF65F8
:1005B000002305224FF0804001A9ADF80420ADF8DA
:1005C0000C30ADF80630029508F028FA4FF0804064
:1005D000012108F0A3FA4FF08040012108F06CFAE5
:1005E00001210A464FF0804008F082FA4FF0804027
:1005F000012108F06FFA21680029FCD14FF08040FA
:1006000008F068FA05B030BD0005002008B54FF0CD
:100610008040012108F076FA00B908BD01214FF0B1
:10062000804008F07BFA064B196819B11A68013A44
:100630001A6008BD4FF08040BDE8084008F04ABA93
:1006400000050020704700BF704700BF704700BF23
:10065000704700BF704700BF704700BF704700BFC2
:10066000704700BF704700BF704700BF0120704750
:10067000704700BF00207047002000F043B800BF63
:10068000002000F03FB800BF002000F03BB800BFE2
:10069000002000F02BB800BF022000F027B800BFF8
:1006A00010B50F4B82B00446012153F8200008F02A
:1006B00029F80C4B0C4A33F8143052F824000093FC
:1006C00002220123002469468DF804308DF807309A
:1006D0008DF806408DF8052007F02EFE02B010BD03
:1006E00030AF000840AF000858000020034B044A18
:1006F00053F8203032F810201A8370475800002039
:1007000040AF0008034B044A53F8203032F8102061
:100710005A8370475800002040AF000830B50446A7
:10072000012087B00D46014607F0ECFF4FF48040F2
:10073000012108F00BF806AB0121174A43F8101D00
:1007400052F82400194600248DF80C408DF80F4013
:1007500007F0F2FD012D01D007B030BD2146204643
:1007600008F044F9082304A88DF8153004958DF895
:1007700014408DF8165007F08FFD0F23062201A8B4
:100780008DF807508DF804208DF805308DF806306F
:1007900007F0CEFB07B030BD6800002008B5034B62
:1007A000012153F8200007F027FE08BD6800002053
:1007B000064B10B4064C53F82020064B34F81000BA
:1007C000108319605DF8044B704700BF580000208B
:1007D00040AF0008143E0120054A1368013B136036
:1007E00023B9044BDB684FF400425A83704700BFC3
:1007F000143E012058000020134B10B51868012149
:1008000007F0FAFD114A0030137818BF0120834227
:100810000F4B12D019780139C9B2197061B90D4C5A
:100820000D491070012222700A2208701A7038B91E
:10083000BDE8104001F00EBD10BD0A221A7010BDB7
:10084000BDE8104001F0F6BC68000020050500205E
:100850006C000020060500200405002070B58D4CBA
:100860004FF4961306460D46236005E023685A1E92
:100870002260002B00F0018187484FF4003107F01F
:10088000D9FE0028F2D18448012107F08DFE4FF4F3
:100890008053236005E023685A1E2260002B00F07D
:1008A000EC807D487D4907F0B9FE0028F3D07A48F6
:1008B0009421002207F094FE4FF48053236005E05A
:1008C00023685A1E2260002B00F0D78072487449BA
:1008D00007F0A4FE0028F3D06F48314607F098FED9
:1008E0004FF48053236005E023685A1E2260002BDA
:1008F00000F0C38068486B4907F090FE0028F3D0F1
:100900006548294607F084FE4FF49613236005E0FE
:1009100023685A1E2260002B00F0B9805E486249AD
:1009200007F088FE0028F3D05B48012107F04AFE5B
:100930004FF49613236005E023685A1E2260002BB3
:1009400000F09F8054484FF4003107F073FE0028F8
:10095000F2D15148012107F027FE4FF48053236064
:1009600005E023685A1E2260002B00F08A804A4866
:100970004A4907F053FE0028F3D04748942100224B
:1009800007F02EFE4FF48053236004E023685A1EC4
:100990002260002B75D04048414907F03FFE0028F7
:1009A000F4D031463C4807F033FE4FF480532360C7
:1009B00004E023685A1E2260002B62D036483A4970
:1009C00007F038FE0028F4D03348012107F0ECFD91
:1009D0004FF48053236004E023685A1E2260002BEA
:1009E0004FD02D482D4907F019FE0028F4D02A4891
:1009F0009421012207F0F4FD4FF48053236004E0BA
:100A000023685A1E2260002B3BD0234E27493046D4
:100A100007F010FE0028F3D03046002107F0EAFD71
:100A200030460121338B07F0CDFD4FF48053236016
:100A300003E023685A1E22601BB317481C4907F0C5
:100A4000F9FD0028F5D0144807F0E4FD4FF4805379
:100A500006462360104A03E02368591E216083B1D3
:100A600013889B05F8D40C48012107F0C3FD0A4800
:100A7000104907F0FBFD304605E0BDE8704000F08E
:100A80001BBD00F019FD281A18BF012070BD00F031
:100A900013FD43E7740000200054004001000300F0
:100AA0008200070080000700040000100200001010
:100AB00040000010000400102DE9F04F64298BB0B5
:100AC000914600F21D81CF4BC1EB012183FB012A2E
:100AD000C917C1EB6A1A5FFA8AFA0AF119085FFAB4
:100AE00088F80820012107F00DFE022500240127C7
:100AF00006A9C5488DF81C704FF0100BCDF818B042
:100B00008DF81D508DF81E408DF81F4007F014FC25
:100B10003946072007F0F6FD4FF4107306A9BB48CD
:100B200006938DF81C508DF81D508DF81E708DF8B1
:100B30001F4007F001FCB548B54E0621042207F01E
:100B40006BFC0422B148092107F066FC4FF4A05366
:100B500006A9B04806938DF81C508DF81D508DF8ED
:100B60001E408DF81F4007F0E7FBAB48042106222A
:100B700007F052FCA7480A21062207F04DFC336813
:100B8000AB4200F0FD80A448CDF818B006A907F0EC
:100B9000D3FBA0480C21062207F03EFC02230024D0
:100BA00080229C488DF81C3006A98DF81D300692D5
:100BB0008DF81E408DF81F4007F0BEFB95480721B9
:100BC000062207F029FC22468F48102107F01EFC60
:100BD00044F6FF74013CFDD101228B48102107F03F
:100BE00015FC01214FF4001007F0A4FD8B4807F01D
:100BF00027FC33274BF6FF7E4FF48042884B874813
:100C0000ADF81EE001214FF48065ADF82420069375
:100C1000ADF81C40ADF82070ADF8225007F0B6FCDE
:100C20007E4806A907F042FC01210220FFF716FECC
:100C3000AF2104460420FFF711FE7A4BAF22044493
:100C4000812105201A70FFF709FE042104440620C3
:100C5000FFF704FE414604442020FFF7FFFD414614
:100C60002120FFF7FBFD3368022B00F0AA809E21B4
:100C70000220FFF7F3FD002104440A20FFF7EEFDF8
:100C80003368022B044404D00E200421FFF7E6FD54
:100C9000044400212720FFF7E1FD0F2125181F2024
:100CA000FFF7DCFD0A2105441A20FFF7D7FD0A21D2
:100CB00005441B20FFF7D2FD012105444FF40040FD
:100CC00007F038FD584807F083FD00244FF4007307
:100CD00002A95548ADF80830ADF80E30CDF81090A7
:100CE000ADF80A40ADF80C40ADF8144007F0D8FD5F
:100CF0003368022B54D035B101200BB0BDE8F08F22
:100D00004FF07D08EDE63468012C00F091803268E8
:100D1000012A71D04548012107F0F4FC4FF0005042
:100D2000012107F007FD00241023032502A93A48FA
:100D300002938DF80C508DF80F4007F0FDFA06A9CC
:100D4000204606940794099407F038F920460121BB
:100D500007F04CF934480122712107F031FE3322AB
:100D6000012301A88DF805508DF806508DF8042058
:100D70008DF8073007F0DCF800200BB0BDE8F08FED
:100D80003846394607F0BEFC03232348CDF818B097
:100D900006A98DF81F408DF81C3007F0CDFAFDE64E
:100DA0004FF00050012107F0C5FC204606A906942B
:100DB0000794099407F002F92046012107F016F97B
:100DC00099E701210820FFF749FD01210546092087
:100DD000FFF744FDC02105440E20FFF73FFD2C44E2
:100DE000002104441420FFF739FD0021044415209C
:100DF000FFF734FD04443AE70B48022107F0D6FD23
:100E0000BAE700BF1F85EB51000C0240000402400E
:100E10008C00002000080240000002400054004006
:100E2000A08601000C050020003C004001002000CD
:100E3000274B284F1868214607F064FC294638687C
:100E400007F0C8F9386807F0F5F82349234B244A1E
:100E50000968196012689D6040214FF4006C4FF4DE
:100E6000005E5D61DD621D635D639D635A60D960F4
:100E70003868C3F81CC019464FF440324FF6FE796B
:100E80004FF480684FF48075C3F81090C3F8188051
:100E9000C3F820E05D629A6207F064F93868224680
:100EA000102107F0D9F938680821224607F0D4F953
:100EB0000C4B8DF807401B688DF8043001A8032304
:100EC0008DF805308DF8063007F032F81FE700BFC7
:100ED000780000207C000020080500205C3E0120F6
:100EE0009400002088000020F8B5174B174F184ACF
:100EF000184E0C464FF6FF7E194605463868744575
:100F000094BF1C61C3F810E09D603460136807F063
:100F100029F93868012107F05DF90F48838B5B05DB
:100F200002D4012107F032FD30680C490C4A4FF61B
:100F3000FF73984238BF0346E41A05EB43050C6083
:100F400015600020F8BD00BF5C3E01207C00002041
:100F50008C00002084000020003C00407000002035
:100F60001C3E0120642838B510D80E4CC0EB002080
:100F700084FB0034C017C0EB6414E4B2E62C04F127
:100F80001904E4B203D92146202002E07D24202068
:100F90002146FFF763FC214605462120FFF75EFC52
:100FA000284438BD1F85EB51F8B5134C134D144A36
:100FB000144B2068296817681E6807F015F988B96E
:100FC000114D206829680C4C07F00EF900B9F8BDE6
:100FD0003846314600F072FA20682968BDE8F840CA
:100FE00007F020B93846314600F078FA29682068C1
:100FF00007F018F9E4E700BF7C0000208000002023
:101000001C3E01207000002090000020F8B5134C19
:10101000134D144A144B2068296817681E6807F09E
:10102000E3F888B9114D206829680C4C07F0DCF80A
:1010300000B9F8BD3846314600F040FA206829680A
:10104000BDE8F84007F0EEB83846314600F046FA01
:101050002968206807F0E6F8E4E700BF7C0000207C
:10106000800000201C3E0120700000209000002025
:1010700008B50C48022107F0B3FC58B10A4B1B68B5
:10108000022B08D000F03AFABDE8084001460548B6
:1010900007F08ABC08BD00F031FA0146042006F0D2
:1010A000B9FFEFE7003C00408C000020FEE700BFE6
:1010B00008B51148114B984207D2C243134423F09C
:1010C000030204320E4909F01DFE0E480E494FF08E
:1010D00000028842B8BF40F8042BFFF6FAAFDFF8F1
:1010E0002C00016841F47001016000F04BF8BDE88C
:1010F000084001F0B1B800BF00000020FC0400204F
:10110000B4C50008FC040020A853012088ED00E0CD
:10111000704700BF08B5022007F0FEF800B908BD0F
:10112000044B9B6E5B6998470220BDE8084007F0BE
:10113000FDB800BFEC500120FEE700BFFEE700BF96
:10114000FEE700BFFEE700BF704700BF704700BF6B
:10115000704700BFFFF75ABA014805F0DFBF00BF74
:10116000404B012008B504F0F9F80320FFF734FBE9
:10117000034B1B7803B908BDBDE80840FFF73CBB33
:10118000A4000020404A414BD2F88810404841F466
:101190007001C2F888101968002241F0010119603D
:1011A0009A60196821F0847121F4803119605860C7
:1011B000196882B021F480211960DA6000920192EE
:1011C0001A6842F480321A601A4603E0009BB3F5B5
:1011D000A04F09D0136803F400330193009B01333F
:1011E0000093019B002BF1D0284B1B6813F40033B4
:1011F00018BF01230193019B012B14D0234A254BD7
:10120000916821F400019160C2F88430136843F0C2
:101210008063136013681B01FCD51B4B4FF0006209
:101220009A6002B07047194B1B4A186C1B4940F07A
:1012300080501864106840F4404010609A689A60CA
:101240009A6842F400429A609A6842F4A0529A6006
:1012500059601A6842F080721A6019460B680B4A8E
:101260009801FBD50E4B40F205711960936823F08D
:1012700003039360936843F002039360936803F061
:101280000C03082BFAD1B9E700ED00E0003802406A
:1012900010300024804000300070004008544007A7
:1012A000003C0240084B094AC36010B400214FF0D3
:1012B0007C540023846081610161026042600362AA
:1012C00043625DF8044B70470AD7233C6F12833AA0
:1012D00000230268C2614FF07E5181614362036264
:1012E000704700BF0023C16883610022032342626C
:1012F000C1610362704700BF07EE900AB8EEE77A5B
:10130000DFED097A9FED096ADFED096A094BC7EE47
:10131000277AB7EE007A77EE867A67EEA67AC7EE7E
:10132000277AC3ED007A70470000FE4217B7D13824
:1013300000803B47983E012007EE900AB8EEE77A1E
:10134000DFED0B7ADFED0B5A9FED0B6ADFED0B6AD9
:101350000B4B67EE277AB7EE007AC7EEA57A77EEE9
:10136000867A67EEA67AC7EE277AC3ED017A7047D0
:10137000CDCC4C3E0000FE4217B7D13800803B4731
:10138000983E012007EE900AB8EEE77ADFED037A87
:10139000034BC7EE277AC3ED027A70470000FE4286
:1013A000983E012007EE100ADFED0A7A9FED0A6AE7
:1013B0000A4BDFED0B6ABAEEEF7AC7EE277A93EDB0
:1013C000027A77EE867A67EEA67AC7EE277AC3EDC1
:1013D000037A70470000FE4217B7D138983E0120CB
:1013E00000803B47426A036A90ED040A0132012BF8
:1013F00042622FD0032B1DD013B180ED050A704738
:1014000090ED077AD0ED067A30EE070AB4EEE70ADF
:10141000F1EE10FA80ED040AEFDB41688268C0ED5E
:10142000047A0123B0EE670AC1618261036280ED34
:10143000050A7047D0ED037A9FED167A30EE670A01
:10144000B4EEC70AF1EE10FA1CD980ED040A80ED63
:10145000050A704790ED017AD0ED027A30EE470A26
:10146000B4EEE70AF1EE10FA80ED040AC5D80022C6
:101470000223B0EE670AC0ED047AC261036280ED18
:10148000050A70470423B0EE470A80ED047A036230
:10149000B3E700BF0000000008B5462104204BF66A
:1014A0008032FFF709FB03484FF4C861BDE80840EC
:1014B000FFF71ABDC03E01200020704708B501208B
:1014C000FFF720F904484FF4C87103F01BFE012018
:1014D000BDE80840FFF70AB9C03E012008B5012069
:1014E000FFF710F904484FF4C87103F00BFE012018
:1014F000BDE80840FFF7FAB800450120002070471A
:1015000007EE900AB8EEE77ADFED067A064A67EE54
:10151000277AFCEEE77A17EE903ADBB218461370A2
:10152000FFF720BD2693493F9C0000207F282DE92E
:10153000F84F01D0BDE8F88F264A2749516011467F
:10154000264B274841F8100B264FDFF8A880264C81
:101550009FED267ADFED267ADFF89CE0576141F6B1
:10156000F4260127C2F8088003F5A16A03F5A068F4
:101570000025DFF888C0956141F2F45B4FF07C559F
:1015800003F2045908609F5503F5A26040F27756B4
:1015900000214FF4AF5204F80B7089ED007A84ED0E
:1015A000017ACAF80050A5602560C8F80050C3F859
:1015B0000C65E660CEED007ACCED007A09F03CFCDB
:1015C00004F1100000214FF4AF52BDE8F84F09F0CC
:1015D00033BC00BFF02B0010AE47E13DF810001007
:1015E000000048428FC2F53D00000010CDCC4CBE3B
:1015F00000007043DB0FC93FE82B0010F01500100E
:101600002DE9F84F41F2F4502C4B2D4C2D49DFF8C9
:10161000C4C0DFF8C4E02C4FC4F804E0012241F656
:10162000F426225404F5AF5503F5D7509A5503F22A
:101630000452C5F810C0C0F810C003F5A06C4FF0FC
:101640007C5003F5A168C2F800E001F5206501F5C2
:101650002162CCF8000001F6182E4FF4AF5601F6C7
:10166000082C9FED1A7ADFED1A7AC8F8000001F60F
:101670000429A060206001F614282F60176040F252
:1016800077553246DFF854B089ED007A4FF0000A02
:1016900003F5A2600021C8ED007ACCF800B0CEF8C6
:1016A00000A0C3F80C55E56009F0C6FB04F110007A
:1016B00032460021BDE8F84F09F0BEBBF81000101B
:1016C00000000010F021001000004842AE47E13D4C
:1016D0008FC2F53D00007043CDCC4CBEDB0FC93F3F
:1016E00007EE900ADFED0A6A9FED0A7A0A4BB8EE20
:1016F000E76ADFED0A7AE6EE267A03F6042203F6BD
:10170000142327EE877AC2ED007A83ED007A7047C2
:1017100087C3613D48E17A3FF02100100AD7A33C1E
:1017200007EE900AB8EEE77ADFED057A054A064B38
:1017300067EE277AC2ED007AC3ED007A704700BFEA
:10174000C260B040F0150010E82B001007EE900AC0
:10175000F8EEE76ADFED077A9FED077A074A084B54
:1017600066EEA77AC7EE877AC2ED017AC3ED007AFA
:10177000704700BF3333733F0000FE42000000108B
:10178000FC15001007EE900AB8EEE77ADFED067A56
:10179000064B67EE277A03F5206203F52163C2ED5D
:1017A000007AC3ED007A7047667F8C3FF02100100D
:1017B00010B468B17F2808D10B4C0C4941F2F450A9
:1017C00041F6F422FF2323548B545DF8044B7047F9
:1017D0000649054C41F6F422012341F2F4508B54A2
:1017E00023545DF8044B704700000010F8100010FF
:1017F00080B17F2820D1114A114B92ED007AD3EDB0
:10180000017AB0EEC77AF0EEE77A82ED007AC3EDA6
:10181000017A7047094A0A4B92ED007AD3ED017ABA
:10182000B0EEC77AF0EEE77AB1EE477AF1EE677A7A
:1018300082ED007AC3ED017A704700BFFC150010FD
:101840000000001000B5F1EE087A2DED028BB4EE29
:10185000E70AF1EE10FA83B0B0EE408A46D49FED6D
:10186000417AB4EEC70AF1EE10FA4DDDF0EE676A88
:101870009FED3D7A9FED3D0ADFED3D7A9FED3D6A9C
:10188000F7EE085A40F27253C268D31A48BF03F504
:10189000AF6300EB830292ED045A5A1E48BF03F275
:1018A000775200EB820393ED044A531E48BF02F2C5
:1018B000775300EB8302D2ED044A5A1E48BF03F26D
:1018C000775200EB8200D0ED043A27EE237A64EEE3
:1018D000277AA4EEA57AE5EE067A27EE000AA7EEAF
:1018E000A60A03B0BDEC028B5DF804FBF0EE676A5C
:1018F0009FED1D7A9FED1D0ADFED1D7A9FED1D6A9C
:10190000F7EE085A0623BFE7019007F00BF9BDEE8A
:10191000C00AB0EE007AF8EEC07A10EE103A38EE57
:10192000678AF0EE085AB7EE000A38EE477A78EE8A
:10193000655A38EE400A9FED0F5A9FED0F6A0198E5
:10194000FEEE004AF6EE007A67EE256A20EE066AA1
:1019500065EEA45A27EE057A28EE000A68EE277A8B
:1019600092E700BF0040AE44ABAAAABE00000080D0
:1019700000000000ABAA2A3EABAA2ABED1ED027A33
:10198000D1ED016A9FED4D7AE6EE877A70B5F5EEFE
:10199000C07A00F5AF561036F1EE10FA2DED048B3B
:1019A0000D46D6ED008AC1ED027A0446B0EE409AAB
:1019B0000AD59FED437A77EE877AF5EEC07AF1EE9D
:1019C00010FAF8D4C5ED027A9FED3D7AF4EEC77AAD
:1019D000F1EE10FA08DB77EEC77AF4EEC77AF1EE93
:1019E00010FAF8DAC5ED027A9FED360A27EE800A82
:1019F00007F0E8F8344BD5ED006A03EB800090ED7A
:101A0000006AB7EE007A36EE077AB1EE088A27EE62
:101A1000267A204638EE870A85ED037A30EE080AEA
:101A2000FFF710FF41F2F453F0EE408AE356012B2A
:101A30002CD096ED000A204630EE080AFFF702FF90
:101A4000D4ED017AA7EE809AB7EE007AF0EE497AEB
:101A5000F4EEC77AF1EE10FA25DDF0EE477A94ED58
:101A6000020AE36894ED007A28EE800ABDEC048B4C
:101A700040F27652934204EB8301D4BF013300233A
:101A8000A7EE870AC1ED047AE36070BDD4ED017A58
:101A9000A7EE809AB7EE007AF0EE497AF4EEC77AB4
:101AA000F1EE10FAD9DCBFEE007AF4EE477AF1EEEF
:101AB00010FA48BFF0EE477AD1E700BF1F4209395C
:101AC000DB0FC94083F9224394B10008F8B5564BA7
:101AD0009FED567AD3ED006A554DD3ED017A04336C
:101AE000E6EE877A07460E462DED048BF5EEC07ABA
:101AF000F1EE10FA95ED009AC3ED007AB0EE408A4F
:101B00000AD59FED4C7A77EE877AF5EEC07AF1EE42
:101B100010FAF8D4C3ED007A9FED467AF4EEC77A56
:101B2000F1EE10FA08DB77EEC77AF4EEC77AF1EE41
:101B300010FAF8DAC3ED007A9FED3F0A3F4C27EE2A
:101B4000800A07F03FF83E4A3E4B02EB8000D0EDA2
:101B5000006A93ED007AF7EE007A76EEA77AF1EE5E
:101B6000088A67EE877A204639EE270AC3ED037AA2
:101B700030EE280AFFF766FE41F2F453B0EE409AC9
:101B8000E356012B36D095ED000AD4ED019A30EEE4
:101B9000280A2046FFF756FEF0EE487AE9EE807AF2
:101BA000F7EE006AF4EEE67AF1EE10FA31DDF0EECF
:101BB000667A94ED027AD4ED006AE368224829EE51
:101BC000077A40F27652A6EEA77A934204EB83019D
:101BD000D4BF01330023C1ED047AE360B0EE480ABC
:101BE00087ED007A1949FFF7C9FEBDEC048B86ED3D
:101BF000000AF8BDD4ED017AB0EE487AA0EE277A5B
:101C0000F7EE006AF0EE477AF4EEE67AF1EE10FABB
:101C1000CDDCBFEE007AF4EE477AF1EE10FA48BF61
:101C2000F0EE477AC5E700BFF42B00101F420939D8
:101C3000F0150010DB0FC94083F9224300000010AB
:101C400094B10008F02B0010F8150010002C0010C3
:101C5000064B074907480B60074A03F54B432033FF
:101C600043F2C82103601160704700BF10050020D7
:101C7000A43D0120983D0120A03D012007EE900ADF
:101C8000B8EEE77ADFED0F7AB4EE677AF1EE10FA8C
:101C900014D10D4A136844F60B618B420B4998BF6F
:101CA0001433096898BF1360094AA1EB8303934278
:101CB00005D203F59C33074A7C3313607047054A0D
:101CC000136070470000FE42A03D0120983D0120B6
:101CD00010050020A43D012007EE900AB8EEE77A37
:101CE000DFED0E7AB4EE677AF1EE10FA12D10C4AFB
:101CF0000C4913680968B3F5877F84BF143B1360F0
:101D0000094AA1EB8303934205D203F59C33074AAA
:101D10007C3313607047054A136070470000FE4231
:101D2000A03D0120983D012010050020A43D012088
:101D300007EE900A9FED0D0AB8EEE77ADFED0C7A18
:101D400008B5A7EE270A06F03DFF0A4B0A491A68B4
:101D50000A4B0860A2EB8000984238BF00F59C3027
:101D6000074B38BF7C30186008BD00BF00007A43C5
:101D700002811B43983D0120A03D01201005002059
:101D8000A43D012007EE900AB8EEE77ADFED037A72
:101D9000034BC7EE277AC3ED007A70470000FE427E
:101DA000A00000201F4B2049D3ED006ADFED1F7A11
:101DB0009FED1F7A1F4AF0B40C6866EEA77A94ED87
:101DC000006AD2ED006AE6EE077AB7EE007AA6EE78
:101DD000A70AC3ED007AB4EEC70AF1EE10FA16DDD9
:101DE000B0EE470A1448154A0368154EA3EC010AE1
:101DF0009F1A04340360124B0C60B742C2EB040418
:101E0000C8BF02609C42C8BF0A60F0BC7047FFEECA
:101E1000007AB4EE670AF1EE10FA48BFB0EE670A36
:101E2000E0E700BF9C3D0120A43D01209A99193FA5
:101E3000CCCCCC3EA0000020983D01201005002015
:101E40007F38010007EE900AB8EEE77ADFED067AF8
:101E5000064BC7EE277A67EEA77AC3ED027AC3ED89
:101E60000D7AC3ED187A70470000FE42102C001066
:101E700000EB800000EB8000400007EE900ADFEDF1
:101E8000096A9FED097A094BF8EEE77AC7EEA67A60
:101E900077EE877AC3ED017AC3ED0C7AC3ED177A3A
:101EA000704700BF0000FE42CDCCCC3D102C00108E
:101EB00000EBC00300EB430007EE100A9FED116A30
:101EC000114BF8EEC77AD3ED176A9FED107AC7EE83
:101ED000867AB7EE006A77EE867A67EEA67AF4EE37
:101EE000C77AF1EE10FA06DCC3ED007AC3ED0B7A87
:101EF000C3ED167A704783ED007A83ED0B7A83ED9C
:101F0000167A70470000FE42102C001000401C465C
:101F100090ED066AD0ED096AD0ED077A90ED020ADD
:101F20004269B8EE467A16EE101AE6EE877A4B1C36
:101F3000934210B527EE800A0446836180ED0A0AB9
:101F40002FD3DFED187A90ED000AD0ED010A026A76
:101F5000C261C7EEA00A0023836187EE800AC0ED4C
:101F6000040A80ED030A02F083F9BCEEC00AF7EE22
:101F7000000A84ED050ABFEE000A02F079F994ED3B
:101F8000077A94ED056AF0EE407AC4ED087A77EEB0
:101F9000C77AB8EE467A94ED0A0AC7EE877AC4ED9E
:101FA000097A10BD0080BB4610B5274C94ED1C6A21
:101FB000D4ED1F6AD4ED1D7A94ED180AE26EB8EEE6
:101FC000467A16EE101AE6EE877A4B1C9342236788
:101FD00027EE800A84ED200A34D3D4ED176ADFEDB2
:101FE0001B7A94ED167AA26F626787EE877A0023D8
:101FF0002367C7EEA67AB0EE470AF0EE670A84EDD3
:10200000197AC4ED1A7A02F033F9BCEEC00AF7EE81
:10201000000A10EE103ABFEE000AE36602F028F95B
:1020200094ED1D7A94ED1B6AF0EE407AC4ED1E7AB1
:1020300077EEC77AB8EE467A94ED200AC7EE877A33
:10204000C4ED1F7A10BD00BF102C00100080BB46ED
:1020500010B5274C94ED116AD4ED146AD4ED127AC0
:1020600094ED0D0A226CB8EE467A16EE101AE6EEE2
:10207000877A4B1C9342636427EE800A84ED150A2D
:1020800034D3D4ED0C6ADFED1B7A94ED0B7AE26C5D
:10209000A26487EE877A00236364C7EEA67AB0EE67
:1020A000470AF0EE670A84ED0E7AC4ED0F7A02F06B
:1020B000DFF8BCEEC00AF7EE000A10EE103ABFEEF1
:1020C000000A236402F0D4F894ED127A94ED106AB9
:1020D000F0EE407AC4ED137A77EEC77AB8EE467A1E
:1020E00094ED150AC7EE877AC4ED147A10BD00BFCF
:1020F000102C00100080BB462DE9F8432DED028B1B
:10210000DFED488A9FED488A484C494FC4ED198A53
:1021100000254FF081494FF080480026F0EE480A34
:10212000B0EE680A84ED1A8AA5676567C4F858900E
:10213000C4F85C802766266702F09AF8BCEEC00AF5
:10214000F7EE000A10EE103ABFEE000AE36602F066
:102150008FF8D4ED1B6AD4ED1D7A84ED1E0AB8EE1B
:10216000667A70EE677AF0EE480AC7EE877A6664A0
:10217000E564C4F82C90C4F830806763A564B0EEC1
:10218000680AC4ED1F7AC4ED0E8A84ED0F8A02F04E
:102190006FF8BCEEC00AF7EE000A10EE103ABFEE80
:1021A000000A236402F064F8D4ED106AD4ED127AC8
:1021B00084ED130AB8EE667A70EE677AF0EE480A9C
:1021C000C7EE877AA6612562C4F80090C4F804803F
:1021D000A760E561B0EE680AC4ED147AC4ED038A25
:1021E00084ED048A02F044F8BCEEC00AF7EE000A5F
:1021F00010EE103ABFEE000A636102F039F8D4ED38
:10220000077A94ED057A84ED080A30EE670AF8EE55
:10221000477ABDEC028B80EE270A84ED090ABDE8FF
:10222000F88300BF0080BB4500803B46102C0010A7
:102230000AD7233C064B1A7822B1002202201A70DA
:10224000FEF760BA012202201A70FEF74FBA00BFF3
:10225000A83D0120704700BF00B5002083B0FEF705
:102260001FFA0120FEF71CFA0220FEF719FA0320DC
:10227000FEF716FA00200146FEF750FA03F04CF87C
:1022800001F0E2FF02F03EFEFFF706F90020FEF744
:1022900085FA00B9FEE70949094B009300240C7048
:1022A0000848094A094B012104F0CCFF05480649BA
:1022B00005F0E8F80120FEF769F9F7E7A40000202F
:1022C00010000020404B0120EC50012000000020B5
:1022D00008B507EE900AB8EEE77ADFED087A2DED43
:1022E000028BB0EE408A80EE800AC7EE270A06F025
:1022F00059FD20EE080ABDEC028B08BD0000FE422D
:1023000020EE000ADFED0A7ADFED0A6A9FED0A7A15
:10231000B2EE0E6AE0EE067A70EE266AB0EE476A1A
:10232000A7EE806AA6EE807A87EE060A704700BFA5
:102330000000D2430000D24200406C44DFED0F7A2F
:10234000B4EEE70AF1EE10FA14D4DFED0D7AB4EE34
:10235000E70AF1EE10FA0ADCDFED0A7A9FED0A7A5D
:10236000E0EE007A20EE070A80EE270A7047B7EE0B
:10237000000A7047BFEE000A704700BF9A99F9BF84
:102380009A99F93FAE478940CDCC8440F6EE007A69
:1023900060EE277A9FED0C7A9FED0C6ADFED0C6AF8
:1023A00067EEA77AF2EE0E5AA7EEA57A37EE866AA6
:1023B000F0EE665AE7EE875AE7EE866AC6EEA56A41
:1023C00020EE260A704700BF0000D2430000D24230
:1023D00000406C4470EE006A60EE007AB9EE047A58
:1023E000A6EE807A67EE807AFAEE0E6AE0EE267A42
:1023F000F0EE086A27EE260A87EE800A704700BFD3
:1024000008B57F2002F046FC01F048FFFFF790FC82
:1024100001F044FFFFF7B6FC7F2002F04FFC01F013
:102420003DFFFFF75DF901F039FFFFF779F901F0A2
:1024300035FFFFF7A7F901F031FFFFF787F901F04A
:102440002DFFFFF7B5F901F029FFBDE80840FFF7C0
:10245000CFB900BF08B501F021FF02F017FA01F073
:102460001DFF02F0FDF901F019FF02F0B1F901F0D2
:1024700015FF02F0D3F901F011FF02F0E5F901F0C8
:102480000DFF02F06FF901F009FF02F021FC02F0EC
:102490000BFB10285ED00F287DD001F0FFFE01F06D
:1024A00079FF01F0FBFE01F0B1FF01F0F7FE01F052
:1024B000CDFF01F0F3FE01F0DFFF01F0EFFE02F0CF
:1024C00045FB01F0EBFE02F051FB01F0E7FE01F0ED
:1024D000E7FF01F0E3FE02F01FF801F0DFFE02F07B
:1024E0003BF801F0DBFE02F04DF801F0D7FE02F000
:1024F0004DFB01F0D3FE02F059FB01F0CFFE02F0DC
:10250000D3FBDFED2D0A9FED2D0A01F0B1FE06F0A1
:1025100059FBC0B2FEF7F0FE01F0C0FEFEF70CFF63
:1025200001F0BCFEFEF72EFF01F0B8FEFEF73AFF09
:1025300001F0B4FE02F04AFB01F0B0FE02F056FBDF
:1025400001F0ACFE02F0E2FA01F0A8FEBDE808409E
:1025500002F0ECBA01F0A2FE02F0D8FB01F09EFE00
:1025600002F0DAFB01F09AFE02F0DCFB01F096FECD
:1025700002F022FC01F092FE02F024FC01F08EFE3B
:1025800002F032FC01F08AFE02F06CFC01F086FEE3
:1025900002F07AFC81E701F081FEFFF753FC01F0C5
:1025A0007DFEFFF765FC01F079FEFFF781FC01F08D
:1025B00075FE00F08FFA70E733334B4100000000E6
:1025C00007EE900AB8EEE77ADFED187AB4EE677A94
:1025D000F1EE10FA08B500D008BD7F2002F05AFBDA
:1025E00001F05CFEFFF7A4FB01F058FEFFF7CAFB09
:1025F0007F2002F063FB01F051FEFFF771F801F05C
:102600004DFEFFF78DF801F049FEFFF7BBF801F032
:1026100045FEFFF79BF801F041FEFFF7C9F801F016
:102620003DFEBDE80840FFF7E3B800BF0000FE42F2
:1026300007EE900AB8EEE77ADFED047AB4EE677A37
:10264000F1EE10FA00D07047FFF704BF0000FE4221
:1026500010B54378044603B910BD03200821FEF7E6
:10266000A7F8637803F0F003B02BF5D1A378E078F6
:10267000023B752BF0D801A252F823F0812A000802
:10268000892A000859260008912A0008992A00087A
:10269000592600089D280008A5280008592600088A
:1026A0005926000855280008B92A0008C12A000840
:1026B000C92A000851290008592900086129000881
:1026C0006929000871290008792900088129000872
:1026D000892900089129000899290008A1290008E2
:1026E000A9290008B1290008B9290008C129000852
:1026F000C929000859260008FD2800080B290008F0
:102700003729000845290008DD2800085D28000851
:102710007D280008E5280008ED280008F5280008B5
:1027200017290008592600085926000859260008CC
:102730005926000859260008592600081F290008B4
:10274000272900082F2900089D280008A52800082F
:1027500055280008AD280008B5280008BD28000845
:10276000C5280008CD280008D5280008D129000870
:102770005926000859260008D9290008E12900082F
:10278000E92900085926000859260008592600089A
:10279000592600085926000859260008592600081D
:1027A00059260008F1290008592600085926000872
:1027B00059260008592600085D2800087D280008D1
:1027C0005926000859260008092A0008112A00087D
:1027D000192A0008212A000859260008292A000879
:1027E000312A0008392A0008412A0008492A00082D
:1027F000512A0008592A0008612A000859260008B1
:1028000059260008592600085926000859260008AC
:102810005926000859260008692A0008712A00086C
:1028200059260008792A0008012A0008F929000819
:10283000592600085926000859260008592600087C
:102840005926000859260008B12A0008A92A0008BC
:10285000A12A0008BDE8104001F0F8BD07EE900A7B
:10286000B8EEE77ADFED9A7AB4EE677AF1EE10FA15
:102870007FF4F2AEBDE81040FFF7C2BD07EE900A4C
:10288000B8EEE77ADFED927AB4EE677AF1EE10FAFD
:102890007FF4E2AEBDE81040FFF7DCBDBDE81040BC
:1028A00001F078BDBDE8104001F0B0BDBDE81040BA
:1028B00001F0E2BDBDE8104002F028B9BDE81040CB
:1028C00002F034B9BDE81040FFF7BCBABDE81040D3
:1028D000FFF7CEBABDE81040FFF7EABABDE81040F6
:1028E000FEF724BEBDE81040FFF7F6B9BDE8104082
:1028F000FFF7C4B9BDE8104001F034BF0146BDE8A0
:1029000010406FF0010001F051BF0146BDE81040DA
:10291000022001F04BBFBDE81040FEF7EDBCBDE862
:102920001040FEF709BDBDE81040FEF72BBDBDE825
:102930001040FEF737BD0146BDE810406FF00600BD
:1029400001F034BF0146BDE81040072001F02EBF62
:10295000BDE8104002F03AB9BDE8104002F046B9B7
:10296000BDE81040FEF7BCBEBDE81040FEF7D8BE83
:10297000BDE81040FEF706BFBDE81040FEF7E6BE1A
:10298000BDE8104002F066B9BDE8104002F082B91F
:10299000BDE8104001F04CBFBDE8104001F054BF4D
:1029A000BDE8104001F03ABFBDE8104002F07CB92C
:1029B000BDE8104002F082B9BDE81040FEF7F8BE55
:1029C000BDE81040FEF714BFBDE8104002F01EB98C
:1029D000BDE8104000F07EB8BDE8104002F0B6B887
:1029E000BDE8104002F0C2B8BDE8104002F062B885
:1029F000BDE8104002F074B8BDE8104002F04ABAD9
:102A0000BDE8104002F0F6B9BDE8104002F07EB912
:102A1000BDE8104002F086B9BDE8104002F0D2B91E
:102A2000BDE8104002F01EBABDE8104001F038BD0C
:102A3000BDE8104001F070BDBDE8104001F08CBD54
:102A4000BDE8104001F09EBDBDE8104002F064B941
:102A5000BDE8104002F0B0B9BDE8104002F0C4B9C2
:102A6000BDE8104002F010BABDE8104002F08EB888
:102A7000BDE8104002F09AB8BDE8104002F064B919
:102A8000BDE8104001F002BFBDE8104001F0E8BE13
:102A9000BDE8104001F09CBEBDE8104002F018B93E
:102AA000BDE8104002F012BABDE8104002F0BEB915
:102AB000BDE8104002F064B9BDE81040FEF720BD4B
:102AC000BDE81040FFF734B9BDE81040FFF75AB930
:102AD0000000FE4208B5B7EE000ADFED040AFFF77A
:102AE000F7FB034B83ED000A08BD00BF0080BB4528
:102AF000A800002038B5C148C14DC24C2DED028B55
:102B0000FFF706FAF7EE008AD5ED007ABE48B3EE7D
:102B1000098A30EE280AB0EE487AA0EE277A84EDD2
:102B2000027AFFF7F5F9D5ED007AB84830EE280AB9
:102B3000B0EE487AA0EE277A84ED0A7AFFF7E8F93A
:102B400095ED007AD4ED037A30EE280AF0EE486A6B
:102B5000E0EE076AF5EEC07AF1EE10FAC4ED126A03
:102B600008D59FEDAB7A77EE877AF5EEC07AF1EE75
:102B700010FAF8D49FEDA67AF4EEC77AF1EE10FAC7
:102B800006DB77EEC77AF4EEC77AF1EE10FAF8DAE0
:102B900094ED026A9FED9F7A9A4BB4EEC76AF1EE0C
:102BA00010FA40F1FE809FED9C7ADFED9C5A26EEF4
:102BB000077AB4EEE57AF1EE10FA00F2F480B0EEA6
:102BC000657AB4EEE77AF1EE10FAC3ED045A00F339
:102BD000F2809FED935A94ED004ADFED8D4AF0EEBE
:102BE000005AA7EEA55A74EEC74A75EE475A65EE2D
:102BF000845AC5EEA45A9FED8B5A94ED0B7AC4ED1E
:102C0000075AE6EE057AB5EEC07AF1EE10FAC4ED99
:102C1000037A08D5DFED7E7A37EE277AB5EEC07AF3
:102C2000F1EE10FAF8D4DFED7A7AB4EEE77AF1EE4D
:102C300010FA06DB37EE677AB4EEE77AF1EE10FAB7
:102C4000F8DA94ED0A6ADFED737A6E4BB4EEE76A58
:102C5000F1EE10FA40F18E80DFED6F7A9FED6F5A42
:102C600066EE277AF4EEC57AF1EE10FA00F284806F
:102C7000F0EE457AB4EEE77AF1EE10FA83ED0C5AF5
:102C800000F182809FED665A94ED084ADFED604ABC
:102C9000F0EE003AA7EE235A74EEE74A35EE670AE3
:102CA00020EE040A80EE240A9FED5E5AD4ED137ADA
:102CB00084ED0F0AA6EE057AF5EEC07AF1EE10FA71
:102CC00075EE805A84ED0B7A08D59FED517A77EE38
:102CD000877AF5EEC07AF1EE10FAF8D49FED4C7ACF
:102CE000F4EEC77AF1EE10FA06DB77EEC77AF4EE6F
:102CF000C77AF1EE10FAF8DA9FED467AF4EEC76A79
:102D0000F1EE10FA64D59FED447A9FED446A26EE09
:102D1000877AB4EEC67AF1EE10FA5BD8B0EE467A56
:102D2000F4EEC77AF1EE10FA84ED146A59D49FEDEF
:102D30003C6A9FED375AD4ED104AB0EE004AA7EE38
:102D4000846A35EE475A36EE477A27EE247A87EEC4
:102D5000057ABDEC028B9FED335A9FED336A84ED0B
:102D6000177AE6EE857A35EE870AC4ED137A20EEFF
:102D7000060A38BDDFED2D7AB4EEE77AF1EE10FAEF
:102D8000C3ED0C7A7FF57EAFB8EE005AC5EE277A18
:102D9000B7EE005AA7EE275A94ED080A25EE000A6E
:102DA00082E79FED227AB4EEE77AF1EE10FA83ED36
:102DB000047A7FF70EAFF8EE005A85EE877AF7EEC9
:102DC000005AE7EE875A94ED007A65EE875A12E7CB
:102DD0009FED167AF4EEC77AF1EE10FA84ED147ACC
:102DE000A5D5B8EE006A86EE077AB7EE006AA7EEC0
:102DF000876A94ED107A26EE077AAAE7682C00100D
:102E0000A8000020942C00103C2C0010102C001066
:102E1000DB0FC9400000FA452EE3CD3917B7D13892
:102E2000DB0FC9C01F420939C3F5A83EDB0F49407B
:102E300010B5B6EE000A0446DFED030A0846FFF7B8
:102E400047FA84ED020A10BD0000FA4507EE901A19
:102E5000F8EEE76ADFED067A9FED067A66EEA77A6E
:102E6000C7EE877A67EEA77AC0ED057A704700BF94
:102E70003333B33F0000FE4238B5924CDFED927A17
:102E800094ED0E7AD4ED0D4ADFED905AD4ED0B6A35
:102E900094ED165A94ED1E6A84ED020A20EE077A2C
:102EA00064EEA77A25EE005AE7EE257A26EE006A50
:102EB00077EEA67A2DED028BF5EEC07AF1EE10FAE0
:102EC00084ED125A84ED1A6A84ED0A7AC4ED0B7A05
:102ED0000AD59FED7F7A77EE877AF5EEC07AF1EE2C
:102EE00010FAF8D4C4ED0B7A9FED797AF4EEC77A34
:102EF000F1EE10FA08DB77EEC77AF4EEC77AF1EE5E
:102F000010FAF8DAC4ED0B7A9FED720A94ED088A94
:102F1000714D27EE800A05F055FE05EB800090ED1F
:102F2000007AD4ED057AD4ED025A9FED686AD4EDAB
:102F3000036A28EE077A67EE277A84ED0F7AE5EECA
:102F4000867A77EEA67AF5EEC07AF1EE10FAC4ED45
:102F5000037A0AD59FED5E7A77EE877AF5EEC07A2E
:102F6000F1EE10FAF8D4C4ED037A9FED597AF4EE3D
:102F7000C77AF1EE10FA08DB77EEC77AF4EEC77A7B
:102F8000F1EE10FAF8DAC4ED037A9FED520A94EDEF
:102F9000008A27EE800A05F015FED4ED1D5ADFEDFC
:102FA0004A7A9FED4A7A94ED1A6AD4ED1B6A65EE6F
:102FB000A77A05EB8000E6EE077A90ED007A77EECF
:102FC000A67A28EE078AF5EEC07AF1EE10FAC4ED83
:102FD0001B7A84ED078A0AD59FED3D7A77EE877AD2
:102FE000F5EEC07AF1EE10FAF8D4C4ED1B7A9FED3D
:102FF000387AF4EEC77AF1EE10FA08DB77EEC77A8A
:10300000F4EEC77AF1EE10FAF8DAC4ED1B7A9FED10
:10301000310A94ED188A27EE800A05F0D3FD05EBFE
:10302000800090ED007AD4ED157AD4ED125A9FED20
:10303000276AD4ED136A28EE077A67EE277A84EDC3
:103040001F7AE5EE867A77EEA67AF5EEC07AF1EE93
:1030500010FAC4ED137A0AD59FED1D7A77EE877AC0
:10306000F5EEC07AF1EE10FAF8D4C4ED137A9FEDC4
:10307000187AF4EEC77AF1EE10FA08DB77EEC77A29
:10308000F4EEC77AF1EE10FAF8DAC4ED137A9FED98
:10309000110A94ED108A27EE800A05F093FD05EBE6
:1030A0008000D0ED007A94ED070A68EE277ABDEC37
:1030B000028B37EE800AB6EE007A20EE070AC4EDE6
:1030C000177A38BD942C0010000000001F42093907
:1030D000DB0FC94083F9224394B1000810B5D0ED4D
:1030E000037AF5EEC07AF1EE10FA2DED028B04466C
:1030F0000AD59FED1C7A77EE877AF5EEC07AF1EE6D
:1031000010FAF8D4C4ED037A9FED167AF4EEC77A7C
:10311000F1EE10FA08DB77EEC77AF4EEC77AF1EE3B
:1031200010FAF8DAC4ED037A9FED0F0A94ED008AE5
:1031300027EE800A05F046FD0C4BD4ED037AD4ED62
:10314000026A9FED0B7A03EB800090ED000A28EEF7
:10315000000ABDEC028BE6EE877A84ED070AC4ED27
:10316000037A10BDDB0FC94083F9224394B10008F4
:103170001F42093910B5D0ED037AF5EEC07AF1EEB1
:1031800010FA2DED028B04460AD59FED207A77EEDA
:10319000877AF5EEC07AF1EE10FAF8D4C4ED037A2E
:1031A0009FED1A7AF4EEC77AF1EE10FA08DB77EEAB
:1031B000C77AF4EEC77AF1EE10FAF8DAC4ED037AC2
:1031C0009FED130A94ED008A27EE800AF6EE007A4E
:1031D00028EE278A05F0F6FC0E4BD4ED037AD4EDE9
:1031E000026A9FED0D7A03EB800090ED000AB7EEC6
:1031F000006A30EE060AE6EE877A28EE000ABDEC99
:10320000028BC4ED037A84ED070A10BDDB0FC940C1
:1032100083F9224394B100081F4209392DE9F04196
:10322000164D00234FF07E529846C5F8B030C5F8D1
:10323000AC30C5F88420C5F8802005F1880405F17C
:10324000B40605F1AC079FED0E0ADFED0E0A01F0A2
:103250000FF8A4EC010AD5ED207A46F8048B30EE85
:10326000270ABC42054B85ED200AECD1F7EE007A27
:1032700087EE800A83ED200ABDE8F081942C0010CF
:103280006F12833A48E17A3F00234FF07E5280ED7F
:10329000000A80ED010AC0ED020A8261C360C361C9
:1032A0004361704738B5DD4C2DED028B84ED020A89
:1032B000B0EE408A102800F23686DFE810F02905CB
:1032C00017007905AE045E0034063406C105F90521
:1032D000F204AB00E402B800D7019103A804110086
:1032E000BDEC028BBDE83840FFF7C6BDDFEDCC7A00
:1032F000B4EEE70AF1EE10FA00F16387DFEDC97A68
:10330000B4EEE70AD4ED037AF1EE10FAF5EEC07AE6
:1033100040F18286F1EE10FA08D59FEDD37A77EE70
:10332000877AF5EEC07AF1EE10FAF8D49FEDCE7AF6
:10333000F4EEC77AF1EE10FA06DB77EEC77AF4EE18
:10334000C77AF1EE10FAF8DA9FEDC17A94ED000A2F
:10335000F4EEC77A87EE877AF1EE10FA4FBFF6EEF9
:10336000006AB0EE006AF6EE006A37EE467A20EEAA
:10337000260A20EE070A00F0CBBDAB499FEDAB6AF1
:103380009FEDAB5A9FEDB87AAA4D9FEDAB4ADFEDAA
:10339000B54A01F12C02012307EE903AF8EEE76AF4
:1033A00068EE267AF4EEC57AF1EE10FA27D5F2EC43
:1033B000017AF4EEC77AF1EE10FA08DB77EEC77AFD
:1033C000F4EEC77AF1EE10FAF8DA42ED017A67EE20
:1033D000845A66EEA46AFCEEE55AE8EE267A0133DA
:1033E0000B2B15EE900A80B205EB8000D0ED006A41
:1033F000F1EC015A42ED017AA5EEA66ACCD194ED2A
:10340000207AD4ED007A26EE076A26EE270A84EDAC
:10341000070A09E09FED890ADFED890A94ED008A29
:1034200000F026FF28EE000ABDEC028B38BD9FEDB0
:10343000856AD4ED037AF7EE086A20EE066A60EE3C
:10344000266AF5EEC07AF1EE10FA84ED0A6AC4ED50
:10345000126A08D59FED847A77EE877AF5EEC07A06
:10346000F1EE10FAF8D49FED807AF4EEC77AF1EE1F
:1034700010FA06DB77EEC77AF4EEC77AF1EE10FAAF
:10348000F8DA9FED747AB4EEC78AF1EE10FA00F123
:10349000B1859FED6F7A84ED047AF4EEC77AF1EE90
:1034A00010FA00F107869FED6E5ADFED6F5AD4EDEA
:1034B000004AB0EE004AA7EE845A75EEC75A35EEC0
:1034C000477A27EE247AC7EE255A9FED665A94ED87
:1034D0000B7AC4ED075AE8EE057AB5EEC07AF1EE44
:1034E00010FAC4ED037A08D5DFED5F7A37EE277A5C
:1034F000B5EEC07AF1EE10FAF8D4DFED5B7AB4EEF7
:10350000E77AF1EE10FA06DB37EE677AB4EEE77A87
:10351000F1EE10FAF8DADFED4F7AB4EEE76AF1EE89
:1035200010FA40F1C185DFED4C7A9FED4C5A66EE02
:10353000277AF4EEC57AF1EE10FA00F2B785F0EED4
:10354000457A84ED0C5AB4EEE77AF1EE10FA00F108
:10355000BF85DFED434A9FED445A94ED084AF0EEF3
:10356000003AE7EE234A35EE675A74EEE77A67EEE3
:10357000847A87EE855ADFED3B4AD4ED137A84EDE9
:103580000F5AA6EE247AF5EEC07AF1EE10FA75EE37
:10359000855A84ED0B7A08D59FED337A77EE877ADA
:1035A000F5EEC07AF1EE10FAF8D49FED2F7AF4EE32
:1035B000C77AF1EE10FA06DB77EEC77AF4EEC77A37
:1035C000F1EE10FAF8DA9FED237AF4EEC76AF1EE25
:1035D00010FA40F163859FED207A9FED206A26EE78
:1035E000877AB4EEC67AF1EE10FA00F25985B0EEA1
:1035F000467A84ED146AF4EEC77AF1EE10FA40F1DF
:103600001F81B8EE006A86EE077AB7EE006AA7EE71
:10361000876A94ED107A26EE077A23E1942C001045
:103620000000484300001644182D00100000000060
:103630000080BB4694B1000883F92243CDCC4CBF37
:10364000CDCC4C3FAE47A13FB537983FC3F5A83E20
:10365000DB0F49400000FA452EE3CD3917B7D138CA
:10366000DB0FC9C01F420939DB0FC9401FED0A6AD1
:10367000D4ED037AF7EE086A20EE066A60EE266A59
:10368000F5EEC07AF1EE10FA84ED0A6AC4ED126A22
:1036900008D51FED0B7A77EE877AF5EEC07AF1EE5A
:1036A00010FAF8D41FED107AF4EEC77AF1EE10FAA2
:1036B00006DB77EEC77AF4EEC77AF1EE10FAF8DAA5
:1036C0001FED1C7AB4EEC78AF1EE10FA00F16F8498
:1036D0001FED217A84ED047AF4EEC77AF1EE10FA48
:1036E00000F104851FED225A5FED215AD4ED004A06
:1036F000B0EE004AA7EE845A75EEC75A35EE477A07
:1037000027EE247AC7EE255A1FED2A5A94ED0B7A3C
:10371000C4ED075AE8EE057AB5EEC07AF1EE10FA7C
:10372000C4ED037A08D55FED307A37EE277AB5EE2F
:10373000C07AF1EE10FAF8D45FED357AB4EEE77A9C
:10374000F1EE10FA06DB37EE677AB4EEE77AF1EEC7
:1037500010FAF8DA5FED417AB4EEE76AF1EE10FAAA
:1037600040F181845FED447A1FED445A66EE277A7A
:10377000F4EEC57AF1EE10FA00F27784F0EE457AB5
:1037800084ED0C5AF4EEC77AF1EE10FA00F3F084EF
:103790005FED4D4A1FED4C5A94ED084AF0EE003AA9
:1037A000E7EE234A35EE675A74EEE77A67EE847ADD
:1037B00087EE855A5FED554AD4ED137A84ED0F5AA2
:1037C000A6EE247AF5EEC07AF1EE10FA75EE855A7F
:1037D00084ED0B7A08D51FED5C7A77EE877AF5EEEB
:1037E000C07AF1EE10FAF8D41FED617AF4EEC77AE0
:1037F000F1EE10FA06DB77EEC77AF4EEC77AF1EE57
:1038000010FAF8DA1FED6D7AF4EEC76AF1EE10FAED
:1038100040F12F841FED707A1FED706A26EE877AD3
:10382000B4EEC67AF1EE10FA00F22584B0EE467AD4
:1038300084ED146AB4EEE77AF1EE10FA3FF7E1AEE8
:103840001FED796A1FED785AD4ED104AB0EE004AA8
:10385000A7EE846A35EE475A36EE477A27EE247A89
:1038600087EE057ABDEC028B1FED825A1FED896A47
:1038700084ED177AE6EE857A35EE877AC4ED137A11
:1038800027EE060A38BD94ED037AF7EE086A60EE7B
:10389000266AB5EEC07AF1EE10FAC4ED0A6A08D5D0
:1038A0005FED8F7A37EE277AB5EEC07AF1EE10FA37
:1038B000F8D45FED937AB4EEE77AF1EE10FA06DB16
:1038C00037EE677AB4EEE77AF1EE10FAF8DA5FEDE8
:1038D0009F7AB4EEE78AF1EE10FA00F157835FEDBC
:1038E000A47AC4ED047AB4EEE77AF1EE10FA00F1AE
:1038F0004D845FEDA55A1FEDA46A94ED005AF0EED9
:10390000004AE7EE245A36EE676A75EEE77A67EE0C
:10391000857A87EE866A5FEDAD5AD4ED0B7A84ED39
:10392000076AA8EE257AF5EEC07AF1EE10FA84ED7A
:10393000037A08D51FEDB47A77EE877AF5EEC07A70
:10394000F1EE10FAF8D41FEDB87AF4EEC77AF1EE82
:1039500010FA06DB77EEC77AF4EEC77AF1EE10FACA
:10396000F8DA1FEDC47AF4EEC76AF1EE10FA40F10E
:1039700086831FEDC77A5FEDC75A26EE877AB4EECD
:10398000E57AF1EE10FA00F27C83B0EE657AC4EDD0
:103990000C5AF4EEC77AF1EE10FA00F1B5835FED40
:1039A000D05A1FEDCF5AD4ED084AB0EE004AE7EEE8
:1039B000845A35EE475A35EEC77A27EE247A87EED9
:1039C000057A5FEDD85A84ED0F7AE6EEA57A36EEE9
:1039D000077AF6EE006A27EE260AC4ED0B7A23E595
:1039E000FEF7E2FAF7EE008A30EE280A60EE087A77
:1039F000C4ED0A7AFEF72CFBD4ED037A30EE280AE8
:103A0000F5EEC07A20EE088AF1EE10FA84ED128A03
:103A100008D51FEDEB7A77EE877AF5EEC07AF1EEF6
:103A200010FAF8D41FEDF07AF4EEC77AF1EE10FA3E
:103A300006DB77EEC77AF4EEC77AF1EE10FAF8DA21
:103A4000D4ED026A9FEDED7AED4BF4EEC76AF1EE2C
:103A500010FA00F1BE829FEDEB7A83ED047AF4EE6A
:103A6000C77AF1EE10FA00F17683DFEDE75A9FEDA9
:103A7000EC6A94ED005AF0EE004AE7EEA45A36EEF6
:103A8000476A35EEC77A27EE057A87EE066ADFEDDC
:103A9000E65A94ED0B7A84ED076AE6EEA57AB5EE68
:103AA000C07AF1EE10FAC4ED037A08D5DFEDDC7AC6
:103AB00037EE277AB5EEC07AF1EE10FAF8D4DFEDE2
:103AC000D87AB4EEE77AF1EE10FA06DB37EE677AD1
:103AD000B4EEE77AF1EE10FAF8DAD4ED0A6ADFED27
:103AE000C77AC74BF4EEE76AF1EE10FA40F1D182E3
:103AF000DFEDCE7ADFEDCE5A66EEA77AF4EEE57A08
:103B0000F1EE10FA00F2C782F0EE657AC3ED0C5ABE
:103B1000B4EEE77AF1EE10FA00F146839FEDBA5A5F
:103B2000DFEDBF5AD4ED084AB0EE004AA7EE045AC2
:103B300075EEE75A75EE677A67EEA47AC7EEA55A76
:103B40009FEDB95AD4ED137AC4ED0F5AA6EE857ADB
:103B5000F5EEC07AF1EE10FA36EE256A84ED0B7AB6
:103B600008D59FEDAF7A77EE877AF5EEC07AF1EE61
:103B700010FAF8D49FEDAA7AF4EEC77AF1EE10FAB3
:103B800006DB77EEC77AF4EEC77AF1EE10FAF8DAD0
:103B90009FED9A7AB4EEC78AF1EE10FA40F1748282
:103BA0009FEDA27ADFEDA26A28EE077AB4EEE67AFC
:103BB000F1EE10FA00F26A82B0EE667AC4ED146A91
:103BC000B4EEE77AF1EE10FA00F3B882DFED8E6A18
:103BD000DFED935A94ED105AF0EE004AE7EEA46A36
:103BE00075EEC75A36EEC77A27EE057A87EE257A44
:103BF000DFED8D5ADFED856A84ED177AE8EE257AE0
:103C000036EE077AC4ED137A27EE260A0CE4BDECF3
:103C1000028BBDE83840FEF76DBFD4ED037AF5EEB8
:103C2000C07AF1EE10FA0AD59FED7D7A77EE877AA9
:103C3000F5EEC07AF1EE10FAF8D4C4ED037A9FEDF8
:103C4000787AF4EEC77AF1EE10FA08DB77EEC77AED
:103C5000F4EEC77AF1EE10FAF8DAC4ED037A9FEDCC
:103C60006C0A94ED008A27EE800A04F0ABFF694BE2
:103C7000D4ED037A94ED026ADFED6B6A9FED660A7C
:103C800003EB800090ED007A28EE077ABDEC028B02
:103C9000E6EE267A27EE000AC4ED037A84ED077A71
:103CA00038BDD4ED037AF5EEC07AF1EE10FA08D5FE
:103CB0009FED5B7A77EE877AF5EEC07AF1EE10FA37
:103CC000F8D49FED577AF4EEC77AF1EE10FA06DBDE
:103CD00077EEC77AF4EEC77AF1EE10FAF8DA9FEDD4
:103CE000497ADFED516A9FED4D0AF4EEC77AE8EEAE
:103CF000267A94ED007AC4ED037AF1EE10FA58BFFB
:103D0000B1EE477A84ED077A27EE000AFFF78CBB05
:103D1000D4ED037AF5EEC07AF1EE10FA08D59FEDF6
:103D2000407A77EE877AF5EEC07AF1EE10FAF8D4A1
:103D30009FED3B7AF4EEC77AF1EE10FA06DB77EEF0
:103D4000C77AF4EEC77AF1EE10FAF8DA9FED2B7A23
:103D5000B4EEC78AF1EE10FA00F107819FED297ADF
:103D600084ED047AF4EEC77AF1EE10FA00F1D9810D
:103D7000DFED256A9FED2A6AD4ED005AB0EE005AB5
:103D8000E7EE856A36EE476A36EEC77A27EE257A81
:103D900087EE067ADFED246A9FED1F0A84ED077A2D
:103DA000E8EE267A27EE000AC4ED037AFFF73CBB63
:103DB000D4ED038ADFED1A7AF4EEE78AF1EE10FA19
:103DC00006DB78EEE78AF4EEE78AF1EE10FAF8DA2D
:103DD000B0EE680A04F0A8FFDFED136A94ED007AF4
:103DE000DFED0D7AE8EE268A20EE070AC4ED038A9D
:103DF00084ED070A20EE270AFFF716BB0000FA45FC
:103E0000942C0010DB0F4940DB0FC9C0C3F5A83E5E
:103E100083F9224394B10008CDCC4C3F9A99193FC5
:103E2000DB0FC94083F9223F1F4209392EE3CD3908
:103E300017B7D13883F922BFDB0F4940DB0FC940E8
:103E4000D4ED038AF5EEC08AF1EE10FA08D55FEDE5
:103E50000C7A78EEA78AF5EEC08AF1EE10FAF8D463
:103E60005FED117AF4EEE78AF1EE10FA06DB78EEF8
:103E7000E78AF4EEE78AF1EE10FAF8DAB0EE680AB3
:103E800004F052FFD4ED007A1FED197A60EE277A24
:103E9000E8EE078A60EE277AC4ED038A60EE277A9F
:103EA00060EE277A20EE270A84ED070AFFF7BCBAF6
:103EB000D4ED037AF5EEC07AF1EE10FA08D51FEDD5
:103EC000287A77EE877AF5EEC07AF1EE10FAF8D418
:103ED0001FED2D7AF4EEC77AF1EE10FA06DB77EEDD
:103EE000C77AF4EEC77AF1EE10FAF8DA1FED2E7AFF
:103EF000F4EEC77AF1EE10FA00F1AA805FED376AAE
:103F000094ED000AB8EE087AA7EEA67A27EE000A2A
:103F10001FED3B7A84ED070AE8EE077ABDEC028BD1
:103F2000C4ED037A38BDD4ED037AF5EEC07AF1EE34
:103F300010FA0AD51FED3F7A77EE877AF5EEC07A50
:103F4000F1EE10FAF8D4C4ED037A1FED447AF4EEE2
:103F5000C77AF1EE10FAFFF682AE77EEC77AF4EE8A
:103F6000C77AF1EE10FAF8DA77E61FED507A5FEDD6
:103F7000506A28EE077AB4EEE67AF1EE10FA3FF6D0
:103F8000EFAEB0EE667AC4ED046AEBE65FED597A07
:103F90001FED596A68EE277AF4EEC67AF1EE10FA50
:103FA0003FF69FACF0EE467A84ED046A9BE41FED89
:103FB000617A5FED615A28EE077AB4EEE57AF1EEA8
:103FC00010FA3FF687ABB0EE657AC4ED045AFFF7FE
:103FD00083BB1FED6A7A1FED6A6A26EE877AB4EE1C
:103FE000C67AF1EE10FA3FF638ADB0EE467A83EDC0
:103FF000046A34E51FED737A5FED735A28EE077A91
:10400000B4EEE57AF1EE10FA3FF645AAB0EE657A25
:10401000C4ED045AFFF741BAF1EE10FA08D51FEDCE
:10402000797A77EE877AF5EEC07AF1EE10FAF8D465
:104030001FED7E7AF4EEC77AF1EE10FAFFF656AF76
:1040400077EEC77AF4EEC77AF1EE10FAF8DA4DE7B8
:104050005FED886A94ED000AB7EE007AA7EEA67AC3
:1040600027EE000A54E75FED8C7AC4ED0C7AFFF777
:1040700089BB1FED8F7A84ED147AFFF7DBBB1FED50
:10408000927A84ED0C7A84E41FED957A84ED147AAB
:1040900096E55FED977AC3ED0C7A39E51FED9A7AD4
:1040A00084ED147AFFF7A7BA5FED9D7AC4ED0C7A20
:1040B000FFF749BAF8EE005A85EE877AF7EE005A14
:1040C000E7EE875A94ED007A65EE875AFFF7FDB95F
:1040D000B8EE005AC5EE277AB7EE005AA7EE275A77
:1040E000D4ED087A25EE275AFFF745BAF8EE005AC4
:1040F00085EE877AF7EE005AE7EE875A94ED007A5C
:1041000065EE875AFFF700BBF8EE005A85EE877A16
:10411000F7EE005AE7EE875A94ED087A25EE877A93
:104120004FE4F8EE006A86EE877AF7EE006AE7EE73
:10413000876A94ED007A26EE877A2BE6F8EE006A1D
:1041400086EE877AF7EE006AE7EE876A94ED107ADA
:1041500026EE877A4CE5B8EE006A86EE077AB7EE6F
:10416000006AA7EE876A94ED007A26EE076A8EE46D
:10417000B8EE005AC5EE277AB7EE005AA7EE275AD6
:10418000D4ED087A25EE275AFFF714BBB8EE006A83
:10419000C6EE277AB7EE006AA7EE276AD4ED007A5A
:1041A00026EE276AFFF7B7BBF8EE005AC5EEA77AEE
:1041B000F7EE005AE7EE275AD4ED087A65EEA75AD3
:1041C000BEE4D4ED037AF5EEC07AF1EE10FA08D52C
:1041D0001FEDE67A77EE877AF5EEC07AF1EE10FA07
:1041E000F8D41FEDEA7AF4EEC77AF1EE10FA06DBA6
:1041F00077EEC77AF4EEC77AF1EE10FAF8DA9FEDAF
:10420000117AF4EEC77AF1EE10FA87EE877A0ED4BF
:10421000F0EE006A37EE667A94ED006A27EE066AE1
:10422000FEEE006A27EE067A27EE260A70E694ED87
:10423000000AF6EE006A20EE260A20EE070A27EEB4
:10424000000A65E6DB0F4940402008B5012104F073
:1042500065FA012004F09EFA012004F0AFFA00286C
:10426000FAD004F0A5FABDE8084006F02FBE00BF62
:1042700008B52DED028BB0EE408AF0EE608A06F0B4
:104280002DFE07EE900A78EEC88AFAEEE07AB0EEDC
:10429000480AA7EEA80ABDEC028B08BD08B506F0D7
:1042A0001DFE07EE100ADFED067A9FED060ABAEE54
:1042B000E07AA7EE270A04F085FCC0B208BD00BF73
:1042C0000000FE4200000000DFED117AB4EEE70AC4
:1042D000F1EE10FA10B504460ADDDFED0E7A9FED1F
:1042E0000E0AC4ED017AFEF775F884ED020A10BDDE
:1042F000F6EE007A60EE277A9FED080AC4ED017AA7
:1043000027EE800AFEF766F884ED020A10BD00BFB2
:104310003333733F3333F33E4302BF3FDB0F494038
:104320002DE9F8432DED028B9FED168A164CDFF830
:104330005C90DFF85C80C4F80C900025B0EE480A71
:1043400001264FF07857256126706561C4F8188002
:104350006760FEF73FF884ED020AB0EE480AE561B7
:1043600084F8206025636563C4F82C90C4F8388015
:104370006762FEF72FF8BDEC028BE56384ED0A0A55
:10438000BDE8F883DB0FC93EEC2D00106666663F82
:10439000CDCCCC3E10B59FED140ADFED140AFDF72D
:1043A00097FF9FED137ADFED137A134B80EE070A28
:1043B000B4EEE70AF1EE10FA83ED000A0BDD9FED93
:1043C0000F0ADFED0F7A0F4CC4ED017AFEF702F809
:1043D00084ED020A10BDF6EE007A60EE277A9FEDBA
:1043E0000A0A27EE800AEEE70000A0420000FA4524
:1043F00000803B473333733F5C5101204302BF3F92
:104400003333F33EEC2D0010DB0F494007EE900AEA
:104410009FED0B7A0B4BF8EEE76ADFED0B7A86EE39
:10442000877AF7EE006A36EEC77AB4EEE77AF1EEF5
:1044300010FA54BF83ED037AC3ED037A704700BFCF
:104440000000FE42EC2D00100AD7233C07EE900A34
:10445000B8EEE77ADFED067A064BC7EE277AB1EEC3
:10446000087A67EEA77A67EE877AC3ED067A704717
:104470000000FE42EC2D001000EB800007EE900AD9
:10448000B8EEE70ADFED047A08B580EE270A04F0FB
:1044900099FB024B187008BD0000FE42EC2D001085
:1044A00010B59FED140ADFED140AFDF711FF9FED23
:1044B000137ADFED137A134B80EE070AB4EEE70AA6
:1044C000F1EE10FA83ED000A0BDD9FED0F0ADFED30
:1044D0000F7A0F4CC4ED097AFDF77CFF84ED0A0AD0
:1044E00010BDF6EE007A60EE277A9FED0A0A27EEFD
:1044F000800AEEE70000A0420000FA4500803B473A
:104500003333733F605101204302BF3F3333F33EE7
:10451000EC2D0010DB0F494007EE900A9FED0B7A5F
:104520000B4BF8EEE76ADFED0B7A86EE877AF7EE53
:10453000006A36EEC77AB4EEE77AF1EE10FA54BFAD
:1045400083ED0B7AC3ED0B7A704700BF0000FE428B
:10455000EC2D00100AD7233C07EE900AB8EEE77A5C
:10456000DFED067A064BC7EE277AB1EE087A67EEE2
:10457000A77A67EE877AC3ED0E7A70470000FE4295
:10458000EC2D001000EB800007EE900AB8EEE70A71
:10459000DFED057A08B580EE270A04F013FB034B24
:1045A00083F8200008BD00BF0000FE42EC2D001083
:1045B00010B590ED017ADFED697A2DED0A8BB4EE3E
:1045C000E77AF0EE408A90ED060A90ED028AF1EE6D
:1045D00010FAB8BF90ED03AA28EE800A0446A8BFDF
:1045E000B7EE00AAFDF7D2FED4ED076AD4ED047A47
:1045F00094ED057A84ED070A3AEE0ACA70EE266A4F
:1046000067EECC7AF6EE00AAE6EEAA7AF0EE409AD1
:1046100037EEC70A68EE08BA20EE2A0AFDF770FEE8
:10462000B0EE409A94ED040A20EE2A0AFDF768FEE7
:1046300068EE097AB7EE007A37EEA76AB0EE47BAAD
:10464000AAEE06BAF0EE40AA87EE0BBAD4ED057AD0
:10465000D4ED046A2BEE8B6A68EE0B5A26EE096ADB
:1046600065EEAA5A26EE2A6AB0EE660AE6EE297AC6
:1046700036EE077AE5EEA67AC7EE87CAFDF786FE24
:10468000F0EE407A79EEECBA94ED040A6BEE89BA5A
:10469000E8EE2B7A27EE8BBAFDF778FE39EE099A11
:1046A00038EE088A29EE4AAA94ED057A2378EAEED4
:1046B0000BBA013B6AEE88AAA8EE2B0AAAEE8B7A07
:1046C00084ED040A84ED057A042B0AD8DFE803F0B0
:1046D0000330393E2500B0EE6C0AFDF72FFEF0EEF8
:1046E000408AF7EE007AF4EEE78AF1EE10FA06DD82
:1046F000F0EE678AB0EE680ABDEC0A8B10BDFFEEE3
:10470000007AF4EE678AF1EE10FA48BFF0EE678A9D
:10471000B0EE680ABDEC0A8B10BDECEE4B9ADFEDF3
:10472000106A79EEEC8A7CEEE88A68EEA68AD8E711
:10473000ECEE4B9ADFED0A6A79EEEC8A68EEA68A17
:10474000CFE7DFED078A6BEE288ACAE7ECEE4B9ADB
:104750009FED037A69EE878AC3E700BF4B59E63EB7
:10476000AE47613F05EE900ADFED0C7A9FED0C6AD3
:104770000C4BDFED0D6AB8EEE57AD3ED095A67EE22
:10478000277AB8EEE57AC7EE867A77EEA67A67EEF4
:10479000277AFCEEE77AC3ED0C7A7047CCCC4C3F1D
:1047A0000000FE4274510120CDCCCC3D07EE901AA2
:1047B000B8EEE77ADFED047AB4EE677AF1EE10FA3C
:1047C00004BF024B987270470000FE426451012002
:1047D00007EE900AB8EEE70ADFED0C7A08B520EE96
:1047E000270A04F039FABCEEC00A094B10EE102A71
:1047F000D2B20E2A98BF07491A7094BF51F82210FE
:104800000549596001225A7308BD00BF87C3E13DC5
:104810006451012058B1000858AF00083F28034BED
:1048200094BF00200120D872704700BF645101205E
:1048300028B17F2805D1034B01221A737047014B21
:10484000187370476451012028B17F2805D1034BAC
:1048500001229A737047014B98737047645101208D
:1048600007EE900AB8EEE77ADFED067A064B67EEC0
:10487000277A0121FCEEE77A597317EE902A1A7213
:10488000704700BF0402813D6451012007EE900A89
:10489000B8EEE77ADFED0B7ADFED0B6A9FED0B0ADE
:1048A00067EE277AB3EE047AC7EEA67A10B5084C05
:1048B00077EE877A80EE270AC4ED087A04F082F951
:1048C000606210BD0000FA430000FE4200C82F4A9B
:1048D00074510120F8B51B4C1B4D04F111076E6893
:1048E000337800EE903AB7EE000AF8EE600AFFF770
:1048F000BFFC04F067F92B7A9FED140A365C00EEDA
:10490000903AF8EE600AFFF7B3FC04F05BF96A7ABC
:1049100000EB4000153A02EB800333449BB21AB21D
:104920006A2A04DD0C3B9BB21AB26A2AFADC002A1E
:1049300003DA0C339BB21A04FBD404F8013FBC42E7
:10494000CDD1F8BD73510120645101200000000059
:1049500030B4104D104995F90A0001F1110480B2EC
:1049600011F8013B03449BB21AB26A2A04DD0C3BE6
:104970009BB21AB26A2AFADC002A03DA0C339BB221
:104980001A04FBD4A14201F8013CE9D10023AB7227
:1049900030BC70476451012074510120F8B52B4F91
:1049A0002B4B9FED2C0A3B6204F00CF907EE900AAA
:1049B000FAEEEF7A284C294E7862FCEEE77A002373
:1049C00004212422C7ED0C7ABB6287F82C307D1EAF
:1049D000A372E37223736373A373237021726272F1
:1049E00066601037337800EE903AB7EE000AF8EEC2
:1049F000600AFFF73DFC04F0E5F8237A9FED180A02
:104A0000365C00EE903AF8EE600AFFF731FC04F0F5
:104A1000D9F8627A00EB4000153A02EB8003334488
:104A20009BB21AB26A2A04DD0C3B9BB21AB26A2A04
:104A3000FADC002A03DA0C339BB21A04FBD405F823
:104A4000013FBD4201D06668CCE7F8BD745101203A
:104A50000000A04300A00C466451012070AF000884
:104A60000000000010B50F4CA36A5A1E002BA26272
:104A700000DD10BD94F82C3083B100F0C5FA94F835
:104A80002C30626AA2620133DBB20F2B054A84F834
:104A90002C3084BF002382F82C3010BD00F01EFBA8
:104AA000EBE700BF74510120014B1878704700BF3D
:104AB0002C2E001007EE900AB8EEE77ADFED067AAA
:104AC000B4EE677AF1EE10FA04D1044B1A7882F052
:104AD00001021A70704700BF0000FE42A4000020CF
:104AE00007EE900AB8EEE77ADFED067AB4EE677A61
:104AF000F1EE10FA04D1044B1A7882F001021A7018
:104B0000704700BF0000FE42A83D012007EE900A5A
:104B1000B8EEE77ADFED037A034BC7EE277AC3EDF1
:104B2000007A70470000FE426C2D001007EE900ADC
:104B3000B8EEE77ADFED037A034B67EE277AC3ED31
:104B4000027A70470683C13D6C2D001007EE900A73
:104B5000B8EEE77ADFED037A034B67EE277AC3ED11
:104B6000007A70470402813EAC2D001007EE900AD7
:104B7000B8EEE77ADFED037A034B67EE277AC3EDF1
:104B8000027A70470683C13DAC2D001007EE900AF3
:104B9000B8EEE77ADFED037A034B67EE277AC3EDD1
:104BA000007A70470402813E8C2D001007EE900AB7
:104BB000B8EEE77ADFED037A034B67EE277AC3EDB1
:104BC000027A70470683C13D8C2D001007EE900AD3
:104BD000B8EEE77ADFED037A034B67EE277AC3ED91
:104BE000007A70470402813BCC2D001007EE900A3A
:104BF000B8EEE77ADFED037A034B67EE277AC3ED71
:104C0000027A70470683C13DCC2D001070B460B1AC
:104C10007F2808D10C490D4A0D4B4D6854685868DF
:104C20000D601460186070BC70470749074A084B54
:104C30000E6815681C684E60002055605C60086056
:104C40001060186070BC7047942C0010B42C0010D9
:104C5000D42C001007EE900AB8EEE77AF1EE047A51
:104C600067EE277A9FED077A0749084A084BC7EE97
:104C7000877A67EEA77AC1ED007AC2ED007AC3EDBC
:104C8000007A70470000FE42942C0010B42C0010F3
:104C9000D42C00103F28034B94BF002001205870F3
:104CA000704700BF2C2E00103F28034B94BF0020FC
:104CB00001209870704700BF2C2E00103F28034B36
:104CC00094BF00200120D870704700BF2C2E001028
:104CD00007EE900AB8EEE70ADFED0A7A08B520EE93
:104CE000270A03F0B9FFBCEEC00A074A10EE103ADB
:104CF000DBB2042B137003D0BDE80840FEF78EBA78
:104D000008BD00BF2412093E2C2E001001460148A8
:104D1000FEF78EB8942C001001460148FEF796B8B5
:104D2000942C001008B59FED050ADFED050AFDF78C
:104D3000CFFA044B83ED060A08BD00BFCDCC4C3E34
:104D400000000042B42C001007EE900AB8EEE77A9B
:104D5000DFED087AB4EE677AF1EE10FA08D1064B6F
:104D6000DFED067A93ED067A67EE277AC3ED067AD1
:104D7000704700BF0000FE42B42C0010AE47813FD8
:104D800007EE900AB8EEE77ADFED087AB4EE677ABC
:104D9000F1EE10FA08D1064BDFED067A93ED067AB4
:104DA00067EE277AC3ED067A704700BF0000FE4227
:104DB000B42C0010A4707D3F01460148FEF746B8B0
:104DC000B42C001008B59FED050ADFED050AFDF7CC
:104DD0007FFA044B83ED060A08BD00BFCDCC4C3EE4
:104DE00000000042D42C001001460148FEF72EB806
:104DF000D42C001007EE900AB8EEE77ADFED087ABF
:104E0000B4EE677AF1EE10FA08D1064BDFED067AC0
:104E100093ED067A67EE277AC3ED067A704700BFF6
:104E20000000FE42D42C0010AE47813F07EE900AEE
:104E3000B8EEE77ADFED087AB4EE677AF1EE10FAB1
:104E400008D1064BDFED067A93ED067A67EE277AF6
:104E5000C3ED067A704700BF0000FE42D42C00105C
:104E6000A4707D3F08B59FED050ADFED050AFDF74B
:104E70002FFA044B83ED060A08BD00BFCDCC4C3E93
:104E800000000042F42C001001460148FDF7DEBF8F
:104E9000F42C001007EE900AB8EEE77ADFED087AFE
:104EA000B4EE677AF1EE10FA08D1064BDFED067A20
:104EB00093ED067A67EE277AC3ED067A704700BF56
:104EC0000000FE42F42C0010AE47813F07EE900A2E
:104ED000B8EEE77ADFED087AB4EE677AF1EE10FA11
:104EE00008D1064BDFED067A93ED067A67EE277A56
:104EF000C3ED067A704700BF0000FE42F42C00109C
:104F0000A4707D3F08B5314B2DED048B00224FF08E
:104F10007E51596099601A709A70DA705A709FEDDC
:104F20002C9ADFED2C8A9FED2C8AFCF791FEFDF781
:104F3000E3F8FFF733FD2948FCF7B4F9FCF760FB11
:104F4000FFF7EEF92649274A27484FF07A53B0EE8B
:104F5000490AF0EE680A0B601360FEF795F9B0EEAF
:104F6000490AF0EE680A2148FEF78EF9B0EE490AC8
:104F7000F0EE680A1E48FEF787F9B0EE490AF0EE37
:104F8000680A1C48FEF780F9B0EE480A1A48F1EEAC
:104F9000060AFEF779F9B0EE480AF0EE480A17481B
:104FA000FEF772F9B0EE480AF0EE480A1448FEF730
:104FB0006BF9B0EE480AF0EE480A1248FEF764F9C1
:104FC000BDEC048BBDE80840FEF728B92C2E00107C
:104FD000CDCC4C3F00C0124400000000983E0120A0
:104FE0005C51012060510120942C0010B42C001061
:104FF000D42C0010F42C0010CC2D0010AC2D00107F
:105000008C2D00106C2D001038B5294CE37A83BB31
:10501000637B73BBA37B63B1F7EE000A9FED250AA8
:10502000FFF726F903F018FEB5EE400AF1EE10FA8C
:105030003AD02148FCF74CF9204DAB7803BBA37A5A
:105040001B4A23B1517A0B445372FFF781FC1C4B6E
:105050001C4A93F82C109FED170A5B5CDFED1A0ACF
:1050600002EB83031B68EB60FFF702F985ED020A90
:1050700038BDFFF72FFC00236373FEF7CFF8C9E7B5
:10508000F7EE000A9FED110AFFF7F2F8F0EE400A82
:105090009FED0F0A03F086FEDFED0E7A0E4820EE3C
:1050A000270AFFF711F9CAE70348FCF71BF9C3E722
:1050B00064510120CDCCCC3E983E01202C2E001016
:1050C0007451012078AF0008CDCC4C3F00000000A7
:1050D00055550541CDCC4C3CEC2D001008B5074B87
:1050E0001B7813B1064B1B7803B108BD7F20FDF779
:1050F0009FFA7F20BDE80840FDF762BAA4000020B7
:10510000A83D01202DE9F0432DED068B83B0002949
:1051100000F0DD804E1EB6B200EB8606724CDFF862
:10512000E491DFF8F081714F9FED71AA0836051DFB
:105130004CE0A37843B96F48D0ED007AF5EE407AA1
:10514000F1EE10FA40F0B480D7ED007AF5EE407A37
:10515000F1EE10FA40F088806748B0EE480AFFF799
:1051600027FA6648F0EE408AB0EE480AFFF720FAC8
:10517000637838EE800AF6EE007A20EE270A002BDC
:105180006FD1E378002B51D1B0EE407AF7EE007A80
:10519000B4EEE77AF1EE10FA57DDB0EE677A47F633
:1051A000FF72F7EE007AB4EEE70AF1EE10FA8DED39
:1051B000007A69DD47F6FF7325F8042C25F8023CD8
:1051C0000435B542CDED017A00F08180FFF74AFC4D
:1051D0004B48FDF783FFF7EE008AD4ED037A207881
:1051E00030EE280A20EE270AFEF75CF84548B0EEBC
:1051F000409AFCF7F7F84448F0EE409AFDF76EFF4E
:1052000030EE280A94ED028AD9F82420D8F83030FC
:1052100069EE808A9A4228EE888AC4ED018A28EED7
:10522000098A86D33748FCF75DF882E7684601A90A
:10523000FCF74CFC9DED007A9DED010AF7EE007A3B
:10524000B4EEE77AF1EE10FAA7DCFFEE007AB4EEE6
:10525000E77AF1EE10FA3FD5B0EE677A48F2010234
:105260009FE7FCF79FFD8CE72048FDF783FF274B66
:105270002248D3ED007AB7EE007A30EE070A20EE2E
:10528000270AFFF721F867E7FFEE007AB4EEE70A96
:10529000F1EE10FA48BF48F201038DD420EE0A7AED
:1052A000F0EE407ABDEEC77A17EE103A9BB283E774
:1052B000FDF760FF164B1048D3ED007AB7EE007A89
:1052C00030EE070A20EE270AFEF7FEFF3CE703B0A8
:1052D000BDEC068BBDE8F08367EE0A7AFDEEE77A57
:1052E00017EE902A92B25CE72C2E00108C2D001045
:1052F00000FEFF46AC2D0010EC2D00100C2E00100F
:10530000CC2D0010983E01206C2D00106051012022
:105310005C510120745101200C4A0D4B1268A3FB13
:1053200002125209013AB2F1807F10B40CD2094B3B
:1053300009485A60F02480F8234000210722996030
:105340005DF8044B1A607047FEE700BF980000202C
:10535000D34D621010E000E000ED00E0054B1A684C
:105360000AB1013A1A60044B1A680AB1013A1A608C
:10537000704700BFB03D0120AC3D012030B4C5787E
:105380006DB900EB820003339B10D0F8D04006D0FB
:105390002A46013251F8040B20609342F9D10020D3
:1053A00030BC7047033270B49510D0F8D06009D08B
:1053B0000A4600230133346842F8044B9D42F9D178
:1053C00001EB8501084670BC704700BFF0B40124B2
:1053D00040220023A14284708280C37000F0678164
:1053E000002900F051814178C3604FF400620261EE
:1053F0000278002900F06F814FF460654FF48866F1
:105400004FF4806403F5106C03F530670129C0F890
:1054100018C047657ED903F5126C03F5326702297F
:10542000C0F81CC0876575D903F5146C03F53467A3
:105430000329C0F820C0C7656CD903F5166C03F5C5
:1054400036670429C0F824C0076663D903F5186CD1
:1054500003F538670529C0F828C047665AD903F50F
:105460001A6C03F53A670629C0F82CC0876651D933
:1054700003F51C6C03F53C670729C0F830C0C7660C
:1054800048D903F51E6C03F53E670829C0F834C0FF
:1054900007673FD903F5206C03F540670929C0F879
:1054A00038C0476736D903F5226C03F542670A29ED
:1054B000C0F83CC087672DD903F5246C03F5446719
:1054C0000B29C0F840C0C76724D903F5266C03F543
:1054D00046670C29C0F844C0C0F880701AD903F59B
:1054E000286C03F548670D29C0F848C0C0F88470DF
:1054F00010D903F52A6C03F54A670E29C0F84CC091
:10550000C0F8887006D903F52C6703F54C61076570
:10551000C0F88C104461C0F8CC60002A00F0AF8065
:1055200003F5A061012AC0F8901040F2DC8003F579
:10553000A461022AC0F894104BD903F5A861032A8C
:10554000C0F8981045D903F5AC61042AC0F89C1046
:105550003FD903F5B061052AC0F8A01039D903F589
:10556000B461062AC0F8A41033D903F5B861072A3C
:10557000C0F8A8102DD903F5BC61082AC0F8AC10FA
:1055800027D903F5C061092AC0F8B01021D903F565
:10559000C4610A2AC0F8B4101BD903F5C8610B2AEC
:1055A000C0F8B81015D903F5CC610C2AC0F8BC10AE
:1055B0000FD903F5D0610D2AC0F8C01009D903F541
:1055C000D4610E2AC0F8C41003D903F5D861C0F81D
:1055D000C81003F5805403F50051022AC0F8D040EA
:1055E000C0F8D4104BD903F54051032AC0F8D810A5
:1055F00045D903F58041042AC0F8DC103FD903F5F2
:10560000A041052AC0F8E01039D903F5C041062AA7
:10561000C0F8E41033D903F5E041072AC0F8E810D8
:105620002DD903F50041082AC0F8EC1027D903F55D
:105630001041092AC0F8F01021D903F520410A2AA7
:10564000C0F8F4101BD903F530410B2AC0F8F8104C
:1056500015D903F540410C2AC0F8FC100FD903F509
:1056600050410D2AC0F8001109D903F560410E2AF6
:10567000C0F8041103D903F57043C0F80831C0F82D
:105680000C510020F0BC70474FF4A064184FC17259
:105690000C220621C480174D174E184CDFF86CC041
:1056A00002703B464170C760C0F810C0AAE60423F0
:1056B0004FF4A075022408224FF0A047C172437036
:1056C0001946C580047202703B460D4D0D4E0E4CBE
:1056D000DFF83CC0E7E70B464FF460654FF488669F
:1056E0004FF4806416E703F58053C0F8D030C6E766
:1056F00000000440000E0440400404400004044044
:10570000000E005040040050000400500008044007
:105710000008005070B5037AC1680022012B82B0E6
:105720000546164646D0CB68464C43F04003CB6056
:1057300003200192FAF7EAFEEB681A69019206E08B
:10574000FAF7E4FEEB68013C1A69019219D0019A5C
:10575000002A4FF00300F3DA01993A4A41F00101BF
:105760000191019919611969019103E01969019188
:10577000013A02D00199C907F8D40320FAF7C6FE0E
:10578000EB686A7A002A0CBF4FF434124FF474129B
:105790009A631420FAF7FAFEEB78012B07D1EB6835
:1057A0009E68052262F3440646F020069E600020B3
:1057B00002B070BD8A6B437A66F310420BB142F4BB
:1057C00080128A63CB681F4C6FF386136FF3965376
:1057D0006FF351436FF3D343CB6003200023009357
:1057E000FAF794FEEB681A69009206E0FAF78EFE6B
:1057F000EB68013C1A69009218D0009A002A4FF019
:105800000300F3DA00990F4A41F001010091009979
:1058100019611969009103E019690091013A02D0F8
:105820000099C807F8D40320FAF770FEEB78012B33
:10583000BDD1052363F34406EB6846F020069E6065
:10584000AAE700BF400D0300C3689A6842F0010256
:105850009A600020704700BFC3689A6822F0010276
:105860009A600020704700BFC26808B5D36801295C
:105870006FF35D736FF39E7308D009B943F08043F3
:10588000D3603220FAF782FE002008BD43F00053B7
:10589000F6E700BFC368586900F00100704700BF19
:1058A000C3685A6998691040704700BFF0B5044654
:1058B00083B0FAF7D1FDD4F80C3100251D60237AAE
:1058C000012B63691A6816BF012165F3010261F3B8
:1058D00001021A60D4F8CC2013686FF382036FF3CF
:1058E00041036FF3C3036FF3451343F480761660EF
:1058F0000A20FAF74BFED4F8CC306FF308261E606E
:105900001420FAF743FE63691A686FF382021A6083
:10591000E37A012B2F4600F0D480E1680023009346
:10592000009A704B42F020020092009A102060F31F
:105930008A120092009A0A610A69009203E00A69D9
:105940000092013B02D0009A9506F8D40320FAF7A2
:10595000DDFD00230193019AE168624B42F01002E1
:105960000192019A0A610A69019203E00A690192AF
:10597000013B02D0019AD006F8D40320FAF7C6FD05
:105980002378002B69D0D4F890104FF0FF32002319
:105990008A60CB60217801295FD9D4F894108A609D
:1059A000CB602178022958D9D4F898108A60CB604E
:1059B0002178032951D9D4F89C108A60CB602178D2
:1059C00004294AD9D4F8A0108A60CB60217805292F
:1059D00043D9D4F8A4108A60CB60217806293CD939
:1059E000D4F8A8108A60CB602178072935D9D4F87B
:1059F000AC108A60CB60217808292ED9D4F8B01079
:105A00008A60CB602378092B27D9D4F8B4100023FF
:105A10008A60CB6021780A291FD9D4F8B8108A602F
:105A2000CB6021780B2918D9D4F8BC108A60CB60E0
:105A300021780C2911D9D4F8C0108A60CB60217864
:105A40000D290AD9D4F8C4108A60CB6021780E29B8
:105A500003D9D4F8C8108A60CB6001212046FAF738
:105A6000F1FCD4F8CC2013686FF382036FF3410389
:105A70006FF3C3036FF34513D90402D443F4805387
:105A80001360C820FAF782FDE26817484FF0FF3133
:105A900000236FF0804593615161516055619061C1
:105AA000E3789169002B14BF0023102343F00C53BB
:105AB00043F4001343F008030B430020936103B049
:105AC000F0BD2123A122E16863F30F0562F30F0704
:105AD000C0F28005C0F280074B628D62C1F8007190
