:020000040800F2
:100000005CF70120D5AC00082962000825620008D1
:10001000216200081D62000819620008000000004B
:100020000000000000000000000000001562000851
:1000300011620008000000000D6200084160000825
:100040002571000825710008257100082571000838
:10005000257100082571000825710008D16100088C
:1000600025710008257100082571000871BC000881
:100070002571000825710008257100082571000808
:1000800025710008257100082571000825710008F8
:1000900025710008257100082571000825710008E8
:1000A00025710008257100082571000825710008D8
:1000B00045610008257100082571000825710008B8
:1000C00025710008257100082571000825710008B8
:1000D00025710008257100082571000825710008A8
:1000E0002571000825710008257100082571000898
:1000F000257100082571000825710008C9BC000899
:10010000257100082571000825710008816100082B
:100110002571000825710008257100082571000867
:100120002571000825710008257100082571000857
:100130002571000825710008257100082571000847
:1001400025710008257100082571000865BC0008AC
:100150002571000825710008257100082571000827
:100160002571000825710008257100082571000817
:100170002571000825710008257100082571000807
:1001800025710008257100082DE980480020A5B0E0
:1001900006F016FD012006F013FDD84C022006F0F3
:1001A0000FFD032006F00CFD236BD54843F001033F
:1001B000236324AB626C0193019D42F480420123CE
:1001C000626445F8403D0195019900258DF8545031
:1001D0008DF8575006F070FCCA4ACB4B1268A3FB4F
:1001E00002825209013AB2F1807F80F06385C74BE9
:1001F000C7495A60F020072281F823009D601A60E9
:10020000626BC44B42F0400262631A6842F004021F
:100210001A605968BF4AC907FBD59068BE4DDFF820
:100220006CA3BE4CDFEDBE8ADFF86493DFEDBD9AB0
:100230009FEDBD9A0DF048FFBC49BD4ABD4B45F846
:10024000B4AC43F2C82EC1F800E0BB4911600026EF
:1002500000274FF07E58B94A1A60B1EE008A4FF07D
:10026000804BA5F1BC0045F8CC8C45F8C88C05F84E
:10027000C47C05F8C37C05F8C27C05F8C17C05F890
:10028000C07C05F8BF7C05ED2F8A45F8B8BC45F861
:100290009C6C06F055FAA5F1900005ED248A45F80E
:1002A0008CBC45F888AC45F8706C06F049FAA5F1AD
:1002B000640005ED198A45F860BC45F85CAC45F86A
:1002C000446C06F03DFA9FED9E0A9E4B45F8183CA3
:1002D0000BF07EFD07EE100AF8EEC77AB6EE008A44
:1002E00067EE887A0421FCEEE77A2422964B45F8E3
:1002F000140C45F8107C05F80C7CAF71EF712F726F
:100300006F72AF7205F8047C45ED027A29716A714B
:100310002B6006F061FA8D4BC5F818A041F22860F9
:100320004FF0010A05F800A003F23C5080ED008A6E
:1003300003F2345080ED008A41F62830844903F8F6
:1003400000A004F64C20A963066003F5A760814A6B
:10035000016004F63421DFED807A0A6004F644215E
:10036000DFF830E20A6004F63822C2ED007A04F6C3
:100370004822CEF80080DFF820E2C2F800E004F660
:100380003C227648DFF814C2DFF814E2106040F235
:100390007752C3F84025DFF80CB22A6403F24450C8
:1003A00039464FF4AF52CCF800B0CEF800B0EF624F
:1003B0002F636E62EE6185ED058A85ED0F8A85ED0E
:1003C0000D8AC5ED038AC5ED048A0DF033FE39466A
:1003D00005F144004FF4AF520DF02CFE04F6642EEC
:1003E0005F49CEF8006004F6682EDFF8BCC1CEF895
:1003F000006004F5276E5B4DCEF8006004F6842E95
:1004000084F854AACEF8006004F6882E84F874AA02
:10041000CEF8006004F5296EDFF890B1CEF80060E8
:1004200004F52A6EDFF888A1CEF8006004F52B6E83
:10043000C5F800B0CEF8006004F6A82E4A4DCEF8FC
:10044000006004F6AC2EDFF86CB1CEF8008004F545
:10045000266E464FCEF8001004F5286E4448CEF8BC
:1004600000104449DFF850E1CCF800104249CEF8C2
:1004700000A0DFF848A1C1F800A0DFF844C13F495F
:10048000C5F800C0DFF83CA13D4DC1F800A004F65E
:100490006C21C5F800B004F68C2A04F658250F60CC
:1004A0004FF07851CAF80070296004F6782704F6F6
:1004B0005C2A04F67C25DFF810E1DFF810C1CEF8E5
:1004C00000C03960CAF8000004F6942104F69827A9
:1004D00004F69C2A2860DFF8F8C0DFF8F8E0294B22
:1004E000294A0B6004F6B4204FF07A5504F52C61CC
:1004F0003B60CAF80020CCF800506DE000380240A4
:100500000000024000000020D34D621010E000E027
:1005100000ED00E000080650F8100010E83200106E
:100520006F12833A00000030BF9F7A3F9807002087
:100530008CDC01201C0700209C070020BCD200207E
:1005400000A00C460000A04388E10008F021001044
:10055000CDCC4CBE00004842AE47E13DDB0FC93F69
:100560006666663F90DC012064DC0120CDCCCC3E89
:10057000A913D43E0080D44470DC012014E901208A
:1005800024070020CDCC4C3F00C012440AD7233CA6
:100590000000001080DC01208FC2F53D1C270010F8
:1005A000143D0010000070436CDC01200000484343
:1005B000CDCCCC3D1111913D74DC01209A99993E2E
:1005C0003333333FFE9C5B3784DC01208988083C51
:1005D00078DC01202007002004F6BC2A04F52D6CED
:1005E000CEF80050036004F6C82E04F6D420CAF8F2
:1005F00000200E60CCF80060CEF80060036004F6C6
:10060000CC2504F6D82104F6DC2A04F52E6C04F57A
:100610002F6E04F6EC20C5F800800B60CAF80020AD
:10062000CCF80060CEF80060C0F8008004F6B8276F
:1006300004F6E82504F6F42104F6F82A04F6FC2C66
:1006400004F5306E04F608300B60CAF80030CCF8C0
:1006500000202E60CEF800603B6004F5316504F6A2
:100660000C3104F6143A04F6183304F5326C04F530
:10067000336204F6283E066004F63430C1F8008088
:100680002E6004F6383104F62C35CAF800601E607E
:1006900004F63C3A04F53463CCF80060166004F5C7
:1006A000356C04F64832CEF80060066004F61C3E55
:1006B00004F64C30DFF844B4C5F800800E6004F650
:1006C000583504F65431CAF800601E6004F65C3AEE
:1006D00004F66C33CCF80060166004F5366C04F553
:1006E0003762CEF800B0C0F8008004F6683E04F629
:1006F0007430C3F800800E602E6004F6783104F682
:100700007C35CAF80060CCF8006004F5386A04F55E
:10071000396C1660CEF8006004F6883204F68C3E20
:1007200004F6983306604F4604F69430CEF8008005
:10073000C9F8048047F8088B0E602E60CAF8006084
:10074000CCF8006016601E60066004F69C3409F167
:100750002C080DF0C1FC07EE100AF8EEC77AB0EED7
:10076000687A67EEA97A44F8046BA7EE897AD54DCA
:100770009FEDD58AA7EC017AF0EE477A99ED007AE1
:1007800077EE877A4745C9ED007AE2D1F7EE008A25
:10079000C8EEA77A00244FF0010A214605F1500067
:1007A0004FF4A462C5F8704585F874A5DFF830935E
:1007B000DFF84C83C54EC64F4FF0100B9FEDC59A26
:1007C000C5ED007A85ED0F8A85ED138AC5ED0C8A9B
:1007D00085ED0E9A0DF02EFC05F27C5305F2845245
:1007E000C3ED008A82ED009A05F28C5305F5B162E3
:1007F00083ED008A214605F2A45382ED008A05F5B7
:10080000B5604FF4A46285F8D0AAC5F8C84A83ED54
:10081000008A0DF00FFC05F6D822C2ED008A05F51E
:10082000815305F52E6241F2280082ED009A05F60B
:10083000E82205F6E42E05F800A01C60214605F626
:10084000FC2305F5306082ED008A4FF4A4628EED42
:10085000008A83ED008A0DF0EDFBD9F830309E4818
:10086000019943F00803C9F8303002258DF854A0EF
:100870008DF856408DF85740CDF850B08DF8555052
:1008800006F01AF9D9F83030019943F00703C9F896
:10089000303040464FF4107314938DF854508DF857
:1008A00055508DF856A08DF8574006F005F9D8F848
:1008B0002030019923F07063C8F82030D8F8203038
:1008C00043F08063C8F82030D8F8243023F0F003D8
:1008D000C8F82430D8F8243043F04003C8F8243056
:1008E00030464FF4A05314938DF854508DF8555062
:1008F0008DF856408DF8574006F0DEF87748036AC9
:1009000023F470230362036A43F4C0230362736A0F
:1009100023F470637362736A43F4C06373623B6869
:10092000AB4200F0C8810199CDF850B006F0C4F890
:10093000736A23F470237362736A43F4C02373628F
:10094000624C019902220023802520468DF8542014
:100950008DF855208DF856308DF85730149506F0E7
:10096000ABF8236A5C4A23F070432362236A1021A8
:1009700043F0C043236244F6FF735183013BFDD132
:10098000554B574C10221A83236C43F400132364F5
:10099000236A43F4001323624FF4001006F084F836
:1009A000504B1A8892B242F001021A809A88A368CA
:1009B00022F03F0203F00C031204042B4FEA124210
:1009C00001F0A485082B41F09E856368616813F4EB
:1009D000800F18BF4448636808BF444801F03F01D6
:1009E000B0FBF1F1C3F3881301FB03F33C494C68FE
:1009F000C4F3014401346400B3FBF4F438483C49C7
:100A00008568DFF800C1374B3A4EC5F3031E44F248
:100A1000330511F80E80D0F808E0CEF3822E24FAC8
:100A200008F411F80E80D0F808E024FA08F4ACFBC2
:100A30000480CEF3423E800C024311F80E109A80DF
:100A40001A88A109A6FB01C1890922F00102032924
:100A50004FEA024298BF04210130120C1A80188418
:100A600099831A8892B242F001021A801A8822F4FD
:100A7000816222F002021204120C42F480621A8097
:100A800001211D81022008F0EFFEAF210446042061
:100A900008F0EAFE184BAF220444812105201A70A9
:100AA00008F0E2FE04210444062008F0DDFECB211C
:100AB0000444202008F0D8FE2120CB2108F0D4FEE9
:100AC0003B6821E000000010000000000008024028
:100AD0000C0000200000DC43000C0240000002403B
:100AE000003802400054004000127A000024F40054
:100AF0006C000020632D3E0518E901200000B04085
:100B00000004024083DE1B43022B19D1012108207F
:100B100008F0AAFE01210546092008F0A5FEC02123
:100B200005440E2008F0A0FE2C44002104441420AB
:100B300008F09AFE00210444152008F095FE0444B4
:100B40009E21022008F090FE002104440A2008F0B3
:100B50008BFE3B68022B044404D00E20042108F0D5
:100B600083FE04440021272008F07EFE0F21044468
:100B70001F2008F079FE0A2126181A2008F074FEBA
:100B8000554C0A2106441B2008F06EFE236C43F4EA
:100B900000432364236A43F40043236206444FF472
:100BA000004005F081FF4D4A938B23F47B6323F0D3
:100BB0000F031B041B0C022193831184918BA368E8
:100BC0001B0289B203D5A36823F40003A360424B40
:100BD000434CD3F88450D3F884E05B684148424AE0
:100BE00003F03F03B4FBF3F4C5F38815CEF30273AF
:100BF00005FB04F4B4FBF3F31B0A03EB83035B0074
:100C0000A0FB03E39B0A0533A2FB0302D2085308AF
:100C1000981E02F00102120280B292B2FD289CBF1F
:100C200042F400721A432D4B88BF40F2022241F475
:100C300020611A8499833B68022B11D1264A2B4BE1
:100C4000116C41F0005111641A68169922F47F6208
:100C500022F00E020A431A601A6842F001021A607A
:100C6000002E00F0B383224C0DF14808214D22489C
:100C7000224A3968A2604FF4C863036028462361A2
:100C800005F0CCFE2B6843F001032B60134B9A8BCD
:100C9000570504D49A8B92B242F480629A83184B1F
:100CA000184C194A1949116000251D602369DE0797
:100CB0002ED4FEE7FEE7D9F83030019943F0010366
:100CC000C9F830300323CDF850B08DF857408DF877
:100CD000543005F0F1FE33E600380240003C00409D
:100CE00000127A00F1197605CDCCCCCC007400400E
:100CF000E0060020B86002400800002094DC0120DB
:100D00000400002000000240DC06002014E901205D
:100D1000DB4EDC4B01991D70336BDFF8A0B343F061
:100D2000010333634FF4D0524FF0030902232046EE
:100D300014928DF855908DF854308DF856508DF8EA
:100D4000575005F0B9FE636A019923F0F00363621E
:100D5000636A43F0A0036362636A23F470436362CF
:100D6000636A43F420436362636A23F4702363621B
:100D7000636A43F420230127636220464FF48063B3
:100D80008DF8559014938DF856708DF8577005F0C6
:100D900093FE626ABC4BBD49DFF81C9322F470627B
:100DA0006262626A42F420626262726C42F4804261
:100DB0007264726B4FF0006442F0800272634046CE
:100DC0009C601C22D9608DF848208DF84A708DF8FF
:100DD0004B708DF8495005F01BFF336C3B43336477
:100DE000284605F0C9FE9BF804308BF803704022BA
:100DF000072B8BF800508BF801508BF802508BF8C2
:100E00001C708BF820508BF821708BF8062007D8C7
:100E100003F5317309EB43039A88C2F30E029A80FB
:100E20009BF80530072B07D803F5317309EB430313
:100E30009A88C2F30E029A809549964CCBF86410BA
:100E400000230821C9F81033CBF86840C9F81433DF
:100E5000C9F8503389F88C33C9F81833C9F85433BA
:100E600089F88D33C9F81C33C9F8583389F88E33A3
:100E7000C9F82033C9F85C3389F88F33C9F82433B3
:100E8000C9F8603389F89033C9F82833C9F8643356
:100E900089F89133C9F82C33C9F8683389F892334B
:100EA000C9F83033C9F86C3389F89333C9F834334F
:100EB000C9F8703389F89433C9F83833C9F87433F2
:100EC00089F89533C9F83C33A9F8B21389F80010B2
:100ED0004021A9F80410042189F801104FF4A071F1
:100EE000DFF8DC81DFF8DCC1A9F8061002214FF041
:100EF000A042694889F808106849DFF8CCE1684FDA
:100F0000684E694DC9F81080012408F55878C9F871
:100F100018C0ACF5A06CC9F87833C9F80C2089F872
:100F2000963389F80330C9F84033C9F854E0C9F85A
:100F30007C33C9F81C7089F89733C9F85860C9F830
:100F40004433C9F82050C9F88033C9F85C0089F8E7
:100F50009833C9F82410C9F84833C9F86080C9F833
:100F60008433A0F5E06089F89933A1F58C61C9F864
:100F70004C3389F80240C9F8883389F80B4089F866
:100F80009A33C9F814C09368C9F8CC00C9F8901016
:100F9000A8F5C8680CF5A07CAEF5B46EA7F5687727
:100FA000A6F5B066A5F5607500F5D07001F5306165
:100FB000C9F89480C9F898C0C9F89CE0C9F8A07035
:100FC000C9F8A460C9F8A850C9F8AC00C9F8D01095
:100FD0000CF52B5CDFF8F4E03448354E354DC9F89C
:100FE000D8C0A1F5007123F0010308F5D7584FF0E0
:100FF0005027C9F8DCE0C9F80C11C9F8D480C9F849
:10100000E070C9F8E460C9F8E850C9F8EC009360F2
:10101000D36843F04003D36005F03AFC99F8092007
:10102000D9F80C30002A0CBF4FF434124FF474126C
:101030009A632146142005F019FA99F80320D9F88B
:101040000C30A24206D19A68052161F3440242F0B5
:1010500020029A60DA68184D6FF39E7242F00052D7
:101060000121DA60322005F001FA284605F084FDFE
:10107000D9F80C3100241C6099F80830012B27E0C6
:10108000003802406800002000ED00E00005FA058D
:101090001000002020000020400B0050600900508C
:1010A00020090050200B00504009005000800050E3
:1010B0000060005000700050ACE9012028070020BB
:1010C0000008005000090050000B00500040005084
:1010D0006B69214D1A6816BF012164F3010261F3A7
:1010E00001021A60284605F039F9D9F814301A6857
:1010F0006FF382021A6099F80B30012B264600F03C
:10110000CB81EB6800221192119A144942F020021F
:101110001192119A102060F38A121192119A1A6199
:101120001A69119203E01A691192013902D0119AD9
:101130009406F8D40221032005F098F900231293B5
:10114000129AD9F80C30054942F010021292129A04
:101150001A611A69129207E0ACE90120400D030000
:101160001A691292013902D0129AD006F8D40320DB
:10117000022105F07BF999F80030B948002B5BD0CB
:10118000D0F890404FF0FF310022012BA160E260C7
:1011900052D9D0F89440022BA160E2604CD9D0F82B
:1011A0009840032BA160E26046D9D0F89C40042B04
:1011B000A160E26040D9D0F8A040052BA160E260B8
:1011C0003AD9D0F8A440062BA160E26034D9D0F817
:1011D000A840072BA160E2602ED9D0F8AC40082BC4
:1011E000A160E26028D9D0F8B000092B8160C2600C
:1011F00022D9D9F8B4409A48A1600A2BE2601BD9E1
:10120000D0F8B8400B2BA160E26015D9D0F8BC40F3
:101210000C2BA160E2600FD9D0F8C0400D2BA1606B
:10122000E26009D9D0F8C4400E2BA160E26003D976
:10123000D0F8C8309960DA608A4BD9F8CC20012107
:10124000598313686FF382036FF341036FF3C30392
:101250006FF34513D90402D443F480531360C820BC
:10126000012105F003F9DBF8682099F80310D9F89B
:101270000C3010687C4C7D4F7D4EDFF814A20022AC
:1012800091429A614FF0FF3108BF10226FF0804504
:10129000596142F00C5259605D619C61996942F458
:1012A000001242F008020A439A619A6842F0010271
:1012B0009A6080476F4B704ADA600124432301989B
:1012C0008DF850308DF851408DF852408DF85340D4
:1012D00005F09EFC1722022301988DF850208DF80E
:1012E00052308DF851408DF8534005F091FC0223A7
:1012F0008DF84330D9F810234FF00008002A48D168
:101300009BF800205D49002A40F0E185D9F81033B0
:10131000002B40F028864FF08043012131601A886D
:1013200022F001021204120C1A809A8922F00102A2
:101330001204120C9A811A8822F45C721204120CA4
:101340001A8042F6DF644FF6FE720520DC621885D3
:1013500099821A821A8892B242F080021A809A897F
:1013600092B20A439A811A8892B20A431A80336869
:10137000002BFCD14FF08042138823F001031B04A3
:101380001B0C138002238DF84330D9F81023002A58
:10139000B6D09BF800300A2BBDD801A151F823F03C
:1013A0000D1300087F150008D51E0008171300084C
:1013B0003D1500085F15000809150008DF14000836
:1013C000B91400081713000817170008D7F8008091
:1013D000B8F1010F01F0BA80294C11AE3B68012B26
:1013E00001F09780274B28481A6B42F4001242F014
:1013F00001021A631A6C0DF1480842F000521A6497
:10140000032541461022002312928DF84F308DF8AB
:101410004C5005F051FB1D4B169A1968DFF874E02B
:1014200021F47F6121F00E010A431A601A6842F02C
:1014300001021A60BEF804309BB243F08003AEF89C
:1014400004303322012330468DF845508DF8465044
:101450008DF844208DF8473005F0DAFB06E400BF34
:10146000ACE901200008024000080080BCEA01202D
:101470007CDC012000ED00E00006FA0528070020D2
:10148000E0060020003802400000024000740040E6
:10149000DC040020003C00402122A121EB6862F323
:1014A0000F0461F30F06C0F28004C0F280065A6296
:1014B0009C62C3F8006125E6DBF86830C64C9B6B84
:1014C000984701287FF427AF636EC4481B68214604
:1014D000984700287FF41FAF052323701BE79BF874
:1014E0001C308BF81280013B0A2B3FF614AFDFE86B
:1014F00013F0630450042D0418049F048304CF04E4
:10150000FA03C903B803EA03DBF86430B24CB3480A
:10151000DB68214698478DF843009DF84330DBB2E5
:101520001A1FD2B2012A40F25A85062B7FF4F3AE7D
:10153000A36E0A221B6822709847ECE69BF80230E3
:10154000092B3FF6E8AEDFE813F02803BB02F901F0
:10155000A1014902190272014D0124011C01DBF8AD
:1015600064309D4C9B689D48214698478DF8430008
:101570009DF84330002BD0D106232370CBE6DBF857
:101580006830954C9B689847B9F98C25934B002A95
:1015900080F25685B3F98E25002A80F24E85B3F984
:1015A0009025002A80F24685B3F99225002A80F220
:1015B0002885B3F99425002A80F26D85B3F9962524
:1015C000002A80F26585B3F99825002A80F25D85AE
:1015D000B3F99A35002B80F25585FF236371B9F971
:1015E0008E257E4B002A80F24785B3F99025002A8C
:1015F00080F23F85B3F99225002A80F23785B3F94E
:101600009425002A80F23B85B3F99625002A80F2C2
:101610009085B3F99825002A80F28885B3F99A3528
:10162000002BB8BFFF2380F28B856C488BF8043009
:1016300004F094FEDBF86830DB689847D9F8CC20DA
:10164000DBF868301068C0F341408BF821000422B9
:1016500000F003009B698BF8002098479BF804106A
:101660009BF8212009EB410009EB4113B0F88C45B0
:1016700083F8B18304F07F0501F11E00C4F3C014A8
:1016800083F8AE4309EB40109BF8204083F8AC434D
:101690009BF8064083F8AD53A3F8B24383F8AF2319
:1016A00003F56A7380F8048080F805800AB9012286
:1016B0001A724A4805F0E6FA9BF805109BF82120BB
:1016C00009EB410009EB4113B0F88C4583F8B18375
:1016D00004F07F0501F11E00C4F3C01483F8AE438B
:1016E00009EB40109BF8204083F8AC439BF8064080
:1016F00083F8AD53A3F8B24383F8AF2303F56A73BD
:1017000080F8048080F805800AB901221A723348F3
:1017100005F0B8FAFFE59BF804208BF80080012360
:101720008BF803308BF81C308BF82130072A4FF0F0
:1017300040038BF801808BF802808BF820808BF8B7
:10174000063007D802F5317309EB43039A88C2F3D8
:101750000E029A809BF80530072B07D803F53173EA
:1017600009EB43039A88C2F30E029A80DBF86830D3
:101770005B689847DBF8643018485B6818499847FD
:10178000C9E5DBF868305B6B984708238BF80030BD
:10179000C1E59BF803209BF83930ABF816300921DE
:1017A000012A8BF81480ABF81880ABF81A808BF8FC
:1017B0001510094B00F08D84022A7FF4ACAD1A7F1E
:1017C0000D2A00F001850B3AD2B2012A3FF6A3ADF3
:1017D0000122DA709FE500BF28070020ACE9012054
:1017E000480700209BF83220AE4C002A00F08B8482
:1017F00042F44072E378E28280210622217562750C
:1018000040F20941FF22012B2183628300F0EE8325
:10181000022B7FF480AD237F0D2B00F0FF850B3B67
:10182000DBB2012B3FF677AD0123E37073E59BF844
:1018300031209C4C002A00F0448442F44072E3784A
:10184000E282802106222175627540F20941FF2261
:10185000012B2183628300F0C983022B7FF45BADEF
:10186000237F0D2BDBD199F8112184F81C800123F3
:10187000032AE3708C4B00F02286DBF86830019875
:10188000DB6A984707238BF8023044E59BF8032076
:10189000ABF8188080214FF4007306208BF81410E9
:1018A000012A4FF00901ABF816308BF81500ABF8A0
:1018B0001A107C4B00F0F283022A7FF42CAD1A7FC1
:1018C0000D2A80D199F8131199F812018AF80200B3
:1018D00000EB012099F81021D88699F811018AF8B7
:1018E00003108AF8002099F8141183F834208AF83C
:1018F000010099F8152183F8350099F816018AF846
:101900000410012483F838108AF8052099F817117B
:1019100083F839208AF8060099F8182183F83A00EC
:10192000042083F81C80DC708AF8071083F83B10D1
:101930008AF8082083F83C209870ECE49BF80310A8
:101940008BF81480012005248142ABF81880ABF895
:101950001A808BF81540ABF81600524A00F0C68387
:1019600002297FF4D8AC137F0D2B00F03F840B3B92
:10197000DBB2012B3FF6CFACD070CCE49BF830202B
:10198000484C002A00F0958342F44072E378E282EA
:10199000802106222175627540F20941FF22012B48
:1019A0002183628300F02283022B7FF4B4AC237F77
:1019B0000D2B7FF434AF99F8112184F81C8001239A
:1019C000032AE370384B00F05985DBF86830019842
:1019D0009B6A984706238BF802309CE49BF803200F
:1019E000BBF83640ABF81880802306218BF8143002
:1019F000012A4FF40073ABF81630ABF81A408BF89D
:101A00001510284B00F09883022A7FF484AC1A7FCB
:101A10000D2A7FF4D8AE012283F81C80DA7024B13D
:101A20002248234922460CF06BFA99F8132199F8C1
:101A3000101199F812318BF8341099F8111199F8A6
:101A400015018BF8351003EB022399F8161199F85C
:101A500014218BF839009BB299F817018BF83A10D2
:101A6000092C99F81811ABF836308BF838208BF820
:101A70003B008BF83C1008D9012A40F215840D4B2D
:101A80000D4CA3F8008084F800800C48DBF8683027
:101A900000F10A015B6A00F11402984705238BF8F4
:101AA000023038E428070020ACE90120DC040020E3
:101AB000BCEA012068DC0120940700205C070020BC
:101AC0009BF80350ABF81880802306214FF48072F6
:101AD0008BF81430012D4FF012038BF81510ABF872
:101AE0001620ABF81A30CE4C00F01583022D7FF48F
:101AF00012AC237F0D2B7FF492AE99F8122199F846
:101B0000183199F8131199F8190184F81C8002EB27
:101B1000012103EB002099F81B2199F81A31A184C7
:101B200003EB022399F81D1199F81C21A38502EB00
:101B3000012199F81031E185012299F81111E27023
:101B400084F8223099F8142199F8153184F823107B
:101B500084F8262099F8161199F8172184F827306F
:101B600099F81E3184F8281084F8292099F81F115B
:101B700099F8202184F8303099F82131608584F873
:101B8000311084F8322084F83330A36E04F122003F
:101B9000DB699847A570FFF7BEBB9BF80330ABF835
:101BA0001880802206204FF480718BF81420012BBE
:101BB0004FF008028BF81500ABF81610ABF81A209E
:101BC000974C00F01382022B7FF4A5AB237F0D2BE3
:101BD0007FF425AE99F8130199F8123199F8101194
:101BE00099F8112184F8221003EB0023A38499F8BB
:101BF000143199F8151184F8232084F8263099F8C7
:101C0000162199F8173184F82710012584F8282027
:101C100084F829308348A37184F81C80E57004F0AF
:101C20009DFB6179A379A57009EB411202F56A72F7
:101C30005089984201D003B153817A4805F022F8C7
:101C40009BF804109BF8063009EB411202F56A720A
:101C5000508998423FF45BAD002B3FF458AD53815F
:101C600055E59BF805306E4A4B4493F89B33DBB245
:101C7000012B00F08D82022B00F09382032B7FF466
:101C80004AAB5EE09BF8050009EB000100F115028C
:101C900009EB401309EB421281F89B8301250221D5
:101CA00083F8AE83C2F81881C3F8BC8383F8C553A8
:101CB00082F81411C3F8C08304F016FE0A238BF8CF
:101CC0001C30FFF728BB9BF80E20554B0132D2B2D7
:101CD000022A8BF80E2040F23F8208215A7899742C
:101CE0001A70FFF718BB9BF804204D4B4D494A442E
:101CF00092F89B23D2B2012A00F04A82032A20D014
:101D00004969494D8C68188A2988A4B2201A8842EA
:101D100017D8042A7FF4FFAA59789A741970FFF72C
:101D2000FABA9BF804303E4A4B4493F89B33DBB23B
:101D3000012B00F08881042B00F00582032B40F07A
:101D400084810B238BF81C30FFF7E5BA9BF8040065
:101D5000DBF8082009EB401300F1150109EB4111F4
:101D6000012483F8AE43022481F81441C1F81821FC
:101D700009EB0004BBF80C20C3F8C083C3F8BC23F4
:101D800084F89B8304F0B0FD04238BF81C30FFF72C
:101D9000C2BA9BF80520224B4A4492F89B23D2B248
:101DA000012A00F0DD81032A7FF4B5AA0B21052268
:101DB00019779A74FFF7AFBA9BF805001B4D00F135
:101DC000150209EB401309EB4212032483F8AE839A
:101DD00009EB0001C2F8185182F814410822C3F837
:101DE000C083C3F8BC2381F89B8304F07DFD0223EC
:101DF0008BF81C30FFF78FBA9BF80530084A4B442C
:101E000093F89B33DBB2012B00F0CF81042B00F061
:101E10009A81022B7FF432AF05231377FFF77BBA49
:101E200028070020ACE9012088DC01203C070020C5
:101E30009BF80500BBF80C4002944FEA401E00F1ED
:101E4000150300F11E0209EB0E0509EB431C09EB1B
:101E50004212DBF808400121517185F8AE83CCF8BD
:101E60001841029CC5F8BC4309EB431309EB0E046F
:101E700009EB0002022183F81411C4F8C08382F830
:101E80009B8304F031FD06238BF81C30FFF743BA27
:101E90009BF8040009EB401300F1150209EB421214
:101EA000012483F8AE4309EB00010224C2F8188133
:101EB00082F81441C3F8BC83C3F8C08381F89B83C4
:101EC00004F012FD08238BF81C30FFF724BA9A4265
:101ED00000D00B70DBF868301B6998479BF8042032
:101EE0008BF8008001238BF803308BF81C308BF8C3
:101EF0002130072A4FF040038BF801808BF80280D5
:101F00008BF820808BF8063007D802F5317309EB87
:101F100043039A88C2F30E029A809BF80530072B80
:101F200007D803F5317309EB43039A88C2F30E0215
:101F30009A80DBF868305B689847DBF86430A64825
:101F40005B68A6499847A9F89085A9F89285A9F8F1
:101F50009485A9F89685A9F89885A9F89A858BF8AB
:101F60000080FFF7D8B94FF08043642232601A88AE
:101F700022F0010212040121120C8BF800101A80C9
:101F80009A8922F001021204120C9A811A8822F412
:101F90005C721204120C1A8042F6DF644FF6FE7275
:101FA0000520DC62188599821A821A8892B242F062
:101FB00080021A809A8992B20A439A811A8892B250
:101FC0000A431A803368002BFCD14FF080421388FB
:101FD00023F001031B041B0C1380FFF79CB9A36EB5
:101FE0005B6C98470A232370FFF795B90421A281FF
:101FF000237707220223A76061702270E370FFF746
:102000008AB903231A4609EB42024FF40041A2F8B1
:102010008C15B9F88C258BF8053013043FF5DFAA31
:1020200000231A4609EB420248F28001A2F88C15FF
:10203000FFF7FBBA02231A46E5E701231A46E2E757
:1020400000231A46DFE709231377D9F81430BBF8C9
:1020500010109868624B80B21A88624B411A914204
:102060007FF659A90B221A77FFF755B903231A46B1
:10207000D8E702231A46D5E701231A46D2E70423FC
:102080001A46CFE707231A46BDE706231A46BAE7E2
:1020900005231A46B7E704231A46B4E704209F60D5
:1020A000998107211A77022258701970DA70FFF7A8
:1020B00032B9A36E4C489B6A98470623A370FFF77A
:1020C0002AB9A36E4848DB6A98470723A370FFF735
:1020D00022B904201A7707210222C3F80880A3F846
:1020E0000C8058701970DA70FFF715B90423117756
:1020F000537007210223C2F80880A2F80C801170E7
:10210000D370FFF708B9A36E37481B6B98470823B5
:10211000A370FFF700B90421A38107220223A7605F
:10212000257761702270E370FFF7F5B806231A4631
:1021300078E705231A4675E704209F609C81B0E785
:1021400007231A466EE79BF801308BF800300C230A
:102150008BF81C30FFF7DFB801221A77FFF7DBB8E6
:102160001A7D598B22F07F02D2B211B3DFF870C012
:1021700041F28831ACF80010002A40F04C81052271
:102180001A77D9F814309B68ABF81030FFF7C3B852
:102190009BF801308BF800300D238BF81C30FFF7D3
:1021A000BAB809231377FFF7B6B807231377FFF7F9
:1021B000B2B8DFF82CE03221AEF80010002A40F06F
:1021C0009F8107221A77DCE7012283F81C8099702F
:1021D000DA70FFF7A0B800BFACE901204807002083
:1021E00088DC012028070020C8E100084FF0804368
:1021F00031601988D07021F001010904090C19809F
:10220000998982F81C8021F001021204120C9A8133
:102210001A8822F45C721204120C1A8042F6DF61F2
:102220004FF6FE72D9621C8598821A821A8892B281
:1022300042F080021A809A8992B242F001029A8199
:102240001A8892B242F001021A803368002BFCD146
:102250004FF08042012113888BF8201023F00103F6
:10226000DBF868101B041B0C13800B6A98479BF863
:1022700020309BF8041003228BF802201BB109EBDD
:10228000411282F8AC33A84C204604F0FBFC9BF8CA
:1022900020309BF80510002B3FF439AA04EB4114C1
:1022A00084F8AC33FFF733BAA04DDFF89CC22D7829
:1022B000BCF800C09E480C95CDF82CC00925CDF87F
:1022C0003C90AB4240F2878002781044154441783C
:1022D0000429ADB2F5D190F803E08178CDF810E093
:1022E0007246022A0291ECD804790394817907910D
:1022F000039990F800C090F805E0C279047ACDF80F
:1023000014C00229CDF818E008920994D9D8029A8D
:10231000884C52B204F10A0C0D9212B202EBC203C5
:102320004FF000090CEB021223440A924946AC46D6
:10233000039D8D4249DD0278104462444478052CA7
:102340001FFA82FCF4D10A9ADDF830E0C90000914E
:102350000A440D998E4542D0059C02991C704FF09D
:1023600004055D709970049C039D0699DC701D71D5
:102370005971079C089D09999C71DD711972029C25
:102380000C944579047990F801E0CDF838E0009993
:10239000DDF828E004EB052405780EF80150C57837
:1023A00090F802E09480A4B20B940E9C547009F152
:1023B00001098479D5705FFA89F9039D82F802E0FA
:1023C0004FFA89F18D429471B5DCBBF83630654621
:1023D000AB423FF679AFDDF83C90FFF750BB047994
:1023E0004579DDF82CE004EB05218E45EDDC0599FF
:1023F00019704FF004015970029999700499D970BD
:102400000399197106995971079999710899D971A8
:1024100009991972B7E703221A77B2E699F81121E0
:1024200084F81C800123032AE3703F4B09D0DBF8BA
:10243000683001981B6B984708238BF80230FEF731
:102440006ABF93F81031023BFF2BA8BFFF2398B25D
:1024500080B10DF151020023374C991CE35C02F866
:10246000013C8BB29842114602F10102F4D881F886
:102470000080DCE7019981F80080D8E793F81031FB
:10248000023BFF2BA8BFFF2398B298B10DF1510278
:102490000023DFF8A4C0991C1CF8033002F8013CAB
:1024A0008BB29842114602F10102F2D881F8008005
:1024B000FFF78BBA019981F80080FFF786BA93F88D
:1024C0001031023BFF2BA8BFFF2398B298B10DF14A
:1024D00051020023DFF860E0991C1EF8033002F877
:1024E000013C8BB29842114602F10102F2D881F808
:1024F0000080FFF7C2B9019981F80080FFF7BDB9EC
:1025000009221A773DE60D4CFEF778BA0C4CFEF71F
:1025100075BA0C4B9A8892B242F002029A800DF181
:102520004808FEF7A3BB00BFACE9012094070020D8
:10253000BCEA012066070020BEEA01200024F40066
:1025400000127A00003C004068DC01202B4B2C4D2F
:10255000196B2C4C2C4ADFF8B49041F4001119632C
:102560002B6823F001032B602868212120F0010053
:102570004FF03D5328604FF6FE7C2E6028466E607B
:102580004FF4806EAE604FF0400AEE602E616961DC
:10259000D3604FF400614FF400524FF48073266013
:1025A000A6606661E66226636663A6634FF4403602
:1025B00022626362A662C4F80490C4F80CA0C4F856
:1025C00010C0C4F818E0E16104F028FA2B6843F069
:1025D00010032B602B6811AE43F008032B602F22F1
:1025E000032330468DF847808DF844208DF8453020
:1025F0008DF8463004F00CFBFEF7F0BE00380240C8
:10260000B8600240E0060020006002400C3C004040
:102610002DE9F04F2DED0E8B85B000F10408B74F7A
:10262000B74EB84DB84C9FEDB99ADFEDB99A9FED12
:10263000B98A00F244600390BB6AB0495A1E002B6D
:10264000BA6241F3B784D5ED037AF5EEC07AF1EEC4
:1026500010FA08D577EE887AF5EEC07AF1EE10FA26
:10266000F8D4C5ED037AF4EEC87AF1EE10FA08DB7F
:1026700077EEC87AF4EEC87AF1EE10FAF8DAC5ED22
:10268000037A9FEDA50A95ED00AA27EE800A09F0CE
:102690009FFBA249D5ED037AD5ED025A9FEDA06AC2
:1026A000A04ADFF898E2D2ED006A9EF8003001EB14
:1026B000800090ED007A9C482AEE077AF7EE008AB7
:1026C00077EE288AE5EE867A68EEA68A85ED077AA7
:1026D000C0ED028AC5ED037A0F2B03F2A284DFE876
:1026E00013F09300CB0AE1004E002F011000790691
:1026F0009A05C904FE039C08930781097C01330BEA
:102700001F03894A92ED030AB5EEC00AF1EE10FAF2
:1027100009D530EE080AB5EEC00AF1EE10FAF8D489
:10272000814880ED030AB4EEC80AF1EE10FA09DB25
:1027300030EE480AB4EEC80AF1EE10FAF8DA7A4937
:1027400081ED030A09F0F6FB774A9FED757A92ED69
:1027500000AAD2ED037AD2ED026A20EE0AAAE6EED2
:10276000877A20EE0AAAC2ED037A20EE0AAA20EEAA
:102770000AAA20EE0AAA82ED07AA00F08EBC6A4BD4
:10278000D3ED037AF5EEC07AF1EE10FA09D577EEC3
:10279000887AF5EEC07AF1EE10FAF8D46248C0ED0E
:1027A000037AF4EEC87AF1EE10FA09DB77EEC87A14
:1027B000F4EEC87AF1EE10FAF8DA5B49C1ED037A6B
:1027C0009FED550A584A9FED59AAD2ED008A27EE8F
:1027D000800A09F0FDFA544BDFF840E1D3ED037AAB
:1027E00093ED026ADFED4E6A0EEB800090ED007A09
:1027F000E6EE267A28EE877AC3ED037A83ED077A30
:1028000027EE0AAA00F049BC4748D0ED037AF5EE5E
:10281000C07AF1EE10FA0DD577EE887AF5EEC07A2F
:10282000F1EE10FAF8D4F4EEC87AF1EE10FA06DB05
:1028300077EEC87AF4EEC87AF1EE10FAF8DA9FED86
:102840003C7AF4EEC78AF1EE10FA02F173819FED43
:10285000397A354A82ED047AF4EEC77AF1EE10FA4D
:1028600002F17F81DFED346ADFF8BCE0B0EE006A90
:10287000E7EE866ADEED005A38EE476A36EEC77A32
:1028800027EE257A87EE067A2748DFED256A9FED49
:1028900027AA80ED077AE8EEA67A27EE0AAAC0ED0D
:1028A000037AFAE3DFF880E09EED030AB4EEC80A8B
:1028B000F1EE10FA09DB30EE480AB4EEC80AF1EE88
:1028C00010FAF8DA184B83ED030A09F033FBDFF84E
:1028D00058E0DFED136ADEED037A9EED026A9EEDAD
:1028E000007A9FED12AAE6EE267A20EE070ACEEDD8
:1028F000037A8EED070A20EE0AAACEE3C01000107C
:1029000004110010FC3D00105C3E0010000000307F
:10291000CDCCCC3EDB0FC94083F92243CCE100088B
:102920001F420939A83E00107C3D0010CDCC4C3F21
:102930000000FA45DB0F4940DB0FC9C0341000101E
:10294000E249E34ADFEDE36ADFEDE35ADFEDE34A14
:102950009FEDE35A012306EE103AB8EEC67A68EE10
:10296000877AF4EEE57AF1EE10FA29D5F2EC017AE5
:10297000F4EEC87AF1EE10FA08DB77EEC87AF4EEDE
:10298000C87AF1EE10FAF8DA42ED017A27EEA46A7D
:1029900027EE057ABCEEC66ADFF86CE316EE100A85
:1029A000E8EE877A80B20EEB800090ED007AB1EC11
:1029B000016A42ED017A01330B2BE6EE076ACAD1B8
:1029C000C84BC94893ED007AD0ED007A66EE876A6D
:1029D00026EEA7AA80ED07AA5FE3DFF830A39AED01
:1029E000065A9AED096ADAED077A9AED027ADAF870
:1029F0001420F8EE456A15EE100AE6EE267A431C1E
:102A00009342CAF8183067EE877ACAED0A7A82F0E4
:102A1000B780DFF8FCA2B54B9AED066ADAED094AF9
:102A20009AED077AD3ED005ADAF81800DAED026A67
:102A3000DAF81410DFF8B0E2B8EE465AB7EE006AE2
:102A400037EE866AA4EE857A421C8A42F3EE097A52
:102A5000E6EE257ACAF8182027EE267ACEED027A1D
:102A60008AED0A7A82F06181DFF8A8B2DFF8A8A2C5
:102A7000DBED066ADBED094ADBED077ADBF81800CF
:102A80009BED026ADBF81420B8EE665AF7EE006A96
:102A900037EE267AE4EE857A411C9142F3EE096A1C
:102AA000E7EE256ACBF8181067EE867ACAED026A5F
:102AB000CBED0A7A82F0EE80B7EE007A77EE877A75
:102AC0008948DFF858B2B3EE096AA7EEA56AD0EDDF
:102AD000037A8BED026AF5EEC07AF1EE10FA0DD5AD
:102AE00077EE887AF5EEC07AF1EE10FAF8D4F4EECB
:102AF000C87AF1EE10FA06DB77EEC87AF4EEC87AFF
:102B0000F1EE10FAF8DA78499FED797AD1ED025AB0
:102B1000F4EEC75AF1EE10FA0B4601F159879FED1A
:102B2000757AF4EEC77AF1EE10FA83ED047A01F1CA
:102B30006587DFED714A6C4BB0EE005AE7EE854ACF
:102B400093ED004A38EE475A34EEC77A27EE047AFE
:102B500087EE055ADFF890E1DFED614A9AED037ADE
:102B60008EED075AE5EEA47AB5EEC07AF1EE10FAD2
:102B7000CEED037A08D537EE087AB5EEC07AF1EEDD
:102B800010FAF8D48AED037AB4EEC87AF1EE10FAAE
:102B900008DB37EE487AB4EEC87AF1EE10FAF8DACC
:102BA0008AED037ADFED527AF4EEE76AF1EE10FA7D
:102BB00042F17F82DFED517ADFED515A66EEA77A5E
:102BC000F4EEE57AF1EE10FA02F27582F0EE657A33
:102BD000B4EEE77AF1EE10FACAED045A02F173820C
:102BE000DFED454A9AED004AF0EE005AE7EE254A3D
:102BF00078EE675A74EEE77A67EE847AC7EEA55AE4
:102C0000DFED374ADBED037ACAED075AA6EEA47A68
:102C1000F5EEC07AF1EE10FA75EE255A8AED037AD8
:102C200008D577EE887AF5EEC07AF1EE10FAF8D48E
:102C3000CBED037AF4EEC87AF1EE10FA08DB77EE0A
:102C4000C87AF4EEC87AF1EE10FAF8DACBED037A2E
:102C50009FED277AB4EEC76AF1EE10FA42F1418295
:102C60009FED267ADFED266A26EE077AB4EEE67A45
:102C7000F1EE10FA02F23782B0EE667AF4EEC77A1D
:102C8000F1EE10FACBED046A02F13582DFED1A6A3B
:102C9000DBED004AB0EE005AE7EE856A38EE475A9F
:102CA00036EEC77A27EE247A87EE057A9FED0C5A26
:102CB000DFED146A8BED077AE6EE057A35EE877A5A
:102CC000CBED037A27EE26AAE7E100BF040000104F
:102CD000803E0010000000000080BB4683F92243C4
:102CE0001F420939000000107C3D001080000020C8
:102CF0000000FA45DB0F4940DB0FC9C02EE3CD3998
:102D000017B7D138C3F5A83ECCE100083C1000103D
:102D100068100010941000109C3D0010BC3D001085
:102D2000DFF844A39FEDC47A9AF84835CAED038AC8
:102D3000DAED04BADAED066ADAED077A9AED08AA56
:102D4000DAF84415002B41F00186C8EE878A9FED22
:102D5000BB7AF4EEC78AF1EE10FA01F10E86B6EEF8
:102D6000007AF4EE478AF1EE10FAC8BFF0EE478A17
:102D700078EEE78A9FEDB27A37EEA8BAF4EEC7BADA
:102D8000F1EE10FA7BEE268AC2F29C803BEEC77A07
:102D9000F7EE007A6BEE07AA78EEEA8AF4EEE78A9D
:102DA000F1EE10FAC2F21B8378EEE78ADFEDA57A26
:102DB000A54A01913AEEA8CAB6EE000A2CEE27CA3F
:102DC0004FEA81098CEE0BCA0092DFF8A0B23CEE0C
:102DD000400A08F0FDFF05EE100AF8EEC56A009AF9
:102DE000019900F03F007CEE666A02EBC003CE461C
:102DF00093ED017AD3ED007AE6EE877A0BEB0E0CB9
:102E000040309CED007A77EE277AB0F5905F03F5BD
:102E100000730EF1040ECCED007AE9DB9FED89CA58
:102E200001912AEE8CCAB6EE000A8CEE0BCA009213
:102E30003CEE400A08F0CCFF05EE900AF8EEE56A99
:102E4000009A019900F03F007CEE666A4B4602EB67
:102E5000C002D2ED017A92ED007AA6EEA77A0BEBD2
:102E6000030E4030DEED007AE8EE877AB0F5905F31
:102E700002F5007203F10403CEED007AE9DBCAED3E
:102E800005BA01F10C030AEB8303F6EE007A93ED29
:102E9000016A9AED017ADFF8D0B177EEEA6AF0EED6
:102EA0004A8A76EE266AC3ED016A0AEB8103D3ED06
:102EB000096A36EECAAA0131EAEE278AB1F5807FA7
:102EC00028EE87AA8AED00AA02F04583CAED06AA79
:102ED0008AED07BACAED088ACAF84415DDE05B48F6
:102EE000DFF88CA190ED037AF7EE086A68EEA66A27
:102EF000B5EEC07AF1EE10FACAED026A0DD537EEE2
:102F0000087AB5EEC07AF1EE10FAF8D4B4EEC87AC9
:102F1000F1EE10FA06DB37EE487AB4EEC87AF1EE3D
:102F200010FAF8DADFED4A7AF4EEE78AF1EE10FAF9
:102F300001F19885DFED477A444BC3ED047AB4EE96
:102F4000E77AF1EE10FA01F1A485DFED435ADFF8DC
:102F5000FCE0B0EE006AE7EE065A9EED005A38EE4D
:102F6000676A75EEE77A67EE857A87EE866A374894
:102F7000DFED3A5ADAED037A80ED076AA8EEA57A1A
:102F8000F5EEC07AF1EE10FA80ED037A08D577EE0F
:102F9000887AF5EEC07AF1EE10FAF8D4CAED037A29
:102FA000F4EEC87AF1EE10FA08DB77EEC87AF4EEA8
:102FB000C87AF1EE10FAF8DACAED037A9FED247AB6
:102FC000F4EEC76AF1EE10FA42F10A809FED247A1E
:102FD000DFED245A26EE877AB4EEE57AF1EE10FAA8
:102FE00002F20080B0EE657AF4EEC77AF1EE10FAE4
:102FF000CAED045A01F1FE87DFED175ADAED004AF7
:10300000B0EE005AE7EE855A38EE475A35EEC77AE9
:1030100027EE247A87EE057ADFED105A8AED077ADB
:10302000E6EEA57A36EE077AF6EE006A27EE26AAD5
:10303000CAED037A31E000BF00803B47ACC52737BB
:1030400008E53C1E00008042803A01087C3D0010EB
:103050000000FA45DB0F4940DB0FC9C01F420939A8
:103060002EE3CD3917B7D1382C00001050000010D6
:103070009C3D0010BF4991ED00AA0BF02DF805EE24
:10308000100AF8EEC56A9FEDBC7ADFEDBC7A66EEF9
:10309000896AE6EE877A2AEE27AA716A326AB84B05
:1030A0000131012A7162D3ED048A01F0F681032A0D
:1030B00001F02582002A01F00882D4ED037AC6EDE2
:1030C000058AF5EEC07AF1EE10FA08D577EE887A27
:1030D000F5EEC07AF1EE10FAF8D4C4ED037AF4EE0E
:1030E000C87AF1EE10FA08DB77EEC87AF4EEC87A07
:1030F000F1EE10FAF8DAC4ED037A9FEDA20AD4EDEE
:1031000000AA27EE800A08F063FE9F49D4ED037AF7
:103110009E4A94ED025ADFED9E5AD2ED006A3A6B58
:10312000DFF8A0E2964B01EB800090ED007A716A27
:103130002AEE877AB7EE006A37EE066AE5EE257A60
:10314000914266EE288A84ED077A28EEA67ACEEDC3
:10315000008A27EE0AAAC4ED037A80F0D7878D484B
:1031600003784BB9DFF860A2DAED008AF5EE408A09
:10317000F1EE10FA41F0D381874AD2ED008AF5EEE4
:10318000408AF1EE10FA41F015818448B0EE4A0A07
:1031900003F0B4F98248F0EE408AB0EE4A0A03F038
:1031A000ADF9804838EE800A0378F6EE007A60EEDA
:1031B000278A002B41F06B807B480378002B40F07E
:1031C000DD877A4A1378002B40F0AA87B0EE68AA10
:1031D000F7EE007AB4EEE7AAF1EE10FA40F3B88702
:1031E00047F6FF72F7EE007AF4EEE78AF1EE10FA96
:1031F00041F33D8147F6FF7328F8023C039B28F812
:10320000042C08F1040898457FF416AA05B0BDEC1B
:103210000E8BBDE8F08FDFF8B4A19AF85835CAEDEF
:10322000038A9AED05CADAED07CADAED087A9AED53
:10323000096ADAED0ABA9AED0BAADAF85095DAF8CB
:1032400054C5002B41F0FB82DFED595A9AED045A28
:10325000C8EEA58ADFED575AB7EE007A35EE075A69
:10326000F4EEE58AF6EE006AF1EE10FA37EE677AD0
:1032700065EE266A01F12283F6EE005AF4EE658AC5
:10328000F1EE10FAC8BFF0EE658AF4EE667AF1EE60
:1032900010FAC8BFF0EE676A78EEE78AF4EEC76A04
:1032A000F1EE10FA77EEA8AADFED437AD8BFB0EEC0
:1032B000667A37EE467AB4EEE7CAF1EE10FA36EEE9
:1032C00007BA7AEEACCAC1F2DA867CEE677A6AEEA9
:1032D000A78A7CEEE8CABCF1000F01F07687F7EE12
:1032E000007AF4EEE7CAF1EE10FA82F2D2824FEAE7
:1032F0008901324ADFF8D8B00291DFED31BA00928D
:1033000068EEABBAB6EE000ACBEEAABA3BEEC00A44
:1033100008F05EFD06EE100AF8EEC66A009A029901
:1033200000F03F007BEEE66A02EBC00292ED017A0C
:10333000D2ED007AE6EE877A0BEB0103403093ED95
:10334000007A77EE277AB0F5905F02F5007201F10E
:103350000401C3ED007AE9DBF6EE00BAB4EEE8BA98
:10336000F1EE10FA42F2F8834FF0000C8AED06CA33
:1033700001F0B5BF7C3D0010CDCCCC3FCDCC4CBFD7
:103380000411001083F92243CCE100083010001032
:103390001F420939351000103C3E00103C3D001022
:1033A0005C3D00103810001039100010371000106C
:1033B00000803B47ACC5273708E53C1E803A010832
:1033C000000080422C1000101C3E001078050010F8
:1033D000A8050010DFF828B29BF85425CBED038A2E
:1033E000DBED05BADBED07CADBED087ADBED095A48
:1033F0009BED0ACADBF84C95DBF85035002A41F00A
:103400006182DFED796A9BED045AC8EEA66AB7EED9
:10341000007A35EE075AB6EE006A25EE066A9FED91
:10342000735AF4EEC56AF1EE10FA37EE677A01F1DD
:103430008982B6EE005AF4EE456AF1EE10FAC8BF82
:10344000F0EE456AF4EE467AF1EE10FAC8BFB0EE3F
:10345000676AB4EEC76AF1EE10FAD8BFB0EE467AEA
:1034600037EE657A76EEE76A75EE878A9FED607AC9
:1034700077EEA6AAF4EEC7BAF7EE007AF1EE10FAEC
:103480007AEEACCA37EEE8AAC1F2C2853BEEC77A43
:103490002AEE87BA7CEECBCA002B41F0AC86F4EE64
:1034A000EC8AF1EE10FA42F22A848CEEA8DAF4EEFD
:1034B000E7CAB6EE007AF1EE10FA3DEE47DAC2F254
:1034C00086834FEA8903DFF83CA14A490293F7EE6D
:1034D000007A7CEEE7CA9FED487A01917BEE2C6A78
:1034E0008CEEA8DA66EE87CAC7EEA8DACCEEAACAD6
:1034F000C7EE8A7AB6EE007A3CEEC70A7DEEA7DA0E
:103500003DEE47DA08F064FC05EE900A00F03F005B
:10351000F8EEE56A421C0AEB820A2AEEAD6A7CEEFE
:10352000E66A029A01995AED017A9AED007A37EE2D
:10353000677A8B18E6EE877A4030B0F58E5F0AF531
:10354000807AB0EE677AD3ED007AE6EE077A02F180
:103550000402C3ED007AE6DB9FED27EA2BEE0EEACC
:10356000F6EE00CA8EEE2AEA7EEE6CCAB0EE6C0A67
:10357000019108F02DFC05EE900AF8EEE56AFEEEEA
:1035800000CA1E4ADDF808E0019900F03F007CEE19
:10359000CDCA7EEE666A02EBC002D2ED017A92EDF0
:1035A000007AA6EEA77A01EB0E034030D3ED007A45
:1035B000ECEE877AB0F5905F02F500720EF1040E22
:1035C000C3ED007AE9DBF4EECB8AF1EE10FA42F2B9
:1035D000D6818BEE28DA0023F6EE007A3DEE67DA2C
:1035E000CBED06BA01F0C2BE00803B47ACC5273721
:1035F00008E53C1E000B001000008042803A0108E4
:10360000D40A0010D0F10008EA4A9FEDEB6AD2ED2F
:10361000037ADFF8C8A3DFF8C8B3F7EE086A28EE2C
:10362000866A68EEA66AF5EEC07AF1EE10FA8AEDC7
:10363000026ACBED026A0DD577EE887AF5EEC07A94
:10364000F1EE10FAF8D4F4EEC87AF1EE10FA06DBD7
:1036500077EEC87AF4EEC87AF1EE10FAF8DA9FED58
:10366000D77AF4EEC78AF1EE10FA01F18A819FED64
:10367000D47AD04880ED047AF4EEC77AF1EE10FAED
:1036800001F197819FEDCF5ACA49F0EE005AA7EE9B
:10369000A55AD1ED004A78EE475A35EE477A27EE23
:1036A000247AC7EE255AC34A9FEDC75A9AED037A8A
:1036B000C2ED075AE8EE857AB5EEC07AF1EE10FA5F
:1036C000C2ED037A08D537EE087AB5EEC07AF1EE8E
:1036D00010FAF8D48AED037AB4EEC87AF1EE10FA53
:1036E00008DB37EE487AB4EEC87AF1EE10FAF8DA71
:1036F0008AED037ADFEDB17AB4EEE76AF1EE10FA03
:1037000041F1A584DFEDB17A9FEDB15A66EE277ADB
:10371000F4EEC57AF1EE10FA01F29B84F0EE457AF0
:10372000B4EEE77AF1EE10FA8AED045A01F19984C9
:10373000DFEDA44A9AED004AB0EE005AE7EE054AE2
:1037400038EE675A74EEE77A67EE847A87EE855A28
:10375000DFED9D4ADBED037A8AED075AA6EE247A67
:10376000F5EEC07AF1EE10FA75EE855A8AED037A1D
:1037700008D577EE887AF5EEC07AF1EE10FAF8D433
:10378000CBED037AF4EEC87AF1EE10FA08DB77EEAF
:10379000C87AF4EEC87AF1EE10FAF8DACBED037AD3
:1037A0009FED867AF4EEC76AF1EE10FA41F14D838F
:1037B0009FED867A9FED866A26EE877AB4EEC67A0A
:1037C000F1EE10FA01F24383B0EE467AF4EEC77AD6
:1037D000F1EE10FA8BED046A01F141839FED796AF5
:1037E000DBED004AB0EE005AA7EE856A38EE475A84
:1037F00036EE477A27EE247A87EE057A9FED725AE5
:103800009FED746A8BED077AE6EE857A35EE877A5E
:10381000CBED037A27EE06AA3FE466499FED6E6A78
:10382000D1ED037ADFF8B4A1DFF8B4B1F7EE086A9E
:1038300028EE866A68EEA66AF5EEC07AF1EE10FA16
:103840008AED026ACBED026A0DD577EE887AF5EE45
:10385000C07AF1EE10FAF8D4F4EEC87AF1EE10FA6C
:1038600006DB77EEC87AF4EEC87AF1EE10FAF8DAF1
:103870009FED527AF4EEC78AF1EE10FA01F1188149
:103880009FED4F7ADFF82CE18EED047AF4EEC77AE3
:10389000F1EE10FA01F123819FED4A5A4548F0EE0E
:1038A000005AA7EEA55AD0ED004A78EE475A35EEF9
:1038B000477A27EE247AC7EE255A3E499FED425AB1
:1038C0009AED037AC1ED075AE8EE857AB5EEC07A33
:1038D000F1EE10FAC1ED037A08D537EE087AB5EEAD
:1038E000C07AF1EE10FAF8D48AED037AB4EEC87A11
:1038F000F1EE10FA08DB37EE487AB4EEC87AF1EE52
:1039000010FAF8DA8AED037ADFED2C7AB4EEE76A82
:10391000F1EE10FA41F14C83DFED2C7A9FED2C5A39
:1039200066EE277AF4EEC57AF1EE10FA01F24283E0
:10393000F0EE457AB4EEE77AF1EE10FA8AED045A29
:1039400001F14083DFED1F4A9AED004AB0EE005AC4
:10395000E7EE054A38EE675A74EEE77A67EE847A46
:1039600087EE855ADFED184ADBED037A8AED075AB8
:10397000A6EE247AF5EEC07AF1EE10FA75EE855ACD
:103980008AED037A08D577EE887AF5EEC07AF1EE03
:1039900010FAF8D4CBED037AF4EEC87AF1EE10FA0F
:1039A000FFF6FEAE77EEC87AF4EEC87AF1EE10FAC2
:1039B000F8DAF3E67C3D0010B537983F0000FA4591
:1039C000DB0F4940DB0FC9C01F4209392EE3CD3957
:1039D00017B7D138C3F5A83EAE47A13F9C3D0010B4
:1039E000BC3D0010DFF850A39AED065A9AED096A23
:1039F000DAED077A9AED027ADAF81420F8EE456AE1
:103A000015EE100AE6EE267A431C9342CAF81830E7
:103A100027EE877A8AED0A7A81F0F780DFF81CB307
:103A2000DFF81CA39BED066A9BED095ADBED077AD4
:103A3000DBED026ADBF81800DBF81420F8EE465ADA
:103A4000B7EE006AE5EE257A431C934237EE067A1C
:103A500067EEA67A68EE876ACBF81830CBED0A7A63
:103A6000CAED026A81F0AA81A848DFF8D8B2B7EEA1
:103A7000007A37EE877AD0ED037A68EE878AF5EE22
:103A8000C07AF1EE10FACBED028A0DD577EE887A86
:103A9000F5EEC07AF1EE10FAF8D4F4EEC87AF1EE51
:103AA00010FA06DB77EEC87AF4EEC87AF1EE10FA77
:103AB000F8DA96499FED967A91ED026AB4EEC76AFC
:103AC000F1EE10FA0B4600F1A8879FED927AF4EE22
:103AD000C77AF1EE10FA83ED047A00F1B4879FED16
:103AE0008E5A8A4BF0EE005AA7EEA55AD3ED004A43
:103AF00078EE475A35EE477A27EE247AC7EE255AF4
:103B0000DFF808E29FED855A9AED037ACEED075A69
:103B1000E6EE057AB5EEC07AF1EE10FACEED037A54
:103B200008D537EE087AB5EEC07AF1EE10FAF8D47F
:103B30008AED037AB4EEC87AF1EE10FA08DB37EEBC
:103B4000487AB4EEC87AF1EE10FAF8DA8AED037A20
:103B5000DFED6F7AF4EEE76AF1EE10FA41F1F881E9
:103B6000DFED6F7A9FED6F6A66EEA77AF4EEC67AA4
:103B7000F1EE10FA01F2EE81F0EE467AB4EEE77A59
:103B8000F1EE10FA8AED046A01F1EC819FED625AC0
:103B9000DAED004AB0EE006AA7EE065A38EE676A20
:103BA00075EE677A67EEA47A87EE866A9FED5B5AB8
:103BB000DBED037A8AED076AA6EE857AF5EEC07A28
:103BC000F1EE10FA35EE866A8AED037A08D577EEC3
:103BD000887AF5EEC07AF1EE10FAF8D4CBED037ADC
:103BE000F4EEC87AF1EE10FA08DB77EEC87AF4EE5C
:103BF000C87AF1EE10FAF8DACBED037A9FED447A49
:103C0000F4EEC78AF1EE10FA41F1BA819FED447AE1
:103C1000DFED446A28EE877AB4EEE67AF1EE10FA28
:103C200001F2B081B0EE667AF4EEC77AF1EE10FAE6
:103C3000CBED046A01F1AE81DFED376A9BED005AEE
:103C4000F0EE005AE7EEA56A78EE475A36EEC77AEC
:103C500027EE057A87EE257ADFED305ADFED326AFE
:103C60008BED077AE8EEA57A36EE077ACBED037A8C
:103C700027EE26AAFFF711BADFED2C7AF4EEE78AD9
:103C8000F1EE10FA01F1B283DFED297AF4EEE78A62
:103C9000F1EE10FA01F13D821C48D0ED037AF5EE09
:103CA000C07AF1EE10FA0DD577EE887AF5EEC07A8B
:103CB000F1EE10FAF8D4F4EEC87AF1EE10FA06DB61
:103CC00077EEC87AF4EEC87AF1EE10FAF8DA9FEDE2
:103CD000117AF4EEC77AF1EE10FA01F12984DFEDE2
:103CE000156A0A49B8EE087AA7EEA67A91ED00AAFD
:103CF00027EE0AAA9FED097A044AE8EE877A82ED58
:103D000007AAC2ED037AFFF7C8B900BF7C3D0010D7
:103D10000000FA45DB0F4940DB0FC9C01F420939DB
:103D20002EE3CD3917B7D138C3F5A83E000048437C
:103D30000000164483F9223F3C1000106810001068
:103D40009C3D0010BC3D0010DFF860A2DFED917AD1
:103D50009AED067ADAED054A9FED8F5ADFF850B2F8
:103D60008E4B9AED036ADBED066AD3ED065A28EE18
:103D7000877A64EEA77A68EEA66AE7EE057A68EEBF
:103D8000A58A77EE867A8AED027AF5EEC07AF1EEB0
:103D900010FACAED037ACBED026AC3ED028A08D5A8
:103DA00077EE887AF5EEC07AF1EE10FAF8D4CAED23
:103DB000037AF4EEC87AF1EE10FA08DB77EEC87AEF
:103DC000F4EEC87AF1EE10FAF8DACAED037A9FED54
:103DD000740ADAED008A009327EE800A07F0F8FFF4
:103DE0007049714A9FED6C6AD2ED057AD2ED025AA4
:103DF000D2ED036A009B01EB800090ED007A28EE83
:103E0000877A67EE277A8AED077AE5EE867A77EE8B
:103E1000A67AF5EEC07AF1EE10FAC2ED037A0AD571
:103E200077EE887AF5EEC07AF1EE10FAF8D4DFF882
:103E300078E1CEED037AF4EEC87AF1EE10FA09DB00
:103E400077EEC87AF4EEC87AF1EE10FAF8DA56484E
:103E5000C0ED037A9FED520A534927EE800AD1ED57
:103E6000008A009307F0B4FF009BDFED4A7AD3EDA0
:103E7000055A9FED497A93ED026A4A4AD3ED036AE7
:103E8000DFF824E165EEA77A02EB8000E6EE077A20
:103E900090ED007A77EEA67A68EE878AF5EEC07A22
:103EA000F1EE10FAC3ED037ACEED078A08D577EE6E
:103EB000887AF5EEC07AF1EE10FAF8D4C3ED037A01
:103EC000F4EEC87AF1EE10FA08DB77EEC87AF4EE79
:103ED000C87AF1EE10FAF8DAC3ED037A9FED300AF2
:103EE000D3ED008A009327EE800A07F071FF2D4979
:103EF000DBED057ADBED025A9FED276ADBED036A05
:103F0000009B01EB800090ED007A28EE877A67EE47
:103F1000277A83ED077AE5EE867A77EEA67AF5EED4
:103F2000C07AF1EE10FACBED037A08D577EE887AF5
:103F3000F5EEC07AF1EE10FAF8D4CBED037AF4EE98
:103F4000C87AF1EE10FA08DB77EEC87AF4EEC87A98
:103F5000F1EE10FAF8DACBED037A9FED110ADBED02
:103F6000008A27EE800A07F033FF0E4A0E4B02EB61
:103F70008000D0ED007A93ED07AA68EEA77AB6EE3E
:103F8000007A37EE8AAACBED077A2AEE07AAFFF766
:103F900084B800BF000000001F420939DC3D00105A
:103FA00083F92243CCE100087C3D00109C3D0010C9
:103FB000BC3D001091F82C30002B00F02483D84831
:103FC000C37A13B9437B002B3ED002F005FCDFF827
:103FD0006493D449DFEDD4AAD14AC1ED01AA8A463F
:103FE000CB461AEE901A4FF07E504FF0000E9FED28
:103FF000CFAADFEDCF8A4BF8080B4AF8081BC9F8A7
:10400000040082F80DE00AF067F805EE100AF8EEF9
:10401000C57AF0EE685A67EE897AC648EAEC01AADA
:10402000E7EE8A5A00F12C01EBEC015A99ED007A87
:1040300075EE877A8B45C9ED007AE4D1B7EE007A48
:10404000C7EE277AC0ED007AB54A937BBBB10AF080
:1040500043F805EE100AB8EEC57ADFEDB77A27EE21
:10406000097AB0EE690AA7EE270A07F0FBFEB5EE63
:10407000400AF1EE10FA4FF0000300F0D8833268E6
:10408000F26100234FF07E5273623362B261AB483B
:104090000378002B40F0FF82A148837A0246002B70
:1040A00040F0C082DFF8FCB29BF80030012B00F03A
:1040B000E282022B00F0528397F82C20A04BBA5CCE
:1040C000A049DFF8E4A203EB82031B680B600AF04F
:1040D00003F805EE100AF8EEC57A97F82C309A48E6
:1040E0007A6ABA6267EE897AF0EE695A0133E7EECE
:1040F000A95ADBB20F2B87F82C3088BF0023C0ED04
:10410000005A88BF8AF82C30FEF79DBA0021DA6881
:104110009961DA610021032259621A62FFF71FB820
:104120008A488B49B0EE680A02F056FF89488A49EE
:10413000B0EE40AAB0EE680A02F04EFFF7EE007A49
:10414000B4EEE7AAF1EE10FAF0EE408A3FF748A885
:10415000FFEE007AB4EEE7AAF1EE10FA48BF48F29B
:1041600001023FF53FA8DFED7D7A2AEE27AABDEEDA
:10417000CAAA1AEE102A92B2FFF734B8DFF82CA2BE
:10418000774BDFF82CB29FED777A9AED000A93ED2A
:1041900000AADBED007A20EE070A3AEE67AA07F0E4
:1041A00017FE7149714B9AED006AD3ED007A9BEDD1
:1041B000007A6F4A6F4B01EB8000D0ED005A6E49D8
:1041C000F7EE006A75EEA65AF6EE006A76EE277AEA
:1041D00065EEA66AF4EEC87AAAEE267AF1EE10FA37
:1041E000A8BF77EEC87AB7EE004ACAED007A74EE3F
:1041F000477A37EE047AD2ED006AC7EE877A93EDFC
:10420000007A5E4BC1ED007AB0EE683AA6EE873ACE
:104210005B49D3ED004A93ED015AD3ED025A93ED79
:10422000036AD3ED046A93ED057AD1ED003AE3EE2B
:10423000674A34EE634AA4EEE75AA7EEA43AE5EEE5
:10424000675AE7EE854AA5EEE76AA7EEA55AE6EEBD
:10425000676AE7EE865AA6EEE77AA7EEA66A63EEED
:10426000873AE7EE876AE8EE843A83ED003AF0EEAB
:10427000638AC3ED014A83ED025AC3ED035A83ED0D
:10428000046AC3ED056A82ED007AFEF79ABF3D4BE2
:104290003D4993ED007ADFED287AD1F800C0DFEDDB
:1042A0003B6A9CED006A3A4A27EE277AD2ED007A03
:1042B000A6EE267AB0EE685AA7EE275AF7EE006A05
:1042C000B4EEE65AF1EE10FAF0EE457A83ED007A9C
:1042D00040F30D82F0EE667A2E482F4A0368DFF82D
:1042E000BCA0E3EC017AC2EB030BD34503600CF1F5
:1042F000040CC8BF02602948C1F800C0C2EB0C031F
:104300008342274BC8BF0A6093ED007AF7EE006A3C
:1043100076EEC76A68EEA68AE7EE878AFEF74CBF9C
:10432000F41000107C3E001000000000BF9F7A3F98
:104330006F12833A000000109A99193F351000104F
:10434000D4380108A83E0010301000102C110010C5
:104350001C3D0010242700102C3D001000FEFF46DD
:104360002407002083F92243CCE1000814E901204E
:104370001CE9012064DC012024E9012028E9012056
:1043800070DC012040E901208CDC0120CCCCCC3E4B
:10439000840000201C0700209C070020BFD40100DF
:1043A0007C00002036100010C010001020E9012011
:1043B00084DC0120D2ED037AF5EEC07AF1EE10FA3A
:1043C00009D577EE887AF5EEC07AF1EE10FAF8D4D6
:1043D000CC4BC3ED037AF4EEC87AF1EE10FA0ADBA7
:1043E00077EEC87AF4EEC87AF1EE10FAF8DADFF870
:1043F00014E3CEED037A9FEDC40A27EE800A07F09E
:10440000E7FCC249BF4ADFEDC24AD2ED037A92ED22
:10441000024AC04BDFEDC05A93ED005A01EB800019
:1044200090ED007AF7EE006AB6EE006AE4EE247AC8
:1044300037EE267A68EE868AC2ED037A28EE877A0E
:1044400077EE267A82ED077A67EE857AF4EEE57AE2
:10445000F1EE10FA40F3BC80DFEDB07A9FEDB06A68
:10446000B04B83ED016AC3ED027AFEF78EBEFFEE1C
:10447000007AF4EEE78AF1EE10FA48BF48F2010341
:104480003EF5BAAEDFEDA87A68EEA78AFDEEE88ABF
:1044900018EE903A9BB2FEF7AFBE93ED017AD3EDE2
:1044A000027A78EEC78AF4EEE78AF1EE10FAC3EDED
:1044B000048A3EF602AE00210222C3ED047AF0EE39
:1044C000678AD9611A62FEF7F8BD93ED077AD3EDDA
:1044D000067A78EE878AF4EEE78AF1EE10FAC3EDF9
:1044E000048AFEF6EAAD5A689968DA610122C3EDE2
:1044F000047AF0EE678A99611A62FEF7DEBDD3EDA9
:10450000037A9FED8A7A78EEE78AF4EEC78AF1EEB5
:1045100010FA40F2E480C3ED048AFEF7CEBDDAED76
:10452000037AF5EEC07AF1EE10FA08D577EE887AC4
:10453000F5EEC07AF1EE10FAF8D4CAED037AF4EE93
:10454000C87AF1EE10FA08DB77EEC87AF4EEC87A92
:10455000F1EE10FAF8DACAED037A9FED6B0A27EE56
:10456000800A07F035FC6949DAED037A9AED024AD0
:10457000DFED674A6E4BDFED685A93ED005A01EBB1
:10458000800090ED007AF7EE006AB6EE006AE4EE85
:10459000247A37EE267A68EE868ACAED037A28EE08
:1045A000877A77EE267A8AED077A67EE857AF4EED7
:1045B000E57AF1EE10FA40F31F81DFED587A9FEDB6
:1045C000586A5C4B83ED016AC3ED027AFEF7D4BDF5
:1045D00027EE866ADFED587A66EE277AF9EE046AEE
:1045E00077EEA75A27EEA77AE7EEA56A27EE877A35
:1045F000FAEE0E5AA7EEA57AF0EE087A66EEA77AE2
:10460000C7EE277A2CE74D4B1B78002B3FF4D7AC35
:104610004B4B1B78002B7FF4D2AC04F08DF804F0E8
:1046200017FFCCE4407A474918445BB250721FFA36
:1046300083FE01F1110011F8013B73449BB21AB2E1
:104640006A2A04DD0C3B9BB21AB26A2AFADC002A01
:1046500003DA0C339BB21A04FBD4814201F8013C0B
:10466000E9D13949DFF8F0B000238B729BF80030B4
:10467000012B7FF41EAD09F02FFD344B0340002BBE
:10468000C0F24687032B00F2A687DFE813F0F2069C
:10469000FB06E406EB0609F01FFD05EE100ADFED50
:1046A000230A9FED2B0AF8EEC57AE7EE890A07F098
:1046B0007FFC9FED287ADFED187A20EE070AB4EE32
:1046C000E70AF1EE10FA40F3D883DFED147A9FED9C
:1046D000147A184B83ED017AC3ED027ADCE40422EC
:1046E000F0EE478A83ED047A1A62FEF7E6BCBFEE6D
:1046F000007AB4EE475AF1EE10FA48BFF0EE477A6E
:10470000EAE500BF3C3E001083F92243CCE10008FB
:104710001F420939200700203333733F03123A4107
:104720003333F33E5C3D001000FEFF460000000006
:1047300078DC01203C3D0010DB0F49406800002080
:1047400019E90120C0100010F410001003000080CF
:1047500055550541CDCC4C3C3610001009F0BCFC41
:10476000E74B0340002BC0F2F086DBB2A3F10A0254
:10477000D2B2DFF8B4E3012A8EF8003040F20785A8
:10478000042B7FF499ACDFF88C93DE4BDFEDDEAACF
:104790009FEDDEAADFEDDE8AC3ED01AACB469A4685
:1047A0001AEE900A4FF07E514BF8081B4AF8080B9E
:1047B000C9F8041009F090FC05EE100AF8EEC57A6D
:1047C000F0EE685A67EE897AD249EAEC01AAE7EE80
:1047D0008A5A01F12C00EBEC015A99ED007A75EE42
:1047E000877A8345C9ED007AE4D1B7EE007AC7EE47
:1047F000277AC1ED007A5FE427EE866ADFEDC67A9C
:1048000066EE277AF9EE046A77EEA75A27EEA77AC2
:10481000E7EEA56A27EE877AFAEE0E5AA7EEA57A9A
:10482000F0EE087A66EEA77AC7EE277AC9E6F16855
:10483000B36100220323F1617262336227E49FEDCA
:10484000B77ADFEDB77AC8EE878AF4EEE78AF1EE41
:1048500010FA00F1B284B6EE007AF4EEC78AF1EEF7
:1048600010FAC8BFF0EE477A41F3B7839AED046AB5
:10487000DFEDAB5ADFEDA4CAF7EE006A76EE266AEA
:10488000F6EE00BA66EEAB6A4FF0000CF4EEE76AA3
:10489000F1EE10FA54BFB0EE666AB0EE676AB4EE9D
:1048A000476AF1EE10FAF4EEE58AC8BFB0EE476A47
:1048B000F1EE10FA8AF858C57EF5DEACF0EE658AA6
:1048C000FEF7E3BCDFED956ADFED957AC8EEA66AE8
:1048D000F4EEE76AF1EE10FA00F17384B6EE007AB6
:1048E000F4EEC76AF1EE10FAC8BFF0EE477A41F372
:1048F0007C83DBED045A9FED8A5AB7EE006A35EEF1
:10490000866AF6EE00CA26EE2C6A4FF0000CB4EE72
:10491000E76AF1EE10FA54BFF0EE465AF0EE675A2D
:10492000F4EE475AF1EE10FAF4EEC56AC8BFF0EEA5
:10493000475AF1EE10FA65EEACCA8BF854C56346DF
:104940007EF577ADF0EE456AFEF77CBDC8EE878A4E
:10495000DFED737AF4EEE78AF1EE10FA40F11C8491
:1049600000238AF84835F6EE006A9FED6D7AF4EE82
:10497000C78AF1EE10FA7EF5F2A9F0EE478AFEF74B
:10498000F7B99FED6A7ADFED6A5A28EE877AB4EEBE
:10499000E57AF1EE10FA01F23A83B0EE657ADFF8CB
:1049A00084E1F4EEC77AF1EE10FACEED045A7EF50A
:1049B00069AEF8EE005A85EE877A5A48F7EE005A4B
:1049C000E7EE875A90ED007A65EE875AFEF76BBEE8
:1049D0009FED567A9FED565A25EE877AB4EEC57A4A
:1049E000F1EE10FA3EF69DA8B0EE457AF4EEC77AE5
:1049F000F1EE10FA81ED045A7EF59BA8B8EE005A4C
:104A000085EE077A474AB7EE005AA7EE875A92ED2D
:104A1000007A25EE075AFEF79DB89FED447ADFED48
:104A2000445A26EE077AB4EEE57AF1EE10FA3FF634
:104A30004EA8B0EE657AF4EEC77AF1EE10FAC1ED49
:104A4000045A7FF54CA8F8EE005A85EE877A354A6D
:104A5000F7EE005AE7EE875A92ED007A65EE875A34
:104A6000FFF74EB8DFED317A9FED316A68EEA77A35
:104A7000F4EEC67AF1EE10FA01F2BF82F0EE467A59
:104A8000284AB4EEE77AF1EE10FA82ED046A7EF578
:104A90005CAAB8EE006AC6EE277A224BB7EE006A2F
:104AA000A7EE276AD3ED007A26EE276AFEF75FBAF3
:104AB0009FED1E7ADFED1E5A28EE877AB4EEE57A76
:104AC000F1EE10FA01F29E82B0EE657A154BF4EE2B
:104AD000C77AF1EE10FAC3ED045A7EF5DDAEF8EEBA
:104AE000005A85EE877ADFF83CE0F7EE005AE7EEF1
:104AF000875A9EED007A65EE875AFEF7DEBE00BF4C
:104B00000F0000807C3E001000000000BF9F7A3F35
:104B10006F12833A00000010DB0F494000803B47D2
:104B2000ACC527377C3D0010341000102EE3CD3982
:104B300017B7D1381FED037A5FED036A28EE877A45
:104B4000B4EEE67AF1EE10FA01F26682B0EE667A21
:104B5000D84AF4EEC77AF1EE10FAC2ED046A7DF598
:104B600081AEF8EE006A86EE877AD24BF7EE006AE5
:104B7000E7EE876A93ED007A26EE877AFDF784BE2A
:104B8000DFEDCD7ADAED008A9AED01AADAF820207D
:104B9000CAF81C20C7EEA88A0023CAF8183087EE8E
:104BA0008AAACAED038A8AED04AA09F095FA05EEED
:104BB000100AF8EEC57A3AEE68AA67EE897AE7EE4F
:104BC0008A8AFCEEE88ACAED058A09F085FA05EEC4
:104BD000900AF8EEE56AF0EE007A66EE896ABFEEBA
:104BE000007AA6EEA77A9AED056ADAED076A8AEDF1
:104BF000087A37EE667AF8EE466ADAED0A7A87EED8
:104C0000267A8AED097AFDF704BFDFEDAB7A9AEDDB
:104C100000AADAED01AADAF82020CAF81C2087EEF3
:104C20008AAA0023CAF81830C7EEAAAA8AED03AAF6
:104C3000CAED04AA09F050FA05EE100AF8EEC57A9A
:104C40007AEECAAA67EE897AA7EEAAAABCEECAAA29
:104C50008AED05AA09F040FA05EE900AF8EEE56A39
:104C6000B0EE007A66EE896AFFEE007AE6EE877AA9
:104C70009AED056ADAED076ACAED087A77EEE67A08
:104C8000F8EE466A9AED0A7AC7EEA67ACAED097A74
:104C9000FEF7C4BEDFED887ADBED008A9BED01AA4A
:104CA000DBF82010CBF81C10C7EEA88A0022CBF846
:104CB000182087EE8AAACBED038A8BED04AA009315
:104CC00009F00AFA05EE100AF8EEC57A3AEE68AA7B
:104CD00067EE897AE7EE8A8AFCEEE88ACBED058AF0
:104CE00009F0FAF905EE900AF8EEE56AF0EE007ABE
:104CF00066EE896ABFEE007AA6EEA77A009B9BED6E
:104D0000076A9BED055A8BED087A37EE467AB8EEC6
:104D1000456AD3ED005ADBED0A7ADAED026A87EED6
:104D2000067A8BED097AFDF7C7BEDFED637ADAED1F
:104D3000008A9AED01AADAF82010CAF81C10C7EE12
:104D4000A88A0022CAF8182087EE8AAACAED038A28
:104D50008AED04AA009309F0BFF905EE100AF8EEF7
:104D6000C57A3AEE68AA67EE897AE7EE8A8AFCEE9F
:104D7000E88ACAED058A09F0AFF905EE900AF8EE67
:104D8000E56AB0EE007A66EE896AFFEE007AE6EE3A
:104D9000877A009B9AED077A9AED056ACAED087A40
:104DA000F8EE466A77EEC77AD3ED005A9AED0A7AA2
:104DB000C7EEA67ACAED097AFDF756BEDFED3E7A58
:104DC0009BED00AADBED01AADBF82020CBF81C202C
:104DD00087EE8AAA0023CBF81830C7EEAAAA8BED7B
:104DE00003AACBED04AA09F077F905EE100AF8EE54
:104DF000C57A7AEECAAA67EE897AA7EEAAAABCEEAD
:104E0000CAAA8BED05AA09F067F905EE900AF8EE3B
:104E1000E56AF0EE007A66EE896ABFEE007AA6EEE9
:104E2000A77A9BED076A9BED055A8BED087A37EE62
:104E3000467AB8EE456ADBED0A7ADAED026A87EE69
:104E4000067A8BED097AFEF70FBE9FED1C7AF4EE21
:104E5000C77AF1EE10FA8BED047A7EF5BFACB8EEAE
:104E6000006A86EE077AB7EE006AA7EE876A9BEDC6
:104E7000007A26EE077AFEF7C1BCB6EE007A20EE85
:104E8000077ADFED0E7A67EE277AB9EE046A77EEDD
:104E9000A75A67EEA76AA7EEA56A67EEA66AFAEEBA
:104EA0000E5AE7EEA56AF0EE087A66EE277AC6EEAD
:104EB000A77A0EE47C3D00100080BB46DB0F494022
:104EC00000008042F7EE00AAF4EEEA8AF1EE10FA52
:104ED000C0F27E8278EEEAAA5FED078AEF4ADFF839
:104EE000D8B36AEEA88ACAEE8B7AC8EE8B8A37EE00
:104EF000877AB6EE000A38EEC00A8AED057A01918B
:104F0000009206F065FF06EE100AF8EEC66A009AF7
:104F1000019900F03F0078EEE66A02EBC0028B00D8
:104F200092ED017AD2ED007AE6EE877A0BEB030E72
:104F300040309EED007A77EE277AB0F5905F02F56B
:104F4000007203F10403CEED007AE9DBFDF799BFAF
:104F5000DFEDD37AB4EEE77AF1EE10FACAED047A17
:104F60007EF514AEB8EE006AC6EE277AB7EE006A98
:104F7000A7EE276ADAED007A26EE276AFEF716BE5C
:104F80009FEDC77AF4EEC77AF1EE10FA8BED047A52
:104F90007EF552AEF8EE006A86EE877AF7EE006A8A
:104FA000E7EE876A9BED007A26EE877AFEF754BE1D
:104FB000DFEDBB7AB4EEE77AF1EE10FACAED047ACF
:104FC0007EF5C0ACB8EE005AC5EE277AB7EE005AAF
:104FD000A7EE275ADAED007A25EE275AFEF7C2BC73
:104FE0009FEDAF7AF4EEC77AF1EE10FA8AED047A0B
:104FF0007EF502A8F8EE005A85EE877AF7EE005AA1
:10500000E7EE875A9AED007A25EE877AFEF704B824
:10501000002B40F09881F4EEEC8AF1EE10FA40F2A9
:10502000E4858CEEA8DA1A46F6EE007A3DEE67DAF1
:10503000F7EE007AF4EEE7CAF1EE10FA80F2EA84B5
:105040000021B0EE6CBA1346CBF818108EE1DFEDFC
:10505000947AB4EEE77AF1EE10FACAED047A7EF5AE
:1050600067ABB8EE005AC5EE277AB7EE005AA7EE46
:10507000275ADAED007A25EE275AFEF769BBBCF114
:10508000000F40F01F81B4EEECBAF1EE10FA40F2DE
:10509000F9856346F7EE008AF4EEE8CAF1EE10FAFD
:1050A00080F216850022F0EE6C8A9C46CAF8182021
:1050B00015E1DFED7B7AB4EEE77AF1EE10FACAED96
:1050C000047A7DF58DADF8EE005AC5EEA77AF7EEBD
:1050D000005AE7EE275ADAED007A65EEA75AFDF797
:1050E0008FBD9FED6F7AF4EEC77AF1EE10FA8BED7B
:1050F000047A7DF5CBADF8EE006A86EE877AF7EE9E
:10510000006AE7EE876A9BED007A26EE877AFDF764
:10511000CDBD6449D1ED037AF5EEC07AF1EE10FA17
:105120000DD577EE887AF5EEC07AF1EE10FAF8D464
:10513000F4EEC87AF1EE10FA06DB77EEC87AF4EEF8
:10514000C87AF1EE10FAF8DA9FED557AF4EEC77AE4
:10515000F1EE10FA87EE877A00F1E081514B93ED82
:1051600000AAB0EE006AF6EE006A37EE467A2AEE42
:1051700026AA2AEE07AA9FED4C7ADFF828E1E8EE8E
:10518000877A8EED07AACEED037AFDF786BF0C2352
:105190008EF80030FEF790BFF6EE007AF4EEE78A64
:1051A000F1EE10FA4FF00003D8BFF0EE687A8AF8FB
:1051B0004835F6EE006AFFF7D8BB9FED3C7AFFF763
:1051C00055BB9FED3A7AFFF794BBB4EEECBAF1EE23
:1051D00010FA40F20D86F7EE007AF4EEE7CAF1EE2F
:1051E00010FAFEF6BBA84FEA89012C4ADFF8CCB0D2
:1051F000029100F03FBEF4EEE7CAF1EE10FA80F241
:10520000B182C7EEA8DA4FEA89010291DFF8B0A0B7
:1052100027493CEEE87AC7EE8A7A87EE0A7A7DEE75
:10522000A7DAB6EE00DA3DEE47DA6AEEADDA9FEDC8
:1052300021EA01912BEE0EEAF6EE00CA8EEE2AEA82
:105240007EEE6CCAB0EE6C0A06F0C2FD05EE100AE6
:1052500000F03F00F8EEC56A421C0AEB820A7EEEBF
:10526000666A029A01995AED017A9AED007A37EE50
:10527000677A8B18E6EE877A4030B0F58E5F0AF5D4
:10528000807AB0EE677AD3ED007AEDEE877A02F19C
:105290000402C3ED007AE6DBFEF768B9803A010844
:1052A000DB0F49407C3D00101F42093958FF7F3F0A
:1052B000000B00100000804250000010A8050010F4
:1052C000D0F10008F7EE008AF4EEE8CAF1EE10FA29
:1052D00080F285810023F0EE6C8ACAF8183009F15B
:1052E00010020AEB820292ED007ADAED017ADFF821
:1052F0005CB437EE2B7AB0EE4ACA82ED007A0AEB44
:10530000890292ED0C7A37EE4AAAB6EE007AAAEE3E
:1053100007CA09F10102B2F5807F2CEE27AA8AEDB7
:1053200000AA00F02C81CAED078ACAED08AA8AED0E
:1053300009BACAED0ABA8AED0BCACAF85025CAF8EA
:1053400054C5FDF7AABEF4EEE7CAF1EE10FA80F2FA
:105350008F817CEEE87AB6EE00DA87EE8AAA002228
:10536000CBF81820B0EE6CBA3DEE4ADA09F10E0225
:105370000BEB8202D2ED017A9BED01AADFF8D0A3FC
:1053800037EE8DDAF0EE4CBA82ED01DA0BEB8902E2
:10539000D2ED0B7A37EECCCAF6EE007AECEE27BAF5
:1053A00009F10102B2F5807F2BEE8AAA8BED00AAEB
:1053B00000F0FC808BED07BACBED08AACBED098A93
:1053C000CBED0ABACBF84C25CBF85035FDF765BECE
:1053D0000023F0EE68AACAF81430FDF752BDD04A97
:1053E000DFF870B34FEA8109FDF718BDCD49D1ED63
:1053F000037AF5EEC07AF1EE10FA0DD577EE887AE1
:10540000F5EEC07AF1EE10FAF8D4F4EEC87AF1EEC7
:1054100010FA06DB77EEC87AF4EEC87AF1EE10FAED
:10542000F8DA9FEDC17AF4EEC77AF1EE10FA87EE62
:10543000877A00F1C384BB4BF0EE006A37EE667AE0
:1054400093ED006A27EE066AFEEE006A27EE067A02
:1054500027EE26AA8FE6B5489BF800300B22027093
:10546000FEF727BEB1499BF800300C220A70FEF708
:1054700020BEDFF8B8E29BF8003009228EF8002049
:10548000FEF717BEDFF8B892A949DFEDAAAA9FED93
:10549000AAAAC1ED01AA4B468A464FF07E501AEEE9
:1054A000901A43F8080BDFEDA58A4AF8081BCDF8DF
:1054B0000880C9F80400984608F00EFE05EE100AB0
:1054C000F8EEC57AF0EE685A67EE897A9C48EAEC05
:1054D00001AAE7EE8A5A00F12C01E8EC015A99ED95
:1054E000007A75EE877A8845C9ED007AE4D1B7EE87
:1054F000007AC7EE277ADFF834E2DDF808809BF8FF
:10550000003004228EF80020C0ED007AFEF7D1BDF5
:10551000013B63F003030133FFF7B4B8814A92ED16
:1055200000AAF6EE006A2AEE26AA2AEE07AA22E6CA
:10553000DFED846A7B48B7EE007AA7EEA67A90ED9D
:1055400000AA27EE0AAAFEF7D5BB013B63F00F03C2
:105550000133FFF70AB90BF224414FF490720BF1BB
:10556000240008F0CDFC00210BF5A2704FF48062FE
:1055700008F060FD9BED00AA0021FDF7A7BC0BF52C
:1055800086614FF490720BF13000CDF804C008F042
:10559000B7FC4FF480620BF5A870002108F04AFDBB
:1055A0009BED00AADDF804C00022BCE60AF22C4103
:1055B0004FF490720AF12C00009308F0A1FC4FF414
:1055C00080620AF5A670002108F034FD9AED00AA69
:1055D000009B0022EEE69BF80030FEF76ABD7CEEF1
:1055E000E88ADFED5FBA4E4ADFF86CB168EEABBA1D
:1055F00088EEAA7A4FEA89010291CBEEAABA77EE39
:10560000277AB6EE000A3BEEC00ACAED067A00928F
:1056100006F0DEFB05EE100AF8EEC56A009ADDF82A
:1056200008E000F03F007BEEE66A02EBC00191ED7E
:10563000017AD1ED007AE6EE877A0BEB0E0340306B
:1056400093ED007A77EE277AB0F5905F01F500715F
:105650000EF1040EC3ED007AE9DBB4EEE8BAF1EE28
:1056600010FA40F28384F6EE00BA4FF0000C36E6F2
:105670003CEEE7BADFED3ACA3349DFF8E0A06BEE63
:105680002CCA8BEE2A6A4FEA89020292CCEEAACA91
:10569000C7EEA8BA8BEE28DAC7EE8A7AF6EE006A71
:1056A00036EE077A3CEEE60A3DEE66DA8BED067AD8
:1056B0007BEEA7DA019106F08BFB05EE100AF8EEFF
:1056C000C56A00F03F00421C2AEEAD6A7CEEE66A35
:1056D000DDF808E001990AEB820252ED017A92EDC1
:1056E000007A37EE677A01EB0E03E6EE877A4030F8
:1056F000B0F58E5F02F58072B0EE677AD3ED007A76
:10570000E6EE077A0EF1040EC3ED007AE5DBF4EE67
:10571000CB8AF1EE10FA40F2E483002326E600BFC4
:10572000803A01087C3D0010DB0F49403410001026
:105730007C3E001000000000BF9F7A3F6F12833A4A
:105740000000001083F922BF000B00107805001044
:10575000D40A001050000010A8050010D0F1000875
:10576000000080427CEEE7CA1FED037AD249019126
:105770007BEE2CEA87EEA8EA4FEA89020292DFF874
:1057800040A36EEE87EAC7EE8A7ACEEEAAEA8CEEE6
:10579000A8DAB6EE007A3EEEC70A7EEE27DA3DEED4
:1057A00047DA06F015FB05EE100AF8EEC56A00F0C0
:1057B0003F00421C6AEEADDA7EEEE66ADDF808E0F4
:1057C00001990AEB820252ED017A92ED007A37EEEE
:1057D000677A01EB0E03E6EE877A4030B0F58E5F14
:1057E00002F58072B0EE677AD3ED007AEDEE877A3B
:1057F0000EF1040EC3ED007AE5DBF4EEEC8AF1EE77
:1058000010FA3DF6A9AE7CEEE87ADFEDAF6A0191C1
:105810007BEE27CABFEE007A6CEEA6CA87EE8ADA64
:10582000CCEEAACA87EE0A7AF6EE007A3CEEE70AD8
:1058300037EECDDA37EE4EEA06F0CAFA05EE900AF8
:10584000F8EEE57A00F03F00421C2AEE8EEA7CEE8C
:10585000E7CADDF808E001990AEB820252ED017A0D
:1058600092ED007A37EE677A01EB0E03ECEE877A61
:105870004030B0F58E5F02F58072B0EE677AD3EDFE
:10588000007AEEEE077A0EF1040EC3ED007AE5DB46
:10589000CDE47CEEE7CADFED8C7A884A009278EEA0
:1058A000ACBAB6EE000A6BEEA7BA4FEA8903CBEEAC
:1058B000AABA0293DFF80CB23BEEC00A06F088FAEF
:1058C00005EE100AF8EEC56A009ADDF808E000F06F
:1058D0003F007BEEE66A02EBC00191ED017AD1ED6B
:1058E000007AE6EE877A0BEB0E03403093ED007AF8
:1058F00077EE277AB0F5905F01F500710EF1040E96
:10590000C3ED007AE9DBB4EEECBAF1EE10FA3DF645
:1059100023AD7CEECBBADFED6C7A009278EEABBAB9
:10592000B6EE000A6BEEA7BACBEEAABA3BEEC00AFF
:1059300006F04EFA05EE900AF8EEE57A009ADDF8E8
:1059400008E000F03F007BEEE7BA02EBC00191ED0A
:10595000017AD1ED007AEBEE877A0BEB0E03403043
:1059600093ED007A77EE677AB0F5905F01F50071FC
:105970000EF1040EC3ED007AE9DBFDF7BEBC7BEE51
:10598000687ADFED51CA019167EEACCAFFEE006A9A
:10599000CCEEAACADFF828A1B7EE007A87EE8ADA41
:1059A00087EE287A86EE8AAAF6EE007A3CEEE70ABF
:1059B0003AEE47AA37EECDDA06F00AFA06EE100AFA
:1059C000F8EEC66A00F03F0000F1010E2AEE8A6A86
:1059D0007CEEE66A029A01990AEB8E0A5AED017A88
:1059E0009AED007A37EE677A8B18E6EE877A4030C8
:1059F000B0F58E5F0AF5807AB0EE677AD3ED007A63
:105A0000E6EE077A02F10402C3ED007AE6DB012339
:105A1000FDF7E6BD3CEEE7BADFED2BBADFED2B6A12
:105A20002549DFF89CA06BEE2BBA8BEE2A6ACBEEF1
:105A3000AABA87EE8AAA8BEE28DAC7EEA87AB6EE63
:105A4000007A76EE266A3BEEC70ACBED066A37EEA1
:105A50008AAA3DEE47DA0191009306F0B9F907EE04
:105A6000100AF8EEC76A00F03F00421C2AEE8A6A6C
:105A70007BEEE66A009B01990AEB820A4FEA8902F3
:105A80005AED017A9AED007A37EE677A01EB020E51
:105A9000E6EE877A4030B0F58E5F0AF5807AB0EE98
:105AA000677ADEED007AE6EE077A02F10402CEEDC7
:105AB000007AE5DB5AE400BF000B0010803A0108D1
:105AC000D0F10008A80500100000804208E53C1E47
:105AD0007CEEE88A5FED04BA5FED047ABE4ADFF837
