:020000040800F2
:1000000034F80120D59600089D90000875900008EE
:10001000719000086D9000086990000800000000D1
:1000200000000000000000000000000065900008D3
:1000300061900008000000005D900008618F0008DA
:10004000A1900008A1900008A1900008A1900008CC
:10005000A1900008A1900008A190000879900008E4
:10006000A1900008A1900008A1900008E9A700084D
:10007000A1900008A1900008A1900008A19000089C
:10008000A1900008A1900008A1900008A19000088C
:10009000A1900008A1900008A1900008A19000087C
:1000A000A1900008A1900008A1900008A19000086C
:1000B00021900008A1900008A1900008A1900008DC
:1000C000A1900008A1900008A1900008A19000084C
:1000D000A1900008A1900008A1900008A19000083C
:1000E000A1900008A1900008A1900008A19000082C
:1000F000A1900008A1900008A190000891A7000815
:10010000A1900008A1900008A1900008C9A60008CD
:10011000A1900008A1900008A1900008A1900008FB
:10012000A1900008A1900008A1900008A1900008EB
:10013000A1900008A1900008A1900008A1900008DB
:10014000A1900008A1900008A1900008C99600089D
:10015000A1900008A1900008A1900008A1900008BB
:10016000A1900008A1900008A1900008A1900008AB
:10017000A1900008A1900008A1900008A19000089B
:10018000A1900008A19000082DE980480020A3B0AC
:100190000AF056FB01200AF053FBCA4C02200AF079
:1001A0004FFB03200AF04CFB236BC74843F00103CD
:1001B0002363636C22AA114643F4804363640B46B5
:1001C000012243F8402D0025194601938DF84C502B
:1001D0008DF84F5009F0B0FBBC4BBD4A1B68A2FB29
:1001E00003235B09013BB3F1807F80F0E484B94ACB
:1001F000B9495360F020072381F82300956013600C
:10020000626BB64B42F0400262631A6842F004022D
:100210001A605968B14ACE07FBD5B14FDFEDB19AEC
:100220009068B14DDFF878939FEDB0AADFF8748342
:10023000AF4E9FEDB09ADFEDB08A00244FF0814BB6
:100240004FF0804A0DF048F83846C7F800B0C7F8BC
:1002500004A0AA493C62C7ED029A4FF07E57A84A13
:10026000A84B2F6000250D70A74915701D70A74A77
:10027000A74B0D70A74915701D70A74ADFF828E33A
:1002800043F2C8230B60A549A54B1160A54ACEF8DF
:1002900000701A6008F082FFA34B1846C3F800B044
:1002A000C3F804A01C62C3ED029A08F077FF9F4BCD
:1002B0001846C3F800B0C3F804A01C62C3ED029A4C
:1002C00008F06CFF9FED9A0A9A4BC9F820300AF0AB
:1002D00069FE07EE900AF8EEE77AB6EE008A67EE5E
:1002E000887A954B954AC9F82400FCEEE77A0420F9
:1002F0002421C9F8285089F82C50C9ED0C7A9D7238
:10030000DD721D735D739D731D70187259725A6092
:1003100008F0D2FB8A4B8B4A83ED028A1D625D6234
:1003200083ED00AA83ED01AAC3ED039A9C611C61D1
:1003300040F27753DFF874E2DFF87492C8F80C30BB
:1003400041F2F45CD360804BDFED807ADFF864A289
:10035000C8F8049002F11000C2F804907C49C3F878
:1003600000A04FF0010902F80C9008F80C90CEF8AC
:1003700000A0DFF844C282ED028A00F5AF5A82ED98
:10038000008A744ACEED017A9A600F60DFF82CB2D1
:10039000CEF808402946DFF828E2C3F804B04FF44D
:1003A000AF52CCF800E0CAF800E088ED028A88ED90
:1003B000008A0CF043FF294608F110004FF4AF52B9
:1003C0000CF03CFF6449654ADFF8F8C16448654DAC
:1003D000C1F818C0C2F818C04FF0785C624BDFF863
:1003E000E8B1DFF8E8A1C1F804C0C2F804C08D602C
:1003F0009560DFF8DC81DFED5D7ADFF8D8C15C4D18
:1004000081F8009082F80090C1F80CA0C2F80CA00E
:100410000360C0F808B00C614C61CC611461546198
:10042000D461DFF8B491DFF8B4A1C460C461446161
:10043000876143604F495048504ACCF80090C5F856
:1004400000A0C8ED007ADFF89891DFF898814C4D54
:10045000C1F80080C0F800901560DFF88CE1DFF88B
:100460008CC14849DFF88891474D484ADFF884A19C
:10047000DFF884814648CCF80080F5EE007ADFF89A
:100480007C81DFF87CC10860C9ED007A4148C5ED88
:10049000007AF146354613603F49C2F808B0CAF801
:1004A00008B05360D460D46154619761CAF80030D9
:1004B0003A4ACAF80430CAF80C40CAF81C40CAF8D4
:1004C00014409FE000380240000002406400002019
:1004D000D34D621010E000E000ED00E0000806508F
:1004E000280C00100AD7233CF00000106F12833A4A
:1004F0004400001000000030BF9F7A3FE900001068
:10050000C4000010E80000109E1200109C120010A1
:100510009D1200107CEA0120C8E90120C4140020CB
:1005200090E90120E4DF0020540C0010800C001042
:1005300000A00C460000A0433400001080BC01085D
:100540009C000010A8280010982800108FC2F53DCC
:1005500078EA0120DB0FC93FC80000107C120010B0
:1005600014010010A913D43ECDCC4C3F00004843E9
:1005700080EA0120CCE90120B8E90120D0E901207E
:100580008988083CC4E901208CE90120E80B0010AF
:10059000FE9C5B373C1200105C1200101812001019
:1005A00000000010A012001038120010A03E001031
:1005B000CDCC4CBE0000484290280010AE47E13D33
:1005C00000007043CDCCCC3E00C012446666663F4E
:1005D000B8120020601100200080D444CDCCCC3D66
:1005E0009A99993E3333333F70000010BCE90120E3
:1005F00098E90120080C00101111913DAC0C00107D
:10060000F4000010CAF81870DFF820A4C8F808B089
:10061000CCF808A0C8F80030C8F80430C8F80C407E
:10062000C8F81C40C8F81440C8F81870CCF800404E
:10063000CCF80440CCF80C40CCF81C40CCF814406A
:10064000CCF81870046044608460C460C461446184
:10065000876145F8087B49F8084BA34606F12C0A48
:100660007760CEF804400C604C608C60CC60CC614C
:100670004C618F619761146054609460D460D46160
:1006800054610CF033FE07EE900AF8EEE77AB0EE14
:100690004A7A67EE897A49F804BBA7EEA87ADFF8B0
:1006A00090E34FF00008A5EC017AF0EE477A96ED62
:1006B000007A77EE877A5545C6ED007AE1D1B7EE3C
:1006C000008AC8EE277ACB4BDFF868B3C3F81080F6
:1006D00000254FF0010903F1240029464FF4A462DC
:1006E000C3F82080C3F80CB083F84895C3F844558C
:1006F000DFF820A383ED018ACEED007A0CF09EFD99
:10070000BD4BBE4FC3F80CB0294603F130004FF487
:10071000A462C3F81480C3F81080C3F82C8083F857
:10072000589583ED018AC3F850550CF087FDB44B02
:10073000B44EC3F80CB04FF4A462294603F12C0068
:10074000C3F81480C3F81080C3F8288083ED018AB1
:1007500083F85495C3F84C550CF070FDDAF830303E
:10076000A9480199A94C43F00803CAF830304FF06A
:1007700002084FF0100B8DF84C908DF84E508DF80C
:100780004F50CDF848B08DF84D8009F0D5F8DAF823
:100790003030019943F00703CAF8303038464FF43F
:1007A000107312938DF84C808DF84D808DF84E901B
:1007B0008DF84F5009F0C0F83B6A23F070633B623C
:1007C0003B6A43F080633B627B6A23F0F0037B6209
:1007D0007B6A43F040037B62019F8DF84C804FF4AD
:1007E000A0533046394612938DF84D808DF84E5007
:1007F0008DF84F5009F0A0F88548036A23F4702360
:100800000362036A43F4C0230362736A23F47063D0
:100810007362736A43F4C06373622368434500F0F4
:10082000CB813946CDF848B009F086F8736A23F4D5
:1008300070237362736A43F4C0237362714D01992C
:1008400002220023802628468DF84C208DF84D206A
:100850008DF84E308DF84F30129609F06DF82B6AF6
:10086000694A23F070432B622B6A102143F0C04386
:100870002B6244F6FF735183013BFDD1624B654A05
:10088000654910201883136C43F400131364136A32
:1008900043F400131362136A23F4001313620B88EA
:1008A0009BB243F001030B808888936820F03F00DF
:1008B00003F00C030004042B4FEA104000F0CF8536
:1008C000082B40F0C985556853686D0203F03F015D
:1008D00040F153855568514AB2FBF1F3C5F38812D4
:1008E00003FB02F34B4A5268C2F301420132520049
:1008F000B3FBF2F3474EDFF840E1B168484D464A9A
:10090000484FC1F3031C44F233011EF80C80D6F8A3
:1009100008C0CCF3822C23FA08F31EF80CC0B6688A
:1009200023FA0CF3A5FB03C5AD0CC6F342362843EE
:100930001EF80660908010889B09A7FB03639B0943
:1009400020F00100032B4FEA004098BF042301353B
:10095000000C10801584938313889BB243F001032D
:100960001380138823F4816323F002031B041B0C00
:1009700043F48063138002201181012108F0FAFC06
:10098000AF210546042008F0F5FC274BAF220544B3
:10099000812105201A7008F0EDFC04210544062091
:1009A00008F0E8FCCB210544202008F0E3FC2120DE
:1009B000CB2108F0DFFC2368022B3FD10121082066
:1009C00008F0D8FC01210646092008F0D3FCC0211C
:1009D00006440E2008F0CEFC3544002105441420C6
:1009E00008F0C8FC00210544152008F0C3FC0544AC
:1009F00024E000BFCC0C00108C0600100004024064
:100A00003401001000080240000C024000000020E9
:100A100000000240003802400054004000127A00FA
:100A200083DE1B43632D3E05B61200200000B0405C
:100A3000440000100000DC43680000209E210220DA
:100A400008F098FC002105440A2008F093FC236874
:100A5000022B054404D00E20042108F08BFC054431
:100A60000021272008F086FC0F2105441F2008F0F4
:100A700081FC0A2105441A2008F07CFC0A21054467
:100A80001B2008F077FC5549554E0B6C43F400438E
:100A90000B640B6A43F400430B620B6A23F40043BC
:100AA0000B62B28B22F47B6222F00F021204120C52
:100AB0000223B2833384B68B8A68120205EB0003EB
:100AC000B0B203D58A6822F400028A60434D454AD9
:100AD000D5F88410D5F88470D5F804C0DFF82CE17F
:100AE000414DC1F38816C7F302770CF03F01B2FB0A
:100AF000F1F106FB01F1B1FBF7F10A0A02EB820109
:100B00004900AEFB0112920A053292B2A5FB021215
:100B1000D20802F001015208951E0902FD2D89B28A
:100B20009CBF41F400710A432D4988BF40F2022264
:100B300040F420600A8488832268022A12D1274860
:100B4000026C01F5605142F0005202640A68149888
:100B500022F47F6222F00E0202430A600A6842F029
:100B600001020A60002B00F0C583204D10AE216801
:100B70001F48204C204AAA604FF4C86303602046F7
:100B80002B6108F06FFE2368154A43F001032360D0
:100B9000938B5B0504D4938B9BB243F48063938364
:100BA000164B174C174A1849116000251D60236920
:100BB000DF072DD4FEE7FEE7DAF83030019943F085
:100BC0000103CAF830300323CDF848B08DF84F50F8
:100BD0008DF84C3008F0B0FE30E600BF003802401F
:100BE000003C004000127A00CDCCCCCC3CEA012085
:100BF00060000020B8600240DC0400205C0000209F
:100C000000000240B01200205C110020F1197605AE
:100C1000DE4FDF4BDDF804B01D703B6BDFF8A8A39F
:100C200043F001033B634FF4D05202232046594660
:100C30004FF0030912928DF84C308DF84E508DF81C
:100C40004F508DF84D9008F077FE636A23F0F00363
:100C50006362636A43F0A0036362636A23F47043D0
:100C60006362636A43F420436362636A23F470231C
:100C70006362636A43F420234FF0010863622046F5
:100C80004FF48063594612938DF84D908DF84E8045
:100C90008DF84F8008F050FE636ABE4ABE49DFF807
:100CA00024B323F470636362636A43F42063636272
:100CB0007B6C43F480437B647B6B4FF0006443F0B8
:100CC00080037B63304694601C23D1608DF84030F4
:100CD0008DF842808DF843808DF841500AF0ECF891
:100CE0003B6C43EA08033B64284609F019FE9AF876
:100CF00004308AF803804022072B8AF800508AF8D3
:100D000001508AF802508AF81C808AF820508AF82C
:100D100021808AF8062007D803F531730BEB4303D3
:100D20009A88C2F30E029A809AF80530072B07D8EA
:100D300003F531730BEB43039A88C2F30E029A80DA
:100D40009649974CCAF8441100230821CBF8103378
:100D5000CAF84841CBF81433CBF850338BF88C33B6
:100D6000CBF81833CBF854338BF88D33CBF81C33D6
:100D7000CBF858338BF88E33CBF82033CBF85C3379
:100D80008BF88F33CBF82433CBF860338BF8903368
:100D9000CBF82833CBF864338BF89133CBF82C3372
:100DA000CBF868338BF89233CBF83033CBF86C3315
:100DB0008BF89333CBF83433CBF870338BF8943310
:100DC000CBF83833CBF874338BF89533CBF83C330E
:100DD000ABF8B2138BF800104021ABF804100421DB
:100DE0008BF801104FF4A071DFF8E081DFF8E0C16B
:100DF000ABF8061002214FF0A0426A488BF80810A9
:100E00006949DFF8D0E1694F694E6A4DCBF810802F
:100E1000012408F55878CBF818C0ACF5A06CCBF8D5
:100E20007833CBF80C208BF896338BF80330CBF863
:100E30004033CBF854E0CBF87C33CBF81C708BF804
:100E40009733CBF85860CBF84433CBF82050CBF82D
:100E50008033CBF85C008BF89833CBF82410CBF8B8
:100E60004833CBF86080CBF88433A0F5E0608BF892
:100E70009933A1F58C61CBF84C338BF80240CBF859
:100E800088338BF80B408BF89A33CBF814C09368F7
:100E9000CBF8CC00CBF89010A8F5C8680CF5A07C76
:100EA000AEF5B46EA7F56877A6F5B066A5F56075E2
:100EB00000F5D07001F53061CBF89480CBF898C084
:100EC000CBF89CE0CBF8A070CBF8A460CBF8A8508E
:100ED000CBF8AC00CBF8D0100CF52B5CDFF8F8E0C9
:100EE0003548364E364DCBF8D8C0A1F5007123F009
:100EF000010308F5D7584FF05027CBF8DCE0CBF8CA
:100F00000C11CBF8D480CBF8E070CBF8E460CBF8D0
:100F1000E850CBF8EC009360D36843F04003D36013
:100F200008F0DEFC9BF80920DBF80C30002A0CBF2F
:100F30004FF434124FF474129A632146142009F0CE
:100F4000A7FC9BF80330DBF80C20A34206D1936882
:100F5000052161F3440343F020039360D368194EE5
:100F60006FF39E7343F000530121D360322009F0E8
:100F70008FFC304609F0D4FCDBF80C317269114E5D
:100F800000241C609BF80830012B27E00038024049
:100F90007800002000ED00E00005FA054C0000207C
:100FA00004000020400B0050600900502009005050
:100FB000200B00504009005000800050006000509D
:100FC0000070005084EA01206411002000080050E5
:100FD00000090050000B005000400050136816BF7D
:100FE000012164F3010361F301031360304607F04C
:100FF00013FCDBF8142013686FF3820313609BF873
:101000000B30012B254600F02D82F268B0490023F9
:101010000F930F9B43F020030F930F9B23F4F86370
:1010200043F480630F930F9B136113690F9303E0E5
:1010300013690F93013902D00F9B9C06F8D402214B
:10104000032009F025FC00231093109ADBF80C30E4
:101050009F4942F010021092109A1A611A69109278
:1010600003E01A691092013902D0109AD006F8D420
:101070000320022109F00CFC9BF800009549002890
:101080005BD0D1F890404FF0FF3200230128A260DE
:10109000E36052D0D1F894400228A260E3604CD0C3
:1010A000D1F898400328A260E36046D0D1F89C4074
:1010B0000428A260E36040D0D1F8A0400528A260D7
:1010C000E3603AD0D1F8A4400628A260E36034D0AF
:1010D000D1F8A8400728A260E3602ED0D1F8AC4038
:1010E0000828A260E36028D0D1F8B01009288A60EF
:1010F000CB6022D0DBF8B4407649A2600A28E360D6
:101100001BD0D1F8B8400B28A260E36015D0D1F80D
:10111000BC400C28A260E3600FD0D1F8C0400D287D
:10112000A260E36009D0D1F8C4400E28A260E36059
:1011300003D0D1F8C8108A60CB60674BDBF8CC20B5
:101140000121598313686FF382036FF341036FF337
:10115000C3036FF34513D90402D443F480531360DF
:10116000C820012109F094FBDAF84821DBF80C30A3
:101170009BF8034011685948594E5A4F00229A6112
:1011800094424FF0FF325A616FF080445A6014BFAE
:10119000002210225C6142F00C529861986942F47E
:1011A000001242F0080202439A619A6842F001027A
:1011B0009A608847DDF804804B4B4C4ADA60012482
:1011C000432340468DF848308DF849408DF84A4019
:1011D0008DF84B4009F070FE1722022340468DF82F
:1011E00048208DF84A308DF849408DF84B4009F081
:1011F00063FE02238DF83B30DBF810234FF000092B
:10120000002A48D19AF800203949002A40F0E186A6
:10121000DBF81033002B40F028874FF0804301218A
:1012200031601A8822F001021204120C1A809A8985
:1012300022F001021204120C9A811A8822F45C72C4
:101240001204120C1A8042F6DF644FF6FE7205207B
:10125000DC62188599821A821A8892B242F0800262
:101260001A809A8992B20A439A811A8892B20A43E2
:101270001A803368002BFCD14FF08042138823F092
:1012800001031B041B0C138002238DF83B30DBF899
:101290001023002AB6D09AF800300A2BBDD801A23C
:1012A00052F823F0111200085D150008D91F00083C
:1012B0001B1200080B150008F5160008D7140008CB
:1012C000AD140008851400081B1200081717000849
:1012D000400D030084EA012000080240000800805D
:1012E00028EA0120C012002000ED00E00006FA0507
:1012F000641100202768012F52D08C4D0DF13C085D
:101300002368012B43D08A4A8A48136B43F40013A5
:1013100043F001031363136C10AE43F000531364E6
:10132000032731461022002310928DF847308DF8A4
:10133000447008F001FB8048149A03687F4923F445
:101340007F6323F00E0313430360036843F001033C
:1013500003608B889BB243F080038B803322012390
:1013600040468DF83D708DF83E708DF83C208DF82C
:101370003F3009F0A1FDFFF7FABB5268704BB3FB99
:10138000F1F3C2F3881203FB02F3FFF7ABBA6B4A27
:1013900093889BB243F00203938010AEFFF7E7BB44
:1013A0006348684E026B614DDFF8ACE1664942F478
:1013B00000120263326822F00102326032684FF09C
:1013C000210922F001024FF03D5A3260304633606D
:1013D0004FF6FE7C73604FF48072B3604FF04008AC
:1013E000F3603361C6F81490CEF80CA04FF4806916
:1013F0004FF4005E2B60AB606B61EB622B636B6341
:10140000AB634FF4006A4FF44033C5F80C806A6256
:10141000AB626960C5F810C0C5F81890C5F81CA08B
:10142000C5F820E008F01EFA336843F0100333607B
:1014300033680DF13C0843F0080333602F22032387
:1014400040468DF83F708DF83C208DF83D308DF88A
:101450003E3009F031FD53E7394BFFF74BBA3B4BB8
:10146000FFF748BA2123A121F26863F30F0461F367
:101470000F05C0F28004C0F2800553629462C2F886
:101480000051C3E5DAF84831314C9B6B984701288D
:101490007FF4C3AED4F844312E481B6821469847E8
:1014A00000287FF4BAAE05232370B6E69AF81C3004
:1014B0008AF81290013B0A2B3FF6AFAEDFE813F03B
:1014C0006C05330546050E05DD04CA04AE048F0421
:1014D000710460042305DAF844311D4C1D48DB68B3
:1014E000214698478DF83B009DF83B30DBB21A1F30
:1014F000012A40F2F685062B7FF48FAED4F84831EE
:101500000A221B682270984787E69AF80230092B56
:101510003FF683AEDFE813F0D00360030702B801A3
:101520005602260282015E013D0135013CEA01209E
:10153000003802400000024000740040003C0040BF
:101540000024F400B86002400C3C004000127A0015
:101550006411002084EA012000600240DAF848317A
:10156000C64C9B689847BBF98C25C54B002A80F276
:10157000DE85B3F98E25002A80F2F585B3F9902532
:10158000002A80F2ED85B3F99225002A80F2F785D2
:10159000B3F99425002A80F2F885B3F99625002A3C
:1015A00080F2F985B3F99825002A80F2F185B3F924
:1015B0009A35002B80F2E685FF236371BBF98E25F7
:1015C000AF4B002A80F2D885B3F99025002A80F22B
:1015D000D085B3F99225002A80F2C885B3F9942505
:1015E000002A80F24286B3F99625002A80F23A86D4
:1015F000B3F99825002A80F23286B3F99A35002B88
:10160000B8BFFF2380F228869D488AF8043007F08F
:1016100003F9DAF84831DB689847DBF8CC20DAF8D0
:1016200048311068C0F341408AF82100042200F0DC
:1016300003009B698AF8002098479AF804109AF8EA
:1016400021400BEB41020BEB4113B2F88C0583F800
:10165000B19300F07F0501F11E02C0F3C0100BEB47
:10166000421283F8AE039AF8200083F8AC039AF88C
:10167000060083F8AD53A3F8B20383F8AF4382F8B2
:10168000049003F56A7382F805900CB901221A726E
:101690007B4807F04BF89AF805109AF821400BEBBD
:1016A00041020BEB4113B2F88C0583F8B19300F0C3
:1016B0007F0501F11E02C0F3C0100BEB421283F84C
:1016C000AE039AF8200083F8AC039AF8060083F87A
:1016D000AD53A3F8B20383F8AF4382F8049003F547
:1016E0006A7382F805900CB901221A72644807F0F7
:1016F0001DF892E5DAF84431604C9B686048214659
:1017000098478DF83B009DF83B30002B7FF4ECAE02
:101710000623237081E59AF804308AF800900122AC
:101720008AF803208AF81C208AF82120072B4FF022
:1017300040028AF801908AF802908AF820908AF88C
:10174000062007D803F531730BEB43039A88C2F3E5
:101750000E029A809AF80530072B07D803F53173EB
:101760000BEB43039A88C2F30E029A80DAF84831F1
:101770005B689847DAF8443141485B6841499847CB
:101780004BE5DAF848315B6B984708238AF800305C
:1017900043E59AF803209AF83930AAF8163009215F
:1017A000012A8AF81490AAF81890AAF81A908AF8D0
:1017B0001510324B00F02185022A7FF42EAD1A7FDE
:1017C0000D2A00F0B2850B3A012A3FF626AD012220
:1017D000DA7022E59AF83230284C002B00F033857D
:1017E00043F44073E278E382802106232175637518
:1017F00040F20941FF23012A2183638300F07B84A7
:10180000022A7FF40AAD237F0D2B00F003860B3BE9
:10181000012B3FF602AD0123E370FEE49AF831306C
:10182000164C002B00F0E08443F44073E278E3822E
:10183000802106232175637540F20941FF23012AA7
:101840002183638300F05784022A7FF4E6AC237F70
:101850000D2BDCD19BF8112184F81C900123032A65
:10186000E370074B00F00086DAF848314046DB6A47
:10187000984707238AF80230CFE400BF64110020A4
:1018800084EA0120841100209AF80320AAF8189015
:1018900080214FF4007306208AF81410012A4FF0BB
:1018A0000901AAF816308AF81500AAF81A10C14BD7
:1018B00000F07D84022A7FF4B0AC1A7F0D2A82D119
:1018C0009BF813119BF81221BA7002EB01229BF8CE
:1018D0001101DA860122F970DA709BF814119BF875
:1018E0001521787083F835009BF816019BF810419C
:1018F000397183F838107A719BF8171183F8392001
:10190000B8719BF8182183F83A00042083F81C90E2
:101910003C7083F83440F97183F83B103A7283F8D5
:101920003C20987079E49AF803108AF8149001200A
:1019300005248142AAF81890AAF81A908AF815404E
:10194000AAF816009B4A00F0658402297FF465AC72
:10195000137F0D2B00F0F4840B3B012B3FF65DACA5
:10196000D0705AE49AF83030924C002B00F0168474
:1019700043F44073E278E382802106232175637586
:1019800040F20941FF23012A2183638300F0B383DE
:10199000022A7FF442AC237F0D2B7FF438AF9BF8F3
:1019A000112184F81C900123032AE370824B00F07C
:1019B0007385DAF8483140469B6A984706238AF8CF
:1019C00002302AE49AF80320BAF83640AAF81890B0
:1019D000802306218AF81430012A4FF40073AAF8F4
:1019E0001630AAF81A408AF81510724B00F0F783E7
:1019F000022A7FF412AC1A7F0D2A7FF4E4AE012292
:101A000083F81C90DA7034B1621E92B201326B48D6
:101A10006B490BF079FB9BF813219BF810119BF895
:101A200012318AF834109BF811119BF815018AF8CD
:101A3000351003EB02239BF816119BF814218AF84A
:101A400039009BB29BF817018AF83A10092C9BF8D1
:101A50001811AAF836308AF838208AF83B008AF83C
:101A60003C1040F299800A2A00F29080554A544D69
:101A700012780892544ACDF830B0128801924FF093
:101A8000090ECDF8348073457CD92A7815449644E4
:101A90006A78042A1FFA8EFEF5D1EA780292022AA9
:101AA00095F80280EFD82A7803926A7995F804C0F5
:101AB0000492AA790592EA790692BCF1020F2A7A79
:101AC0000792E0D84FFA88F31AB240490B930024EA
:101AD00002EBC20312010B440A92204684454DDDFD
:101AE0002A78154496446A78052A1FFA8EFEF5D1A5
:101AF000089A0B998A426A7900F0EC839DF80C10E1
:101B00001970042159709DF80810D9709DF81010B3
:101B100059719DF8141099719DF81810D9719DF89C
:101B20001C1019721202297983F8028083F804C00C
:101B30000992CDF820800A9A4FF0080B1BFB002079
:101B4000099A0A44224992B201EB000B01922A78C9
:101B50000A5401340520E4B28BF80100BDF80400FA
:101B6000AA78ABF8040060B2E9788BF802208445CB
:101B7000AA798BF803108BF80620B1DCBAF836305E
:101B8000734582D8DDF830B0DDF834800E4BA3F811
:101B900000900C4B83F800900E48DAF8483100F1C1
:101BA0000A015B6A00F16402984705238AF8023053
:101BB000FFF733BB6411002084EA0120C01200202B
:101BC00094EB0120BC120020B4120020A2110020CE
:101BD000FC110020981100209AF80350AAF81890E0
:101BE000802306214FF480728AF81430012D4FF0C3
:101BF00012038AF81510AAF81620AAF81A30E34C36
:101C000000F01583022D7FF408AB237F0D2B7FF4AA
:101C1000FEAD9BF812319BF818219BF813019BF83D
:101C2000191184F81C9003EB002002EB01219BF8B2
:101C30001A319BF81B21A08403EB02229BF81D01A3
:101C40009BF81C31618503EB00239BF81111A285E1
:101C5000E3859BF814219BF8153184F8231084F850
:101C600026209BF816119BF8172184F827309BF843
:101C70001E319BF8100184F828104FF0010E9BF8DC
:101C80001F1184F8292084F830309BF820219BF81C
:101C9000213184F803E084F8220084F8311084F8BC
:101CA000322084F83330D4F8483104F12200DB6963
:101CB0009847A570FFF7B1BA9AF80330AAF81890C0
:101CC000802206204FF480718AF81420012B4FF0F7
:101CD00008028AF81500AAF81610AAF81A20AB4CC8
:101CE00000F07182022B7FF498AA237F0D2B7FF4E2
:101CF0008EAD9BF813019BF812319BF810119BF8E5
:101D0000112184F8221003EB0023A3849BF81431E3
:101D10009BF8151184F8232084F826309BF81621AF
:101D20009BF8173184F82710012584F8282084F8BF
:101D300029309748A37184F81C90E57006F06CFD7B
:101D40006179A279A5700BEB411303F56A73588989
:101D5000904201D002B15A818D4806F0E7FC9AF812
:101D600004109AF806200BEB411303F56A735889A7
:101D700090423FF4BBAC002A3FF4B8AC5A81B5E4C2
:101D80009AF80530814A5B4493F89B33DBB2012B10
:101D900000F0C282022B00F0CF82032B7FF43DAA19
:101DA000ACE09AF805000BEB40131A4683F8AE93AB
:101DB000C3F8BC93C3F8C09302230BEB000182F875
:101DC000B433012382F8C533C2F8B89381F89B93EA
:101DD00008F0D4FF0A238AF81C30FFF71EBA9AF8DD
:101DE00004306A496A4A5B4493F89B33DBB2012BA7
:101DF00000F09282032B00F081805269654892685E
:101E00000C8A008892B2121B824277D8042B7FF48E
:101E100004AA4A788B740A70FFF7FFB99AF8040095
:101E20000BEB40131A46012183F8AE13C3F8BC93A1
:101E30000BEB0001C3F8C093022382F8B433C2F85D
:101E4000B89381F89B9308F099FF08238AF81C3017
:101E5000FFF7E3B99AF805304C4A5B4493F89B339B
:101E6000DBB2012B00F0CA82042B00F00182022BAE
:101E700093D105231377FFF7D0B99AF80500BAF884
:101E80000C5000F11E01430100F115020BEB411152
:101E90000BEB030E01240BEB421C4C71DAF80840EB
:101EA0008EF8AE93CEF8BC53CCF81841002D40F01C
:101EB000208101244C7102215B440BEB42120BEB9D
:101EC0000004C3F8C09382F8141184F89B9308F0BF
:101ED00055FF06238AF81C30FFF79FB99AF80430A3
:101EE0002A4A5B4493F89B33DBB2012B00F00F814D
:101EF000042B00F0BD81032B40F00B810B238AF8EB
:101F00001C30FFF78AB99AF80E30204A0133DBB251
:101F1000022B8AF80E3040F2B48108215378917474
:101F20001370FFF77AB99AF80520184B5A4492F8C3
:101F30009B23D2B2012A00F0A881032A7FF46DA965
:101F40000B21052219779A74FFF767B99AF80400F4
:101F5000BAF80C400BEB40131A46012183F8AE137C
:101F6000C3F8C093C3F8BC4302230BEB000182F813
:101F7000B433DAF80830C2F8B83381F89B9308F02C
:101F8000FDFE04238AF81C30FFF747B964110020D6
:101F900084EA01205C1100209AF80500C74C0BEB85
:101FA00040131A460821C3F8BC1383F8AE93C3F854
:101FB000C09303210BEB0003C2F8B84382F8B413BB
:101FC00083F89B9308F0DAFE02238AF81C30FFF7AF
:101FD00024B99A4200D00B70DAF848311B6998474F
:101FE0009AF804308AF8009001228AF803208AF8CF
:101FF0001C208AF82120072B4FF040028AF801901C
:102000008AF802908AF820908AF8062007D803F50B
:1020100031730BEB43039A88C2F30E029A809AF84D
:102020000530072B07D803F531730BEB43039A8870
:10203000C2F30E029A80DAF848315B689847DAF802
:1020400044319F485B689F499847ABF89095ABF83F
:102050009295ABF89495ABF89695ABF89895ABF84C
:102060009A958AF80090FFF7D8B84FF08043642221
:1020700032601A8822F0010212040121120C8AF83F
:1020800000101A809A8922F001021204120C9A811F
:102090001A8822F45C721204120C1A8042F6DF6471
:1020A0004FF6FE720520DC62188599821A821A8822
:1020B00092B242F080021A809A8992B20A439A81BF
:1020C0001A8892B20A431A803368002BFCD14FF071
:1020D0008042138823F001031B041B0C1380FFF7BD
:1020E0009CB8D4F848315B6C98470A232370FFF7FB
:1020F00094B80221E0E67449A1600420A38107217D
:102100000223227760702170E370FFF786B80923FD
:102110001377DBF814306D4A9B68BAF810101288F8
:102120009BB25B1A93423FF6E9AEFFF776B8002305
:102130001A460BEB42024FF40041A2F88C15BBF893
:102140008C258AF8053013043FF538AA00231A4677
:102150000BEB420248F28001A2F88C15FFF754BA4B
:1021600002231A46E5E701231A46E2E703231A464B
:10217000EEE702231A46EBE701231A46E8E70323BA
:102180001A46D6E707231A46D3E704231A46D0E7B0
:1021900006231A46CDE705231A46CAE7D4F8483184
:1021A0004B489B6A98470623A370FFF736B8464C06
:1021B0009C600420998107211A77022258701970B7
:1021C000DA70FFF72AB804213F48A281237707225B
:1021D0000223A06061702270E370FFF71EB83A49D5
:1021E000996004209C81E6E7D4F848313848DB6ADE
:1021F00098470723A370FFF710B804201A77072128
:102200000222C3F80890A3F80C9058701970DA7085
:10221000FFF703B804231177537007210223C2F894
:102220000890A2F80C901170D370FEF7F6BF264A02
:10223000A2600421A3810722022325776170227006
:10224000E370FEF7EABFD4F8483121481B6B98478A
:102250000823A370FEF7E1BF07231A4678E7062399
:102260001A4675E705231A4672E704231A466FE7F4
:102270009AF801308AF800300C238AF81C30FEF7F7
:10228000CCBF01231377FEF7C8BF1A7D598B22F00C
:102290007F02D2B2002900F0B5800C4841F28831AB
:1022A0000180002A40F0108105221A77DBF81430F3
:1022B0009B68AAF81030FEF7B0BF00BF781100206D
:1022C00084EA01208411002094EB01205C1100209D
:1022D00040D300082979120201EB020B0992019AFE
:1022E0005A453FF74BAC9DF80C201A7004225A70E7
:1022F0009DF80820DA709DF810205A719DF814207E
:102300009A719DF81820DA719DF81C2083F80280DC
:1023100083F804C01A720EE49AF801308AF800308B
:102320000D238AF81C30FEF778BF012283F81C9039
:102330009970DA70FEF771BF09231377FEF76DBF4E
:102340004FF0804331601988D07021F001010904F9
:10235000090C1980998982F81C9021F0010212045D
:10236000120C9A811A8822F45C721204120C1A80E0
:1023700042F6DF614FF6FE72D9621C8598821A829E
:102380001A8892B242F080021A809A8992B242F080
:1023900001029A811A8892B242F001021A803368CF
:1023A000002BFCD14FF08042012113888AF82010C5
:1023B00023F00103DAF848111B041B0C13800B6A8D
:1023C00098479AF820309AF8041003228AF80220DD
:1023D0001BB10BEB411282F8AC333E4C204606F0A9
:1023E000A5F99AF820309AF80510002B3FF47EA941
:1023F00004EB411484F8AC33FFF778B90723137763
:10240000FEF70BBF344832210180002A5FD107223A
:102410001A774BE79BF8112184F81C900123032ABB
:10242000E3702C4B09D0DAF8483140461B6B9847D3
:1024300008238AF80230FEF7F0BE93F81031023B11
:10244000FF2BA8BFFF239BB2414653B100220BEBE9
:102450000200023292B290F8120101F8010B93428D
:10246000F5D881F80090DEE793F81031023BFF2B9E
:10247000A8BFFF239BB2414653B100220BEB0200E1
:10248000023292B290F8120101F8010B9342F5D892
:1024900081F80090FFF7E8B993F81031023BFF2B69
:1024A000A8BFFF239BB2414653B100220BEB0200B1
:1024B000023292B290F8120101F8010B9342F5D862
:1024C00081F80090FFF775BA03221A77EEE6092229
:1024D0001A77EBE684EA01205C1100202DE9F04F29
:1024E0002DED0E8B774CDFF80C82774D9FED77AAA0
:1024F000DFED77AA9FED778A85B0061D00F244696B
:10250000A36A70495A1E002BA26241F35384D4ED92
:10251000407AF5EEC07AF1EE10FA41F1F68477EEEA
:10252000887AF5EEC07AF1EE10FAF8D4C4ED407A6C
:10253000B0EE677AF4EEC87AF1EE10FA08DB37EE07
:10254000487AB4EEC87AF1EE10FAF8DA84ED407AFF
:102550009FED610AD4ED3D8A27EE000A08F022FDC6
:1025600008EB8000D0ED007A94ED407AD4ED3F5A2C
:102570009FED5A6AD4ED3B9A94F8E93068EEA77A59
:10258000F7EE006A77EEA66AA5EE867A66EEA99A5D
:10259000C4ED447AC4ED479A84ED407A0F2B03F2E0
:1025A0008783DFE813F0B7066E06A00B0207250944
:1025B000A904710A7109A105E20421085907610300
:1025C000CB01AD001000DFF830A1DFED457A9AF8BD
:1025D0004835CAED039A9AED049ADAED06BA9AEDF7
:1025E000077ADAED088ADAF84425002B42F01B80DE
:1025F000C9EEA77ADFED3B6AF4EEE67AF1EE10FA67
:1026000002F12880F6EE006AF4EE667AF1EE10FA36
:10261000C8BFF0EE667A77EEC77A9FED336A77EE41
:10262000279AB4EEC69AF1EE10FA79EEABBAC2F27E
:10263000388439EE466AF7EE007A29EE86BA7BEEE8
:10264000CBBAF4EEE7BAF1EE10FAC2F200867BEEF6
:10265000E7BADFED267A02927BEE2B6AB6EE000A2D
:1026600066EEA76A930086EEA9CA0193204FDFF8B1
:102670008CB03CEE400A08F095FC07EE900AF8EEAC
:10268000E76A019B029A00F03F007CEE666A07EB66
:10269000C0019E4691ED017AD1ED007AE6EE877A8F
:1026A0000BEB0E0C40309CED007A77EE277AB0F5FC
:1026B000905F01F500710EF1040ECCED007AE9DBBC
:1026C00002F0C9BD00000010F8100010000000303A
:1026D000CDCCCC3EDB0FC94083F922431F420939E0
:1026E00000803B47ACC5273708E53C1E0000804210
:1026F00044D30008F8640108CC0C0010F00C001062
:102700008A4FDFED8B7AD7ED056A97ED066ADFED2C
:10271000895A97ED037A29EE866A66EEA77A07F161
:10272000200AE6EE257A07F1C40BDAED065ADBED56
:10273000066A87ED026A77EE877A29EEA57AF5EECA
:10274000C07A69EEA69AF1EE10FAC7ED037A8AED27
:10275000027ACBED029A08D577EE887AF5EEC07A48
:10276000F1EE10FAF8D4C7ED037AF4EEC87AF1EE80
:1027700010FA08DB77EEC87AF4EEC87AF1EE10FAB8
:10278000F8DAC7ED037A9FED6C0AD7ED008A27EEE1
:10279000800A08F007FC08EB8000D0ED006AD4ED59
:1027A0004A7AD4ED475A9FED636A94ED487A68EE11
:1027B000A66A66EEA77AC7ED076AE5EE867A77EE37
:1027C000877AF5EEC07AF1EE10FAC4ED487A43F15B
:1027D000D08077EE887AF5EEC07AF1EE10FAF8D470
:1027E000C4ED487AB0EE677AF4EEC87AF1EE10FAEA
:1027F00008DB37EE487AB4EEC87AF1EE10FAF8DA70
:1028000084ED487A9FED4C0AD4ED458A27EE000A04
:1028100008F0C8FBDBED056ADFED457ADBED025A17
:102820009FED446A9BED037A66EEA77A08EB800081
:10283000E5EE867AD0ED006A77EE877A68EEA68AB2
:10284000F5EEC07AF1EE10FACBED037AC4ED4C8AC6
:1028500008D577EE887AF5EEC07AF1EE10FAF8D462
:10286000CBED037AF4EEC87AF1EE10FA08DB77EEDE
:10287000C87AF4EEC87AF1EE10FAF8DACBED037A02
:102880009FED2D0ADBED008A27EE800A08F08AFB17
:1028900008EB8000D0ED006ADAED057ADAED025A35
:1028A0009FED246A9AED037A68EEA66A66EEA77A2F
:1028B000CBED076AE5EE867A77EE877AF5EEC07A99
:1028C000F1EE10FACAED037A08D577EE887AF5EEC4
:1028D000C07AF1EE10FAF8D4CAED037AF4EEC87AB1
:1028E000F1EE10FA08DB77EEC87AF4EEC87AF1EE72
:1028F00010FAF8DACAED037A9FED0F0ADAED008AD2
:1029000027EE800A08F04EFB08EB8000D0ED007A3D
:1029100094ED4C7A68EEA77AF6EE008A37EE877A65
:10292000CAED077A27EE289AF0E300BFE80B001003
:10293000000000001F42093983F92243D4F8403CCB
:10294000DFF800A3D4F83C2C06EE903A0AF62847AC
:1029500097ED096A97ED077AD7ED027AF8EE666A85
:102960000133A6EE267A9342C4F8403C27EE277A3C
:1029700087ED0A7A82F05E80D4F86C3CDFF8C4A25E
:10298000DFF8DCB2D4F8682CDBED005A06EE103A22
:102990000AF65447B8EE465AD7ED094AD7ED076A0A
:1029A000D7ED027AB7EE006A37EE067AE4EE856A72
:1029B00001339342B3EE096AA7EE256AC4F86C3C72
:1029C00066EEA76A84ED476AC7ED0A6A81F0A287BE
:1029D000D4F8983C9B49D4F8942C06EE103A01F5B3
:1029E000486AB8EE465ADAED094ADAED077A9AED06
:1029F000027AB7EE006AE4EE857A013301F6E83731
:102A000076EE866AB3EE094AA6EEA54A9342C4F86A
:102A1000983C67EE877A87ED024ACAED0A7A82F01F
:102A20009B80B7EE007A77EE877AF3EE094AE7EEFD
:102A3000A54ADFF830A2D4ED487ACAED024AF5EE95
:102A4000C07AF1EE10FA0DD577EE887AF5EEC07AFD
:102A5000F1EE10FAF8D4F4EEC87AF1EE10FA06DBD3
:102A600077EEC87AF4EEC87AF1EE10FAF8DA94ED5F
:102A7000475A9FED757A734BB4EEC75AF1EE10FAD0
:102A800041F1EC859FED717ADFED716A25EE077AF1
:102A9000B4EEE67AF1EE10FA01F2E285B0EE667A73
:102AA000F4EEC77AF1EE10FAC3ED496A01F1E08560
:102AB000DFED685A94ED456AF0EE006AE7EEA65A3B
:102AC00078EE476A35EEC77A27EE067AC7EE266AB1
:102AD0009FED616A97ED037AC4ED4C6AE5EE067AE4
:102AE000B5EEC07AF1EE10FAC4ED487A08D537EEAB
:102AF000087AB5EEC07AF1EE10FAF8D487ED037AD1
:102B0000B4EEC87AF1EE10FA08DB37EE487AB4EE8C
:102B1000C87AF1EE10FAF8DA87ED037ADFED4A7A37
:102B2000B4EEE74AF1EE10FA42F12982DFED477A7E
:102B30009FED476A64EE277AF4EEC67AF1EE10FA5A
:102B400002F21F82F0EE467AB4EEE77AF1EE10FA66
:102B500087ED046A02F11D829FED3E5AD7ED005ABF
:102B6000B0EE006AA7EE065A38EE676A75EE677A2D
:102B700067EEA57A87EE866ADFED375ADAED037ADB
:102B800087ED076AA4EE257AF5EEC07AF1EE10FA29
:102B900076EE866A87ED037A08D577EE887AF5EEC9
:102BA000C07AF1EE10FAF8D4CAED037AF4EEC87ADE
:102BB000F1EE10FA08DB77EEC87AF4EEC87AF1EE9F
:102BC00010FAF8DACAED037A9FED1F7AF4EEC74ADD
:102BD000F1EE10FA42F110809FED1C7A9FED1C6A15
:102BE00024EE877AB4EEC67AF1EE10FA02F206808D
:102BF000B0EE467AF4EEC77AF1EE10FA8AED046A86
:102C000002F104809FED135ADAED005AB0EE006A2B
:102C1000A7EE865A38EE476A35EE477A27EE257AD0
:102C200087EE067A9FED0C6ADFED0C8A8AED077A53
:102C3000E4EE867A76EE876ACAED037A26EEA89AE3
:102C400064E200BF000000100000FA452EE3CD3919
:102C500017B7D138DB0FC9C01F420939C3F5A83EE9
:102C600080000020080C0010D4F8403CDFF84CA491
:102C7000D4F83C2C07EE103A0AF6284797ED096A7B
:102C8000D7ED076AD7ED027AB8EE477A0133E6EE60
:102C9000076A9342C4F8403C66EEA76AC7ED0A6A29
:102CA00081F08186D4F86C3CDFF810B4D4F8682C3D
:102CB00006EE103A0BF6544ADAED095ADAED077AC5
:102CC0009AED027AB8EE466AF7EE004AE5EE867AA9
:102CD00001330BF6E83776EEA46A67EE877A69EE81
:102CE000A64A9342C4F86C3CCAED0A7AC7ED024A80
:102CF00081F0E786B7EE007A37EE877AD4ED487A2E
:102D0000DFF8D8A369EE879AF5EEC07AF1EE10FAF3
:102D1000CAED029A0DD577EE887AF5EEC07AF1EE1B
:102D200010FAF8D4F4EEC87AF1EE10FA06DB77EE7A
:102D3000C87AF4EEC87AF1EE10FAF8DA94ED475A50
:102D40009FEDDD7ADD4BB4EEC75AF1EE10FA01F1DA
:102D50009D849FEDDB7A83ED497AF4EEC77AF1EE3C
:102D600010FA01F1A984DFEDD75A94ED456AF0EE2F
:102D7000006AE7EEA65A78EE476A35EEC77A27EE84
:102D8000067AC7EE266A9FEDD06A97ED037AC4ED06
:102D90004C6AE5EE067AB5EEC07AF1EE10FAC4EDB3
:102DA000487A08D537EE087AB5EEC07AF1EE10FA17
:102DB000F8D487ED037AB4EEC87AF1EE10FA08DBA6
:102DC00037EE487AB4EEC87AF1EE10FAF8DA87ED09
:102DD000037ADFEDB97AF4EEE74AF1EE10FA42F148
:102DE0004880DFEDBA7A9FEDBA6A64EEA77AF4EE16
:102DF000C67AF1EE10FA02F23E80F0EE467AB4EEB8
:102E0000E77AF1EE10FA87ED046A02F13C809FED5B
:102E1000AD5AD7ED005AB0EE006AA7EE065A38EE6A
:102E2000676A75EE677A67EEA57A87EE866ADFEDE8
:102E3000A65ADAED037A87ED076AA4EEA57AF5EED5
:102E4000C07AF1EE10FA76EE866A87ED037A08D53D
:102E500077EE887AF5EEC07AF1EE10FAF8D4CAED82
:102E6000037AF4EEC87AF1EE10FA08DB77EEC87A4E
:102E7000F4EEC87AF1EE10FAF8DACAED037A9FEDB3
:102E80008E7AF4EEC79AF1EE10FA41F1EE869FEDDC
:102E90008F7A9FED8F6A29EE877AB4EEC67AF1EECB
:102EA00010FA01F2E486B0EE467AF4EEC77AF1EE5B
:102EB00010FA8AED046A01F1E2869FED825ADAED9A
:102EC000005AB0EE006AA7EE865A38EE476A35EE31
:102ED000477A27EE257A87EE067A9FED7B6ADFED4B
:102EE0007D8A8AED077AE9EE867A76EE876ACAED00
:102EF000037A26EEA89A09E194ED480AB5EEC00AD5
:102F0000F1EE10FA08D530EE080AB5EEC00AF1EE7F
:102F100010FAF8D484ED480AB4EEC80AF1EE10FABB
:102F200008DB30EE480AB4EEC80AF1EE10FAF8DA1F
:102F300084ED480A08F0E4F8D4ED457A94ED487A37
:102F400094ED476ADFED606A60EE277AA6EE267A96
:102F500060EE277A84ED487A60EE277A60EE277A71
:102F600020EE279A84ED4C9AD0E094ED487A5A4F9F
:102F7000F7EE084A69EEA44AB5EEC07AF1EE10FA0F
:102F8000C7ED024A0DD537EE087AB5EEC07AF1EEFC
:102F900010FAF8D4B4EEC87AF1EE10FA06DB37EE88
:102FA000487AB4EEC87AF1EE10FAF8DADFED427A38
:102FB000F4EEE79AF1EE10FA01F1B083DFED407A1A
:102FC000C4ED497AB4EEE77AF1EE10FA01F1BC8370
:102FD000DFED3C5A94ED456AF0EE006AE7EE265AC2
:102FE00078EE676A75EEE77A67EE867AC7EEA66ACC
:102FF0009FED356AD7ED037AC4ED4C6AA9EE867A67
:10300000F5EEC07AF1EE10FA84ED487A08D577EE45
:10301000887AF5EEC07AF1EE10FAF8D4C7ED037AAB
:10302000F4EEC87AF1EE10FA08DB77EEC87AF4EE27
:10303000C87AF1EE10FAF8DAC7ED037A9FED1E7A3E
:10304000F4EEC74AF1EE10FA41F127869FED1F7AA0
:103050009FED1F6A24EE877AB4EEC67AF1EE10FA7D
:1030600001F21D86B0EE467AF4EEC77AF1EE10FA60
:1030700087ED046A01F11B869FED125AD7ED005AC5
:10308000B0EE006AA7EE865A38EE476A35EE477A08
:1030900027EE257A87EE067A9FED0B6A87ED077A91
:1030A000E4EE867A36EE877AF6EE008A27EE289AE4
:1030B000C7ED037A2AE000BF0000FA4500000010C7
:1030C000DB0F4940DB0FC9C01F4209392EE3CD3960
:1030D00017B7D138C3F5A83EE80B0010080C001054
:1030E000CDCCCC3FCDCC4CBFD4ED458A0AF0FEF818
:1030F00007EE900AB8EEE77A5FED076A5FED077AB0
:1031000027EE0A7AE7EE267A28EEA79AD4F8C020AE
:10311000D4F8BC10C34B01320129C4F8C020D3ED50
:103120002B9A01F0C280032901F0AF80002901F041
:103130008D80D5ED4B7AC4ED2C9AF5EEC07AF1EE88
:1031400010FA08D577EE887AF5EEC07AF1EE10FA2B
:10315000F8D4C5ED4B7AF4EEC87AF1EE10FA08DB3C
:1031600077EEC87AF4EEC87AF1EE10FAF8DAC5ED27
:103170004B7A9FEDAD0A95ED48BA27EE800A07F02D
:1031800011FF08EB800090ED007AD5ED4B6AD5ED8C
:103190004A5A9FEDA66AD4ED3C8AD4F8C010226B3F
:1031A000A04B2BEE077AF7EE007A77EE277AE5EE62
:1031B000866A914267EEA99A85ED4F7A69EEA88AF0
:1031C000C5ED509A68EE898AC5ED4B6A81F01D8085
:1031D00094F8C43043B995ED519A954BB5EE409AA9
:1031E000F1EE10FA41F07B8095ED599A904BB5EED7
:1031F000409AF1EE10FA40F0B1878E48B0EE680ABE
:1032000005F0BCFC8C48B0EE409AB0EE680A05F0C0
:10321000B5FC95F8A43139EE000AF6EE008A60EEAE
:10322000288A002B40F01B8795F8A531002B40F031
:10323000708695F8A631002B40F0FF86B0EE689AB4
:10324000F7EE007AB4EEE79AF1EE10FA40F38785D4
:1032500047F6FF72F7EE007AF4EEE78AF1EE10FA25
:1032600040F3698547F6FF7326F8042C26F8023CE4
:1032700004364E457FF444A905B0BDEC0E8BBDE885
:10328000F08FDFED6E7AF4EEE79AF1EE10FA02F1CC
:103290002E81DFED6B7A94ED487AF4EEE79AF1EE49
:1032A00010FAB5EEC07A05D401F098B937EE087A75
:1032B000B5EEC07AF1EE10FAF8D4B4EEC87AF1EEB9
:1032C00010FAF0EE477A06DB77EEC87AF4EEC87AA9
:1032D000F1EE10FAF8DA9FED5B7AD4ED458AF4EE60
:1032E000C77AF1EE10FA87EE877A02F13C81F0EEB0
:1032F000006AB6EE006A37EE667A68EE868A28EED5
:10330000879A9FED4A7A84ED4C9AE9EE877AC4ED6C
:10331000487AFBE694ED487AB5EEC07AF1EE10FA01
:1033200006D537EE087AB5EEC07AF1EE10FAF8D489
:10333000B4EEC87AF1EE10FAF0EE477A06DB77EEDB
:10334000C87AF4EEC87AF1EE10FAF8DA9FED3E7A18
:10335000F4EEC79AF1EE10FA01F179829FED397A15
:1033600084ED497AF4EEC77AF1EE10FA01F1858224
:10337000DFED365A94ED456AF0EE006AE7EEA65AA4
:1033800078EE476A35EEC77A27EE067A87EE267A18
:10339000DFED266ADFED2E8A84ED4C7AE9EEA67A1F
:1033A00027EE289AC4ED487AB0E6D4ED487AF5EED7
:1033B000C07AF1EE10FA08D577EE887AF5EEC07A89
:1033C000F1EE10FAF8D4C4ED487AF4EEC87AF1EED2
:1033D00010FA08DB77EEC87AF4EEC87AF1EE10FA4C
:1033E000F8DAC4ED487A9FED100AD4ED459ADFED86
:1033F000188A27EE800A07F0D5FD94ED487A94EDFF
:10340000476ADFED0A6A08EB8000D0ED007AA6EE8D
:10341000267A69EEA77A84ED487AC4ED4C7A27EED5
:10342000A89A73E60000001083F922431F4209396D
:10343000F8100010C80000107C1200100000484373
:1034400000001644DB0F49400000FA45DB0FC9C0FD
:10345000CDCC4C3FB537983F1FED024AD4ED487AAA
:10346000DB4FF7EE084A29EE844A69EEA44AF5EEEE
:10347000C07A07F1200AF1EE10FA87ED024ACAED90
:10348000024A0DD577EE887AF5EEC07AF1EE10FAA1
:10349000F8D4F4EEC87AF1EE10FA06DB77EEC87ACB
:1034A000F4EEC87AF1EE10FAF8DA9FEDCA7AF4EE8B
:1034B000C79AF1EE10FA01F109829FEDC77A84ED07
:1034C000497AF4EEC77AF1EE10FA01F11582DFEDD8
:1034D000C35A94ED456AF0EE006AE7EEA65A78EE1C
:1034E000476A35EEC77A27EE067AC7EE266A9FED61
:1034F000BC6A97ED037AC4ED4C6AE9EE867AB5EEC4
:10350000C07AF1EE10FAC4ED487A08D537EE087AA1
:10351000B5EEC07AF1EE10FAF8D487ED037AB4EE86
:10352000C87AF1EE10FA08DB37EE487AB4EEC87AC2
:10353000F1EE10FAF8DA87ED037ADFEDA67AB4EE51
:10354000E74AF1EE10FA41F1C083DFEDA67A9FED74
:10355000A66A64EE277AF4EEC67AF1EE10FA01F26A
:10356000B683F0EE467AB4EEE77AF1EE10FA87ED24
:10357000046A01F1B4839FED995AD7ED005AB0EE79
:10358000006AA7EE065A38EE676A75EE677A67EE4C
:10359000A57A87EE866ADFED925ADAED037A87ED37
:1035A000076AA4EE257AF5EEC07AF1EE10FA76EE0F
:1035B000866A87ED037A08D577EE887AF5EEC07AC9
:1035C000F1EE10FAF8D4CAED037AF4EEC87AF1EE0F
:1035D00010FAFFF6F9AA77EEC87AF4EEC87AF1EE9F
:1035E00010FAF8DAFFF7EEBA9FED804AD4ED487A88
:1035F000774FF7EE084A29EE844A69EEA44AF5EEC1
:10360000C07A07F1200AF1EE10FA87ED024ACAEDFE
:10361000024A0DD577EE887AF5EEC07AF1EE10FA0F
:10362000F8D4F4EEC87AF1EE10FA06DB77EEC87A39
:10363000F4EEC87AF1EE10FAF8DA9FED667AF4EE5D
:10364000C79AF1EE10FA01F145809FED637A84ED9F
:10365000497AF4EEC77AF1EE10FA01F15180DFED0C
:103660005F5A94ED456AF0EE006AE7EEA65A78EEEE
:10367000476A35EEC77A27EE067AC7EE266A9FEDCF
:10368000586A97ED037AC4ED4C6AE9EE867AB5EE96
:10369000C07AF1EE10FAC4ED487A08D537EE087A10
:1036A000B5EEC07AF1EE10FAF8D487ED037AB4EEF5
:1036B000C87AF1EE10FA08DB37EE487AB4EEC87A31
:1036C000F1EE10FAF8DA87ED037ADFED427AB4EE24
:1036D000E74AF1EE10FA41F16A84DFED427A9FED9C
:1036E000426A64EE277AF4EEC67AF1EE10FA01F23D
:1036F0006084F0EE467AB4EEE77AF1EE10FA87EDE8
:10370000046A01F15E849FED355AD7ED005AB0EEA0
:10371000006AA7EE065A38EE676A75EE677A67EEBA
:10372000A57A87EE866ADFED2E5ADAED037A87ED09
:10373000076AA4EE257AF5EEC07AF1EE10FA76EE7D
:10374000866A87ED037A08D577EE887AF5EEC07A37
:10375000F1EE10FAF8D4CAED037AF4EEC87AF1EE7D
:1037600010FA08DB77EEC87AF4EEC87AF1EE10FAB8
:10377000F8DACAED037A9FED177AF4EEC74AF1EE54
:1037800010FA41F12C849FED177A9FED176A24EE11
:10379000877AB4EEC67AF1EE10FA01F22284B0EE26
:1037A000467A8AED046AF4EEC77AF1EE10FA7FF5F4
:1037B00029AAB8EE006A86EE077AB7EE006AA7EE8D
:1037C000276A9AED007A26EE077AFFF72BBA00BF38
:1037D000E80B00100000FA45DB0F4940DB0FC9C0C1
:1037E0001F4209392EE3CD3917B7D138AE47A13F73
:1037F00099489FED9A6ADFED9A5ADFED9A4A9FED5C
:103800009A5A00F12801012207EE902AF8EEE76AA1
:1038100069EEA67AF4EEE57AF1EE10FA29D50431D4
:10382000D1ED007AF4EEC87AF1EE10FA08DB77EE0B
:10383000C87AF4EEC87AF1EE10FAF8DAC1ED007A3F
:1038400027EEA47A66EE856ABCEEC77AE9EEA67A20
:1038500001320B2A8DED017ABDF80430F0EC016ADB
:10386000C1ED007A08EB830393ED007AA6EE876A38
:10387000CAD1D4ED117AD4ED458A26EE276A26EE18
:10388000289A84ED4C9A41E4DFF8F8A194F8E43BDF
:10389000CAED039A9AED059A9AED07CA9AED085A6D
:1038A000DAED096ADAED0ABADAED0B8AD4F8DC2B24
:1038B000D4F8E0BB002B40F08387DFED6C7A9AED03
:1038C000047AC9EEA79ADFED6A7AB7EE006A77EE5E
:1038D000065AF4EEE79AB6EE007AF1EE10FA36EEFA
:1038E000456A25EE877A00F1AE87F6EE007AF4EEAF
:1038F000679AF1EE10FAC8BFF0EE679AB4EE475A35
:10390000F1EE10FAC8BFB0EE457AB4EE467AF1EEA9
:1039100010FA79EEC59ADFED577AC8BFB0EE467A55
:1039200037EE667A75EE299AB4EEE79AF1EE10FA60
:1039300036EE87BA39EE8CCAC1F2DF8179EE677A4A
:1039400069EEA7CA3CEE6CCABBF1000F41F084835C
:10395000B4EECCBAF1EE10FA42F20F80F7EE007A34
:10396000B4EEE7CAF1EE10FA3BDB434F434B4FEAAC
:10397000820BF7EE006A7CEE666ADFED417A029315
:103980007CEEA66AB6EE000A66EEA76A0192C6EE63
:10399000A9BA3BEEC00A07F005FB07EE900AF8EE65
:1039A000E76A00F03F007BEEE66A019A029B07EBB4
:1039B000C00797ED017AD7ED007AE6EE877A03EB40
:1039C0000B01403091ED007A77EE277AB0F5905FE9
:1039D00007F500770BF1040BC1ED007AE9DBF6EE99
:1039E00000BAB4EEECBAF1EE10FA41F25F864FF095
:1039F000000B8AED069A02F110030AEB8303D3ED64
:103A0000007A9AED019A1F4F77EEAB7A0AEB8201AA
:103A1000C3ED007AD1ED0C7A77EEE87AB6EE007A53
:103A2000E7EE878A0132B2F5807F28EE899A8AED27
:103A3000009A01F0CE85CAED07CACAED089A8AED50
:103A400009BACAED0ABACAED0B8AC4F8DC2BC4F86D
:103A5000E0BBFFF75BBB00BF4800001000000000A8
:103A60000080BB4683F922431F42093900803B474F
:103A7000ACC5273708E53C1E44D30008BC0600103F
:103A8000000080428C06001094F88826D4F8801636
:103A9000C4ED509ABC4B94ED529AD4ED54CAD4ED77
:103AA000555A94ED56BAD4ED578A0191D4F884B69C
:103AB000002A40F05786DFEDB57A93ED517AC9EED2
:103AC000A79AF7EE006A37EE266AB6EE007A76EE2F
:103AD000E56A26EE077ADFEDAE7AF4EEE79AF1EECC
:103AE00010FA01F1C281F6EE007AF4EE679AF1EE77
:103AF00010FAC8BFF0EE679AF4EE475AF1EE10FAEA
:103B0000C8BFB0EE657AB4EE667AF1EE10FAC8BFBF
:103B1000B0EE667A37EE4B7A79EEE59A3BEE07BA6D
:103B20009FED9C7A75EEA99AB4EEC79AF7EE007AEB
:103B3000F1EE10FA79EEACCA77EECBBAC1F2318170
:103B400039EE477A29EE87CA7CEECCCABBF1000F6A
:103B500041F0E8828CEE8BDAB4EEECBAB6EE00EA15
:103B6000F1EE10FA3DEE4EDA41F24A87F4EEE7CA82
:103B7000F1EE10FAC1F27286019B874FDFF830A296
:103B80004FEA830BF7EE007A7CEEE7CA9FED837A6B
:103B90007CEE2C6A8CEE8B6A66EE87CAC7EE8B6A67
:103BA000CCEEA9CAC7EEAB7AB6EE00DA3CEECD0A8F
:103BB00076EEA7DA36EE4DDA07F0F4F907EE900A62
:103BC000F8EEE77A00F03F0069EEAD6A7CEEE7CAF6
:103BD00007EB80075A46D7ED007A97ED017A37EE6A
:103BE000677A0AEB0203ECEE877A4030B0F58E5F1D
:103BF00093ED007AA6EEA77A07F5807702F104022A
:103C000083ED007AE7DBDFED656A6CEE266AB6EEDF
:103C100000EAC6EEA9CA3CEECEEAFEEE007AB0EEAD
:103C20004E0A37EECDDA07F0BDF907EE900AF8EE4E
:103C3000E76A5B4F00F03F007CEEE66A07EBC007E7
:103C40005A46D7ED017A97ED007AA6EEA77A0AEBED
:103C500002034030D3ED007AEDEE077AB0F5905FC5
:103C600007F5007702F10402C3ED007AE9DBB4EE58
:103C7000CCBAF1EE10FA41F2D4848CEE0BDA4FF0AC
:103C8000000BF6EE007A3DEE67DA84ED539A019967
:103C900094ED4E9A3C4F04EB8103D3ED5C7A37EE02
:103CA0008DDAD3ED587A83ED5CDA77EEE87AB6EE0A
:103CB000007AE7EE878A0B460133B3F5807F28EE62
:103CC000899A84ED4D9A01F0988484ED54CAC4ED2C
:103CD000559A84ED56BAC4ED578AC4F88036C4F8B4
:103CE00084B6FFF713BA94ED480AB4EEC80AF1EEB1
:103CF00010FA08DB30EE480AB4EEC80AF1EE10FA0A
:103D0000F8DA84ED480A07F0FBF994ED487A94ED6F
:103D1000476ADFED246AD4ED457ADFED238AA6EE0B
:103D2000267A20EE270A84ED487A84ED4C0A20EEAC
:103D3000289AFFF7EBB9FFEE007AF4EEE78AF1EE8E
:103D400010FA00F17F82DFED197A68EEA78AFDEEA6
:103D5000E88ACDED018ABDF80430FFF785BAFFEEA1
:103D6000007AB4EEE79AF1EE10FA00F16782DFED27
:103D70000F7A29EE279ABDEEC99A8DED019ABDF80A
:103D80000420FFF767BA00BF0000001000803B4727
:103D9000ACC5273708E53C1EFC74010800008042D2
:103DA00044D300081F420939CDCC4C3F00FEFF46EA
:103DB0006001001091F82C30002B00F0638394F820
:103DC0003F30CA4A13B992F84130BBB304F074FED5
:103DD000C74FDFEDC89A9FEDC89A00234FF07E527F
:103DE000002108EE903A6367236707F12C0A07F178
:103DF000240B84F84110A264626409F077FA07EE9C
:103E0000900AF8EEE77AB0EE497A67EE8A7AEAEC41
:103E1000018AA7EEA97AB54BA7EC017AF0EE477AB2
:103E200094ED117A77EE877A5F45C4ED117AE4D18B
:103E3000B7EE007AC7EE277AC3ED117A94F84230D4
:103E4000AA4FBBB109F052FA07EE900AF8EEE77AF2
:103E50009FEDAA7A67EE8A7AB0EE6A0AA7EE870A21
:103E600007F0E6F8B5EE400AF1EE10FA4FF0000365
:103E700000F0A3830023D4F89C10C4F8B8104FF0CE
:103E80007E52C4F8C030C4F8BC30C4F8B42094F8F2
:103E9000C430002B40F0D38294F83E309348002B7E
:103EA00040F0938294F9E830012B00F0AE82022BAF
:103EB00000F01C8394F82C20914BA25C8B4F03EBF9
:103EC00082031B68C4F8EC3009F010FA07EE900A80
:103ED000F8EEE77A94F82C30626AA26267EE8A7A8A
:103EE000B0EE6A7AA7EEAA7A0133DBB2D4ED407A5B
:103EF00084ED3C7A0F2BF5EEC07A88BF0023F1EEFB
:103F000010FA87F82C303EF50AABB0EE677AFEF770
:103F100011BB7C4F7C4BDFF83CA29FED8F7A97ED75
:103F2000000A93ED009ADAED007A20EE070A39EEE6
:103F3000679A07F037F808EB8000D0ED006A9AED39
:103F4000007A724B724A93ED006A724B92ED002A2E
:103F500093ED003A704BD7ED005AD3ED004A93ED44
:103F6000015A93ED054A6D49F7EE007A76EEA76A9D
:103F7000F6EE007A66EEA77AF7EE003AA9EE277A17
:103F800075EE866A73EEC77A37EE237AD3ED025A5E
:103F900093ED036AD1ED002A6149C7EE877AB0EE4E
:103FA000687AA2EE037AF4EEC86AE7EE674AB0EEEA
:103FB000473AB0EE457AA4EEE77AF1EE10FAE7EE72
:103FC000675AA8BF76EEC86AA7EEA43AE7EE874A1A
:103FD000A7EEA57AA5EEE76AC7ED006AD3ED046AFD
:103FE00083ED003AB0EE475AB0EE667AA6EE677AF5
:103FF000F0EE446AE7EE676A73EEE23AE7EE865A5D
:1040000066EEA22AA7EE876AA7EEA67AE8EEA32AB2
:10401000C3ED014A83ED025AC3ED035A83ED046AEE
:1040200083ED057A95F8A631C1ED007AF0EE628A4B
:10403000C2ED006A002B3FF401A93A483A49B0EEBC
:10404000680A05F0F7F839483949B0EE409AB0EE01
:10405000680A05F0EFF8F0EE408AFFF7F1B8354A4C
:10406000354892ED007A0368DFED247A93ED006A1B
:10407000DFED326A324967EE277A91ED007AE6EE9B
:10408000267AB0EE686AA7EE876AF7EE006AB4EEA9
:10409000E66AF1EE10FAB0EE467AC2ED007A40F32D
:1040A000C380B0EE667A274F27493A68DFF89CC094
:1040B000A2EC017A0433C1EB020A3A60234A03609E
:1040C000E245A3EB0103C8BF39609342204BC8BF50
:1040D0000160D3ED006AF7EE007A77EEE67A8E465D
:1040E00068EEA78AE7EE268AFFF79EB80000001068
:1040F0004C000010BF9F7A3F6F12833A9A99193F84
:104100004C6301089CE90120BCE90120C4E90120BD
:10411000C0E90120CCE90120A0E90120B8E9012093
:1041200094E90120A012001098280010A82800107F
:10413000A03E0010C0140020C8E90120CCCCCC3E29
:104140007C00002090E90120C4140020BFD40100AD
:1041500084000020D0E9012083F92243D3ED5C7A6A
:10416000F5EEC07AF1EE10FA08D577EE887AF5EE22
:10417000C07AF1EE10FAF8D4C5ED5C7AF4EEC87AA4
:10418000F1EE10FA08DB77EEC87AF4EEC87AF1EEB9
:1041900010FAF8DAC5ED5C7A1FED110A27EE800AF5
:1041A00006F000FF08EB8000D0ED007AC14BD5EDA2
:1041B0005C5A95ED5B4ADFEDC04A93ED006A9FEDD6
:1041C000BF5AB7EE007AF6EE006A77EE877A29EEEC
:1041D000269AE4EE245A69EE277AC5ED5C5A37EE4A
:1041E000877AC5ED607A67EE067AF4EEC57AF1EE6D
:1041F00010FA40F3CB809FEDB27ADFEDB27AC5EDD5
:10420000627A85ED637AFEF7F8BF0022D3F8A80042
:10421000C3F8B42000210322C3F8B800C3F8C010CB
:10422000C3F8BC20FEF7D4BFFFEE007AB4EE676A95
:10423000F1EE10FA48BFB0EE677A34E748F20102B7
:10424000FFF708B848F20103FFF70EB893ED2E7A96
:10425000D3ED2D7A79EE879AF4EEE79AF1EE10FA23
:10426000C3ED2B9AFEF665AFD3F8A000D3F8A410E7
:10427000C3ED2B7A0122F0EE679AC3F8B800C3F8B9
:10428000B410C3F8BC20FEF754BFD3ED2A7A9FEDDB
:104290008E7A79EEE79AF4EEC79AF1EE10FA40F2D0
:1042A0000081C3ED2B9AFEF744BF93ED287AD3ED3E
:1042B000297A79EEC79AF4EEE79AF1EE10FAC3ED97
:1042C0002B9A3EF636AF00210222C3ED2B7AF0EE98
:1042D000679AC3F8B810C3F8BC20FEF72ABFD3ED25
:1042E000547AF5EEC07AF1EE10FA08D577EE887AB6
:1042F000F5EEC07AF1EE10FAF8D4C5ED547AF4EE8A
:10430000C87AF1EE10FA08DB77EEC87AF4EEC87AD4
:10431000F1EE10FAF8DAC5ED547A9FED6C0A27EE4B
:10432000800A06F03FFE08EB8000D0ED007A684B73
:10433000D5ED545A95ED534ADFED5F4A93ED006A8F
:104340009FED5E5AB7EE007AF6EE006A77EE877A56
:1043500029EE269AE4EE245A69EE277AC5ED545ADE
:1043600037EE877AC5ED587A67EE067AF4EEC57AAD
:10437000F1EE10FA40F302819FED517ADFED517AB0
:10438000C4ED337A84ED347AFEF72EBF67EEA67A59
:10439000DFED505A67EEA55AB9EE047A35EEA56AFC
:1043A00065EEA56AA5EE867AB0EE476A25EEA67A96
:1043B000FAEE0E6AA5EEA67AF0EE476AB0EE087A3B
:1043C00026EE077A86EE877A19E790F83D205FB2ED
:1043D000134480F83D30411EBFB20F3011F8013F49
:1043E0003B449BB21AB26A2A1FDD0C3B9AB26A2A7E
:1043F00093B2FAD881420B70F0D1002384F83E309A
:1044000094F9E830012B7FF452AD08F06FFF324B86
:104410000340002BC1F2A180032B00F2E985DFE805
:1044200013F0E4052C081E082508002AE2DA0C33F4
:104430009BB21A04FBD481420B70CFD1DDE708F0A8
:1044400055FF07EE900ADFED200A9FED240AF8EEF3
:10445000E77AE7EE8A0A06F091FE9FED216ADFED2A
:10446000177A20EE060AB4EEE70AF1EE10FA40F3EE
:10447000DB83DFED137A9FED136A84ED336AC4EDBD
:10448000347A09E5174B1B78002B3FF498AC164B98
:104490001B78002B7FF493AC03F000F906F064FA6C
:1044A0008DE40422F0EE479A83ED2B7AC3F8BC200A
:1044B000FEF73FBE8CE901201F4209393333733FB9
:1044C00003123A413333F33E0000000083F92243E4
:1044D00098E90120DB0F4940030000805555054154
:1044E000CDCC4C3C78000020D4E9012008F0FEFE41
:1044F000E94B0340002BC1F25380DBB2A3F10A0168
:10450000012984F8E930E54A40F27685042B7FF4EE
:10451000D1AC00234FF07E51DFEDE19A9FEDE19A9F
:10452000536708EE903A13679164516402F14C07A7
:1045300002F1780A02F1700B08F0D8FE07EE900A3B
:10454000F8EEE77AB0EE497A67EE8A7AEAEC018A09
:10455000A7EEA97AD14BA7EC017AF0EE477A94ED59
:10456000117A77EE877A5F45C4ED117AE4D1B7EE20
:10457000007AC7EE277AC3ED117A9BE467EEA67A3C
:10458000DFEDD15A67EEA55AB9EE047A35EEA56A89
:1045900065EEA56AA5EE867AB0EE476A25EEA67AA4
:1045A000FAEE0E6AA5EEA67AF0EE476AB0EE087A49
:1045B00026EE077A86EE877AE2E6D7F8A810C7F8E3
:1045C000B43000220323C7F8B810C7F8C020C7F8DA
:1045D000BC305CE437EE087AB5EEC07AF1EE10FA42
:1045E000F8D4B4EEC87AF1EE10FAF0EE477A06DBB2
:1045F00077EEC87AF4EEC87AF1EE10FAF8DA9FEDA9
:10460000B27AF4EEC77AF1EE10FA00F1B487DFED7A
:10461000A66AD4ED458AB8EE087AA7EEA67A27EE08
:10462000289AFEF76EBEC9EEA77A9FEDA07AF4EE47
:10463000C77AF1EE10FA40F19C8600238AF84835DB
:10464000F6EE00BADFED996AF4EEE67AF1EE10FAD2
:104650007DF5D8AFF0EE667AFDF7DDBF9FED9A7A73
:1046600083ED497AF4EEC77AF1EE10FA7EF520AACE
:10467000F8EE006A86EE877AF7EE006AE7EE876A60
:1046800094ED457A66EE876AFEF722BA9FED8B7A43
:10469000DFED8B6A25EE077AB4EEE67AF1EE10FADA
:1046A0003EF659ABB0EE667AF4EEC77AF1EE10FA48
:1046B000C3ED496A7EF557ABF8EE006A86EE877A5D
:1046C000F7EE006AE7EE876A94ED457A66EE876A50
:1046D000FEF759BB9FED797ADFED796A29EE877A8B
:1046E000B4EEE67AF1EE10FA3EF6B1AFB0EE667ACD
:1046F000F4EEC77AF1EE10FAC4ED496A7EF5AFAF79
:10470000F8EE006A86EE877AF7EE006AE7EE276A2F
:1047100094ED457A66EE876AFEF7B1BFDFED677A02
:10472000DFED676A69EEA77AF4EEE67AF1EE10FA49
:104730003EF646ACF0EE667AB4EEE77AF1EE10FAA9
:10474000C4ED496A7EF544ACF8EE006AC6EEA77A7D
:10475000F7EE006AE7EE276AD4ED457A66EEA76ABF
:10476000FEF746BCDFED527ADFED505AC9EEA79A4C
:10477000F4EEE59AF1EE10FA40F1AC8493ED51BA03
:10478000F7EE007A3BEE27BAF6EE007A2BEE27BA68
:10479000B4EEE5BAF1EE10FAB0EE4B7A00F1F7861E
:1047A000DFED447AB4EEE7BAF1EE10FA40F3F386A7
:1047B000F6EE00CAB0EE67BA67EEACCA00F0AABC6B
:1047C000DFED3B7A9FED395AC9EEA79AF4EEC59A10
:1047D000F1EE10FA00F11584F6EE007AF4EEE79AA5
:1047E000F1EE10FA41F37F829AED046AB7EE007A97
:1047F00036EE076A26EE276AB4EEE76AF1EE10FAA3
:1048000001F19D80F0EE676AB0EE467AB0EE675A2D
:10481000B4EEE66AF1EE10FAF0EE667A01DCF0EE44
:10482000466AB0EE676ADFED217A9FED23CAF4EEA7
:10483000E79A4FF0000BF1EE10FA84F8E4BBF6EEC5
:1048400000BA7FF552A8F0EE679AFFF757B89FEDD0
:104850001B7ADFED1B6A29EE877AB4EEE67AF1EE79
:1048600010FA3EF67DADB0EE667AF4EEC77AF1EE60
:1048700010FAC4ED496A7EF57BADF8EE006A86EE6B
:10488000877AB7EE009AA7EE879A94ED457A29EEDB
:10489000077AFEF77DBD00BF0F000080000000100A
:1048A000BF9F7A3F6F12833A83F9223FACC5273707
:1048B00000803B4758FF7F3F000000002EE3CD39CA
:1048C00017B7D1380080BB46DB0F49401FED057A92
:1048D0005FED056A29EE877AB4EEE67AF1EE10FA1A
:1048E0003EF6EDADB0EE667AF4EEC77AF1EE10FA70
:1048F000C4ED496A7EF5EBADF8EE006A86EE877A84
:10490000F7EE006AE7EE876A94ED457A66EE876A0D
:10491000FEF7EDBD5FED157AD7ED008A97ED019AB0
:104920003B6AFB61C7EEA88A0022CAF86C2C87EEAE
:10493000899AC7ED038A87ED049A08F0D7FC07EE41
:10494000900AF8EEE77A39EE689A67EE8A7AE7EE2F
:10495000898AFCEEE88A18EE903ACAF8683C08F0BA
:10496000C5FC07EE900AB8EEE77AF0EE006A27EE93
:104970000A7AFFEE007AE7EE267ADAF8683C97EDDD
:10498000076AC7ED087A07EE103A37EEC66AB8EE46
:10499000477ADBED005AD7ED0A6AC6EE077AC7ED13
:1049A000097AFEF715B85FED397AD7ED008A97EDF1
:1049B000019A3B6AFB61C7EEA88A0022CAF8402C24
:1049C00087EE899AC7ED038A87ED049A08F08EFC7A
:1049D00007EE900AF8EEE77A39EE689A67EE8A7A7F
:1049E000E7EE898AFCEEE88A18EE903ACAF83C3C79
:1049F00008F07CFC07EE900AB8EEE77AF0EE006A69
:104A000027EE0A7AFFEE007AE7EE267ADAF83C3CE7
:104A100097ED076AC7ED087A07EE103A37EEC66AD7
:104A2000B8EE477AD7ED0A6AC6EE077AC7ED097A7B
:104A3000FEF738B95FED5D7AD7ED008A97ED019A00
:104A40003B6AFB61C7EEA88A0022CAF8402C87EEB9
:104A5000899AC7ED038A87ED049A08F047FC07EEB0
:104A6000900AF8EEE77A39EE689A67EE8A7AE7EE0E
:104A7000898AFCEEE88A18EE903ACAF83C3C08F0C5
:104A800035FC07EE900AB8EEE77AF0EE006A27EE02
:104A90000A7AFFEE007AE7EE267ADAF83C3C97EDE8
:104AA000076AC7ED087A06EE903A37EEC66AF8EE66
:104AB000666A97ED0A7AC6EE267AC7ED097AFDF79F
:104AC0005BBF5FED807ADAED008A9AED019ADAF841
:104AD0002030CAF81C30C7EEA88A0022CBF86C2C14
:104AE00087EE899ACAED038A8AED049A08F0FEFBE4
:104AF00007EE900AF8EEE77A39EE689A67EE8A7A5E
:104B0000E7EE898AFCEEE88A18EE903ACBF8683C2A
:104B100008F0ECFB07EE900AF8EEE77AF0EE006A98
:104B200067EE8A7ABFEE007AA7EEA67ADBF8683CD9
:104B30009AED076A8AED087A06EE903A37EE466AF1
:104B4000F8EE666ADAED0A7AD7ED024A86EE267A40
:104B50008AED097AFEF7CEB85FEDA67ADAED008A23
:104B60009AED019ADAF820300191C7EEA88A002266
:104B7000C1F8982CCAF81C3087EE899ACAED038ACE
:104B80008AED049A08F0B2FB07EE900AF8EEE77A95
:104B900039EE689A67EE8A7A0199E7EE898AFCEE27
:104BA000E88A18EE903AC1F8943C08F09FFB07EEB3
:104BB000900AF8EEE77A01999AED076AD1F8943CE9
:104BC000DBED005A97ED024A67EE8A7AF0EE006A52
:104BD000BFEE007AA7EEA67A06EE903A37EE466A66
:104BE000F8EE666A8AED087A86EE267ADAED0A7AB7
:104BF0008AED097AFDF715BF1FEDCD7A8AED047AAB
:104C0000F4EEC77AF1EE10FA7DF5FCAFB8EE006A6B
:104C100086EE077AB7EE006AA7EE876A9AED007A09
:104C200026EE077AFDF7FEBFB6EE006A20EE066AB2
:104C30005FEDDB5A66EE255AF9EE047A75EEA56A49
:104C400025EEA57AE5EEA67AF0EE676A65EE877A3C
:104C5000BAEE0E7AE5EE877AB0EE677AF0EE087A71
:104C600066EEA77AC7EE277A07E41FEDE97A8AEDA8
:104C7000047AF4EEC77AF1EE10FA7EF51EA9B8EECA
:104C8000006A86EE077AB7EE006AA7EE876A9AEDA9
:104C9000007A26EE077AFEF720B91FEDF57A87ED48
:104CA000047AF4EEC77AF1EE10FA7EF5E5A9B8EED3
:104CB000006A86EE077AB7EE006AA7EE876A97ED7C
:104CC000007A26EE077AFEF7E7B9DFEDD97AC7ED6D
:104CD000047AB4EEE77AF1EE10FA7EF54CACB8EE59
:104CE000006AC6EE277AB7EE006AA7EE876AD7EDAC
:104CF000007A26EE276AFEF74EBCBBF1000F40F0AB
:104D00005783B4EECCBAF1EE10FA40F21F875B463F
:104D1000F7EE00CAB4EEECCAF1EE10FAC0F200866B
:104D20007CEE6CCADFEDC36ADFEDC37AC34B02923F
:104D30006CEEA66A8CEEA97A0193C14F86EEA99A11
:104D400077EE277AB6EE000A39EE400ACAED067A07
:104D500006F028F907EE900AF8EEE76A029A019B3E
:104D600000F03F0079EE666A07EBC007910097ED0F
:104D7000017AD7ED007AE6EE877A03EB010E403038
:104D80009EED007A77EE277AB0F5905F07F5007711
:104D900001F10401CEED007AE9DBF6EE00BAFEF790
:104DA0002ABEBBF1000F40F08B828CEE8BDAB4EEA2
:104DB000ECBAF6EE006AF1EE10FA3DEE66DA40F279
:104DC00081865B46F7EE007AF4EEE7CAF1EE10FA60
:104DD000C0F29E853CEEE7CA9FED966A9FED967AFB
:104DE000984FDFF86CA22CEE066ACCEE296AC6EE6C
:104DF00029CAC7EEABBA8CEE0BDAC7EE8B7AB6EEE9
:104E0000006A36EE877A3CEEC60A37EEAB9A3DEE84
:104E100046DA84ED537A06F0C5F807EE900AB8EE4C
:104E2000E76A019B00F03F0029EE897A3CEEC66AF2
:104E300007EB80079A00D7ED007AD7ED016A76EE8E
:104E4000E76A0AEB0203E6EE267A4030B0F58E5FA1
:104E5000D3ED006AE7EE276A07F5807702F10402D6
:104E6000C3ED006AE7DBFEF712BFF0EE679AFEF7CC
:104E700043BEDFED6F7AC7ED047AB4EEE77AF1EE68
:104E800010FA7DF5C4AFB8EE006AC6EE277AB7EE29
:104E9000006AA7EE276AD7ED007A26EE276AFDF7AB
:104EA000C6BFB7EE00BAF4EECBBAF1EE10FAC0F21C
:104EB000D0823BEECBBADFED5F6A01926BEE266AE1
:104EC000CBEE297A5E4FDFF88CB186EEA99A37EEE9
:104ED000866AB6EE000A39EE400A8AED056A06F0E7
:104EE00061F807EE900AF8EEE76A019A00F03F00D9
:104EF00079EE666A07EBC007930097ED017AD7ED6C
:104F0000007AE6EE877A0BEB0301403091ED007AF0
:104F100077EE277AB0F5905F07F5007703F1040389
:104F2000C1ED007AE9DB02F10C030AEB8303F6EE34
:104F3000006A93ED017A9AED019A434F76EECB7AAF
:104F40000AEB820177EE277A0132C3ED017AD1EDC7
:104F5000097A77EEE87AB2F5807FE7EEA68A28EE46
:104F6000899A8AED009A00F021838AED06BACAED8B
:104F7000079ACAED088ACAF84425FEF7C7B8DFEDDC
:104F80002C7AC7ED047AB4EEE77AF1EE10FA7DF5EB
:104F9000E3ADB8EE006AC6EE277AB7EE006AA7EE78
:104FA000276AD7ED007A26EE276AFDF7E5BDDFED2B
:104FB000207AC7ED047AB4EEE77AF1EE10FA7EF5C6
:104FC000A2ABB8EE006AC6EE277AB7EE006AA7EE8B
:104FD000276AD7ED007A26EE276AFEF7A4BB9FED7D
:104FE000147A8AED047AFEF7DEBB092384F8E930EF
:104FF00094F9E830FEF75BBF0C2382F8E930FEF746
:1050000059BF9AED046AF7EE007A36EE276AF6EE9B
:10501000007A26EE276AB4EEC56AF1EE10FAB0EE19
:10502000467A00F19484DFED096AFFF7F1BB00BF17
:10503000DB0F49400000804208E53C1EBC06001022
:1050400044D30008FC740108CC0C001058FF7F3FCB
:1050500060010010F00C0010F7EE007AB4EEE7CA21
:10506000F1EE10FA80F28283CA4FCB4B4FEA820BEB
:10507000DFEDCE6A02936CEEA66AB6EE000AC6EECB
:10508000A9BA01923BEEC00A05F08CFF07EE900A28
:10509000F8EEE76A00F03F007BEEE66A019A029BB9
:1050A00007EBC00797ED017AD7ED007AE6EE877A35
:1050B00003EB0B01403091ED007A77EE277AB0F5E3
:1050C000905F07F500770BF1040BC1ED007AE9DB87
:1050D000FEF785BCB6EE007AF4EEC79AF1EE10FA50
:1050E00040F3EA8593ED51BAF7EE007A3BEE27BA2A
:1050F000F0EE477A2BEE07BAF0EE675AB4EEC7BA75
:10510000F1EE10FAB0EE4B7A7FF54CABB0EE67BA29
:10511000F5EE00CA4FF0000BF0EE676A84F888B62F
:10512000FEF7D9BCF4EEE7CAF1EE10FAC0F2A5839F
:105130007CEEE7DA9FED9D7A019B984FDFF860A245
:105140007CEE2DEA8DEE8BDA4FEA830BCDF808B0BA
:105150006EEE87EA87EE8BEACEEEA9EAC7EEABCA1F
:10516000B6EE007A3EEEC70A3DEE47DA05F01AFFCA
:1051700007EE900A7EEE2CCAF8EEE77A00F03F00C8
:1051800069EEACCA7EEEE7EA029907EB8002DE46E2
:10519000D2ED007A92ED017A37EE677A0AEB0E03D0
:1051A000EEEE877A4030B0F58E5F93ED007AACEE8C
:1051B000A77A02F580720EF1040E83ED007AE7DB28
:1051C000B4EEEDBAF1EE10FA3EF61DAD7DEECBDA9F
:1051D0009FED767A02917CEE2D6AFFEE007A26EE44
:1051E000877ACDEEAB6AC7EE29DAC7EEAB7AB6EEB8
:1051F00000DA3DEECD0A37EECEEA3DEE66DA05F096
:10520000D1FE07EE900AF8EEE77A00F03F0029EEB3
:105210008EEA7DEEE7DA029907EB8002D2ED007AA2
:1052200092ED017A37EE677A0AEB0103EDEE877AA9
:105230004030B0F58E5F93ED007AAEEE277A02F53E
:10524000807201F1040183ED007AE7DB2BE3514F1B
:10525000DFF850B19300DFED556A02936BEE266ADA
:10526000B6EE000A86EEA9CA01923CEE400A05F0AD
:1052700099FE07EE900AF8EEE76A00F03F007CEE38
:10528000666A029B019A07EBC007D7ED017A97ED9A
:10529000007ADFF814E1A6EEA77A0BEB03014030A9
:1052A000D1ED007AEBEE877AB0F5905F07F50077E5
:1052B00003F10403C1ED007AE7DB8EED059A32E6D7
:1052C000F4EEE7CAF1EE10FAC0F22B823CEEE7CA28
:1052D000DFED36CA019B314FDFF8C4A06CEE2CCA5B
:1052E000CCEE296A4FEA830BCCEEA9CA87EE8B9AE3
:1052F0008CEE0BDAC7EEAB7AB6EE006A36EE877A42
:105300003CEEC60A79EE27DA3DEE46DA84ED537AB2
:1053100005F048FE07EE900AF8EEE76A00F03F005D
:1053200029EEAD6A7CEEE66A07EB80025946D2EDC3
:10533000007A92ED017A37EE677A0AEB0103E6EE26
:10534000877A4030B0F58E5F93ED007AA6EE277A2B
:1053500002F5807201F1040183ED007AE7DBB4EE1F
:10536000CCBAF1EE10FA40F22B844FF0000BFEF7AE
:105370008EBCB6EE007AF4EEC77AF1EE10FA4FF07A
:105380000003D8BFB0EE677A8AF84835F6EE00BA67
:10539000FFF758B944D30008BC060010FC7401089C
:1053A00060010010F00C0010CC0C001000008042D6
:1053B000F7EE00CAB4EEECCAF1EE10FAC0F2B88211
:1053C0007CEE6CCA5FED076ADD4B02936CEEA66A59
:1053D0008CEEA97A4FEA820B0192DA4F86EEA99AF7
:1053E00077EE277AB6EE000A39EE400ACAED067A61
:1053F00005F0D8FD07EE900AF8EEE76A00F03F00EE
:1054000079EE666A019A029B07EBC001DE4691EDD8
:10541000017AD1ED007AE6EE877A03EB0E0C40308C
:105420009CED007A77EE277AB0F5905F01F5007178
:105430000EF1040ECCED007AE9DBB4EEECBAF1EE3D
:1054400010FA40F2FD83F6EE00BA4FF0000BFEF7C3
:10545000D2BA0023B0EE6BBACAF8143063E50B235E
:1054600084F8E93094F9E830FEF721BD0C2294F974
:10547000E83084F8E920FEF71ABD0023B24FDFEDD3
:10548000B39A9FEDB39A63674FF07E5208EE903A5D
:10549000236707F12C0A07F1240BA264626407F06A
:1054A00025FF07EE900AF8EEE77AB0EE497A67EE4C
:1054B0008A7AEAEC018AA7EEA97AA64AA7EC017AD1
:1054C000F0EE477A94ED117A77EE877A5F45C4ED76
:1054D000117AE4D1B7EE007AC7EE277A042382F876
:1054E000E93092F9E830C2ED117AFEF7E0BC94EDB4
:1054F000487AB5EEC07AF1EE10FA06D537EE087AA2
:10550000B5EEC07AF1EE10FAF8D4B4EEC87AF1EE46
:1055100010FAF0EE477A06DB77EEC87AF4EEC87A36
:10552000F1EE10FAF8DA9FED8C7AF4EEC77AF1EE2C
:1055300010FA87EE877A00F11082F0EE006A37EEFB
:10554000667AD4ED456A67EE266AFEEE008A27EE9B
:10555000267A27EE289AFDF7D4BE013B63F00303B9
:105560000133FEF759BFF6EE006A68EEA68A28EE10
:10557000879AFDF7C6BEDFED796AD4ED458AB7EEAE
:10558000007AA7EEA67A27EE289AFDF7BABEDFEDDD
:10559000747AB0EE65BAF6EE00CA6BEE2CCAB9E5C5
:1055A000013B63F00F030133FEF7A7BF07F224416D
:1055B0004FF4907207F1240007F0A6FD4FF48062CB
:1055C00007F5A270002107F039FE97ED009A00223E
:1055D000CBE407F586614FF4907207F1300007F0D5
:1055E00093FD4FF4806207F5A870002107F026FEB6
:1055F00097ED009A0022FEF71EBA07F5AC614FF452
:10560000907207F5B07007F07FFD07F5207000215C
:105610004FF4806207F012FE97ED4D9A0023FEF7DB
:1056200054BB3CEE4B7ADFED50CA4E4F67EE2CCAAE
:10563000FFEE006ACCEEA9CAF7EE007A87EE2B7A6D
:10564000C6EEAB6AC7EE8B7AB6EE00DA3CEECD0A58
:1056500076EEE7BA3DEE47DA05F0A4FC07EE900AD5
:10566000F8EEE77A00F03F0069EEAB6A7CEEE7CA3D
:1056700007EB8007D7ED007A97ED017A37EE677A6E
:105680000AEB0B03ECEE877A4030B0F58E5F93EDBA
:10569000007AA6EEA77A07F580770BF1040B83ED6D
:1056A000007AE7DB4FF0010BFEF7EFBADFED2E7A61
:1056B000234B02927CEECB6AB6EE000A66EEA76A36
:1056C0000193C6EEA9BA1F4F3BEEC00A05F06AFC73
:1056D00007EE900AF8EEE76A029A019B00F03F009D
:1056E0007BEEE66A07EBC007910097ED017AD7EDF4
:1056F000007AE6EE877A03EB010E40309EED007AE9
:1057000077EE677AB0F5905F07F5007701F1040155
:10571000CEED007AE9DBFEEE00BA4FF0010BFEF7AA
:1057200068B93CEECBDA0023CDEE2BBAC4F84C318D
:10573000B6EE00DAB0EE6CCA3DEE6BDAFEF7A7BA51
:10574000BC06001044D300084C000010BF9F7A3FF5
:105750006F12833A00000010DB0F494083F922BF2B
:1057600058FF7F3FFC740108000080423CEE67CA8E
:105770005FED037ACD4B03937CEE8C6AB6EE000AA4
:1057800066EEA76A4FEA820BC6EEA9BA0292CDF87E
:1057900004B0C74F3BEEC00A05F004FC07EE900AC8
:1057A000F8EEE76A00F03F007BEEE66A029A039BA0
:1057B00007EBC001DE4691ED017AD1ED007AE6EE0D
:1057C000877A03EB0E0C40309CED007A77EE277A57
:1057D000B0F5905F01F500710EF1040ECCED007A8A
:1057E000E9DBB4EECCBAF1EE10FA3EF6F8A87CEEA6
:1057F0004BBADFEDB37A03937CEEABBAB6EE000A98
:105800006BEEA7BA0292CBEEA9BA3BEEC00A05F046
:10581000C9FB07EE900AF8EEE77A00F03F007BEE56
:10582000E7BA029ADDF804E0039B07EBC00191EDB3
:10583000017AD1ED007AEBEE877A03EB0E0C403063
:105840009CED007A77EE677AB0F5905F01F5007114
:105850000EF1040ECCED007AE9DB09E4DFED986A85
:10586000019BDFF858A26CEE266A4FEA830BC6EE66
:10587000A9CA3CEECEEAFEF7D0B93CEECB7AC7EE31
:105880008BCA019B8B4FDFF834A24FEA830BC7EE24
:10589000AB7A87EE2B7A7CEEA7CAB6EE00DA3DEE45
:1058A00047DA69EEACCADFED86DA6CEE2DDAB6EED9
:1058B00000EACDEEA9DA3DEECEEAB0EE4E0A05F0F2
:1058C00071FB07EE900AF8EEE76A00F03F007DEE0C
:1058D000E66A07EB80075A46D7ED007A97ED017A22
:1058E00037EE677A0AEB0203E6EE877A4030B0F5CE
:1058F0008E5F93ED007AACEEA77A07F5807702F120
:10590000040283ED007AE7DBF0EE6DCAFEF785B99D
:105910000022B0EE6CCA9B46C4F84C21FEF7B7B922
:105920000021F0EE4CCA9B46CAF81810FEF763B887
:105930000023F0EE4CCACAF81830FEF75CB8B0EE9F
:10594000467AB0EE675AF0EE676AFEF76ABFF0EE8D
:10595000456ADFED597AFEF764BFD4ED458AF6EE6D
:10596000006A68EEA68A68EE878A27EE289AFDF715
:10597000C8BCB0EE677AFCF737BF7CEE4BBADFED00
:10598000507A4A4B02937CEEABBAB6EE000A6BEE4D
:10599000A7BA4FEA820BCBEEA9BA0192444F3BEE75
:1059A000C00A05F0FFFA07EE900AF8EEE77A00F079
:1059B0003F007BEEE7BA019A029B07EBC001DE468F
:1059C00091ED017AD1ED007AEBEE877A03EB0E0CC4
:1059D00040309CED007A77EE677AB0F5905F01F584
:1059E00000710EF1040ECCED007AE9DBF7EE007ADF
:1059F000B4EEE7CAF1EE10FABDF6BBAFFFF738BB65
:105A00003CEECB7ADFED2E6A019B2A4FDFF8ACA08B
:105A10007CEE07EABFEE006A6EEEA6EAC7EE8B7A6E
:105A20004FEA830BCEEEA9EAC6EE2B6A87EE2B7AFD
:105A30003EEECE0A76EEE7DA3EEE47DA05F0B2FA4F
:105A400007EE900AF8EEE77A00F03F0069EEADDA73
:105A50007EEEE7EA07EB80025946D2ED007A92ED3E
:105A6000017A37EE677A0AEB0103EEEE877A40306F
:105A7000B0F58E5F93ED007AADEEA77A02F58072F5
:105A800001F1040183ED007AE7DBF7EE007AF4EE32
:105A9000E7CAF1EE10FABEF675A8C7EE8BCAC7EEDC
:105AA000AB7A7CEEA7CA69EEACCAFCE6BC06001075
:105AB00044D30008FC74010858FF7F3F60010010C8
:105AC000000080423CEECB7A1FED03CA914FDFF815
:105AD00058A227EE0CCABFEE009A8CEE29CAC7EE78
