:020000040800F2
:100000003C5B0120299200089949000895490008A5
:10001000914900088D490008894900080000000046
:1000200000000000000000000000000085490008FA
:1000300081490008000000007D490008E1470008F0
:10004000C1540008C1540008C1540008C15400083C
:10005000C1540008C1540008C154000855490008A3
:10006000C1540008C1540008C1540008C5A10008CB
:10007000C1540008C1540008C1540008C15400080C
:10008000C1540008C1540008C1540008C1540008FC
:10009000C1540008C1540008C1540008C1540008EC
:1000A000C1540008C1540008C1540008C1540008DC
:1000B00009490008C1540008C1540008C15400088F
:1000C000C1540008C1540008C1540008C1540008BC
:1000D000C1540008C1540008C1540008C1540008AC
:1000E000C1540008C1540008C1540008C15400089C
:1000F000C1540008C1540008C154000815A20008EA
:10010000C1540008C1540008C1540008C94800087F
:10011000C1540008C1540008C1540008C15400086B
:10012000C1540008C1540008C1540008C15400085B
:10013000C1540008C1540008C1540008C15400084B
:10014000C1540008C1540008C1540008B9A10008F6
:10015000C1540008C1540008C1540008C15400082B
:10016000C1540008C1540008C1540008C15400081B
:10017000C1540008C1540008C1540008C15400080B
:10018000C1540008C15400082DE980480020A5B0E2
:1001900005F06EF90120DB4C05F06AF9022005F04C
:1001A00067F9032005F064F9236BD74843F0010396
:1001B000236324AB626C0293029D42F480420123CC
:1001C000626445F8403D0295029900258DF854502F
:1001D0008DF8575005F0E4F8CC4BCD4ACD495A6024
:1001E000F020072281F823009D601A60626BCA4BE1
:1001F00042F0400262631A6842F004021A605968D1
:10020000C54ACC07FBD5C54F9068C54CDFF8608365
:10021000DFEDC48AC44D9FEDC59A9FEDC5AADFED01
:10022000C59A0CF0F3F943F2C82300264FF00009F9
:100230004FF07E5A04F64472B1EE008A4FF0804BC4
:1002400007F13800C4F83C3FBB4BC8F86435C4F82C
:10025000402F87F8349087F8359087F8369087F8E4
:10026000379087ED0E8AC7F83CB0C7F82CA0C7F8C6
:1002700030A0BE65C7ED108A04F028FE07F16400C7
:1002800087ED198AC7F868B0C7F88460C7ED1B8A84
:1002900004F01CFE07F1900087ED248AC7F894B0A3
:1002A000C7F8B060C7ED268A04F010FE08F5B16308
:1002B0009FEDA20AA24A1A600AF010F907EE100A8E
:1002C000F8EEC77AB6EE008A67EE887AC8F88C0531
:1002D000FCEEE77A042117EE900A2422994BC8F825
:1002E000909588F8949588F8A69588F8A79588F849
:1002F000A89588F8A99588F8AA9588F89C95C8F8D3
:10030000980588F8A41588F8A525C8F8A03504F044
:1003100029FE41F2B0604FF0010B07F800B008F27F
:10032000C450894B066008F2BC508849066008F248
:10033000B45080ED008A08F5B760C0ED008A41F640
:10034000B030C7F8C01003F800B005F6D420804ADA
:10035000066008F2AC5080ED009A08F5B66080EDBA
:10036000009A03F5B860DFED7B7A016005F6BC21E9
:10037000DFF800C20A6005F6CC2103F2C45E0A6011
:1003800005F52C61C1ED007A05F52D617248C1F8C3
:1003900000C005F6C4218EED008A086003F2BC5E41
:1003A00040F277516D4AC3F8C8158EED008A03F20A
:1003B000CC50DFF8C4E16A4BC2F800E0C7F8C810BF
:1003C0004FF4AF524946C8F8CC95C8F8D095C3F859
:1003D00000E087ED318A87ED2F8A09F0DDFF49467D
:1003E0004FF4AF5207F1CC0009F0D6FF05F6EC212F
:1003F00005F52F600E60066005F6F82105F60C3055
:100400000E60066005F5316105F618300E60066075
:1004100005F6283105F638300E60066005F53361C3
:1004200005F634300E60C0F800A005F6483105F638
:1004300058300E60066005F5356105F654300E60E3
:10044000C0F800A005F6E82105F60830DFF82CC159
:10045000C1F800C0C0F800C005F6143CDFF820E188
:10046000CCF800E005F6F42105F52E6005F5306CBA
:10047000C1F800E04FF078510160CCF80010DFEDDA
:10048000397A394B394A85F8DCBA08F2D45105F685
:100490001C3C08F5BB6805F6E42E05F604304FF069
:1004A0007A59CEED007AC1F80090CCF80030C0ED5A
:1004B000007A05F5326E05F63C3005F53461C8F872
:1004C000009005F6243C05F65C39CEF80030036058
:1004D00005F6443E05F536600B60C9F8003005F6B8
:1004E000683105F66439CCF8002005F6783CCEF882
:1004F000002085F8FCBA05F5376E0360C9F80020C6
:100500000E603FE0003802400000024010E000E0D2
:100510007F20050000ED00E00008065000000010FC
:10052000DC0400200AD7233CF02100106F12833A2C
:1005300000000030BF9F7A3F40DF002000A00C4643
:100540000000A04370C60008F8100010CDCC4CBECF
:1005500000004842AE47E13DDB0FC93FAC1600103A
:10056000A42C0010A913D43ECDCC4C3F00C01244A3
:10057000444701208FC2F53D000070436666663F28
:10058000CDCCCC3ECCF8006005F6743005F67C315D
:1005900005F5386905F6843C0B60C9F80030CEF8E3
:1005A0000060C0F800A0CCF8002005F6883E05F6F3
:1005B000983005F5396105F6943905F53A6C05F67C
:1005C000A83205F69C33CEF8006006600E60C9F8CC
:1005D00000A0CCF80060166005F6B83E05F53B605B
:1005E00005F6B43105F6BC3905F6C43C05F6C8324B
:1005F0001E6005F53C63CEF800600660C1F800A0FF
:10060000C9F8006005F6D83E05F53D6005F6D43121
:1006100005F6DC39CCF80060166005F6E43C05F61A
:10062000E8321E6005F53E63CEF80060066005F610
:10063000F83E05F53F60C1F800A0C9F8006005F676
:10064000F43105F6A439CCF80060166005F6FC3CE0
:1006500005F540621E60B846C44BC9F80030CEF8BC
:10066000006005F5416905F6044E0660C1F800A07A
:1006700005F60840CCF8006005F6184105F614436D
:1006800005F5426C166005F61C4248F808ABC9F83F
:100690000060C7F804A0CEF8006006600E60C3F8E2
:1006A00000A0CCF80060166005F6244507F12C097F
:1006B0000BF0B4FF07EE100AF8EEC77AB0EE497AF5
:1006C00067EE8A7A45F8046BA7EEA97AA84AA8ECE7
:1006D000017AF0EE477A97ED007A77EE877AC8458F
:1006E000C7ED007AE4D1B7EE007AC7EE277ADFF8DB
:1006F000989202999F48A04EA04DA14F4FF0020A38
:100700004FF0000801234FF0100BC2ED007AD9F82A
:10071000302042F00802C9F830208DF8543001939F
:10072000CDF850B08DF855A08DF856808DF85780D3
:1007300004F036FED9F83020019B029942F00702FE
:10074000C9F8302030464FF410728DF856301492AC
:100750008DF854A08DF855A08DF8578004F020FE38
:10076000336A029923F070633362336A43F0806323
:100770003362736A23F0F0037362736A43F04003D9
:10078000736228464FF4A05314938DF854A08DF84B
:1007900055A08DF856808DF8578004F001FE7948F9
:1007A000036A23F470230362036A43F4C0230362E1
:1007B0006B6A23F470636B626B6A43F4C0636B62B1
:1007C0003B68534500F0C4810299CDF850B004F065
:1007D000E7FD6B6A23F470236B626B6A43F4C023FA
:1007E0006B62664D029902220023802628468DF80E
:1007F00054208DF855208DF856308DF857301496CA
:1008000004F0CEFD2B6A5B4A23F070432B622B6A07
:10081000102143F0C0432B6244F6FF735183013B28
:10082000FDD1544B584D10221A832B6C43F4001306
:100830002B642B6A43F400132B624FF4001004F076
:100840000FFE524B1A8892B242F001021A809A8827
:10085000AB6822F03F0203F00C031204042B4FEAB2
:10086000124201F0DB85082B41F0D5856B68696881
:1008700013F4800F18BF46486B6808BF454801F065
:100880003F01B0FBF1F1C3F3881301FB03F33E49D1
:100890004868C0F3014001304000B3FBF0F03A4932
:1008A000DFF8F8C08D68394B3B4EC5F3031EBE44DC
:1008B00044F233059EF80480D1F808E0CEF3822E8E
:1008C000BE4420FA08F09EF80480D1F808E020FA2F
:1008D00008F1ACFB0180CEF3423E800CBE440243E3
:1008E0009EF804E09A801A888909A6FB01E189092B
:1008F00022F0010203294FEA024298BF042101308D
:10090000120C1A80188499831A8892B242F001025C
:100910001A801A8822F4816222F002021204120C58
:1009200042F480621A8001211D81022007F046FAFC
:10093000AF210546042007F041FAAF230544812189
:100940000520237007F03AFA04210544062007F039
:1009500035FACB210544202007F030FA2120CB21A5
:1009600007F02CFA3B68022B34D119E00000B040AC
:1009700000000010000C0240000402400008024089
:1009800000000020000002400038024000540040F7
:1009900000127A000024F400632D3E0583DE1B4321
:1009A0000121082007F00AFA01210646092007F074
:1009B00005FAC02106440E2007F000FA3544002154
:1009C0000544142007F0FAF900210544152007F02A
:1009D000F5F905449E21022007F0F0F900210544B5
:1009E0000A2007F0EBF93B68022B054404D00E20E7
:1009F000042107F0E3F905440021272007F0DEF980
:100A00000F2105441F2007F0D9F90A212E181A20BA
:100A100007F0D4F9574D0A2106441B2007F0CEF900
:100A20002B6C43F400432B642B6A43F400432B628A
:100A300006444FF4004004F013FD4F4A938B23F417
:100A40007B6323F00F031B041B0C0221938311848F
:100A5000918BAB68180289B203D5AB6823F400030D
:100A6000AB60444B454DD3F884E0D3F884C05B6859
:100A70004348444A03F03F03B5FBF3F5CEF3881E29
:100A80000EFB05F5CCF30273B5FBF3F31B0A03EB86
:100A900083035B00A0FB03539B0A0533A2FB038285
:100AA000D2085308981E02F00102120280B292B2DC
:100AB000FD289CBF42F400721A432F4B88BF40F2BE
:100AC000022241F420611A8499833B68022B11D1E0
:100AD000284A2D4B116C41F0005111641A68169987
:100AE00022F47F6222F00E020A431A601A6842F072
:100AF00001021A60002E00F0B1830DF14809234B6A
:100B0000234D38684FF4C86203F1400128465A610A
:100B10007A61D96004F01CFB2B6843F001032B6061
:100B2000154B9A8B520504D49A8B92B242F4806290
:100B30009A83184D154E2A69174B4FF0000806F599
:100B40004C61C7F81880D707C4F8C01C26D4FEE74C
:100B5000D9F83030029943F00103C9F8303003234B
:100B6000CDF850B08DF857808DF8543004F018FC53
:100B700037E600BF00380240003C004000127A0017
:100B8000F1197605CDCCCCCC00740040DC040020FB
:100B9000B86002400000024000000020DD4F83F8F2
:100BA00074803B6B029943F001033B634FF4D052D6
:100BB0004FF0030B0223284614928DF855B08DF8A0
:100BC00054308DF856808DF8578004F0E9FB6B6A3D
:100BD000029923F0F0036B626B6A43F0A0036B622F
:100BE0006B6A23F470436B626B6A43F420436B625D
:100BF0006B6A23F470236B626B6A43F420234FF01B
:100C0000010A6B6228464FF480638DF855B0149347
:100C10008DF856A08DF857A004F0C2FB6A6ABE4B4F
:100C2000BE49DFF81CB322F470626A626A6A42F459
:100C300020626A627A6C42F480427A647A6B4FF086
:100C4000006542F080027A6348469D601C22D960AC
:100C50008DF848208DF84AA08DF84BA08DF849807A
:100C600004F0BCFA3B6C43EA0A033B64404604F0E0
:100C70000FFE96F8C83C86F8C7AC4022072B86F8D2
:100C8000E0AC86F8E5AC86F8C48C86F8C58C86F8AE
:100C9000C68C86F8E48C86F8CA2C07D803F5317325
:100CA0000BEB43039A88C2F30E029A8094F8C93C76
:100CB000072B07D803F531730BEB43039A88C2F374
:100CC0000E029A809649C4F8281D002301F11005F0
:100CD0000821CBF81033C4F82C5DCBF81433CBF8D3
:100CE00050338BF88C33CBF81833CBF854338BF864
:100CF0008D33CBF81C33CBF858338BF88E33CBF8CD
:100D00002033CBF85C338BF88F33CBF82433CBF81C
:100D100060338BF89033CBF82833CBF864338BF8FF
:100D20009133CBF82C33CBF868338BF89233CBF874
:100D30003033CBF86C338BF89333CBF83433CBF8B8
:100D400070338BF89433CBF83833CBF874338BF89B
:100D50009533CBF83C33ABF8B2138BF8001040213D
:100D6000ABF8041004218BF801104FF4A071DFF8E8
:100D7000D491DFF8D481ABF8061002214FF0A042E5
:100D800068488BF808106849DFF8C0C1DFF8C0E197
:100D9000664F674ECBF81090012509F55879CBF8CE
:100DA0001880A8F5A068CBF87833CBF80C208BF826
:100DB00096338BF80330CBF84033CBF854C0CBF8E4
:100DC0007C33CBF81CE08BF89733CBF85870CBF81A
:100DD0004433CBF82060CBF88033CBF85C008BF841
:100DE0009833CBF82410CBF84833CBF86090CBF88D
:100DF0008433A0F5E0608BF89933A1F58C61CBF8D2
:100E00004C338BF80250CBF888338BF80B508BF8AF
:100E10009A33CBF814809368CBF8CC00CBF89010C1
:100E2000A9F5C86908F5A078ACF5B46CAEF5687E94
:100E3000A7F5B067A6F5607600F5D07001F53061D2
:100E4000CBF89490CBF89880CBF89CC0CBF8A0E07E
:100E5000CBF8A470CBF8A860CBF8AC00CBF8D010DE
:100E6000DFF8F0C03348344F344ECBF8DCC04FF0DD
:100E7000502EA1F5007123F0010309F5D75908F5AB
:100E80002B58CBF8E0E0CBF80C11CBF8D490CBF892
:100E9000D880CBF8E470CBF8E860CBF8EC00936036
:100EA000D36843F04003D36004F0B6FC9BF80920FC
:100EB000DBF80C30002A0CBF4FF434124FF47412DC
:100EC0009A632946142003F097FE9BF80320DBF871
:100ED0000C30AA4206D19A68052161F3440242F01F
:100EE00020029A60DA68164E6FF39E7242F000524A
:100EF0000121DA60322003F07FFE304604F0C8FCA6
:100F0000DBF80C3100251D609BF80830012B73695C
:100F100022E000BF0038024000ED00E00005FA05C5
:100F20001C000020400B005060090050200B0050B6
:100F300040090050008000500060005000700050D8
:100F40008C4D01200008005000090050000B00509B
:100F50002009005000400050214E1A6816BF0121A0
:100F600065F3010261F301021A60304603F0BCFD33
:100F7000DBF814301A686FF382021A609BF80B30AA
:100F8000012B2F4600F0C881F36800221192119ABC
:100F9000144942F020021192119A102060F38A1233
:100FA0001192119A1A611A69119203E01A69119249
:100FB000013902D0119A9506F8D40221032003F0DA
:100FC0001BFE00231293129ADBF80C30054942F005
:100FD00010021292129A1A611A69129208E000BF66
:100FE0008C4D0120400D03001A691292013902D084
:100FF000129AD006F8D40320022103F0FDFD9BF8DD
:101000000030BA48002B5BD0D0F890504FF0FF3141
:101010000022012BA960EA6052D9D0F89450022B2B
:10102000A960EA604CD9D0F89850032BA960EA6017
:1010300046D9D0F89C50042BA960EA6040D9D0F87A
:10104000A050052BA960EA603AD9D0F8A450062B2D
:10105000A960EA6034D9D0F8A850072BA960EA60EB
:101060002ED9D0F8AC50082BA960EA6028D9D0F866
:10107000B000092B8160C26022D9DBF8B4509B48D4
:10108000A9600A2BEA601BD9D0F8B8500B2BA960D5
:10109000EA6015D9D0F8BC500C2BA960EA600FD9D2
:1010A000D0F8C0500D2BA960EA6009D9D0F8C4501F
:1010B0000E2BA960EA6003D9D0F8C8309960DA60D5
:1010C0008B4BDBF8CC200121598313686FF382032B
:1010D0006FF341036FF3C3036FF34513D90402D4D5
:1010E00043F480531360C820012103F085FDD4F838
:1010F0002C2D9BF80310DBF80C3010687D4DDFF8C9
:101100000C82002291429A614FF0FF3108BF1022F9
:101110006FF08046596142F00C5259605E619D61EA
:10112000996942F4001242F008020A439A619A68EF
:1011300042F001029A6080476F4B704ADA600125E5
:10114000432302988DF850308DF851508DF852504D
:101150008DF8535004F042F81722022302988DF8BC
:1011600050208DF852308DF851508DF8535004F0C6
:1011700035F802238DF84330DFF894E1DBF81023D3
:10118000A8F5887AAEF60259002A49D194F8C42C01
:10119000002A40F00486DBF81033002B40F04E8626
:1011A0004FF080430121C4F8301D1A8822F001025B
:1011B0001204120C1A809A8922F001021204120CF5
:1011C0009A811A8822F45C721204120C1A8042F678
:1011D000DF654FF6FE720520DD62188599821A825E
:1011E0001A8892B242F080021A809A8992B20A4317
:1011F0009A811A8892B20A431A80D4F8303D002BA3
:10120000FBD14FF08042138823F001031B041B0C19
:10121000138002238DF84330DBF81023002AB5D069
:1012200094F8C43C0A2BBBD801A050F823F000BFAF
:101230009711000805140008A71D0008A111000857
:10124000C3130008E51300088D130008611300089C
:1012500039130008A111000895150008D7F800807F
:10126000B8F1010F01F0F68011AE3B68012B01F0DF
:10127000D880234B23481A6B42F4001242F001023B
:101280001A631A6C0DF1480942F000521A640325E2
:1012900049461022002312928DF84F308DF84C50A1
:1012A00004F07EF8184B169A1968DFF868E021F40C
:1012B0007F6121F00E010A431A601A6842F00102B0
:1012C0001A60BEF804309BB243F08003AEF80430DD
:1012D0003322012330468DF845508DF846508DF865
:1012E00044208DF8473003F079FF08E48C4D01204D
:1012F000000802400008008000ED00E00006FA054A
:101300000038024000000240007400409C4E012062
:10131000DE110020003C00402122A121F36862F38D
:101320000F0561F30F07C0F28005C0F280075A6213
:101330009D62C3F8007128E6D4F82C3D9B6B98475A
:1013400001287FF42DAFD9F8283DC4481B68C44953
:10135000984700287FF424AF052389F8C43C1FE791
:1013600094F8E03C0022013B84F8D62C0A2B3FF68F
:1013700017AFDFE813F05B04470489043304C104AA
:10138000AD04F4041204DE03CE030004D4F8283DB7
:10139000B248DB68B24998478DF843009DF8433066
:1013A000DBB21A1FD2B2012A40F28885062B7FF4E5
:1013B000F7AED9F82C3D0A221B6889F8C42C98474F
:1013C000EEE694F8C63C092B3FF6EAAEDFE813F0F0
:1013D0003703C4020602AB015F02280275014C010B
:1013E00021011901D4F8283D9C489B689C499847E5
:1013F0008DF843009DF84330002BCFD1062389F8A8
:10140000C43CCDE6D4F82C3D9B689847BBF98C359D
:10141000002B80F28C85BAF98E35002B80F2848502
:10142000BAF99035002B80F27C85BAF99235002B01
:1014300080F25E85BAF99435002B80F2C885BAF93E
:101440009635002B80F2C085BAF99835002B80F2D2
:10145000B885BAF99A35002B80F2B085FF2389F858
:10146000C93CBBF98E35002B80F26A85BAF99035FC
:10147000002B80F26285BAF99235002B80F25A85F2
:10148000BAF99435002B80F27F85BAF99635002B96
:1014900080F2A385BAF99835002B80F29B85BAF9C2
:1014A0009A35002BB8BFFF2380F261856B4884F822
:1014B000C83C03F019FBD4F82C3DDB689847DBF8F7
:1014C000CC20D4F82C3D1068C0F3414084F8E50CE2
:1014D000042200F003009B6984F8C42C984794F818
:1014E000C81C94F8E50C94F8E47C0BEB41020BEB80
:1014F0004113B2F88C2583F8AC7301F11E0502F09C
:101500007F060BEB4515C2F3C01283F8AD6383F879
:10151000AE2394F8CA6CA3F8B263002283F8B12317
:1015200083F8AF0303F56A732A716A7108B901225F
:101530001A724A4803F0C6FF94F8C91C94F8E50CE7
:1015400094F8E47C0BEB41020BEB4113B2F88C25D1
:1015500083F8AC7301F11E0502F07F060BEB451515
:10156000C2F3C01283F8AD6383F8AE2394F8CA6C5B
:10157000A3F8B263002283F8B12383F8AF0303F525
:101580006A732A716A7108B901221A72334803F02A
:1015900099FF05E694F8C81C0023012284F8C43C96
:1015A00084F8C53C84F8C63C84F8E43C07294FF035
:1015B000400384F8C72C84F8E02C84F8E52C84F8E8
:1015C000CA3C07D801F531730BEB43039A88C2F389
:1015D0000E029A8094F8C93C072B07D803F53173A3
:1015E0000BEB43039A88C2F30E029A80D4F82C3D89
:1015F0005B689847D4F8283D18485B6819499847B4
:10160000CEE5D4F82C3D5B6B9847082384F8C43CA6
:10161000C6E594F8C72C94F8FD3CA4F8DA3C0921FF
:101620000023012A84F8D83CA4F8DC3CA4F8DE3C72
:1016300084F8D91C00F0F984022A7FF4B1AD99F83E
:10164000E02C0D2A00F06886A2F10B03DBB2012B1F
:101650003FF6A6AD012389F8C73CA1E58C4D0120DA
:10166000A0110020C011002094F8F62C002A00F0F0
:10167000818442F4407299F8C73CA9F8DA2C8021A1
:10168000062289F8D81C89F8D92C40F20941FF229A
:10169000012BA9F8DC1CA9F8DE2C00F01884022B21
:1016A0007FF47EAD99F8E03C0D2B00F066860B3B95
:1016B000DBB2012B3FF674ADCCE794F8F52C002A91
:1016C00000F0A98442F4407299F8C73CA9F8DA2CDA
:1016D0008021062289F8D81C89F8D92C40F20941CA
:1016E000FF22012BA9F8DC1CA9F8DE2C00F0EF8307
:1016F000022B7FF455AD99F8E03C0D2BD7D19BF828
:10170000113101210022032B89F8C71C89F8E02C34
:1017100000F00B86D4F82C3D0298DB6A984707232B
:1017200084F8C63C3CE594F8C73C802106224FF47F
:10173000007084F8D81C84F8D92C00210922012BD0
:10174000A4F8DA0CA4F8DC1CA4F8DE2C00F0BF83AB
:10175000022B7FF425AD99F8E03C0D2BA7D19BF827
:1017600012319BF8132189F8E01C03EB022189F860
:10177000363DA9F8FA1C9BF810319BF8111189F835
:10178000372D89F8343D9BF8142189F8F83C89F805
:10179000351D9BF8153189F8F91C9BF8161189F84D
:1017A000382D012089F8FC2C89F8393D9BF8172148
:1017B00089F8FD3C89F83A1D9BF8183189F8FE1C20
:1017C000042189F8C70C89F83B2D89F8FF2C89F88A
:1017D0003C3D89F8003D89F8C61CE1E494F8C71C3B
:1017E000012000220525814284F8D82CA4F8DC2CA5
:1017F000A4F8DE2C84F8D95CA4F8DA0C00F0268476
:1018000002297FF4CDAC99F8E03C0D2B00F07084F8
:101810000B3BDBB2012B3FF6C3AC89F8C70CBFE42E
:1018200094F8F42C002A00F0EC8342F4407299F80A
:10183000C73CA9F8DA2C8021062289F8D81C89F83F
:10184000D92C40F20941FF22012BA9F8DC1CA9F890
:10185000DE2C00F03C83022B7FF4A2AC99F8E03C34
:101860000D2B7FF424AF9BF8113101210022032BB3
:1018700089F8C71C89F8E02C00F0AF85D4F82C3D1E
:1018800002989B6A9847062384F8C63C88E494F83B
:10189000C73CB4F8FA5CA4F8DE5C8021062284F828
:1018A000D81C84F8D92C4FF400710022012BA4F825
:1018B000DA1CA4F8DC2C00F06A83022B7FF470ACF5
:1018C00099F8E03C0D2B7FF4F2AE012389F8E02C6F
:1018D00089F8C73C25B1E648E6492A4608F0C2FC2B
:1018E0009BF813219BF810119BF8123184F8F81C17
:1018F0009BF811119BF8150184F8F91C03EB0223E6
:101900009BF816119BF8142184F8FD0C9BB29BF8F0
:10191000170184F8FE1C092D9BF81811A4F8FA3C55
:1019200084F8FC2C84F8FF0C84F8001D07D9012AE8
:1019300040F23F840023A4F8343F84F8363FCE4879
:10194000D4F82C3D00F10A015B6A00F114029847BB
:10195000052384F8C63C23E494F8C75C8022062360
:101960004FF4807184F8D82C84F8D93C00221223DB
:10197000012DA4F8DA1CA4F8DC2CA4F8DE3C00F05D
:101980000C83022D7FF40CAC99F8E03C0D2B7FF416
:101990008EAE9BF812319BF813119BF8190189F850
:1019A000E02C03EB01219BF818319BF81B21A9F8CF
:1019B000E81C03EB00209BF81A319BF81D11A9F8D5
:1019C000EE0C03EB02229BF81C31A9F8F02C03EB80
:1019D000012101229BF81031A9F8F21C89F8C72CCB
:1019E0009BF811119BF8142189F8E63C9BF81531FE
:1019F00089F8E71C89F8EA2C9BF816119BF8172147
:101A000089F8EB3C9BF81E3189F8EC1C89F8ED2C29
:101A10009BF81F119BF8202189F8F43C9BF8213199
:101A200089F8F51C89F8F62C89F8F73CD9F82C3D93
:101A30009248DB69984789F8C65CFFF7B1BB94F818
:101A4000C73C802206214FF4807084F8D82C84F89B
:101A5000D91C00220821012BA4F8DA0CA4F8DC2CF4
:101A6000A4F8DE1C00F0BC82022B7FF499AB99F83D
:101A7000E03C0D2B7FF41BAE9BF813019BF8121179
:101A80009BF8113189F8E02C01EB00229BF81061E2
:101A90009BF814019BF81511A9F8E82C89F8E73C8C
:101AA0009BF816219BF8173189F8EA0C012589F873
:101AB000EB1C89F8EC2C89F8ED3C89F8E66C704851
:101AC00089F8CA3C89F8C75C03F00EF899F8C91C7C
:101AD00099F8CA3C89F8C65C0BEB411202F56A72B0
:101AE0005089984201D003B15381654803F0EAFC64
:101AF00094F8C81C94F8CA3C0BEB411202F56A72C8
:101B0000508998423FF442AD002B3FF43FAD5381E2
:101B10003CE594F8C93C5B4493F89B33DBB2012B62
:101B200000F0A582022B00F0F283032B7FF438AB88
:101B300063E094F8C90C0BEB000500F115010023DC
:101B40000BEB40120BEB411185F89B33012702256B
:101B500082F8AE33C1F81831C2F8BC3382F8C573CD
:101B600081F81451C2F8C03303F058FA0A2384F8FC
:101B7000E03CFFF715BB94F8D23C0133DBB2022BFB
:101B800084F8D23C40F27C82082299F8C53C89F85E
:101B9000D62C89F8C43CFFF703BB94F8C83C5B44DF
:101BA00093F89B33DBB2012B00F06182032B24D02E
:101BB000DAF81420B9F8D41C9068B9F8382F80B23C
:101BC000411A914219D8042B7FF4EAAA99F8C52C3E
:101BD00089F8D63C89F8C42CFFF7E2BA94F8C83CDF
:101BE0005B4493F89B33DBB2012B00F0AC81042BF8
:101BF00000F06482032B40F0A9810B2384F8E03CC1
:101C0000FFF7CEBA94F8C93C5B4493F89B33DBB240
:101C1000012B00F03A82032B7FF4C2AA0B2205238A
:101C200089F8E02C89F8D63CFFF7BABA94F8C90CC9
:101C3000144F00F115010BEB40120BEB4111002387
:101C4000032682F8AE330BEB0005C1F8187181F85A
:101C500014610821C2F8C033C2F8BC1385F89B3365
:101C600003F0DCF9022384F8E03CFFF799BA00BFE7
:101C7000101200209C4E0120D4110020C21100201F
:101C80008C4D0120B411002094F8C80CD4F8CC1C61
:101C90000BEB401300F115020BEB4212012583F808
:101CA000AE53022582F81451C2F81811B4F8D02CA2
:101CB000C3F8BC230BEB00050022C3F8C02385F852
:101CC0009B2303F0ABF9042384F8E03CFFF768BAE8
:101CD00094F8C93C5B4493F89B33DBB2012B00F0D2
:101CE0001183042B00F0EA81022B7FF41EAF052341
:101CF00089F8E03CFFF754BA94F8C90CD4F8CC3C0E
:101D0000B4F8D06C4FEA401E00F11502774600F19E
:101D10001E01CDF80CE05F440BEB421E0BEB4111B2
:101D200001254FF0000C4D7187F8AEC3CEF8183185
:101D3000039BC7F8BC630BEB42125B44022582F89D
:101D400014510BEB00010022C3F8C02381F89B2340
:101D500003F064F9062384F8E03CFFF721BA94F815
:101D6000C80C0BEB401200F115010BEB41110123E4
:101D700082F8AE33022381F814310BEB0005002307
:101D8000C1F81831C2F8BC33C2F8C03385F89B33B0
:101D900003F044F9082384F8E03CFFF701BA9A42C3
:101DA00001D089F8C43CD4F82C3D1B69984794F8BD
:101DB000C81C0023012284F8C43C84F8C53C84F884
:101DC000C63C84F8E43C07294FF0400384F8C72C54
:101DD00084F8E02C84F8E52C84F8CA3C07D801F597
:101DE00031730BEB43039A88C2F30E029A8094F886
:101DF000C93C072B07D803F531730BEB43039A88D3
:101E0000C2F30E029A80D4F82C3D5B689847D4F850
:101E1000283DB4485B68B44998470023ABF8903537
:101E2000ABF89235ABF89435ABF89635ABF89835FE
:101E3000ABF89A3584F8C43CFFF7B2B94FF0804351
:101E40006422C4F8302D1A8822F001021204120C08
:101E50001A809A8922F001021204120C9A811A88BF
:101E600022F45C721204120C052142F6DF601A8023
:101E7000D862012219854FF6FE719A82198219885B
:101E800084F8C42C8AB242F080021A809A8992B2F5
:101E900042F001029A811A8892B242F001021A803D
:101EA000D4F8303D002BFBD14FF08042138823F053
:101EB00001031B041B0C1380FFF772B9D9F82C3DEA
:101EC0005B6C98470A2389F8C43CFFF769B9042181
:101ED000C9F8CC8CA9F8D02C072289F8E03C022361
:101EE00089F8C51C89F8C42C89F8C73CFFF758B994
:101EF00003231A460BEB42024FF40041A2F88C1563
:101F0000BBF88C2584F8C93C13043FF5AAAA00232A
:101F10001A460BEB420248F28001A2F88C15FFF73B
:101F2000C5BA02231A46E5E701231A46E2E7002371
:101F30001A46DFE703231A46EBE702231A46E8E7CF
:101F400001231A46E5E7092389F8E03CDBF8143061
:101F5000B4F8D42C9968B4F8383F89B28A1A9A42F6
:101F60007FF61EA90B2389F8E03CFFF719B9072378
:101F70001A46CEE7D9F82C3D5C481B6B98470823DE
:101F800089F8C63CFFF70CB904231A46C1E70421BF
:101F9000C9F8CC8CA9F8D05C9EE70421A9F8D03C04
:101FA00007220223C9F8CC8C89F8E05C89F8C51CAB
:101FB00089F8C42C89F8C73CFFF7F2B807231A4602
:101FC00098E706231A4695E705231A4692E7042365
:101FD0001A468FE706231A469BE705231A4698E719
:101FE0000420072289F8E03C0223C9F8CC8CA9F828
:101FF000D01C89F8C50C89F8C42C89F8C73CFFF7B8
:10200000CFB8D9F82C3D39489B6A9847062389F800
:10201000C63CFFF7C5B8D9F82C3D3448DB6A984771
:10202000072389F8C63CFFF7BBB80420C9F8CC3CAD
:10203000A9F8D03C0721022389F8E02C89F8C50CC7
:1020400089F8C41C89F8C73CFFF7AAB80420C9F86E
:10205000CC2CA9F8D02C0223072289F8E01C89F89F
:10206000C50C89F8C42C89F8C73CFFF799B894F8D7
:10207000C53C84F8C43C0D2384F8E03CFFF790B8DD
:10208000012389F8E03CFFF78BB899F8D83CB9F800
:10209000DE2C23F07F03DBB2CAB141F28832A9F80B
:1020A000382F002B40F06181052389F8E03CDBF8F4
:1020B00014309B68A4F8D43CFFF772B894F8C53C80
:1020C00084F8C43C0C2384F8E03CFFF769B8322262
:1020D000A9F8382F002B40F04C81072389F8E03C09
:1020E000E5E700BF8C4D0120C011002018C7000893
:1020F0004FF08043C9F8301D198889F8C70C21F0CA
:1021000001010904090C1980998989F8E02C21F052
:1021100001021204120C9A811A8822F45C721204D1
:10212000120C1A8042F6DF614FF6FE72D9621D85ED
:1021300098821A821A8892B242F080021A809A8992
:1021400092B242F001029A811A8892B242F00102E0
:102150001A80D4F8303DB74D002BFAD14FF08042B1
:102160000121138885F8E41C23F00103D5F82C1D08
:102170001B041B0C13800B6A984795F8E43C95F8F8
:10218000C81C032285F8C62C1BB10BEB411282F848
:10219000AC33A94803F096F994F8E43C94F8C91CD0
:1021A000002B3FF4F3A90AEB411282F8AC33FFF79E
:1021B000EDB9B9F8346F99F8365FA0480B960C95D5
:1021C0000926CDF83CB0B3427DD9027810441644BC
:1021D00041780429B6B2F6D1C77890F802E00497A6
:1021E000022FCDF80CE0EED80179027805924579FE
:1021F000877990F807E0027A069502290797CDF8CB
:1022000020E00992DFD8039B8D4D5BB21AB205F135
:102210000A070D934FF0000B02EBC20307EB02120B
:102220002B440A925D46B446A94247DD0278104429
:1022300062444678052E1FFA82FCF5D10A9ADDF831
:1022400030E0ED0000952A440D9DAE453FD0059E3F
:102250001E704FF004075F70039D049E069F9D70E3
:10226000DE705F71079D089E099F9D711971DE7177
:102270001F72039D067947790C9590F801E0CDF81F
:1022800038E0009DDDF828E006EB072607780EF819
:1022900005700BF1010B90F802E0C7789680B6B29A
:1022A0005FFA8BFB0B960E9E56704FFA8BF5867974
:1022B0009671A94282F802E0D770B7DCB4F8FA3C14
:1022C0006646B34281D8DDF83CB0FFF733BB0679F0
:1022D0004779DDF82CE006EB0725AE45EEDC059DE1
:1022E0001D704FF004055D70039D9D70049DDD70B1
:1022F000069D5D71079D9D71089DDD71099D197198
:102300001D72BAE7072389F8E03CFEF749BF0923AD
:1023100089F8E03CFEF744BF012289F8E03C89F8E7
:10232000C61C89F8C72CFEF73BBF9AF81031023B58
:10233000FF2BA8BFFF2398B290B10DF15103DFF836
:1023400004E1911C1EF8022003F8012C8AB290428D
:10235000194603F10103F2D800230B70FFF7DAB935
:10236000029900230B70FFF7D5B9032389F8E03CED
:102370009DE6092389F8E03C99E69BF8113101219B
:102380000022032B89F8C71C89F8E02C09D0D4F867
:102390002C3D02981B6B9847082384F8C63CFEF737
:1023A000FFBE9AF81031023BFF2BA8BFFF2398B263
:1023B00078B10DF15103234D911CAA5C03F8012C57
:1023C0008AB29042194603F10103F4D800230B703E
:1023D000DDE7029900230B70D9E79AF81031023B30
:1023E000FF2BA8BFFF2398B280B10DF15103154F09
:1023F000911CBA5C03F8012C8AB29042194603F191
:102400000103F4D800230B70FFF738BA02990023B8
:102410000B70FFF733BA0C48FEF741BA0B48FEF7D2
:102420003EBA0B4B9A8892B242F002029A80FEF7B3
:1024300064BB00BFDC0400208C4D01209C4E0120B9
:10244000DE1100209E4E01200024F40000127A00CC
:10245000003C00402B4B2C4D196B666041F4001181
:1024600019632B68E66023F001032B602868274A74
:10247000A66120F0010021214FF03D5328604FF666
:10248000FE7C2E6028466E604FF4806EAE60DFF8F2
:102490008090EE604FF0400A2E616961D3604FF486
:1024A00000614FF400524FF4807326636663A663A5
:1024B000E6634FF440366262A362E662C4F80890B5
:1024C000C4F810A0C4F814C0C4F81CE0216202F0E3
:1024D0003FFE2B6843F010032B602B6811AE43F0D6
:1024E00008032B602F22032330468DF847808DF898
:1024F00044208DF845308DF8463002F06FFEFEF72F
:10250000B4BE00BF00380240B86002400060024024
:102510000C3C0040000000002DE9F04F2DED068B33
:1025200085B000F10409DFF84483CB4ECB4DCC4F8E
:10253000CC4C9FEDCD8A00F244600390D8F828304F
:10254000CA495A1E002BC8F8282041F36D82D5EDE8
:10255000037AF5EEC07AF1EE10FA08D577EE887AB4
:10256000F5EEC07AF1EE10FAF8D4C5ED037AF4EE88
:10257000C87AF1EE10FA08DB77EEC87AF4EEC87A82
:10258000F1EE10FAF8DAC5ED037A9FEDB90A95ED90
:10259000009A27EE800A07F0A1FFB649D5ED037A2D
:1025A000D5ED025A9FEDBC6AB34ADFF8E8E2D2EDFE
:1025B000006A9EF8003001EB800090ED6B7A29EE06
:1025C000077AF7EE008A77EE288AE5EE867A68EEDB
:1025D000A68A85ED077AC7ED028AC5ED037A102B2E
:1025E00001F2E481DFE813F0EA00FF027A00AB00B9
:1025F0009401E209E2095A01440011001809040794
:102600008D048703B7077605E101D7ED037AF5EE70
:10261000C07AF1EE10FA0DD577EE887AF5EEC07A31
:10262000F1EE10FAF8D4F4EEC87AF1EE10FA06DB07
:1026300077EEC87AF4EEC87AF1EE10FAF8DA9FED88
:102640008F7ADFED956ADFED8E9AF4EEC77AE8EEC9
:10265000A67A97ED007AC7ED037AF1EE10FA58BF2B
:10266000B1EE477A87ED077A67EE299A01F0E4B870
:10267000D7ED037AF5EEC07AF1EE10FA0DD577EECC
:10268000887AF5EEC07AF1EE10FAF8D4F4EEC87A52
:10269000F1EE10FA06DB77EEC87AF4EEC87AF1EEC6
:1026A00010FAF8DA9FED757AF4EEC77AF1EE10FAC7
:1026B00000F11683DFED736AD7ED009AB8EE087A61
:1026C000A7EEA67A67EE299A9FED737AC7ED079A6F
:1026D000E8EE877AC7ED037A01F0AEB897ED030A0A
:1026E000B4EEC80AF1EE10FA08DB30EE480AB4EE98
:1026F000C80AF1EE10FAF8DA87ED030A07F0A0FF36
:1027000097ED026ADFED646AD7ED037A97ED007A00
:10271000E6EE267A20EE070AC7ED037A10EE100ADD
:1027200087ED070A09F034FC49A3D3E9002309F037
:1027300083FC09F01BFF09EE900A01F07DB8D7ED8C
:10274000037AF5EEC07AF1EE10FA08D577EE887AC2
:10275000F5EEC07AF1EE10FAF8D4C7ED037AF4EE94
:10276000C87AF1EE10FA08DB77EEC87AF4EEC87A90
:10277000F1EE10FAF8DAC7ED037A9FED3D0AD7EDD6
:10278000008ADFED419A27EE800A07F0A7FE39495B
:10279000D7ED037A97ED026ADFED3F6A01EB800027
:1027A00090ED6B7AE6EE267A28EE877AC7ED037A0B
:1027B00087ED077A67EE299A01F03EB8D7ED037AE4
:1027C000F5EEC07AF1EE10FA0DD577EE887AF5EED7
:1027D000C07AF1EE10FAF8D4F4EEC87AF1EE10FAFD
:1027E00006DB77EEC87AF4EEC87AF1EE10FAF8DA82
:1027F0009FED267AF4EEC78AF1EE10FA01F1B38468
:102800009FED1E7AF4EEC77AF1EE10FA87ED047AA6
:1028100001F1BF84DFED1E6AD7ED005AB0EE006A09
:10282000E7EE866A38EE476A36EEC77A27EE257AF3
:1028300087EE067ADFED186ADFED139A87ED077AE7
:10284000E8EEA67A67EE299AC7ED037A00F0F4BFA6
:102850009A9999999999E93FF04C01208C2D001093
:102860000C2D0010EC2D0010DB0FC940AC4C0120EA
:1028700083F922431CC70008382E0010DB0F4940A3
:102880009A99193F83F9223FCDCC4C3F0000FA457D
:10289000DB0FC9C0340000101F42093997ED030A4D
:1028A000B5EEC00AF1EE10FA08D530EE080AB5EE22
:1028B000C00AF1EE10FAF8D487ED030AB4EEC80AA4
:1028C000F1EE10FA08DB30EE480AB4EEC80AF1EE79
:1028D00010FAF8DA87ED030A07F0B2FED7ED009A96
:1028E000D7ED037AD7ED026A1FED157A60EE299ACB
:1028F000E6EE877A60EE299AC7ED037A60EE299AB0
:1029000060EE299A60EE299AC7ED079A00F094BF0D
:10291000D549D64ADFEDD66ADFEDD65ADFEDD64A85
:102920009FEDD65A012306EE103AB8EEC67A68EE4D
:10293000877AF4EEE57AF1EE10FA29D5F2EC017A15
:10294000F4EEC87AF1EE10FA08DB77EEC87AF4EE0E
:10295000C87AF1EE10FAF8DA42ED017A27EEA46AAD
:1029600027EE057ABCEEC66ADFF81CE316EE100A05
:10297000E8EE877A80B20EEB800090ED6B7AB1ECD6
:10298000016A42ED017A01330B2BE6EE076ACAD1E8
:10299000BB4BD7ED007A93ED007A66EE876A66EE60
:1029A000A79AC7ED079A00F047BFDFF8E8A2DFED6E
:1029B000B07A9AED067ADAED054A9FEDB05ADFF863
:1029C000D8B2B04B9AED036ADBED066AD3ED065A36
:1029D00028EE877A64EEA77A68EEA66AE7EE057AB3
:1029E00068EEA58A77EE867A8AED027AF5EEC07AED
:1029F000F1EE10FACAED037ACBED026AC3ED028A5A
:102A000008D577EE887AF5EEC07AF1EE10FAF8D4B0
:102A1000CAED037AF4EEC87AF1EE10FA08DB77EE2D
:102A2000C87AF4EEC87AF1EE10FAF8DACAED037A51
:102A30009FED910ADAED008A019327EE800A07F0F4
:102A40004DFD9149D7ED057AD7ED025A9FED8B6A7E
:102A5000D7ED036A019B01EB800090ED6B7A28EEC5
:102A6000877A67EE277A8AED077AE5EE867A77EE3F
:102A7000A67AF5EEC07AF1EE10FAC7ED037A08D522
:102A800077EE887AF5EEC07AF1EE10FAF8D4C7ED59
:102A9000037AF4EEC87AF1EE10FA08DB77EEC87A22
:102AA000F4EEC87AF1EE10FAF8DAC7ED037A9FED8A
:102AB000720AD7ED008A019327EE800A07F00EFD17
:102AC000019BDFED6B7AD3ED055A9FED6C7A93EDA8
:102AD000026A6D4AD3ED036A65EEA77A02EB8000C5
:102AE000E6EE077A90ED6B7A77EEA67A68EE878A43
:102AF000F5EEC07AF1EE10FAC3ED037AC7ED078A5E
:102B000008D577EE887AF5EEC07AF1EE10FAF8D4AF
:102B1000C3ED037AF4EEC87AF1EE10FA08DB77EE33
:102B2000C87AF4EEC87AF1EE10FAF8DAC3ED037A57
:102B30009FED510AD3ED008A019327EE800A07F03A
:102B4000CDFCDFF844E1DBED057ADBED025A9FEDC9
:102B50004B6ADBED036A019B0EEB800090ED6B7A14
:102B600028EE877A67EE277A83ED077AE5EE867A94
:102B700077EEA67AF5EEC07AF1EE10FACBED037A95
:102B800008D577EE887AF5EEC07AF1EE10FAF8D42F
:102B9000CBED037AF4EEC87AF1EE10FA08DB77EEAB
:102BA000C87AF4EEC87AF1EE10FAF8DACBED037ACF
:102BB0009FED310ADBED008A27EE800A07F08EFCDC
:102BC0003149D7ED079A01EB8000D0ED6B7A68EEC2
:102BD000A77AB6EE007A77EEA99ACBED077A69EE7E
:102BE000879A00F029BEDFED297AF4EEE78AF1EE4C
:102BF00010FA01F1AC85DFED267AF4EEE78AD7ED25
:102C0000037AF1EE10FAF5EEC07A51D5F1EE10FA32
:102C10000DD577EE887AF5EEC07AF1EE10FAF8D499
:102C2000F4EEC87AF1EE10FA06DB77EEC87AF4EE2D
:102C3000C87AF1EE10FAF8DA9FED187AD7ED009A1B
:102C4000F4EEC77A87EE877AF1EE10FA4FBFF6EE10
:102C5000006AB0EE006AF6EE006A37EE467A69EE78
:102C6000A69A69EE879A2FE504000010102E001036
:102C7000000000000080BB4683F922431F4209394F
:102C8000000000106C2D00101CC700080000484315
:102C9000000016442C2D00104C2D0010DB0F494075
:102CA00083F922BFB537983F77EE887AF5EEC07A80
:102CB000F1EE10FAF8D4F4EEC87AF1EE10FAFFF65D
:102CC000F1AC77EEC87AF4EEC87AF1EE10FAF8DAE1
:102CD0001FED0E7AF4EEC77AF1EE10FA7FF5EAAC4A
:102CE0005FED116AD7ED009AB7EE007AA7EEA67AEB
:102CF00067EE299AE8E41FED156AD7ED037ADFF84D
:102D0000CCA3DFF8CCB3F7EE086A28EE866A68EE4B
:102D1000A66AF5EEC07AF1EE10FA8AED026ACBED02
:102D2000026A0DD577EE887AF5EEC07AF1EE10FAE8
:102D3000F8D4F4EEC87AF1EE10FA06DB77EEC87A32
:102D4000F4EEC87AF1EE10FAF8DA9FEDD87AF4EEE4
:102D5000C78AF1EE10FA01F12A829FEDD57AF4EEDE
:102D6000C77AF1EE10FA87ED047A01F136829FED11
:102D7000D15AD7ED004AF0EE005AA7EEA55A78EEE8
:102D8000475A35EE477A27EE247AC7EE255A9FED4B
:102D9000CA5A9AED037AC7ED075AE8EE857AB5EE7E
:102DA000C07AF1EE10FAC7ED037A08D537EE087A4B
:102DB000B5EEC07AF1EE10FAF8D48AED037AB4EEEB
:102DC000C87AF1EE10FA08DB37EE487AB4EEC87A2A
:102DD000F1EE10FAF8DA8AED037ADFEDB47AB4EEA8
:102DE000E76AF1EE10FA41F19A84DFEDB47A9FEDD3
:102DF000B45A66EE277AF4EEC57AF1EE10FA01F2D3
:102E00009084F0EE457AB4EEE77AF1EE10FA8AEDAE
:102E1000045A01F18E84DFEDA74A9AED004AB0EE24
:102E2000005AE7EE054A38EE675A74EEE77A67EE25
:102E3000847A87EE855ADFEDA04ADBED037A8AEDCE
:102E4000075AA6EE247AF5EEC07AF1EE10FA75EE86
:102E5000855A8AED037A08D577EE887AF5EEC07A3E
:102E6000F1EE10FAF8D4CBED037AF4EEC87AF1EE75
:102E700010FA08DB77EEC87AF4EEC87AF1EE10FAB1
:102E8000F8DACBED037A9FED897AF4EEC76AF1EEBA
:102E900010FA41F176839FED897A9FED896A26EEDB
:102EA000877AB4EEC67AF1EE10FA01F26C83B0EED6
:102EB000467AF4EEC77AF1EE10FA8BED046A01F16E
:102EC0006A839FED7C6ADBED004AB0EE005AA7EE04
:102ED000856A38EE475A36EE477A27EE247A87EE2F
:102EE000057A9FED755A9FED776A8BED077AE6EECE
:102EF000857A35EE877ACBED037A67EE069A00F095
:102F00009BBC9FED716AD7ED037ADFF8C0A1DFF8B3
:102F1000C0B1F7EE086A28EE866A68EEA66AF5EE9A
:102F2000C07AF1EE10FA8AED026ACBED026A0DD595
:102F300077EE887AF5EEC07AF1EE10FAF8D4F4EE76
:102F4000C87AF1EE10FA06DB77EEC87AF4EEC87AAA
:102F5000F1EE10FAF8DA9FED557AF4EEC78AF1EE49
:102F600010FA41F148819FED557ADFED555A28EE70
:102F7000877AB4EEE57AF1EE10FA01F23E81B0EE16
:102F8000657AF4EEC77AF1EE10FAC7ED045A01F152
:102F90003C819FED485AD7ED004AF0EE005AA7EE6B
:102FA000A55A78EE475A35EE477A27EE247AC7EECF
:102FB000255A9FED415A9AED037AC7ED075AE8EE7C
:102FC000857AB5EEC07AF1EE10FAC7ED037A08D52E
:102FD00037EE087AB5EEC07AF1EE10FAF8D48AED41
:102FE000037AB4EEC87AF1EE10FA08DB37EE487ACD
:102FF000B4EEC87AF1EE10FAF8DA8AED037ADFED72
:103000002B7AB4EEE76AF1EE10FA41F1F882DFEDC7
:103010002B7A9FED2B5A66EE277AF4EEC57AF1EE05
:1030200010FA01F2EE82F0EE457AB4EEE77AF1EEB4
:1030300010FA8AED045A01F1EC82DFED1E4A9AED96
:10304000004AB0EE005AE7EE054A38EE675A74EED1
:10305000E77A67EE847A87EE855ADFED174ADBED73
:10306000037A8AED075AA6EE247AF5EEC07AF1EEDD
:1030700010FA75EE855A8AED037A08D577EE887ACC
:10308000F5EEC07AF1EE10FAF8D4CBED037AF4EE57
:10309000C87AF1EE10FAFFF6F6AE77EEC87AF4EEE3
:1030A000C87AF1EE10FAF8DAEBE600BF0000FA4554
:1030B000DB0F4940DB0FC9C01F4209392EE3CD3970
:1030C00017B7D138C3F5A83EAE47A13F2C2D00104D
:1030D0004C2D0010DFF804A3DAED065A9AED096AC8
:1030E000DAED077A9AED027ADAF81420F8EE656ADA
:1030F00015EE900AE6EE267A431C9342CAF8183081
:1031000067EE877ACAED0A7A81F05E81DFF8D0A295
:10311000A94B9AED066ADAED094A9AED077AD3EDE2
:10312000005ADAF81800DAED026ADAF81410B8EE8C
:10313000465AB7EE006A37EE866AA4EE857A421CDC
:103140008A42F3EE097AE6EE257ACAF8182027EECD
:10315000267AC7ED027A8AED0A7A81F07C80DFF860
:1031600084B2DFF884A2DBED066ADBED094ADBED11
:10317000077ADBF818009BED026ADBF81420B8EE42
:10318000665AF7EE006A37EE267AE4EE857A411C3D
:103190009142F3EE096AE7EE256ACBF8181067EE64
:1031A000867ACAED026ACBED0A7A81F09D81B7EE8C
:1031B000007A77EE877AB3EE096AA7EEA56ADFF8A0
:1031C0002CB2D7ED037A8BED026AF5EEC07AF1EE00
:1031D00010FA0DD577EE887AF5EEC07AF1EE10FA96
:1031E000F8D4F4EEC87AF1EE10FA06DB77EEC87A7E
:1031F000F4EEC87AF1EE10FAF8DAD7ED025A9FED44
:103200006F7A6F4BF4EEC75AF1EE10FA00F1878730
:103210009FED6C7AF4EEC77AF1EE10FA83ED047A42
:1032200000F19387DFED684A97ED004AB0EE005A4F
:10323000E7EE854A38EE475A34EEC77A27EE047A2D
:1032400087EE055ADFED614A9AED037A87ED075A5A
:10325000E5EEA47AB5EEC07AF1EE10FAC7ED037A86
:1032600008D537EE087AB5EEC07AF1EE10FAF8D448
:103270008AED037AB4EEC87AF1EE10FA08DB37EE85
:10328000487AB4EEC87AF1EE10FAF8DA8AED037AE9
:10329000DFED4A7AF4EEE76AF1EE10FA41F1F781D8
:1032A000DFED4B7ADFED4B5A66EEA77AF4EEE57A66
:1032B000F1EE10FA01F2ED81F0EE657AB4EEE77A04
:1032C000F1EE10FACAED045A01F1EB81DFED3E4A4E
:1032D0009AED004AF0EE005AE7EE254A78EE675A7A
:1032E00074EEE77A67EE847AC7EEA55ADFED374AC7
:1032F000DBED037ACAED075AA6EEA47AF5EEC07AA2
:10330000F1EE10FA75EE255A8AED037A08D577EEBC
:10331000887AF5EEC07AF1EE10FAF8D4CBED037AA4
:10332000F4EEC87AF1EE10FA08DB77EEC87AF4EE24
:10333000C87AF1EE10FAF8DACBED037A9FED1F7A36
:10334000B4EEC76AF1EE10FA41F171819FED207A77
:10335000DFED206A26EE077AB4EEE67AF1EE10FA97
:1033600001F26781B0EE667AF4EEC77AF1EE10FAF8
:10337000CBED046A01F16581DFED136ADBED004AF4
:10338000B0EE005AE7EE856A38EE475A36EEC77A55
:1033900027EE247A87EE057A9FED0C5ADFED0E6A50
:1033A0008BED077AE6EE057A35EE877ACBED037A78
:1033B00067EE269A40E200BF940000200000FA4524
:1033C0000C2D0010DB0F4940DB0FC9C01F4209392B
:1033D0002EE3CD3917B7D138C3F5A83E3800001019
:1033E00064000010900000102C2D00104C2D0010D7
:1033F00097ED037ADFF808A4F7EE086A68EEA66A8C
:10340000B5EEC07AF1EE10FACAED026A0DD537EECC
:10341000087AB5EEC07AF1EE10FAF8D4B4EEC87AB4
:10342000F1EE10FA06DB37EE487AB4EEC87AF1EE28
:1034300010FAF8DADFEDEA7AF4EEE78AF1EE10FA44
:1034400040F1F186DFEDE77A9FEDE76A68EEA77A53
:10345000F4EEC67AF1EE10FA00F2E786F0EE467A64
:10346000B4EEE77AF1EE10FA87ED046A00F1E58632
:10347000DFEDDE5A97ED005AB0EE006AE7EE065A2D
:1034800038EE676A75EEE77A67EE857A87EE866AC8
:10349000DFEDD75ADAED037A87ED076AA8EEA57A51
:1034A000F5EEC07AF1EE10FA87ED037A08D577EEE3
:1034B000887AF5EEC07AF1EE10FAF8D4CAED037A04
:1034C000F4EEC87AF1EE10FA08DB77EEC87AF4EE83
:1034D000C87AF1EE10FAF8DACAED037A9FEDC07AF5
:1034E000F4EEC76AF1EE10FA41F101819FEDBD7A69
:1034F000DFEDBD5A26EE877AB4EEE57AF1EE10FAEA
:1035000001F2F780B0EE657AF4EEC77AF1EE10FAC8
:10351000CAED045A01F1F580DFEDB45ADAED004A44
:10352000B0EE005AE7EE855A38EE475A35EEC77AC4
:1035300027EE247A87EE057ADFEDAD5A8AED077A19
:10354000E6EEA57A36EE077AF6EE006A67EE269A80
:10355000CAED037A70E1DFF8ACA29AED065A9AED53
:10356000096ADAED077A9AED027ADAF81420F8EEB1
:10357000456A15EE100AE6EE267A431C9342CAF815
:10358000183027EE877A8AED0A7A80F0AF86DFF866
:1035900078B2DFF86CA29BED066A9BED095ADBED71
:1035A000077ADBED026ADBF81800DBF81420F8EE8E
:1035B000465AB7EE006AE5EE257A431C934237EE91
:1035C000067A67EEA67A68EE876ACBF81830CBEDFC
:1035D0000A7ACAED026A80F03E87B7EE007A37EECB
:1035E000877AD7ED037ADFF824B268EE878AF5EEA2
:1035F000C07AF1EE10FACBED028A0DD577EE887A1B
:10360000F5EEC07AF1EE10FAF8D4F4EEC87AF1EEE5
:1036100010FA06DB77EEC87AF4EEC87AF1EE10FA0B
:10362000F8DA97ED026A9FED6E7A724BB4EEC76AD4
:10363000F1EE10FA00F14F859FED6F7AF4EEC77A44
:10364000F1EE10FA83ED047A00F15B859FED675A85
:10365000D7ED004AF0EE005AA7EEA55A78EE475A89
:1036600035EE477A27EE247AC7EE255A9FED605A49
:103670009AED037AC7ED075AE6EE057AB5EEC07A01
:10368000F1EE10FAC7ED037A08D537EE087AB5EEF9
:10369000C07AF1EE10FAF8D48AED037AB4EEC87A63
:1036A000F1EE10FA08DB37EE487AB4EEC87AF1EEA4
:1036B00010FAF8DA8AED037ADFED497AF4EEE76A78
:1036C000F1EE10FA40F1FB87DFED467A9FED466A96
:1036D00066EEA77AF4EEC67AF1EE10FA00F2F18700
:1036E000F0EE467AB4EEE77AF1EE10FA8AED046A6B
:1036F00000F1EF879FED3D5ADAED004AB0EE006A27
:10370000A7EE065A38EE676A75EE677A67EEA47A16
:1037100087EE866A9FED365ADBED037A8AED076AFB
:10372000A6EE857AF5EEC07AF1EE10FA35EE866AED
:103730008AED037A08D577EE887AF5EEC07AF1EE55
:1037400010FAF8D4CBED037AF4EEC87AF1EE10FA61
:1037500008DB77EEC87AF4EEC87AF1EE10FAF8DA00
:10376000CBED037A9FED1E7AF4EEC78AF1EE10FAE4
:1037700040F175879FED1B7ADFED1B6A28EE877A93
:10378000B4EEE67AF1EE10FA00F26B87B0EE667AEC
:10379000F4EEC77AF1EE10FACBED046A00F1698716
:1037A000DFED126A9BED005AF0EE005AE7EEA56AD3
:1037B00078EE475A36EEC77A27EE057A87EE257AF5
:1037C000DFED0B5ADFED0D6A8BED077AE8EEA57A97
:1037D00036EE077ACBED037A67EE269A2CE000BF2F
:1037E0000000FA452EE3CD3917B7D138DB0FC9C039
:1037F0001F4209390C2D0010DB0F4940C3F5A83ECC
:103800002C2D001038000010640000104C2D00100A
:10381000CDCCCC3FCDCC4CBFD7ED009A08F0FEFE0E
:1038200006EE900A1FED067A5FED067AFAEEE06A80
:10383000E6EE877A69EEA79A716A326AD14B013156
:10384000012A7162D3ED048A00F0C182032A00F0DC
:10385000AF82002A00F0D282D4ED037AC6ED058A49
:10386000F5EEC07AF1EE10FA08D577EE887AF5EE2B
:10387000C07AF1EE10FAF8D4C4ED037AF4EEC87A07
:10388000F1EE10FA08DB77EEC87AF4EEC87AF1EEC2
:1038900010FAF8DAC4ED037A9FEDBB0A94ED00AAA2
:1038A00027EE800A06F01AFEB84BD4ED037AD4ED69
:1038B000025A9FEDB76ADFF820E3716A9EED009A25
:1038C000D8F8302003EB800090ED6B7AB148AD4B17
:1038D0002AEE077AF7EE006A77EE266AE5EE867A38
:1038E000914266EEA88A84ED077A28EE899AC0EDA7
:1038F000008A29EE299AC4ED037A80F0DB81A6497B
:103900000B784BB9DFF8D4A2DAED008AF5EE408AE5
:10391000F1EE10FA40F08B82A04BD3ED008AF5EE69
:10392000408AF1EE10FA40F0CE819D48B0EE490A8F
:1039300001F0AAF99B48F0EE408AB0EE490A01F086
:10394000A3F9994838EE800A0378F6EE007A60EE23
:10395000278A002B40F0758194490B78002B40F0AA
:103960004381B0EE689AF7EE007AB4EEE79AF1EE92
:1039700010FA40F3518147F6FF72F7EE007AF4EE49
:10398000E78AF1EE10FA40F3FE8147F6FF7329F85B
:10399000042C039A29F8023C09F1040991457EF4AC
:1039A000CDAD05B0BDEC068BBDE8F08FD7ED037A49
:1039B000F5EEC07AF1EE10FA08D577EE887AF5EEDA
:1039C000C07AF1EE10FAF8D4C7ED037AF4EEC87AB3
:1039D000F1EE10FA08DB77EEC87AF4EEC87AF1EE71
:1039E00010FAF8DAC7ED037A9FED670AD7ED008A7F
:1039F000DFED6F9A27EE800A06F070FD634AD7ED7F
:103A0000037A97ED026ADFED626A02EB800090EDC7
:103A10006B7AE6EE267A28EE877AC7ED037A67EEB0
:103A2000299A87ED077A07E791F82C30002B00F0F0
:103A300005836048C37A13B9437B002B46D001F05D
:103A400091FADFF888B15C499FED5CAA594A81ED93
:103A500001AA8A465B461AEE101A4FF07E504AF8C9
:103A6000081B43F8080B4FF0000EDFED559A9FED51
:103A7000559ADFED558ACDF80890CBF80400D14671
:103A800082F80DE09A4608F0C9FD05EE100AF8EE3E
:103A9000C57AF0EE685A67EEA97A4C48A9EC01AAFB
:103AA000E7EE895A00F12C01EAEC015A9BED007A0D
:103AB00075EE877A8A45CBED007AE4D1B7EE007ACD
:103AC000C7EE277ADDF80890C0ED007A394A937B7B
:103AD000ABB108F0A3FD07EE100ADFED3D7A9FEDD4
:103AE0003D0ABAEEE07AA7EE270A06F041FDB5EEF0
:103AF000400AF1EE10FA4FF0000300F0E482326861
:103B0000F26100234FF07E5273623362B261DFF8DC
:103B100088E09EF80030002B40F066822548837ACA
:103B20000246002B40F0DF8198F82C30174A18F835
:103B30000330DFF8ACE0DFF8ACA002EB83031B68D6
:103B4000CEF8003008F06AFD07EE100A98F82C3025
:103B5000DFED207A2048D8F82420C8F82820BAEED3
:103B6000E07A0133E7EE277ADBB20F2B88F82C30AE
:103B700088BF0023C0ED007A88BF8AF82C30FEF79A
:103B8000E6BC00BFF04C012083F922431CC70008AB
:103B90001F4209392C00001035000010CC2D0010F8
:103BA000CC2C0010EC2C0010370000103600001058
:103BB000CDCC4C3FE04C01200C2E0010000000004A
:103BC00000000030BF9F7A3F6F12833A0000001060
:103BD0009A99193FCDCCCC3E30000010AC2D00108E
:103BE000382E0010AC4C0120D348D449B0EE680AFE
:103BF00001F02EFBD248D349B0EE409AB0EE680AED
:103C000001F026FBF7EE007AB4EEE79AF1EE10FA37
:103C1000F0EE408A3FF7AFAEFFEE007AB4EEE79ADF
:103C2000F1EE10FA48BF48F201023FF5A6AEDFED13
:103C3000C67A29EE279ABDEEC99A19EE102A92B2D9
:103C40009BE6C24BC249D3ED006AD1F800C0DFED5C
:103C5000C17A9FEDC17A9CED006AC04A66EEA77AF0
:103C6000D2ED006AE6EE077AB7EE007AE7EEA68AB2
:103C7000C3ED007AF4EEC78AF1EE10FA40F3F58155
:103C8000F0EE478AB648B74A0368DFF8DCA2E3ECF7
:103C9000018AC2EB030BD34503600CF1040CC8BFCF
:103CA0000260B148C1F800C0C2EB0C038342C8BF38
:103CB0000A6051E60021DA689961DA610021032285
:103CC00059621A621BE6D3ED037AF5EEC07AF1EE83
:103CD00010FA0AD577EE887AF5EEC07AF1EE10FA8E
:103CE000F8D4DFF888E2CEED037AF4EEC87AF1EE8C
:103CF00010FA09DB77EEC87AF4EEC87AF1EE10FA22
:103D0000F8DA9A48C0ED037A9FED990A27EE800A07
:103D100006F0E4FB9749954A974BD2ED037A92ED72
:103D2000025ADFED965A93ED006A01EB800090EDA8
:103D30006B7AF7EE006AF6EE009A37EE267A68EEB6
:103D4000A98AE5EE257A28EE877AC2ED037A77EE26
:103D5000266A82ED077A66EE868A18EE900A08F0E7
:103D600017F973A3D3E9002308F0F6FB002800F04D
:103D70001781DFED837ADFED838A834BC3ED018A00
:103D8000C3ED027AD1E5FFEE007AF4EEE78AF1EEB8
:103D900010FA48BF48F201033FF5F9ADDFED6A7A4A
:103DA00068EEA78AFDEEE88A18EE903A9BB2EEE53F
:103DB000D3ED037A9FED757A78EEE78AF4EEC78A41
:103DC000F1EE10FA40F24981C3ED048A44E593ED27
:103DD000017AD3ED027A78EEC78AF4EEE78AF1EE43
:103DE00010FAC3ED048A3FF637AD00210222C3ED7D
:103DF000047AF0EE678AD9611A622DE593ED077AAD
:103E0000D3ED067A78EE878AF4EEE78AF1EE10FABF
:103E1000C3ED048AFFF620AD5A689968DA61012281
:103E2000C3ED047AF0EE678A99611A6214E5DAED5F
:103E3000037AF5EEC07AF1EE10FA08D577EE887ABB
:103E4000F5EEC07AF1EE10FAF8D4CAED037AF4EE8A
:103E5000C87AF1EE10FA08DB77EEC87AF4EEC87A89
:103E6000F1EE10FAF8DACAED037A9FED410A27EE77
:103E7000800A06F033FB3F4A454B9AED025ADFEDCC
:103E80003F5ADAED037A93ED006A02EB800090ED81
:103E90006B7AF7EE006AF6EE009A37EE267A68EE55
:103EA000A98AE5EE257A28EE877ACAED037A77EEBD
:103EB000266A8AED077A66EE868A18EE900A08F07E
:103EC00067F81BA3D3E9002308F046FB002800F0A5
:103ED000D680DFED2B7ADFED2B8A2E4BC3ED018AE6
:103EE000C3ED027A18E5407A2B4918445BB2507250
:103EF0001FFA83FE01F1110011F8013B73449BB2DC
:103F00001AB26A2A04DD0C3B9BB21AB26A2AFADCA6
:103F1000002A03DA0C339BB21A04FBD4814201F865
:103F2000013CE9D11D4900238B72FDE5AFF3008010
:103F3000666666666666EE3FBC000010AC2C00103C
:103F4000B4160010BC2C001000FEFF46204D0120CE
:103F50001C1400209A99193FCCCCCC3E9000002034
:103F6000A84C0120201400207F380100CC2D001027
:103F700083F922431CC700081C4D01201F42093948
:103F800003123A413333F33EEC2C001000000000E2
:103F9000184D0120CC2C0010AC4C0120E04C01202D
:103FA00068EEA98A18EE900A07F0F2FFF6A3D3E9AB
:103FB000002308F041F808F0D9FA07EE900A37EE2E
:103FC000A76A27EEA77AF9EE046AE7EE866A27EE7B
:103FD000877ABAEE0E6AA7EE867AF0EE087A66EE77
:103FE000A77AC7EE277AC8E608F018FB05EE100A94
:103FF000DFEDE77ADFEDE70A9FEDE70ADFEDE78A1D
:10400000B8EEC57AE7EE270A06F058FB60EE288A7C
:1040100018EE900A07F0BCFFD9A3D3E9002308F0FB
:104020009BFA002800F0C582DFEDDD7ADFEDDD8A46
:10403000DD4BC3ED018AC3ED027A6FE5DB4B1B78E4
:10404000002B3FF4F6ACDA4B1B78002B7FF4F1AC7D
:1040500002F0AAFE03F05EFDEBE40422F0EE478AD4
:1040600083ED047A1A62FFF7F7BBFFEE007AF4EEF5
:10407000678AF1EE10FA48BFF0EE678A02E668EE52
:10408000A98A18EE900A07F083FFBFA3D3E90023A3
:1040900007F0D2FF08F06AFA07EE900A37EEA76A37
:1040A00027EEA77AF9EE046AE7EE866A27EE877AAA
:1040B000BAEE0E6AA7EE867AF0EE087A66EEA77A76
:1040C000C7EE277A09E7F168B36100220323F161A3
:1040D000726233621BE59FEDB77ADFEDB75A26EEC9
:1040E000077AB4EEE57AF1EE10FA3FF6A7AAB0EE41
:1040F000657AF4EEC77AF1EE10FAC3ED045A7FF553
:10410000A5AAF8EE005A85EE877AF7EE005AE7EE98
:10411000875A97ED007A65EE875AFFF7A7BA9FEDA9
:10412000A57A9FEDA55A25EE877AB4EEC57AF1EE11
:1041300010FA3FF66FA8B0EE457AF4EEC77AF1EECA
:1041400010FA83ED045A7FF56DA8B8EE005A85EE9B
:10415000077AB7EE005AA7EE875A97ED007A25EE58
:10416000075AFFF76FB89FED937ADFED936A28EE59
:10417000877AB4EEE67AF1EE10FA3EF643ABB0EE93
:10418000667AF4EEC77AF1EE10FAC7ED046A7EF5AE
:1041900041ABF8EE006A86EE877AF7EE006AE7EE4A
:1041A000876A97ED007A26EE877AFEF743BB9FED8C
:1041B000817ADFED815A28EE877AB4EEE57AF1EE66
:1041C00010FA3EF6CCADB0EE657AF4EEC77AF1EEB9
:1041D00010FAC7ED045A7EF5CAADF8EE005A85EE26
:1041E000877AF7EE005AE7EE875A97ED007A65EE88
:1041F000875AFEF7CCBD9FED737AF4EEC77AF1EEE5
:1042000010FA87ED047A7EF5C4AEF8EE005A85EE1A
:10421000877AF7EE005AE7EE875A97ED007A65EE57
:10422000875AFEF7C6BEDFED677AB4EEE77AF1EEA5
:1042300010FAC7ED047A7FF51BA9B8EE006AC6EE46
:10424000277AB7EE006AA7EE276AD7ED007A26EE46
:10425000276AFFF71DB9DFED597ADAED008ADAED4A
:10426000019ADAF82020CAF81C20C7EEA88A00229A
:10427000CAF81820C7EEA99ACAED038ACAED049AB3
:10428000019308F0CBF905EE100A9FED419AF8EE84
:10429000C57A79EEE89A67EE897AE7EEA98AFCEEAC
:1042A000E88ACAED058A08F0B9F905EE900AF8EE39
:1042B000E57AB0EE007A27EE899AFFEE007AE9EE11
:1042C000077A019B9AED077A9AED056ACAED087A9A
:1042D000F8EE466A77EEC77AD3ED005A9AED0A7A7D
:1042E000C7EEA67ACAED097AFEF739BFDFED337A59
:1042F0009AED009A9AED01AADAF82030CAF81C303B
:1043000087EE899A0023CAF8183087EE8AAA8AEDC8
:10431000039A8AED04AA08F081F905EE100ADFED90
:104320001C9AF8EEC57A3AEE49AA67EEA97AA7EE8A
:104330008A9ABCEEC99A8AED059A08F06FF905EEE3
:10434000900AF8EEE57AB0EE007A67EEA99AFFEEF1
:10435000007AE9EE877ADAED076A9AED056ACAED26
:10436000087A77EEE67AF8EE466A9AED0A7AC7EEB0
:10437000A67ACAED097AFFF70AB900BFAFF3008049
:10438000666666666666EE3F182D4454FB2109405A
:10439000000000300000000055550541CDCC4C3CDC
:1043A00003123A413333F33ECC2C0010740000204A
:1043B000884D01202EE3CD3917B7D1380080BB4698
:1043C00000000030DB0F49405FED047ADAED008A2F
:1043D000DAED019ADAF82030CAF81C30C7EEA88A64
:1043E0000023CAF81830C7EEA99ACAED038ACAEDAD
:1043F000049A08F013F905EE100A1FED0F9AF8EE73
:10440000C57A79EEE89A67EE897AE7EEA98AFCEE3A
:10441000E88ACAED058A08F001F905EE900AB8EEBF
:10442000E57AF0EE007A27EE099ABFEE007AA9EE5F
:10443000277ADAED076A9AED056A8AED087A37EE8F
:10444000667AF8EE466ADAED0A7A87EE267A8AED1F
:10445000097AFEF75BBE5FED277A9BED009A9BED34
:1044600001AADBF82030CBF81C3087EE899A0023B4
:10447000CBF8183087EE8AAA8BED039A8BED04AA4D
:1044800008F0CCF805EE100A5FED339AF8EEC57A25
:104490003AEE49AA67EEA97AA7EE8A9ABCEEC99AC3
:1044A0008BED059A08F0BAF805EE900AB8EEE57AB9
:1044B000F0EE007A67EE299ABFEE007AA9EEA77AAD
:1044C0009BED076A9BED055A8BED087A37EE467A2D
:1044D000B8EE456ADBED0A7ADAED026A87EE067A13
:1044E0008BED097AFFF779B85FED4C7ADBED008A46
:1044F000DBED019ADBF82020CBF81C20C7EEA88A60
:104500000022CBF81820C7EEA99ACBED038ACBED99
:10451000049A019308F082F805EE100A1FED589AEC
:10452000F8EEC57A79EEE89A67EE897AE7EEA98A1D
:10453000FCEEE88ACBED058A08F070F805EE900AEB
:10454000B8EEE57AF0EE007A27EE099ABFEE007A2F
:10455000A9EE277A019B9BED076A9BED055A8BED2F
:10456000087A37EE467AB8EE456AD3ED005ADBEDAD
:104570000A7ADAED026A87EE067A8BED097AFEF79F
:1045800016BE1FED707AF4EEC77AF1EE10FA8BEDDD
:10459000047A7EF596ACB8EE006A86EE077AB7EE3E
:1045A000006AA7EE876A9BED007A26EE077AFEF78F
:1045B00098BCF6EE007A68EEA78A18EE900A07F02B
:1045C000E7FC84A3D3E9002307F036FD07F0CEFF14
:1045D00007EE900A37EEA76A27EEA77AF9EE046A8B
:1045E000E7EE866A27EE877ABAEE0E6AA7EE867A3B
:1045F000F0EE087A66EEA77AC7EE277A18E5DFEDC7
:10460000747AB4EEE77AF1EE10FACAED047A7EF528
:1046100014ADB8EE005AC5EE277AB7EE005AA7EEF1
:10462000275ADAED007A25EE275AFEF716BD9FEDE0
:10463000687AF4EEC77AF1EE10FA8BED047A7EF523
:104640009BAEF8EE006A86EE877AF7EE006AE7EE38
:10465000876A9BED007A26EE877AFEF79DBE9FED76
:104660005C7AF4EEC77AF1EE10FA8BED047A7FF5FE
:1046700097A8F8EE006A86EE877AF7EE006AE7EE12
:10468000876A9BED007A26EE877AFFF799B8DFED0F
:10469000507AB4EEE77AF1EE10FACAED047A7EF5BC
:1046A00015AEF8EE005AC5EEA77AF7EE005AE7EE1F
:1046B000275ADAED007A65EEA75AFEF717BEDFED4E
:1046C000447AB4EEE77AF1EE10FACAED047A7FF597
:1046D00011A8B8EE006AC6EE277AB7EE006AA7EE18
:1046E000276ADAED007A26EE276AFFF713B89FED06
:1046F000387AF4EEC77AF1EE10FA8AED047A7EF594
:104700000BAFF8EE005A85EE877AF7EE005AE7EE27
:10471000875A9AED007A25EE877AFEF70DBFDFED16
:104720002C7AB4EEE77AF1EE10FACAED047A7EF54F
:1047300072ABB8EE005AC5EE277AB7EE005AA7EE74
:10474000275ADAED007A25EE275AFEF774BBD7ED2B
:10475000037AF5EEC07AF1EE10FA0DD577EE887A8D
:10476000F5EEC07AF1EE10FAF8D4F4EEC87AF1EE74
:1047700010FA06DB77EEC87AF4EEC87AF1EE10FA9A
:10478000F8DA9FED137AF4EEC77AF1EE10FA87EEBD
:10479000877A0FD4F0EE006A37EE667A97ED006AFA
:1047A00027EE066AFEEE006A27EE067A67EE269A84
:1047B000FDF78ABFD7ED009AF6EE006A69EEA69A79
:1047C00069EE879A67EE299AFDF77EBFAFF3008006
:1047D000DB0F4940182D4454FB210940AFF3008002
:1047E000224B1A6830B40AB1013A1A605A681F495C
:1047F0000AB1013A4A601E490A68013A0A601AB9C8
:104800001C4A4FF4004151831B4A12780AB930BC4C
:1048100070471A491A7A0B69144903F001039A4246
:104820000FD0174A10780138C0B210700028EED1AE
:1048300001240B728B724C7243B90A23137030BC83
:1048400070470F4B0A221A7030BC70470D4B197815
:104850000A251570074A21B118704FF4804353831D
:10486000D5E71C704FF480431383D0E7244D01201B
:10487000844D0120000C0240740000200000024022
:1048800078000020884D0120024B4FF480521A839B
:10489000704700BF000C0240024B4FF480421A8365
:1048A000704700BF000C0240024B4FF480525A8305
:1048B000704700BF000C0240024B4FF480525A83F5
:1048C000704700BF000C02400C4B1B899B0782B055
:1048D00001D402B070470A4B1B68022B04D0074B6F
:1048E00000229A8102B070470023064A0193019288
:1048F000019A0C320192019A1360F0E7003C0040EB
:1049000000000020007400404FF080431A8A99890B
:10491000D00789B201D5CA0700D470474FF6FE719F
:10492000074A1982116819B11368013B1360704777
:104930001A8822F001021204120C1A80704700BF7C
:104940000C120020024B4FF480525A83704700BF74
:10495000000C024010B5074C22686369990701D525
:10496000930700D410BD044B9B6E5B6998470223EC
:10497000636110BD003C0140A0110020704700BFE2
:10498000704700BF704700BFFEE700BFFEE700BFF3
:10499000FEE700BFFEE700BF704700BF0020704782
:1049A00000207047704700BF01207047704700BF6C
:1049B000704700BF704700BF704700BF704700BF1F
:1049C000704700BF704700BF704700BF704700BF0F
:1049D000704700BF002070470023C0F8103318460E
:1049E000704700BF0123C0F810330020704700BF9C
:1049F00010B5F1EE087AB4EEE70AF1EE10FA2DEDFB
:104A0000028B0446B0EE408A64D4DFED347AB4EE13
:104A1000670AF1EE10FAC8BFB0EE678AB0EE480A36
:104A200005F00CFDBDEEC00AE3689FED2D5A10EEB7
:104A3000102A9B1A48BF03F5AF6304EB8302D2ED43
:104A4000045A5A1E48BF03F2775204EB8203F8EE71
:104A5000C07AD3ED044A9FED230A531E48BF02F2E9
:104A6000775338EE678A04EB830292ED044AF0EE46
:104A7000006A5A1E78EE666A48BF03F2775204EB6A
:104A80008204B0EE087A38EE477A26EE800A94ED7A
:104A9000043AFEEE003A67EE233A20EE030AB7EE40
:104AA000006A38EE466AF6EE007AA3EE840A68EEF3
:104AB000277A28EE068A26EE055A67EEA47A28EEB3
:104AC000000ABDEC028BE5EE257A26EE877AA7EE8A
:104AD000270A10BDB0EE678AA0E700BF0040AE44D1
:104AE000ABAA2ABEABAA2A3EF0B4D0F8CC40414BC8
:104AF00022686FF382026FF341026FF3C3026FF318
:104B0000451242F480750A214FF0804225601960F9
:104B1000118821F001010904090C1180918921F00B
:104B200001010904090C9181118821F45C710904C7
:104B30000126090C42F6DF6C05274FF6FE70118046
:104B4000C2F82CC0178596821082118889B241F074
:104B500080011180918989B231439181118889B294
:104B6000314311801A682348002AFBD14FF080415D
:104B700062F308250A8822F001021204120C14269E
:104B80000A80256006600A8822F001021204120CD5
:104B90000A808A8922F001021204120C8A810A8892
:104BA00022F45C7212040124120C42F6DF66052521
:104BB0004FF6FE700A80CE620D858C8208820A88CC
:104BC00092B242F080020A808A8992B222438A819C
:104BD0000A8892B222430A801A68002AFCD14FF058
:104BE00080420120138823F001031B041B0C138057
:104BF000F0BC70470C120020224A70B44FF0804481
:104C00001060238823F001031B041B0C2380A3895D
:104C100023F001031B041B0C0229A3812FD042F6B1
:104C2000DF6301290CBF194600214FF080430125A5
:104C3000188820F45C7000040526000C4FF6FE7402
:104C40001880D9621E859D821C82198889B241F024
:104C500080011980998989B229439981198889B27B
:104C6000294319801368002BFCD14FF0804270BC9F
:104C7000138823F001031B041B0C138070470B21C6
:104C8000D3E700BF0C12002090ED063AD0ED016A88
:104C90009FED857A9FED852ADFED852A90ED046AE8
:104CA000D0ED053AD0ED027A037820EE033AB6EE65
:104CB000004AF4EEC76A63EE046AF2EE0E1A66EE7C
:104CC000A66AF0EE425AE6EEA15A013B9FED797AD0
:104CD0002DED028BF0EE478AE6EEA58A76EEA24A2B
:104CE000F0EE685AF0EE478AE6EEA48AF1EE10FA8A
:104CF000C8EEA55AB8BF90ED031A90ED078A63EE8F
:104D0000255AB4BF71EE010AF0EE000A35EE888A2A
:104D100020EEC65A66EE044AA8EE045A64EEA44A8F
:104D200035EE635AF0EE426A25EE045AE4EEA16ACB
:104D300025EE055A34EEA28AA5EE212A75EE222A26
:104D4000F0EE478AB0EE474AA4EEA64AE4EE888A1F
:104D5000F0EE474AE5EE024AA5EE227AB7EE003AB7
:104D600087EE247AA8BFB7EE001A27EE875AF0EE36
:104D7000434A35EE055AC8EE846AE1EE054A67EE0D
:104D8000A72A83EE245A77EE071A62EE852AF0EE00
:104D9000634A62EE872A61EEC11A62EEA62A27EE06
:104DA000851AE2EEA54A21EE261A32EE833AE6EEA5
:104DB000014A37EEA74AC4EE834A24EE262A35EE8E
:104DC000E43AC0ED075A23EE077A67EE877AE6EEFB
:104DD000267A67EE857AA1EEA77AE2EE273A24EEEC
:104DE000077AC0ED053AA6EE267A80ED047A042B08
:104DF0001CD8DFE803F0033E474C3300DFED2E7A8A
:104E0000F4EEE74AF1EE10FA48D4DFED2C7AF4EE36
:104E1000E74AF1EE10FA44DCDFED297A9FED290A2A
:104E2000E4EEA47A64EE804A84EEA70AF7EE007AF4
:104E3000B4EEE70AF1EE10FA04DDB0EE670ABDEC5D
:104E4000028B7047FFEE007AB4EE670AF1EE10FABB
:104E500048BFB0EE670ABDEC028B7047E7EEE05A40
:104E6000DFED197A75EEE45A74EEE54A24EEA70AEE
:104E7000DCE7E7EEE05ADFED147A75EEE44A24EE63
:104E8000A70AD3E79FED100A27EE800ACEE7E7EEE8
:104E9000E05ADFED0D7A25EEA70AC7E7BFEE000A5C
:104EA000C4E7B7EE000AC1E74B59E63E0000D24323
:104EB0000000D24200406C449A99F9BF9A99F93F98
:104EC000AE478940CDCC8440AE47613F10B5DFEDA1
:104ED000237A036A2DED048B90ED008A90ED019A00
:104EE000C36187EE888A00238361044687EE899A2E
:104EF00080ED038A80ED049A07F090FB06EE900A9D
:104F0000DFED178AF8EEE67A39EE489A67EEA87A6E
:104F1000A7EE898ABCEEC88A84ED058A07F07EFB7D
:104F200007EE100AF8EEC77AB0EE007A67EEA88AAC
:104F3000FFEE007AE8EE877ABDEC048B94ED077AF9
:104F4000D4ED056AC4ED087A77EEC77AB8EE667AD2
:104F5000C7EE877AC4ED097A10BD00BF0080BB465A
:104F600000000030F8B5294C294D2DED048BDFED04
:104F7000298ADFED299A04F11107B7EE008A6E68DD
:104F8000337809EE103A07F049FB07EE100AB8EE45
:104F9000499AF8EEC77A39EE489A67EEA87AB0EEE9
:104FA000480AA7EE890A05F099FA2B7A365C09EED1
:104FB000103A07F033FB07EE100AF8EEC77AB8EEA6
:104FC000499A67EEA87AB0EE690AA9EE270A05F0B9
:104FD00085FA6A7A00EB4000153A02EB800333440D
:104FE0009BB21AB26A2A04DD0C3B9BB21AB26A2A3F
:104FF000FADC002A03DA0C339BB21A04FBD404F85F
:10500000013FBC42BBD1BDEC048BF8BDAB4C0120D1
:10501000E04C012000000030000000004B4B2DE967
:10502000F00345015C1986B0D4F8BC13002281B1AD
:10503000B4F8B2634F1E3744B7FBF6F7BFB2B7F50B
:10504000807F71D931024FF48076C4F8BC133746A3
:1050500001E0012637465C1994F8AE83B8F1000FE1
:1050600005D0B4F8B21301FB07F1C4F8BC1300F18A
:10507000150C03EB4C1703EB800497F8149193F88D
:105080000380D4F8904061F3120266F3DC4269F3C6
:105090005E72B8F1010F22615E6904BFD7F8182172
:1050A00062612268B768DFF8A48007F0010787F023
:1050B000010767F35D7242F000426FF39E72226057
:1050C000DA7862BB454405F56A75AA793ABB31B313
:1050D0006A7A032A10D8DFE802F02A022A0232692B
:1050E0000192CC1C92B2C4F38F04A24204D2DA68BB
:1050F000946944F08064946189B203EB4C1C0331E1
:1051000003EB80038910DCF81821D3F8D04006D0D7
:105110000023013352F8040B20609942F9D100209A
:1051200006B0BDE8F0037047C7F3090693E7DC68F3
:10513000E26A0392CD1C92B2C5F38F05AA42DBD27C
:10514000A26942F02002A261D6E700BF8C4D012087
:10515000DFF880C02DE9F007DCF80C70DCF80060A7
:10516000DCF81450DCF81840DCF81C10DCF82020C7
:10517000DCF82430DCF834A0DCF83890DFF8588014
:105180003E4335432C4321430A431A43DCF828307D
:105190000168DCF82C70DCF81060DCF80840DCF802
:1051A00004501A4342EA0A0A4AEA090901EA0808CD
:1051B00049EA0802DCF83030026042693B4322F0E1
:1051C00007021343436146608560C460BDE8F00791
:1051D000704700BFE00400203F801CF0C378F0B4AB
:1051E00063B90378184A5909203103F01F030120DD
:1051F00000FA03F342F82130F0BC7047134B4778B4
:10520000DA68857803781049D243C2F30222C2F1EA
:105210000404E4B20F2607FA04F446FA02F2E4B2F8
:105220002A40224303F1604303F561431201D2B2E5
:1052300083F800230378012003F01F025B0900FAC2
:1052400002F241F82320D7E700E100E000ED00E0A2
:10525000D1ED027AD1ED016A9FED4D7AE6EE877AC3
:1052600070B5F5EEC07A00F5AF561036F1EE10FAD3
:105270002DED048B0D46D6ED008AC1ED027A044671
:10528000B0EE409A0AD59FED437A77EE877AF5EE35
:10529000C07AF1EE10FAF8D4C5ED027A9FED3D7AAE
:1052A000F4EEC77AF1EE10FA08DB77EEC77AF4EE87
:1052B000C77AF1EE10FAF8DAC5ED027A9FED360AF8
:1052C00027EE800A05F00AF9344BD5ED006A03EBAE
:1052D000800090ED006AB7EE007A36EE077AB1EE04
:1052E000088A27EE267A204638EE870A85ED037A6B
:1052F00030EE080AFFF77CFB41F2F453F0EE408AEF
:10530000E356012B2CD096ED000AD4ED019A30EE35
:10531000080A2046FFF76CFBF0EE497AE9EE807A46
:10532000B7EE007AF4EEC77AF1EE10FA25DDF0EE72
:10533000477A94ED020AE36894ED007A28EE800A39
:10534000BDEC048B40F27652934204EB8301D4BF50
:1053500001330023A7EE870AC1ED047AE36070BD34
:10536000D4ED017AA7EE809AB7EE007AF0EE497A92
:10537000F4EEC77AF1EE10FAD9DCBFEE007AF4EE63
:10538000477AF1EE10FA48BFF0EE477AD1E700BF56
:105390001F420939DB0FC94083F92243C8C80008FE
:1053A00000222DE9F00713460E6801274FF003088D
:1053B00004E00133102B02F102022ED007FA03F4AD
:1053C00004EA0605A542F4D1D0F8009091F804C093
:1053D00008FA02F4E44304EA0909C0F80090D0F89E
:1053E00000900CFA02FA0CF1FF3C5FFA8CFC4AEADE
:1053F0000909BCF1010FC0F8009011D9C56891F8F6
:1054000007C02C40C460C5680CFA02F401332C4379
:10541000102BC46002F10202D0D1BDE8F007704742
:10542000D0F808A091F8059091F806C004EA0A0A9D
:10543000C0F808A0D0F808A009FA02F949EA0A0958
:10544000C0F80890D0F8049029EA05054560456841
:105450000CFA03FC1FFA8CFC4CEA05054560CDE70D
:10546000024B1A6A22EA00001862704700380240B4
:1054700030B50F4B0F4A196B52F820200E4C0F4DD0
:1054800083B00A431A6335F8105054F82000009591
:1054900001230222002469468DF804308DF807307C
:1054A0008DF806408DF80520FFF77AFF03B030BD78
:1054B00000380240CCD80008E4D80008DCD8000846
:1054C000FEE700BFF0B400EB81024FF0FF33D2F8EB
:1054D00090404D01A3604219C37892F8B163012B4B
:1054E00014BF002204220023032E13D8DFE806F0A5
:1054F00002500244461906F56A76B77942F493627F
:1055000042F00102002F40D1367A42F040020EB143
:1055100042F020024669E260B769C2684FF0010CB0
:105520000CFA01F13943B1619169284441F00071ED
:10553000916190F8ACC390F8AF5390F8AD7390F8C8
:10554000AE6390F8B123B0F8B213023D6CF39C53F4
:10555000684267F3CE23684166F3CF3360F351436B
:1055600062F3934361F30A03032A08BF43F0005335
:1055700023600020F0BC7047461942F4D36296F8CD
:10558000AE6342F00102002EC4D042F48072C1E743
:10559000461942F4087296F8AE6342F00102002EFA
:1055A000B8D042F4C072B5E72DE9F04791F8433026
:1055B000974E0522012B0C460546327005D0A36E8E
:1055C0001B6C98470120BDE8F08791F84430032B0D
:1055D000F5D191F84A30B1F84C2019064CBF86F845
:1055E000443086F8433094F852304CBFA6F8462039
:1055F000A6F848201A0600F1BC80B4F854E096F8EA
:10560000447086F84330A6F848E0B5F98C050028C8
:1056100080F2C680B5F98E25002A80F2D280B5F9D5
:105620009025002A80F2D380B5F99225002A80F2D5
:10563000D480B5F99425002A80F2D580B5F9962555
:10564000002A80F2D680B5F99825002A80F2D7800A
:10565000B5F99A25002A80F2D880FF221146002849
:1056600086F8421080F29180B5F98E35002B80F2D9
:10567000A580B5F99035002B80F2A680B5F992355A
:10568000002B80F2A780B5F99435002B80F2A8801A
:10569000B5F99635002B80F2A980B5F99835002B25
:1056A00080F2AA80B5F99A35002BB8BFFF2080F2AE
:1056B000A98005EB420386F84100B3F88C7594F895
:1056C000210094F8208005EB421207F07F0AC7F30F
:1056D000C0194FF0020C002702F56A7382F8ADA3DF
:1056E00082F8AE9382F8AC83A2F8B2E382F8AF03FB
:1056F00082F8B1C382F8C47382F8C57308B9012275
:105700001A722846FFF7DEFE96F8411094F8212021
:1057100094F820C0B6F8467005EB410005EB411344
:10572000B0F88C4583F8ACC3184604F07F09C4F385
:10573000C0184FF0020E002483F8AD9383F8AE83B7
:1057400083F8AF2383F8B1E3A3F8B27303F56A7368
:1057500080F8C44380F8C5430AB901221A7228466A
:10576000FFF7B0FE2B4A0020032310703370BDE812
:10577000F087B4F8542086F844301F46A6F8462037
:10578000B6F848E096F843303FE7002003466FEA5A
:10579000474705EB43036FEA5747A3F88C7588E743
:1057A0000022114605EB41016FEA43436FEA534380
:1057B000A1F88C35B5F98C05114650E70120034658
:1057C000E5E701221146EDE702200346DFE702226A
:1057D0001146E7E703200346D9E703221146E1E734
:1057E00004200346D3E704221146DBE705200346E5
:1057F000CDE705221146D5E706200346C7E7062276
:105800001146CFE707200346C1E707221146C9E743
:10581000304D0120804D012030B583B00023124C63
:10582000124D019303200221FFF7E6F9EB68013CDA
:105830001A69019214D0019A002AF3DA01990A4AEE
:1058400041F0010101910199196119690191013A30
:1058500002D00199C907F8D403200221FFF7CCF93F
:10586000002003B030BD00BF410D03008C4D01206E
:10587000024B5A6A22EA0000586270470038024020
:10588000024B1A6B22EA000018637047003802408E
:1058900030B50F4B0F4D1A6B83B042F004021A6300
:1058A000012400230222284669468DF805208DF840
:1058B00006308DF8073000948DF80440FFF770FD36
:1058C0002C832146C820FFF797F903B030BD00BFF5
:1058D00000380240000802402DE9F04F2DED048B06
:1058E000D0F8103389B093B18C4C2378032B14D0AB
:1058F000042B0CD194F84120831893F89B53012D6D
:1059000040F2948093F89B33042B00F0CF8000206A
:1059100009B0BDEC048BBDE8F08F94F84120804BBA
:1059200056019D1903EB421002F11508B5F8B2C3F8
:1059300090F8C40300954FF0400903EB481709F1B4
:10594000FF3A01974FF0010B85F8AEB30028DDF860
:1059500004B0744FCBF81871E24418BF0220BAFBB0
:10596000FCFAC5F8BC9349468BF814011FFA8AFA71
:10597000009803EB02090025BAF5807FC0F8C053F8
:1059800089F89B53284648D8CAF3090C9D1995F805
:10599000AE93B9F1000F05D0B5F8B21301FB0AF1CF
:1059A000C5F8BC1303EB481703EB820597F814A165
:1059B00093F80390D5F8905061F312006CF3DC403B
:1059C0006AF35E70B9F1010F286108BFD7F81801BA
:1059D0005F6908BF68612868D7F808C0DFF84091A0
:1059E0000CF0010C8CF0010C6CF35D7040F0004089
:1059F0006FF39E702860D87800283ED14E4406F59B
:105A00006A76B079002838D1002936D0707A032818
:105A100020D8DFE800F03D123D12009D4FEA0C2136
:105A20004FF4807CC5F8BC13E246AFE794F85030E1
:105A3000012B5FD00323237069E738690390CD1CE5
:105A400080B2C5F38F05A84204D2D868856945F0B5
:105A50008065856189B203EB4818033103EB82034B
:105A60008910D8F81801D3F8D05006D0002301339C
:105A700050F8042B2A609942F9D101220423002016
:105A800084F85020237009B0BDEC048BBDE8F08F82
:105A9000DD68E86A0590CE1C80B2C6F38F06B0427E
:105AA000D8D2A86940F02000A861D3E794F8445008
:105AB0000D831E3200EB421000232A064FF002072E
:105AC0004FF00106CB824B830F754E754CBF0371AF
:105AD0004371CB78012B15D0022B7FF418AF0B7FCD
